{"contracts/MasterChef.sol":{"MasterChef":{"abi":[{"inputs":[{"internalType":"address","name":"_rewardToken","type":"address"},{"internalType":"uint256","name":"_rewardPerBlock","type":"uint256"}],"stateMutability":"nonpayable","type":"constructor"},{"anonymous":false,"inputs":[{"indexed":true,"internalType":"address","name":"user","type":"address"},{"indexed":true,"internalType":"uint256","name":"pid","type":"uint256"},{"indexed":false,"internalType":"uint256","name":"amount","type":"uint256"}],"name":"Deposit","type":"event"},{"anonymous":false,"inputs":[{"indexed":false,"internalType":"uint256","name":"interval","type":"uint256"}],"name":"EarlyHarvestCommissionIntervalSet","type":"event"},{"anonymous":false,"inputs":[{"indexed":false,"internalType":"uint256","name":"percents","type":"uint256"}],"name":"EarlyHarvestCommissionSet","type":"event"},{"anonymous":false,"inputs":[{"indexed":true,"internalType":"address","name":"user","type":"address"},{"indexed":true,"internalType":"uint256","name":"pid","type":"uint256"},{"indexed":false,"internalType":"uint256","name":"amount","type":"uint256"}],"name":"EmergencyWithdraw","type":"event"},{"anonymous":false,"inputs":[{"indexed":true,"internalType":"address","name":"user","type":"address"},{"indexed":true,"internalType":"uint256","name":"pid","type":"uint256"},{"indexed":false,"internalType":"uint256","name":"amount","type":"uint256"}],"name":"Harvest","type":"event"},{"anonymous":false,"inputs":[{"indexed":false,"internalType":"uint256","name":"interval","type":"uint256"}],"name":"HarvestIntervalSet","type":"event"},{"anonymous":false,"inputs":[{"indexed":true,"internalType":"address","name":"previousOwner","type":"address"},{"indexed":true,"internalType":"address","name":"newOwner","type":"address"}],"name":"OwnershipTransferred","type":"event"},{"anonymous":false,"inputs":[{"indexed":true,"internalType":"uint256","name":"pid","type":"uint256"},{"indexed":true,"internalType":"address","name":"pairToken","type":"address"},{"indexed":false,"internalType":"uint256","name":"allocPoint","type":"uint256"}],"name":"PoolAdded","type":"event"},{"anonymous":false,"inputs":[{"indexed":true,"internalType":"uint256","name":"pid","type":"uint256"},{"indexed":false,"internalType":"uint256","name":"allocPoint","type":"uint256"}],"name":"PoolAllocPointSet","type":"event"},{"anonymous":false,"inputs":[{"indexed":false,"internalType":"uint256","name":"percents","type":"uint256"}],"name":"ReferralPercentSet","type":"event"},{"anonymous":false,"inputs":[{"indexed":true,"internalType":"address","name":"referral","type":"address"},{"indexed":false,"internalType":"uint256","name":"amount","type":"uint256"}],"name":"ReferralRewardPaid","type":"event"},{"anonymous":false,"inputs":[{"indexed":false,"internalType":"uint256","name":"rewardPerBlock","type":"uint256"}],"name":"RewardPerBlockSet","type":"event"},{"anonymous":false,"inputs":[{"indexed":false,"internalType":"uint256","name":"totalAllocPoint","type":"uint256"}],"name":"TotalAllocPointUpdated","type":"event"},{"anonymous":false,"inputs":[{"indexed":true,"internalType":"address","name":"user","type":"address"},{"indexed":true,"internalType":"uint256","name":"pid","type":"uint256"},{"indexed":false,"internalType":"uint256","name":"amount","type":"uint256"}],"name":"Withdraw","type":"event"},{"inputs":[{"internalType":"uint256","name":"_allocPoint","type":"uint256"},{"internalType":"address","name":"_pairToken","type":"address"},{"internalType":"bool","name":"_withUpdate","type":"bool"}],"name":"add","outputs":[],"stateMutability":"nonpayable","type":"function"},{"inputs":[{"internalType":"address","name":"_pairAddress","type":"address"},{"internalType":"uint256","name":"_amount","type":"uint256"},{"internalType":"address","name":"_referral","type":"address"}],"name":"deposit","outputs":[],"stateMutability":"nonpayable","type":"function"},{"inputs":[{"internalType":"address","name":"_pairAddress","type":"address"},{"internalType":"uint256","name":"_amount","type":"uint256"}],"name":"depositWithoutRefer","outputs":[],"stateMutability":"nonpayable","type":"function"},{"inputs":[],"name":"earlyHarvestCommission","outputs":[{"internalType":"uint256","name":"","type":"uint256"}],"stateMutability":"view","type":"function"},{"inputs":[],"name":"earlyHarvestCommissionInterval","outputs":[{"internalType":"uint256","name":"","type":"uint256"}],"stateMutability":"view","type":"function"},{"inputs":[{"internalType":"address","name":"_pairAddress","type":"address"}],"name":"emergencyWithdraw","outputs":[],"stateMutability":"nonpayable","type":"function"},{"inputs":[],"name":"getNarfexLeft","outputs":[{"internalType":"uint256","name":"","type":"uint256"}],"stateMutability":"view","type":"function"},{"inputs":[{"internalType":"address","name":"_pairAddress","type":"address"},{"internalType":"address","name":"_user","type":"address"}],"name":"getPoolUserData","outputs":[{"internalType":"uint256","name":"balance","type":"uint256"},{"internalType":"uint256","name":"userPool","type":"uint256"},{"internalType":"uint256","name":"reward","type":"uint256"}],"stateMutability":"view","type":"function"},{"inputs":[],"name":"getPoolsCount","outputs":[{"internalType":"uint256","name":"","type":"uint256"}],"stateMutability":"view","type":"function"},{"inputs":[],"name":"getSettings","outputs":[{"internalType":"uint256","name":"uintRewardPerBlock","type":"uint256"},{"internalType":"uint256","name":"uintEarlyHarvestCommissionInterval","type":"uint256"},{"internalType":"uint256","name":"uintHarvestInterval","type":"uint256"},{"internalType":"uint256","name":"uintEarlyHarvestCommission","type":"uint256"},{"internalType":"uint256","name":"uintReferralPercent","type":"uint256"}],"stateMutability":"view","type":"function"},{"inputs":[{"internalType":"address","name":"_pairAddress","type":"address"},{"internalType":"address","name":"_user","type":"address"}],"name":"getUserPoolSize","outputs":[{"internalType":"uint256","name":"","type":"uint256"}],"stateMutability":"view","type":"function"},{"inputs":[{"internalType":"address","name":"_pairAddress","type":"address"},{"internalType":"address","name":"_user","type":"address"}],"name":"getUserReward","outputs":[{"internalType":"uint256","name":"","type":"uint256"}],"stateMutability":"view","type":"function"},{"inputs":[{"internalType":"address","name":"_pairAddress","type":"address"}],"name":"harvest","outputs":[],"stateMutability":"nonpayable","type":"function"},{"inputs":[],"name":"harvestInterval","outputs":[{"internalType":"uint256","name":"","type":"uint256"}],"stateMutability":"view","type":"function"},{"inputs":[],"name":"massUpdatePools","outputs":[],"stateMutability":"nonpayable","type":"function"},{"inputs":[],"name":"owner","outputs":[{"internalType":"address","name":"","type":"address"}],"stateMutability":"view","type":"function"},{"inputs":[{"internalType":"address","name":"","type":"address"}],"name":"poolId","outputs":[{"internalType":"uint256","name":"","type":"uint256"}],"stateMutability":"view","type":"function"},{"inputs":[{"internalType":"uint256","name":"","type":"uint256"}],"name":"poolInfo","outputs":[{"internalType":"contract IERC20","name":"pairToken","type":"address"},{"internalType":"uint256","name":"allocPoint","type":"uint256"},{"internalType":"uint256","name":"lastRewardBlock","type":"uint256"},{"internalType":"uint256","name":"accRewardPerShare","type":"uint256"}],"stateMutability":"view","type":"function"},{"inputs":[],"name":"referralPercent","outputs":[{"internalType":"uint256","name":"","type":"uint256"}],"stateMutability":"view","type":"function"},{"inputs":[],"name":"renounceOwnership","outputs":[],"stateMutability":"nonpayable","type":"function"},{"inputs":[],"name":"rewardPerBlock","outputs":[{"internalType":"uint256","name":"","type":"uint256"}],"stateMutability":"view","type":"function"},{"inputs":[],"name":"rewardToken","outputs":[{"internalType":"contract IERC20","name":"","type":"address"}],"stateMutability":"view","type":"function"},{"inputs":[{"internalType":"uint256","name":"_pid","type":"uint256"},{"internalType":"uint256","name":"_allocPoint","type":"uint256"},{"internalType":"bool","name":"_withUpdate","type":"bool"}],"name":"set","outputs":[],"stateMutability":"nonpayable","type":"function"},{"inputs":[{"internalType":"uint256","name":"percents","type":"uint256"}],"name":"setEarlyHarvestCommission","outputs":[],"stateMutability":"nonpayable","type":"function"},{"inputs":[{"internalType":"uint256","name":"interval","type":"uint256"}],"name":"setEarlyHarvestCommissionInterval","outputs":[],"stateMutability":"nonpayable","type":"function"},{"inputs":[{"internalType":"uint256","name":"interval","type":"uint256"}],"name":"setHarvestInterval","outputs":[],"stateMutability":"nonpayable","type":"function"},{"inputs":[{"internalType":"uint256","name":"percents","type":"uint256"}],"name":"setReferralPercent","outputs":[],"stateMutability":"nonpayable","type":"function"},{"inputs":[{"internalType":"uint256","name":"_amount","type":"uint256"},{"internalType":"bool","name":"_withUpdate","type":"bool"}],"name":"setRewardPerBlock","outputs":[],"stateMutability":"nonpayable","type":"function"},{"inputs":[],"name":"startBlock","outputs":[{"internalType":"uint256","name":"","type":"uint256"}],"stateMutability":"view","type":"function"},{"inputs":[],"name":"totalAllocPoint","outputs":[{"internalType":"uint256","name":"","type":"uint256"}],"stateMutability":"view","type":"function"},{"inputs":[{"internalType":"address","name":"newOwner","type":"address"}],"name":"transferOwnership","outputs":[],"stateMutability":"nonpayable","type":"function"},{"inputs":[{"internalType":"uint256","name":"_pid","type":"uint256"}],"name":"updatePool","outputs":[],"stateMutability":"nonpayable","type":"function"},{"inputs":[{"internalType":"uint256","name":"","type":"uint256"},{"internalType":"address","name":"","type":"address"}],"name":"userInfo","outputs":[{"internalType":"uint256","name":"amount","type":"uint256"},{"internalType":"uint256","name":"withdrawnReward","type":"uint256"},{"internalType":"uint256","name":"depositTimestamp","type":"uint256"},{"internalType":"uint256","name":"harvestTimestamp","type":"uint256"},{"internalType":"uint256","name":"storedReward","type":"uint256"}],"stateMutability":"view","type":"function"},{"inputs":[{"internalType":"address","name":"_pairAddress","type":"address"},{"internalType":"uint256","name":"_amount","type":"uint256"}],"name":"withdraw","outputs":[],"stateMutability":"nonpayable","type":"function"},{"inputs":[{"internalType":"uint256","name":"_amount","type":"uint256"}],"name":"withdrawNarfex","outputs":[],"stateMutability":"nonpayable","type":"function"}],"evm":{"bytecode":{"linkReferences":{},"object":"60c0604052621275006002556170806003556103e8600455603c6005556000600b553480156200002e57600080fd5b5060405162004a0538038062004a0583398181016040528101906200005491906200031d565b6200007462000068620001a960201b60201c565b620001b160201b60201c565b600180819055506200009767c1b491b49cf1cce960c01b6200027560201b60201c565b620000b36708bd640bfeb5676e60c01b6200027560201b60201c565b8173ffffffffffffffffffffffffffffffffffffffff1660808173ffffffffffffffffffffffffffffffffffffffff168152505062000103674be19219a7df32cd60c01b6200027560201b60201c565b8060068190555062000126673dd2c3624bd19a6760c01b6200027560201b60201c565b6200014267281f392166fb951b60c01b6200027560201b60201c565b7f5d7c78d0ee3ce6196f90e74ed58c0ada9ac7ccc47d3aca0547ac893776f0382660065460405162000175919062000375565b60405180910390a162000199671db745186bedf09f60c01b6200027560201b60201c565b4360a08181525050505062000392565b600033905090565b60008060009054906101000a900473ffffffffffffffffffffffffffffffffffffffff169050816000806101000a81548173ffffffffffffffffffffffffffffffffffffffff021916908373ffffffffffffffffffffffffffffffffffffffff1602179055508173ffffffffffffffffffffffffffffffffffffffff168173ffffffffffffffffffffffffffffffffffffffff167f8be0079c531659141344cd1fd0a4f28419497f9722a3daafe3b4186f6b6457e060405160405180910390a35050565b50565b600080fd5b600073ffffffffffffffffffffffffffffffffffffffff82169050919050565b6000620002aa826200027d565b9050919050565b620002bc816200029d565b8114620002c857600080fd5b50565b600081519050620002dc81620002b1565b92915050565b6000819050919050565b620002f781620002e2565b81146200030357600080fd5b50565b6000815190506200031781620002ec565b92915050565b6000806040838503121562000337576200033662000278565b5b60006200034785828601620002cb565b92505060206200035a8582860162000306565b9150509250929050565b6200036f81620002e2565b82525050565b60006020820190506200038c600083018462000364565b92915050565b60805160a051614631620003d460003960008181610b3201528181610b90015261120a01526000818161211f01528181612cb90152612df701526146316000f3fe608060405234801561001057600080fd5b50600436106102115760003560e01c80636ff1c9bc11610125578063c3e2c56b116100ad578063f3fef3a31161007c578063f3fef3a3146105c1578063f45346dc146105dd578063f7c618c1146105f9578063f84b94e114610617578063ff51a2721461063357610211565b8063c3e2c56b1461054d578063d6be9b6714610569578063da0bb03a14610587578063f2fde38b146105a557610211565b806385b4bb53116100f457806385b4bb531461049d5780638ae39cac146104bf5780638da5cb5b146104dd57806393f1a40b146104fb578063b4ac68601461052f57610211565b80636ff1c9bc1461043d578063715018a61461045957806373b934211461046357806381505c051461048157610211565b8063343dfb7e116101a857806351eb05a61161017757806351eb05a6146103af5780635ab764ed146103cb5780636129f25f146103fb578063630b5ba11461041757806364482f791461042157610211565b8063343dfb7e1461033b57806338d7aae1146103595780634146cae91461037557806348cd4cb11461039157610211565b806317caf6f1116101e457806317caf6f1146102b35780631eaaa045146102d157806320fc0fc6146102ed578063242952b61461031f57610211565b80630e5c011e146102165780630e95ec241461023257806314dc0ce0146102625780631526fe2714610280575b600080fd5b610230600480360381019061022b9190613a6f565b610663565b005b61024c60048036038101906102479190613a9c565b610893565b6040516102599190613af5565b60405180910390f35b61026a61099a565b6040516102779190613af5565b60405180910390f35b61029a60048036038101906102959190613b3c565b6109a0565b6040516102aa9493929190613bc8565b60405180910390f35b6102bb610a00565b6040516102c89190613af5565b60405180910390f35b6102eb60048036038101906102e69190613c45565b610a06565b005b61030760048036038101906103029190613a9c565b610e60565b60405161031693929190613c98565b60405180910390f35b61033960048036038101906103349190613b3c565b610fc5565b005b6103436110be565b6040516103509190613af5565b60405180910390f35b610373600480360381019061036e9190613b3c565b6110c4565b005b61038f600480360381019061038a9190613ccf565b6111bd565b005b610399611208565b6040516103a69190613af5565b60405180910390f35b6103c960048036038101906103c49190613b3c565b61122c565b005b6103e560048036038101906103e09190613a9c565b6112ac565b6040516103f29190613af5565b60405180910390f35b61041560048036038101906104109190613b3c565b6116a6565b005b61041f61179f565b005b61043b60048036038101906104369190613d0f565b61181d565b005b61045760048036038101906104529190613a6f565b611a81565b005b610461611d21565b005b61046b611d35565b6040516104789190613af5565b60405180910390f35b61049b60048036038101906104969190613d62565b611d3b565b005b6104a5611ec1565b6040516104b6959493929190613da2565b60405180910390f35b6104c7611f25565b6040516104d49190613af5565b60405180910390f35b6104e5611f2b565b6040516104f29190613e04565b60405180910390f35b61051560048036038101906105109190613e1f565b611f54565b604051610526959493929190613da2565b60405180910390f35b610537611f97565b6040516105449190613af5565b60405180910390f35b61056760048036038101906105629190613b3c565b611fe0565b005b6105716120d9565b60405161057e9190613af5565b60405180910390f35b61058f6120df565b60405161059c9190613af5565b60405180910390f35b6105bf60048036038101906105ba9190613a6f565b6121bc565b005b6105db60048036038101906105d69190613ccf565b61223f565b005b6105f760048036038101906105f29190613e5f565b612683565b005b610601612cb7565b60405161060e9190613eb2565b60405180910390f35b610631600480360381019061062c9190613b3c565b612cdb565b005b61064d60048036038101906106489190613a6f565b612e47565b60405161065a9190613af5565b60405180910390f35b61067767a847d8e59a3ebee460c01b612e5f565b61068b67debb670bbf16993b60c01b612e5f565b61069f67b1d01e2d0529eb0060c01b612e5f565b6000600960008373ffffffffffffffffffffffffffffffffffffffff1673ffffffffffffffffffffffffffffffffffffffff1681526020019081526020016000205490506106f767c4be7f78e71eced460c01b612e5f565b61070b678c78ba1a685aa60560c01b612e5f565b60006007828154811061072157610720613ecd565b5b9060005260206000209060040201905061074567e67310ab38f9320c60c01b612e5f565b61075967920edfb2bde247bd60c01b612e5f565b60006008600084815260200190815260200160002060003373ffffffffffffffffffffffffffffffffffffffff1673ffffffffffffffffffffffffffffffffffffffff16815260200190815260200160002090506107c167d616fcabd63a78a760c01b612e5f565b6107d5673fa1823154e0df4f60c01b612e5f565b6107de83612e62565b6107f267cd9867b0de94625960c01b612e5f565b61080667f42aff7ea8cf6a6560c01b612e5f565b60008160040154826001015464e8d4a510008560030154856000015461082c9190613f2b565b6108369190613f9c565b6108409190613fcd565b61084a9190614001565b90506108606749f4c78bda1f030660c01b612e5f565b64e8d4a510008360030154836000015461087a9190613f2b565b6108849190613f9c565b82600101819055505050505050565b60006108a96795d84f3380b03c1260c01b612e5f565b6108bd674bee0fb37080f08f60c01b612e5f565b6108d167978ca801046e9f5060c01b612e5f565b6000600960008573ffffffffffffffffffffffffffffffffffffffff1673ffffffffffffffffffffffffffffffffffffffff1681526020019081526020016000205490506109296789f9833fbe4ac84a60c01b612e5f565b61093d6752b089cf1ee2559860c01b612e5f565b6008600082815260200190815260200160002060008473ffffffffffffffffffffffffffffffffffffffff1673ffffffffffffffffffffffffffffffffffffffff1681526020019081526020016000206000015491505092915050565b60035481565b600781815481106109b057600080fd5b90600052602060002090600402016000915090508060000160009054906101000a900473ffffffffffffffffffffffffffffffffffffffff16908060010154908060020154908060030154905084565b600b5481565b610a1a672dc974e2d60f89f260c01b612e5f565b610a226131bc565b610a366743c3bce3bb7496b560c01b612e5f565b610a4a67bb8f8497318d0e3d60c01b612e5f565b610a5261323a565b610a6667ae567d679230a42960c01b612e5f565b610a7a67231903aa41b6f88660c01b612e5f565b610a8e6799626a9d715de5d660c01b612e5f565b610aa26705447c95fff3fa2160c01b612e5f565b8015610af157610abc6708f5184bd1c8ee3360c01b612e5f565b610ad0678241f3001c298c3660c01b612e5f565b610ae467fabe2b6d0862d28860c01b612e5f565b610aec613289565b610b06565b610b05679508ef280b504b3260c01b612e5f565b5b610b1a67f75372a36517e22a60c01b612e5f565b610b2e67811056bc087889ee60c01b612e5f565b60007f000000000000000000000000000000000000000000000000000000000000000043118015610b6f5750610b6e67e72ba7a58a2cd1a460c01b613356565b5b80610b8a5750610b89678b340239b1281e0160c01b613361565b5b610bb4577f0000000000000000000000000000000000000000000000000000000000000000610bb6565b435b9050610bcc677c077e0a5bdb957a60c01b612e5f565b83600b54610bda9190614001565b600b81905550610bf4679dc48e1f765b79a260c01b612e5f565b610c08676f0aa18da6ba198760c01b612e5f565b7ff6b83c7584863d40ea9ce49856d7b6ac07e575a8b81b422c1212e7cbc0f3a811600b54604051610c399190613af5565b60405180910390a1610c55679e9e3b4ac358f28960c01b612e5f565b610c696787f5914762ce7e8160c01b612e5f565b600760405180608001604052808573ffffffffffffffffffffffffffffffffffffffff1681526020018681526020018381526020016000815250908060018154018082558091505060019003906000526020600020906004020160009091909190915060008201518160000160006101000a81548173ffffffffffffffffffffffffffffffffffffffff021916908373ffffffffffffffffffffffffffffffffffffffff1602179055506020820151816001015560408201518160020155606082015181600301555050610d47677050a26d5274581360c01b612e5f565b6001600780549050610d599190613fcd565b600960008573ffffffffffffffffffffffffffffffffffffffff1673ffffffffffffffffffffffffffffffffffffffff16815260200190815260200160002081905550610db06757a2aff0eb92e0e760c01b612e5f565b610dc467cea974032651dc7760c01b612e5f565b8273ffffffffffffffffffffffffffffffffffffffff16600960008573ffffffffffffffffffffffffffffffffffffffff1673ffffffffffffffffffffffffffffffffffffffff168152602001908152602001600020547f6c5d0ef1d0199b6de41ecbce95f59643be4d723ca363faf92d756e61e82fb13e86604051610e4a9190613af5565b60405180910390a350610e5b613368565b505050565b6000806000610e796742d4e28d36e3ccd760c01b612e5f565b610e8d677bb71160451c068360c01b612e5f565b610ea167920b55ea75ea9a3a60c01b612e5f565b8473ffffffffffffffffffffffffffffffffffffffff166370a08231856040518263ffffffff1660e01b8152600401610eda9190613e04565b602060405180830381865afa158015610ef7573d6000803e3d6000fd5b505050506040513d601f19601f82011682018060405250810190610f1b919061404a565b60086000600960008973ffffffffffffffffffffffffffffffffffffffff1673ffffffffffffffffffffffffffffffffffffffff16815260200190815260200160002054815260200190815260200160002060008673ffffffffffffffffffffffffffffffffffffffff1673ffffffffffffffffffffffffffffffffffffffff16815260200190815260200160002060000154610fb887876112ac565b9250925092509250925092565b610fd9675c9f05ac6cbb7b2960c01b612e5f565b610fe16131bc565b610ff5676490691e618fde2e60c01b612e5f565b61100967e91b503bd9b5f1df60c01b612e5f565b61101161323a565b611025673a5d638edfb0850660c01b612e5f565b611039671f84ce3f612bf6f860c01b612e5f565b61104d67bf87743e7484245360c01b612e5f565b806004819055506110686789831fa94d076eed60c01b612e5f565b61107c6718d00a736527e4b060c01b612e5f565b7feedd3cf2d0c360fa60f6be27c8f4ae71800a35e2676b4419d1b114647122aa2a816040516110ab9190613af5565b60405180910390a16110bb613368565b50565b60055481565b6110d867e4a843b3750ec04760c01b612e5f565b6110e06131bc565b6110f4671e451046a415801060c01b612e5f565b611108675396ac31d720781c60c01b612e5f565b61111061323a565b611124670841445dab962a5460c01b612e5f565b611138670596b1c0f8cf822960c01b612e5f565b61114c6775637fbda651ccd060c01b612e5f565b8060038190555061116767dd76b4a4fa231ee860c01b612e5f565b61117b6797a2e01e6fd62e1860c01b612e5f565b7f722d2d49511ef6cd9f1f09ed54af16cf76e60f362c91ff351fb510d9bdf85efc816040516111aa9190613af5565b60405180910390a16111ba613368565b50565b6111d167ed99614e642a1d9060c01b612e5f565b6111e567dc70fdc5e984fcac60c01b612e5f565b6111f8662861ea3b13f12360c01b612e5f565b61120482826000612683565b5050565b7f000000000000000000000000000000000000000000000000000000000000000081565b61124067cd99c6b68229dec160c01b612e5f565b61124861323a565b61125c676a1c05c450e9dd2e60c01b612e5f565b611270676cee1182bbac040960c01b612e5f565b611284678879df65a574e08960c01b612e5f565b611298671411ca53e807c27160c01b612e5f565b6112a181612e62565b6112a9613368565b50565b60006112c2679dafe529af3e586460c01b612e5f565b6112d6677a4d6f235453ca2e60c01b612e5f565b6112ea67325372def83d6b7860c01b612e5f565b6000600960008573ffffffffffffffffffffffffffffffffffffffff1673ffffffffffffffffffffffffffffffffffffffff1681526020019081526020016000205490506113426792ee52a2797320aa60c01b612e5f565b611356674da1483a63426cd060c01b612e5f565b60006007828154811061136c5761136b613ecd565b5b90600052602060002090600402019050611390674da648b79e11645b60c01b612e5f565b6113a4678d94706b419e124760c01b612e5f565b60006008600084815260200190815260200160002060008673ffffffffffffffffffffffffffffffffffffffff1673ffffffffffffffffffffffffffffffffffffffff168152602001908152602001600020905061140c670a1de4331187dd2e60c01b612e5f565b611420673fb8f82c340f79db60c01b612e5f565b60008260030154905061143d67fc50afb4fbf0e34260c01b612e5f565b61145167aeadb655431d738960c01b612e5f565b60008360000160009054906101000a900473ffffffffffffffffffffffffffffffffffffffff1673ffffffffffffffffffffffffffffffffffffffff166370a08231306040518263ffffffff1660e01b81526004016114b09190613e04565b602060405180830381865afa1580156114cd573d6000803e3d6000fd5b505050506040513d601f19601f820116820180604052508101906114f1919061404a565b905061150767e34e176361d0043760c01b612e5f565b61151b6762b205fdc9b00c0a60c01b612e5f565b83600201544311801561152f575060008114155b1561161e5761154867bc63951beeb73f4760c01b612e5f565b61155c67aae529702071ef1a60c01b612e5f565b61157067853c29274f832e7960c01b612e5f565b60008460020154436115829190613fcd565b9050611598673ee77e2a9aa3e77b60c01b612e5f565b6115ac67773342edcf59b93b60c01b612e5f565b6000600b548660010154600654846115c49190613f2b565b6115ce9190613f2b565b6115d89190613f9c565b90506115ee673e7e73963d5c178360c01b612e5f565b8264e8d4a51000826116009190613f2b565b61160a9190613f9c565b846116159190614001565b93505050611633565b611632672bea92b4db51f9f660c01b612e5f565b5b6116476793dca64f82ca7b5d60c01b612e5f565b61165b6795678a300a33460b60c01b612e5f565b8260040154836001015464e8d4a5100084866000015461167b9190613f2b565b6116859190613f9c565b61168f9190613fcd565b6116999190614001565b9550505050505092915050565b6116ba679e98902a798616e260c01b612e5f565b6116c26131bc565b6116d6673e0fbb65d675e93360c01b612e5f565b6116ea672122765afb0007dc60c01b612e5f565b6116f261323a565b611706672c53b410c682ebc460c01b612e5f565b61171a6714dda57857268ba860c01b612e5f565b61172e673b41e17ac01f29c160c01b612e5f565b8060058190555061174967aad0cf5ec9adb9c360c01b612e5f565b61175d678135973c48c0e5b860c01b612e5f565b7f22764535b528e8ec691fd4f74e734bd74710f85776bd0b90e1eaf9acf6dd06c88160405161178c9190613af5565b60405180910390a161179c613368565b50565b6117b367b2271eb4e51bc22160c01b612e5f565b6117bb61323a565b6117cf6703c44097303c928660c01b612e5f565b6117e36707542d3243c7540760c01b612e5f565b6117f7670cd93a234d1b89fb60c01b612e5f565b61180b67ae9c85dc3f5a3f5960c01b612e5f565b611813613289565b61181b613368565b565b61183167c1f3cef14e9816fa60c01b612e5f565b6118396131bc565b61184d676b29dd0ee2b9297860c01b612e5f565b611861671d0e676c1574fc7f60c01b612e5f565b61186961323a565b61187d67790642e6431331de60c01b612e5f565b61189167ee3ba04eab7ed6fb60c01b612e5f565b6118a56770fabe4a7997a1fc60c01b612e5f565b6118b96733301068da0c36d660c01b612e5f565b8015611908576118d3675ee5a0f5f712728b60c01b612e5f565b6118e767666ed4e70549c1c160c01b612e5f565b6118fb67ee1456121ae594b960c01b612e5f565b611903613289565b61191d565b61191c673275adf013088b1660c01b612e5f565b5b611931675bf28dd89655264160c01b612e5f565b6007838154811061194557611944613ecd565b5b90600052602060002090600402016001015482600b546119659190614001565b61196f9190613fcd565b600b81905550611989677ad2f727cc7c0a9e60c01b612e5f565b61199d67734ac90deca6987860c01b612e5f565b7ff6b83c7584863d40ea9ce49856d7b6ac07e575a8b81b422c1212e7cbc0f3a811600b546040516119ce9190613af5565b60405180910390a16119ea6715e7e1e86b11801e60c01b612e5f565b81600784815481106119ff576119fe613ecd565b5b906000526020600020906004020160010181905550611a2867683b46548702951c60c01b612e5f565b611a3c675ff1985a74050a0160c01b612e5f565b827f144685f4a2c1908fdcb1c5450bfadd3b08aa5071d5df19d1a9b54c0de1d061b083604051611a6c9190613af5565b60405180910390a2611a7c613368565b505050565b611a9567b5274e2833c1adb660c01b612e5f565b611aa96748b8675637770e0d60c01b612e5f565b611abd677448ff5bd108c4a760c01b612e5f565b6000600960008373ffffffffffffffffffffffffffffffffffffffff1673ffffffffffffffffffffffffffffffffffffffff168152602001908152602001600020549050611b1567b1bd12800f960af760c01b612e5f565b611b29675b8ce6194d61c4b760c01b612e5f565b600060078281548110611b3f57611b3e613ecd565b5b90600052602060002090600402019050611b6367399cc2d468fa4fed60c01b612e5f565b611b77672634ae0e6bb74e2a60c01b612e5f565b60006008600084815260200190815260200160002060003373ffffffffffffffffffffffffffffffffffffffff1673ffffffffffffffffffffffffffffffffffffffff1681526020019081526020016000209050611bdf67868afbbf88470b8c60c01b612e5f565b611bf367cce81778f004958a60c01b612e5f565b611c463382600001548460000160009054906101000a900473ffffffffffffffffffffffffffffffffffffffff1673ffffffffffffffffffffffffffffffffffffffff166133719092919063ffffffff16565b611c5a6746b2b052f2d0cb3860c01b612e5f565b611c6e671b8d34b9ef1f41d760c01b612e5f565b823373ffffffffffffffffffffffffffffffffffffffff167fbb757047c2b5f3974fe26b7c10f732e7bce710b0952a71082702781e62ae05958360000154604051611cb99190613af5565b60405180910390a3611cd5678758cca99e2404c560c01b612e5f565b60008160000181905550611cf36724b60bf849e9287f60c01b612e5f565b60008160010181905550611d116768461d8205d657b660c01b612e5f565b6000816004018190555050505050565b611d296131bc565b611d3360006133f7565b565b60045481565b611d4f6745279ee75a6851d560c01b612e5f565b611d576131bc565b611d6b67b5a82a795e43197260c01b612e5f565b611d7f67e63b1c29aeb466b260c01b612e5f565b611d8761323a565b611d9b671197069457665e7f60c01b612e5f565b611daf675787c0a6eb88a1f360c01b612e5f565b611dc367754459856d6acf4c60c01b612e5f565b611dd767d3c9578e39175b2660c01b612e5f565b8015611e2657611df167f198fc52b06a689360c01b612e5f565b611e056770fc406343ad801860c01b612e5f565b611e19676c60edc0901d221160c01b612e5f565b611e21613289565b611e3b565b611e3a67f5bd5ad74b8e18fe60c01b612e5f565b5b611e4f67eb16a6291cf084f960c01b612e5f565b81600681905550611e6a67fcc1314e02f493ef60c01b612e5f565b611e7e673ac31942ffc3248760c01b612e5f565b7f5d7c78d0ee3ce6196f90e74ed58c0ada9ac7ccc47d3aca0547ac893776f0382682604051611ead9190613af5565b60405180910390a1611ebd613368565b5050565b6000806000806000611edd67b860a842ae7da21560c01b612e5f565b611ef16712081d1de2bd417060c01b612e5f565b611f05677c07d63030a0e2de60c01b612e5f565b600654600254600354600454600554945094509450945094509091929394565b60065481565b60008060009054906101000a900473ffffffffffffffffffffffffffffffffffffffff16905090565b6008602052816000526040600020602052806000526040600020600091509150508060000154908060010154908060020154908060030154908060040154905085565b6000611fad673308ad356312939260c01b612e5f565b611fc1671e1b1bfd075ee47360c01b612e5f565b611fd567901dd20f9d83b4ba60c01b612e5f565b600780549050905090565b611ff467c06b273b3965544960c01b612e5f565b611ffc6131bc565b612010672d25c2accbce1c5260c01b612e5f565b61202467d693ab380f2020a760c01b612e5f565b61202c61323a565b61204067f2084707f808588560c01b612e5f565b61205467801cc212b0afdd2b60c01b612e5f565b61206867e208042dd98a8c6460c01b612e5f565b8060028190555061208367ffd4e2f1232d02f360c01b612e5f565b61209767db89a357421bb5f160c01b612e5f565b7fe97641f0b8f36bfd5d070b698bfee6382ff613820cf9e56a7e4dd4723cc04dc5816040516120c69190613af5565b60405180910390a16120d6613368565b50565b60025481565b60006120f56778400d97e2c9476060c01b612e5f565b612109672f07d7a364aca49060c01b612e5f565b61211d67088c09e26e6ef7e960c01b612e5f565b7f000000000000000000000000000000000000000000000000000000000000000073ffffffffffffffffffffffffffffffffffffffff166370a08231306040518263ffffffff1660e01b81526004016121769190613e04565b602060405180830381865afa158015612193573d6000803e3d6000fd5b505050506040513d601f19601f820116820180604052508101906121b7919061404a565b905090565b6121c46131bc565b600073ffffffffffffffffffffffffffffffffffffffff168173ffffffffffffffffffffffffffffffffffffffff1603612233576040517f08c379a000000000000000000000000000000000000000000000000000000000815260040161222a906140fa565b60405180910390fd5b61223c816133f7565b50565b612253672724e240282b1d9c60c01b612e5f565b61226767cd8d5b454b5daf9a60c01b612e5f565b61227b6724fe28d08d0ce0e260c01b612e5f565b6000600960008473ffffffffffffffffffffffffffffffffffffffff1673ffffffffffffffffffffffffffffffffffffffff1681526020019081526020016000205490506122d367cb1e7d0388e70dbf60c01b612e5f565b6122e7679fa5b938d5b4697260c01b612e5f565b6000600782815481106122fd576122fc613ecd565b5b906000526020600020906004020190506123216767e918e316b6a38560c01b612e5f565b612335679573636635aba12660c01b612e5f565b60006008600084815260200190815260200160002060003373ffffffffffffffffffffffffffffffffffffffff1673ffffffffffffffffffffffffffffffffffffffff168152602001908152602001600020905061239d6784e5881519b2ecc260c01b612e5f565b6123b167a343c83d559e779360c01b612e5f565b6123c56707d5f8d0c4220b3460c01b612e5f565b838160000154101561240c576040517f08c379a000000000000000000000000000000000000000000000000000000000815260040161240390614166565b60405180910390fd5b61242067933d54d77387210d60c01b612e5f565b61243467b055fe7aaefdebb560c01b612e5f565b6124486797f723fe78809b4460c01b612e5f565b61245183612e62565b61246567b0a12ed163df755460c01b612e5f565b61247967921e6a343ad468af60c01b612e5f565b60008160040154826001015464e8d4a510008560030154856000015461249f9190613f2b565b6124a99190613f9c565b6124b39190613fcd565b6124bd9190614001565b90506124d367e669031b3714839460c01b612e5f565b6124e767830cbf621560d5f560c01b612e5f565b60008511156125af57612504679351c3f57740e5fb60c01b612e5f565b6125186732c1ded7c028665460c01b612e5f565b8482600001600082825461252c9190613fcd565b92505081905550612547679cb5be0d33df9fbc60c01b612e5f565b61255b670b9241d5fb36d22160c01b612e5f565b6125aa33868560000160009054906101000a900473ffffffffffffffffffffffffffffffffffffffff1673ffffffffffffffffffffffffffffffffffffffff166133719092919063ffffffff16565b6125c4565b6125c367b1b3af5823e0bc1c60c01b612e5f565b5b6125d867befe7cac7dfd92c660c01b612e5f565b64e8d4a51000836003015483600001546125f29190613f2b565b6125fc9190613f9c565b826001018190555061261867c91f458e89c340a460c01b612e5f565b61262c678875fa9ca73eadab60c01b612e5f565b833373ffffffffffffffffffffffffffffffffffffffff167ff279e6a1f5e320cca91135676d9cb6e44ca8a08c0b88342bcdb1144f6511b568876040516126739190613af5565b60405180910390a3505050505050565b6126976732e7492bdb82909b60c01b612e5f565b61269f61323a565b6126b36717ea65860b4c073460c01b612e5f565b6126c767d7fe2a59e2150c1160c01b612e5f565b6126db675e8a9acfc5a79afa60c01b612e5f565b6126ef676c582e5cd097ef7160c01b612e5f565b6000600960008573ffffffffffffffffffffffffffffffffffffffff1673ffffffffffffffffffffffffffffffffffffffff16815260200190815260200160002054905061274767d275a920b64cc28860c01b612e5f565b61275b679fe4b517a9d98a2a60c01b612e5f565b60006007828154811061277157612770613ecd565b5b9060005260206000209060040201905061279567f015796c36c5171b60c01b612e5f565b6127a967e82b76561887540f60c01b612e5f565b60006008600084815260200190815260200160002060003373ffffffffffffffffffffffffffffffffffffffff1673ffffffffffffffffffffffffffffffffffffffff168152602001908152602001600020905061281167bbb489c99739a18460c01b612e5f565b61282567f6794854bd1e2ea760c01b612e5f565b61282e83612e62565b6128426747bed4dd5aaba32e60c01b612e5f565b6128566773968042e6643a8d60c01b612e5f565b6000816000015411156128eb5761287767110ff58b553987a060c01b612e5f565b61288b6748615368a4299c9660c01b612e5f565b61289f67ce7c1d2314dc63ad60c01b612e5f565b60008160040154826001015464e8d4a51000856003015485600001546128c59190613f2b565b6128cf9190613f9c565b6128d99190613fcd565b6128e39190614001565b905050612900565b6128ff67abb1ba176f1be81960c01b612e5f565b5b61291467a6862bc969d08e9060c01b612e5f565b612928678745e937e2e3eb8960c01b612e5f565b60008511156129d157612945679a82d1e30c674f1560c01b612e5f565b61295967c8efd76474a5dcc860c01b612e5f565b61296d67e7a512e0f6e1a0ca60c01b612e5f565b61299d8260000160009054906101000a900473ffffffffffffffffffffffffffffffffffffffff163330886134bb565b6129b167f0ac128eaed35b7b60c01b612e5f565b848160000160008282546129c59190614001565b925050819055506129e6565b6129e5677299731d1c90f3ad60c01b612e5f565b5b6129fa6773b397e683f7f0b760c01b612e5f565b64e8d4a5100082600301548260000154612a149190613f2b565b612a1e9190613f9c565b8160010181905550612a3a67e308eadcf020103960c01b612e5f565b428160020181905550612a57679457f0aeba368df760c01b612e5f565b612a6b671ec84fbc0dbc2bb360c01b612e5f565b823373ffffffffffffffffffffffffffffffffffffffff167f90890809c654f11d6e72a28fa60149770a0d11ec6c92319d6ceb2bb0a4ea1a1587604051612ab29190613af5565b60405180910390a3612ace67cee018287d0fa30460c01b612e5f565b612ae26758168682eed4850b60c01b612e5f565b600073ffffffffffffffffffffffffffffffffffffffff168473ffffffffffffffffffffffffffffffffffffffff1614158015612b4b57503373ffffffffffffffffffffffffffffffffffffffff168473ffffffffffffffffffffffffffffffffffffffff1614155b8015612be257508373ffffffffffffffffffffffffffffffffffffffff16600a60003373ffffffffffffffffffffffffffffffffffffffff1673ffffffffffffffffffffffffffffffffffffffff16815260200190815260200160002060009054906101000a900473ffffffffffffffffffffffffffffffffffffffff1673ffffffffffffffffffffffffffffffffffffffff1614155b15612c9257612bfb673ac9dca527b2467760c01b612e5f565b612c0f675b3c9fe9d187d14460c01b612e5f565b83600a60003373ffffffffffffffffffffffffffffffffffffffff1673ffffffffffffffffffffffffffffffffffffffff16815260200190815260200160002060006101000a81548173ffffffffffffffffffffffffffffffffffffffff021916908373ffffffffffffffffffffffffffffffffffffffff160217905550612ca7565b612ca6670caceabd26d898d060c01b612e5f565b5b505050612cb2613368565b505050565b7f000000000000000000000000000000000000000000000000000000000000000081565b612cef6701e01d79de3be88760c01b612e5f565b612cf76131bc565b612d0b670437f9d057fe732b60c01b612e5f565b612d1f670b5ac6cdff6569c060c01b612e5f565b612d2761323a565b612d3b679646b27ad700774360c01b612e5f565b612d4f67f3eb4a09c0703c4d60c01b612e5f565b612d63672b0ed5049787162a60c01b612e5f565b612d7767e041f9caf06cda8060c01b612e5f565b60008082118015612d985750612d9767b07fdeddc50cb16960c01b613356565b5b80612db35750612db267b462da493601e8e160c01b613361565b5b612dc457612dbf6120df565b612dc6565b815b9050612ddc6789c3f50128dbffe160c01b612e5f565b612df06768ab1f6a13d8408060c01b612e5f565b612e3b33827f000000000000000000000000000000000000000000000000000000000000000073ffffffffffffffffffffffffffffffffffffffff166133719092919063ffffffff16565b50612e44613368565b50565b60096020528060005260406000206000915090505481565b50565b612e766795bb15d7f142543c60c01b612e5f565b612e8a6793a6241abe63571760c01b612e5f565b612e9e67ca09dc056daeb1aa60c01b612e5f565b600060078281548110612eb457612eb3613ecd565b5b90600052602060002090600402019050612ed8676bb59c9975102bd960c01b612e5f565b612eec671491af09ef3a8e0260c01b612e5f565b80600201544311612f3957612f0b67e98afd1cac2c2fbd60c01b612e5f565b612f1f6783ee2adb1556617660c01b612e5f565b612f3367bc102fdc22917c5060c01b612e5f565b506131b9565b612f4d670473570fa5be0a5860c01b612e5f565b612f61670fd6890ab89e68cf60c01b612e5f565b612f756729881f52427e07bb60c01b612e5f565b60008160000160009054906101000a900473ffffffffffffffffffffffffffffffffffffffff1673ffffffffffffffffffffffffffffffffffffffff166370a08231306040518263ffffffff1660e01b8152600401612fd49190613e04565b602060405180830381865afa158015612ff1573d6000803e3d6000fd5b505050506040513d601f19601f82011682018060405250810190613015919061404a565b905061302b671df6322c1c367e1860c01b612e5f565b61303f67e5889da78f1e80ca60c01b612e5f565b600081036130a75761305b67d86203ccfb1a96ed60c01b612e5f565b61306f677168863de5841c3960c01b612e5f565b43826002018190555061308c67ea002a072406108d60c01b612e5f565b6130a067a456140ab807006360c01b612e5f565b50506131b9565b6130bb67c2e94c5c8ad3febe60c01b612e5f565b6130cf67befd7a5f4f4ce26460c01b612e5f565b6130e367fb3eccbcfae46fb360c01b612e5f565b60008260020154436130f59190613fcd565b905061310b67df1120b29c110e6e60c01b612e5f565b61311f67bfb724dba51cffec60c01b612e5f565b6000600b548460010154600654846131379190613f2b565b6131419190613f2b565b61314b9190613f9c565b90506131616783e2c264b09a810c60c01b612e5f565b8264e8d4a51000826131739190613f2b565b61317d9190613f9c565b8460030160008282546131909190614001565b925050819055506131ab67a492d47fa90b91e460c01b612e5f565b438460020181905550505050505b50565b6131c46136e7565b73ffffffffffffffffffffffffffffffffffffffff166131e2611f2b565b73ffffffffffffffffffffffffffffffffffffffff1614613238576040517f08c379a000000000000000000000000000000000000000000000000000000000815260040161322f906141d2565b60405180910390fd5b565b60026001540361327f576040517f08c379a00000000000000000000000000000000000000000000000000000000081526004016132769061423e565b60405180910390fd5b6002600181905550565b61329d67d33c5861399b42f160c01b612e5f565b6132b167e2013daa351469cc60c01b612e5f565b6132c5673d6b8205b24b914a60c01b612e5f565b600060078054905090506132e367360ab2b2137cb0ac60c01b612e5f565b6132f767e244cfe2ba5d9cf260c01b612e5f565b61330b678d118d2cb6fe05fd60c01b612e5f565b60005b818110156133525761332a67add4f1050fe42de360c01b612e5f565b61333e67d6ad5d0569e2ffd160c01b612e5f565b61334781612e62565b80600101905061330e565b5050565b600060019050919050565b6000919050565b60018081905550565b6133f28363a9059cbb60e01b848460405160240161339092919061425e565b604051602081830303815290604052907bffffffffffffffffffffffffffffffffffffffffffffffffffffffff19166020820180517bffffffffffffffffffffffffffffffffffffffffffffffffffffffff83818316178352505050506136ef565b505050565b60008060009054906101000a900473ffffffffffffffffffffffffffffffffffffffff169050816000806101000a81548173ffffffffffffffffffffffffffffffffffffffff021916908373ffffffffffffffffffffffffffffffffffffffff1602179055508173ffffffffffffffffffffffffffffffffffffffff168173ffffffffffffffffffffffffffffffffffffffff167f8be0079c531659141344cd1fd0a4f28419497f9722a3daafe3b4186f6b6457e060405160405180910390a35050565b6134cf671204edd0c07fce9a60c01b612e5f565b6134e367e653b6aab39b2db760c01b612e5f565b6134f767156a868fdcd7f6f460c01b612e5f565b60008473ffffffffffffffffffffffffffffffffffffffff166370a08231846040518263ffffffff1660e01b81526004016135329190613e04565b602060405180830381865afa15801561354f573d6000803e3d6000fd5b505050506040513d601f19601f82011682018060405250810190613573919061404a565b905061358967fd987ad29c0936e560c01b612e5f565b61359d67364f033d160b754360c01b612e5f565b6135ca8484848873ffffffffffffffffffffffffffffffffffffffff166137b6909392919063ffffffff16565b6135de67ff43f39794136fd960c01b612e5f565b6135f2677059ff40694f084260c01b612e5f565b61360667dce2d6783f52754c60c01b612e5f565b81818673ffffffffffffffffffffffffffffffffffffffff166370a08231866040518263ffffffff1660e01b81526004016136419190613e04565b602060405180830381865afa15801561365e573d6000803e3d6000fd5b505050506040513d601f19601f82011682018060405250810190613682919061404a565b61368c9190613fcd565b146136cc576040517f08c379a00000000000000000000000000000000000000000000000000000000081526004016136c3906142d3565b60405180910390fd5b6136e067f6b46ae2b78b4f7760c01b612e5f565b5050505050565b600033905090565b6000613751826040518060400160405280602081526020017f5361666545524332303a206c6f772d6c6576656c2063616c6c206661696c65648152508573ffffffffffffffffffffffffffffffffffffffff1661383f9092919063ffffffff16565b90506000815111156137b157808060200190518101906137719190614308565b6137b0576040517f08c379a00000000000000000000000000000000000000000000000000000000081526004016137a7906143a7565b60405180910390fd5b5b505050565b613839846323b872dd60e01b8585856040516024016137d7939291906143c7565b604051602081830303815290604052907bffffffffffffffffffffffffffffffffffffffffffffffffffffffff19166020820180517bffffffffffffffffffffffffffffffffffffffffffffffffffffffff83818316178352505050506136ef565b50505050565b606061384e8484600085613857565b90509392505050565b60608247101561389c576040517f08c379a000000000000000000000000000000000000000000000000000000000815260040161389390614470565b60405180910390fd5b6000808673ffffffffffffffffffffffffffffffffffffffff1685876040516138c59190614501565b60006040518083038185875af1925050503d8060008114613902576040519150601f19603f3d011682016040523d82523d6000602084013e613907565b606091505b509150915061391887838387613924565b92505050949350505050565b6060831561398657600083510361397e5761393e85613999565b61397d576040517f08c379a000000000000000000000000000000000000000000000000000000000815260040161397490614564565b60405180910390fd5b5b829050613991565b61399083836139bc565b5b949350505050565b6000808273ffffffffffffffffffffffffffffffffffffffff163b119050919050565b6000825111156139cf5781518083602001fd5b806040517f08c379a0000000000000000000000000000000000000000000000000000000008152600401613a0391906145d9565b60405180910390fd5b600080fd5b600073ffffffffffffffffffffffffffffffffffffffff82169050919050565b6000613a3c82613a11565b9050919050565b613a4c81613a31565b8114613a5757600080fd5b50565b600081359050613a6981613a43565b92915050565b600060208284031215613a8557613a84613a0c565b5b6000613a9384828501613a5a565b91505092915050565b60008060408385031215613ab357613ab2613a0c565b5b6000613ac185828601613a5a565b9250506020613ad285828601613a5a565b9150509250929050565b6000819050919050565b613aef81613adc565b82525050565b6000602082019050613b0a6000830184613ae6565b92915050565b613b1981613adc565b8114613b2457600080fd5b50565b600081359050613b3681613b10565b92915050565b600060208284031215613b5257613b51613a0c565b5b6000613b6084828501613b27565b91505092915050565b6000819050919050565b6000613b8e613b89613b8484613a11565b613b69565b613a11565b9050919050565b6000613ba082613b73565b9050919050565b6000613bb282613b95565b9050919050565b613bc281613ba7565b82525050565b6000608082019050613bdd6000830187613bb9565b613bea6020830186613ae6565b613bf76040830185613ae6565b613c046060830184613ae6565b95945050505050565b60008115159050919050565b613c2281613c0d565b8114613c2d57600080fd5b50565b600081359050613c3f81613c19565b92915050565b600080600060608486031215613c5e57613c5d613a0c565b5b6000613c6c86828701613b27565b9350506020613c7d86828701613a5a565b9250506040613c8e86828701613c30565b9150509250925092565b6000606082019050613cad6000830186613ae6565b613cba6020830185613ae6565b613cc76040830184613ae6565b949350505050565b60008060408385031215613ce657613ce5613a0c565b5b6000613cf485828601613a5a565b9250506020613d0585828601613b27565b9150509250929050565b600080600060608486031215613d2857613d27613a0c565b5b6000613d3686828701613b27565b9350506020613d4786828701613b27565b9250506040613d5886828701613c30565b9150509250925092565b60008060408385031215613d7957613d78613a0c565b5b6000613d8785828601613b27565b9250506020613d9885828601613c30565b9150509250929050565b600060a082019050613db76000830188613ae6565b613dc46020830187613ae6565b613dd16040830186613ae6565b613dde6060830185613ae6565b613deb6080830184613ae6565b9695505050505050565b613dfe81613a31565b82525050565b6000602082019050613e196000830184613df5565b92915050565b60008060408385031215613e3657613e35613a0c565b5b6000613e4485828601613b27565b9250506020613e5585828601613a5a565b9150509250929050565b600080600060608486031215613e7857613e77613a0c565b5b6000613e8686828701613a5a565b9350506020613e9786828701613b27565b9250506040613ea886828701613a5a565b9150509250925092565b6000602082019050613ec76000830184613bb9565b92915050565b7f4e487b7100000000000000000000000000000000000000000000000000000000600052603260045260246000fd5b7f4e487b7100000000000000000000000000000000000000000000000000000000600052601160045260246000fd5b6000613f3682613adc565b9150613f4183613adc565b9250828202613f4f81613adc565b91508282048414831517613f6657613f65613efc565b5b5092915050565b7f4e487b7100000000000000000000000000000000000000000000000000000000600052601260045260246000fd5b6000613fa782613adc565b9150613fb283613adc565b925082613fc257613fc1613f6d565b5b828204905092915050565b6000613fd882613adc565b9150613fe383613adc565b9250828203905081811115613ffb57613ffa613efc565b5b92915050565b600061400c82613adc565b915061401783613adc565b925082820190508082111561402f5761402e613efc565b5b92915050565b60008151905061404481613b10565b92915050565b6000602082840312156140605761405f613a0c565b5b600061406e84828501614035565b91505092915050565b600082825260208201905092915050565b7f4f776e61626c653a206e6577206f776e657220697320746865207a65726f206160008201527f6464726573730000000000000000000000000000000000000000000000000000602082015250565b60006140e4602683614077565b91506140ef82614088565b604082019050919050565b60006020820190508181036000830152614113816140d7565b9050919050565b7f546f6f2062696720616d6f756e74000000000000000000000000000000000000600082015250565b6000614150600e83614077565b915061415b8261411a565b602082019050919050565b6000602082019050818103600083015261417f81614143565b9050919050565b7f4f776e61626c653a2063616c6c6572206973206e6f7420746865206f776e6572600082015250565b60006141bc602083614077565b91506141c782614186565b602082019050919050565b600060208201905081810360008301526141eb816141af565b9050919050565b7f5265656e7472616e637947756172643a207265656e7472616e742063616c6c00600082015250565b6000614228601f83614077565b9150614233826141f2565b602082019050919050565b600060208201905081810360008301526142578161421b565b9050919050565b60006040820190506142736000830185613df5565b6142806020830184613ae6565b9392505050565b7f7472616e7366657220616d6f756e74206d69736d617463680000000000000000600082015250565b60006142bd601883614077565b91506142c882614287565b602082019050919050565b600060208201905081810360008301526142ec816142b0565b9050919050565b60008151905061430281613c19565b92915050565b60006020828403121561431e5761431d613a0c565b5b600061432c848285016142f3565b91505092915050565b7f5361666545524332303a204552433230206f7065726174696f6e20646964206e60008201527f6f74207375636365656400000000000000000000000000000000000000000000602082015250565b6000614391602a83614077565b915061439c82614335565b604082019050919050565b600060208201905081810360008301526143c081614384565b9050919050565b60006060820190506143dc6000830186613df5565b6143e96020830185613df5565b6143f66040830184613ae6565b949350505050565b7f416464726573733a20696e73756666696369656e742062616c616e636520666f60008201527f722063616c6c0000000000000000000000000000000000000000000000000000602082015250565b600061445a602683614077565b9150614465826143fe565b604082019050919050565b600060208201905081810360008301526144898161444d565b9050919050565b600081519050919050565b600081905092915050565b60005b838110156144c45780820151818401526020810190506144a9565b60008484015250505050565b60006144db82614490565b6144e5818561449b565b93506144f58185602086016144a6565b80840191505092915050565b600061450d82846144d0565b915081905092915050565b7f416464726573733a2063616c6c20746f206e6f6e2d636f6e7472616374000000600082015250565b600061454e601d83614077565b915061455982614518565b602082019050919050565b6000602082019050818103600083015261457d81614541565b9050919050565b600081519050919050565b6000601f19601f8301169050919050565b60006145ab82614584565b6145b58185614077565b93506145c58185602086016144a6565b6145ce8161458f565b840191505092915050565b600060208201905081810360008301526145f381846145a0565b90509291505056fea26469706673582212207cac1176ec748481cf2e3f69a7ccdfd7be16d7cc32092db477ff16ae7829951264736f6c63430008110033","opcodes":"PUSH1 0xC0 PUSH1 0x40 MSTORE PUSH3 0x127500 PUSH1 0x2 SSTORE PUSH2 0x7080 PUSH1 0x3 SSTORE PUSH2 0x3E8 PUSH1 0x4 SSTORE PUSH1 0x3C PUSH1 0x5 SSTORE PUSH1 0x0 PUSH1 0xB SSTORE CALLVALUE DUP1 ISZERO PUSH3 0x2E JUMPI PUSH1 0x0 DUP1 REVERT JUMPDEST POP PUSH1 0x40 MLOAD PUSH3 0x4A05 CODESIZE SUB DUP1 PUSH3 0x4A05 DUP4 CODECOPY DUP2 DUP2 ADD PUSH1 0x40 MSTORE DUP2 ADD SWAP1 PUSH3 0x54 SWAP2 SWAP1 PUSH3 0x31D JUMP JUMPDEST PUSH3 0x74 PUSH3 0x68 PUSH3 0x1A9 PUSH1 0x20 SHL PUSH1 0x20 SHR JUMP JUMPDEST PUSH3 0x1B1 PUSH1 0x20 SHL PUSH1 0x20 SHR JUMP JUMPDEST PUSH1 0x1 DUP1 DUP2 SWAP1 SSTORE POP PUSH3 0x97 PUSH8 0xC1B491B49CF1CCE9 PUSH1 0xC0 SHL PUSH3 0x275 PUSH1 0x20 SHL PUSH1 0x20 SHR JUMP JUMPDEST PUSH3 0xB3 PUSH8 0x8BD640BFEB5676E PUSH1 0xC0 SHL PUSH3 0x275 PUSH1 0x20 SHL PUSH1 0x20 SHR JUMP JUMPDEST DUP2 PUSH20 0xFFFFFFFFFFFFFFFFFFFFFFFFFFFFFFFFFFFFFFFF AND PUSH1 0x80 DUP2 PUSH20 0xFFFFFFFFFFFFFFFFFFFFFFFFFFFFFFFFFFFFFFFF AND DUP2 MSTORE POP POP PUSH3 0x103 PUSH8 0x4BE19219A7DF32CD PUSH1 0xC0 SHL PUSH3 0x275 PUSH1 0x20 SHL PUSH1 0x20 SHR JUMP JUMPDEST DUP1 PUSH1 0x6 DUP2 SWAP1 SSTORE POP PUSH3 0x126 PUSH8 0x3DD2C3624BD19A67 PUSH1 0xC0 SHL PUSH3 0x275 PUSH1 0x20 SHL PUSH1 0x20 SHR JUMP JUMPDEST PUSH3 0x142 PUSH8 0x281F392166FB951B PUSH1 0xC0 SHL PUSH3 0x275 PUSH1 0x20 SHL PUSH1 0x20 SHR JUMP JUMPDEST PUSH32 0x5D7C78D0EE3CE6196F90E74ED58C0ADA9AC7CCC47D3ACA0547AC893776F03826 PUSH1 0x6 SLOAD PUSH1 0x40 MLOAD PUSH3 0x175 SWAP2 SWAP1 PUSH3 0x375 JUMP JUMPDEST PUSH1 0x40 MLOAD DUP1 SWAP2 SUB SWAP1 LOG1 PUSH3 0x199 PUSH8 0x1DB745186BEDF09F PUSH1 0xC0 SHL PUSH3 0x275 PUSH1 0x20 SHL PUSH1 0x20 SHR JUMP JUMPDEST NUMBER PUSH1 0xA0 DUP2 DUP2 MSTORE POP POP POP POP PUSH3 0x392 JUMP JUMPDEST PUSH1 0x0 CALLER SWAP1 POP SWAP1 JUMP JUMPDEST PUSH1 0x0 DUP1 PUSH1 0x0 SWAP1 SLOAD SWAP1 PUSH2 0x100 EXP SWAP1 DIV PUSH20 0xFFFFFFFFFFFFFFFFFFFFFFFFFFFFFFFFFFFFFFFF AND SWAP1 POP DUP2 PUSH1 0x0 DUP1 PUSH2 0x100 EXP DUP2 SLOAD DUP2 PUSH20 0xFFFFFFFFFFFFFFFFFFFFFFFFFFFFFFFFFFFFFFFF MUL NOT AND SWAP1 DUP4 PUSH20 0xFFFFFFFFFFFFFFFFFFFFFFFFFFFFFFFFFFFFFFFF AND MUL OR SWAP1 SSTORE POP DUP2 PUSH20 0xFFFFFFFFFFFFFFFFFFFFFFFFFFFFFFFFFFFFFFFF AND DUP2 PUSH20 0xFFFFFFFFFFFFFFFFFFFFFFFFFFFFFFFFFFFFFFFF AND PUSH32 0x8BE0079C531659141344CD1FD0A4F28419497F9722A3DAAFE3B4186F6B6457E0 PUSH1 0x40 MLOAD PUSH1 0x40 MLOAD DUP1 SWAP2 SUB SWAP1 LOG3 POP POP JUMP JUMPDEST POP JUMP JUMPDEST PUSH1 0x0 DUP1 REVERT JUMPDEST PUSH1 0x0 PUSH20 0xFFFFFFFFFFFFFFFFFFFFFFFFFFFFFFFFFFFFFFFF DUP3 AND SWAP1 POP SWAP2 SWAP1 POP JUMP JUMPDEST PUSH1 0x0 PUSH3 0x2AA DUP3 PUSH3 0x27D JUMP JUMPDEST SWAP1 POP SWAP2 SWAP1 POP JUMP JUMPDEST PUSH3 0x2BC DUP2 PUSH3 0x29D JUMP JUMPDEST DUP2 EQ PUSH3 0x2C8 JUMPI PUSH1 0x0 DUP1 REVERT JUMPDEST POP JUMP JUMPDEST PUSH1 0x0 DUP2 MLOAD SWAP1 POP PUSH3 0x2DC DUP2 PUSH3 0x2B1 JUMP JUMPDEST SWAP3 SWAP2 POP POP JUMP JUMPDEST PUSH1 0x0 DUP2 SWAP1 POP SWAP2 SWAP1 POP JUMP JUMPDEST PUSH3 0x2F7 DUP2 PUSH3 0x2E2 JUMP JUMPDEST DUP2 EQ PUSH3 0x303 JUMPI PUSH1 0x0 DUP1 REVERT JUMPDEST POP JUMP JUMPDEST PUSH1 0x0 DUP2 MLOAD SWAP1 POP PUSH3 0x317 DUP2 PUSH3 0x2EC JUMP JUMPDEST SWAP3 SWAP2 POP POP JUMP JUMPDEST PUSH1 0x0 DUP1 PUSH1 0x40 DUP4 DUP6 SUB SLT ISZERO PUSH3 0x337 JUMPI PUSH3 0x336 PUSH3 0x278 JUMP JUMPDEST JUMPDEST PUSH1 0x0 PUSH3 0x347 DUP6 DUP3 DUP7 ADD PUSH3 0x2CB JUMP JUMPDEST SWAP3 POP POP PUSH1 0x20 PUSH3 0x35A DUP6 DUP3 DUP7 ADD PUSH3 0x306 JUMP JUMPDEST SWAP2 POP POP SWAP3 POP SWAP3 SWAP1 POP JUMP JUMPDEST PUSH3 0x36F DUP2 PUSH3 0x2E2 JUMP JUMPDEST DUP3 MSTORE POP POP JUMP JUMPDEST PUSH1 0x0 PUSH1 0x20 DUP3 ADD SWAP1 POP PUSH3 0x38C PUSH1 0x0 DUP4 ADD DUP5 PUSH3 0x364 JUMP JUMPDEST SWAP3 SWAP2 POP POP JUMP JUMPDEST PUSH1 0x80 MLOAD PUSH1 0xA0 MLOAD PUSH2 0x4631 PUSH3 0x3D4 PUSH1 0x0 CODECOPY PUSH1 0x0 DUP2 DUP2 PUSH2 0xB32 ADD MSTORE DUP2 DUP2 PUSH2 0xB90 ADD MSTORE PUSH2 0x120A ADD MSTORE PUSH1 0x0 DUP2 DUP2 PUSH2 0x211F ADD MSTORE DUP2 DUP2 PUSH2 0x2CB9 ADD MSTORE PUSH2 0x2DF7 ADD MSTORE PUSH2 0x4631 PUSH1 0x0 RETURN INVALID PUSH1 0x80 PUSH1 0x40 MSTORE CALLVALUE DUP1 ISZERO PUSH2 0x10 JUMPI PUSH1 0x0 DUP1 REVERT JUMPDEST POP PUSH1 0x4 CALLDATASIZE LT PUSH2 0x211 JUMPI PUSH1 0x0 CALLDATALOAD PUSH1 0xE0 SHR DUP1 PUSH4 0x6FF1C9BC GT PUSH2 0x125 JUMPI DUP1 PUSH4 0xC3E2C56B GT PUSH2 0xAD JUMPI DUP1 PUSH4 0xF3FEF3A3 GT PUSH2 0x7C JUMPI DUP1 PUSH4 0xF3FEF3A3 EQ PUSH2 0x5C1 JUMPI DUP1 PUSH4 0xF45346DC EQ PUSH2 0x5DD JUMPI DUP1 PUSH4 0xF7C618C1 EQ PUSH2 0x5F9 JUMPI DUP1 PUSH4 0xF84B94E1 EQ PUSH2 0x617 JUMPI DUP1 PUSH4 0xFF51A272 EQ PUSH2 0x633 JUMPI PUSH2 0x211 JUMP JUMPDEST DUP1 PUSH4 0xC3E2C56B EQ PUSH2 0x54D JUMPI DUP1 PUSH4 0xD6BE9B67 EQ PUSH2 0x569 JUMPI DUP1 PUSH4 0xDA0BB03A EQ PUSH2 0x587 JUMPI DUP1 PUSH4 0xF2FDE38B EQ PUSH2 0x5A5 JUMPI PUSH2 0x211 JUMP JUMPDEST DUP1 PUSH4 0x85B4BB53 GT PUSH2 0xF4 JUMPI DUP1 PUSH4 0x85B4BB53 EQ PUSH2 0x49D JUMPI DUP1 PUSH4 0x8AE39CAC EQ PUSH2 0x4BF JUMPI DUP1 PUSH4 0x8DA5CB5B EQ PUSH2 0x4DD JUMPI DUP1 PUSH4 0x93F1A40B EQ PUSH2 0x4FB JUMPI DUP1 PUSH4 0xB4AC6860 EQ PUSH2 0x52F JUMPI PUSH2 0x211 JUMP JUMPDEST DUP1 PUSH4 0x6FF1C9BC EQ PUSH2 0x43D JUMPI DUP1 PUSH4 0x715018A6 EQ PUSH2 0x459 JUMPI DUP1 PUSH4 0x73B93421 EQ PUSH2 0x463 JUMPI DUP1 PUSH4 0x81505C05 EQ PUSH2 0x481 JUMPI PUSH2 0x211 JUMP JUMPDEST DUP1 PUSH4 0x343DFB7E GT PUSH2 0x1A8 JUMPI DUP1 PUSH4 0x51EB05A6 GT PUSH2 0x177 JUMPI DUP1 PUSH4 0x51EB05A6 EQ PUSH2 0x3AF JUMPI DUP1 PUSH4 0x5AB764ED EQ PUSH2 0x3CB JUMPI DUP1 PUSH4 0x6129F25F EQ PUSH2 0x3FB JUMPI DUP1 PUSH4 0x630B5BA1 EQ PUSH2 0x417 JUMPI DUP1 PUSH4 0x64482F79 EQ PUSH2 0x421 JUMPI PUSH2 0x211 JUMP JUMPDEST DUP1 PUSH4 0x343DFB7E EQ PUSH2 0x33B JUMPI DUP1 PUSH4 0x38D7AAE1 EQ PUSH2 0x359 JUMPI DUP1 PUSH4 0x4146CAE9 EQ PUSH2 0x375 JUMPI DUP1 PUSH4 0x48CD4CB1 EQ PUSH2 0x391 JUMPI PUSH2 0x211 JUMP JUMPDEST DUP1 PUSH4 0x17CAF6F1 GT PUSH2 0x1E4 JUMPI DUP1 PUSH4 0x17CAF6F1 EQ PUSH2 0x2B3 JUMPI DUP1 PUSH4 0x1EAAA045 EQ PUSH2 0x2D1 JUMPI DUP1 PUSH4 0x20FC0FC6 EQ PUSH2 0x2ED JUMPI DUP1 PUSH4 0x242952B6 EQ PUSH2 0x31F JUMPI PUSH2 0x211 JUMP JUMPDEST DUP1 PUSH4 0xE5C011E EQ PUSH2 0x216 JUMPI DUP1 PUSH4 0xE95EC24 EQ PUSH2 0x232 JUMPI DUP1 PUSH4 0x14DC0CE0 EQ PUSH2 0x262 JUMPI DUP1 PUSH4 0x1526FE27 EQ PUSH2 0x280 JUMPI JUMPDEST PUSH1 0x0 DUP1 REVERT JUMPDEST PUSH2 0x230 PUSH1 0x4 DUP1 CALLDATASIZE SUB DUP2 ADD SWAP1 PUSH2 0x22B SWAP2 SWAP1 PUSH2 0x3A6F JUMP JUMPDEST PUSH2 0x663 JUMP JUMPDEST STOP JUMPDEST PUSH2 0x24C PUSH1 0x4 DUP1 CALLDATASIZE SUB DUP2 ADD SWAP1 PUSH2 0x247 SWAP2 SWAP1 PUSH2 0x3A9C JUMP JUMPDEST PUSH2 0x893 JUMP JUMPDEST PUSH1 0x40 MLOAD PUSH2 0x259 SWAP2 SWAP1 PUSH2 0x3AF5 JUMP JUMPDEST PUSH1 0x40 MLOAD DUP1 SWAP2 SUB SWAP1 RETURN JUMPDEST PUSH2 0x26A PUSH2 0x99A JUMP JUMPDEST PUSH1 0x40 MLOAD PUSH2 0x277 SWAP2 SWAP1 PUSH2 0x3AF5 JUMP JUMPDEST PUSH1 0x40 MLOAD DUP1 SWAP2 SUB SWAP1 RETURN JUMPDEST PUSH2 0x29A PUSH1 0x4 DUP1 CALLDATASIZE SUB DUP2 ADD SWAP1 PUSH2 0x295 SWAP2 SWAP1 PUSH2 0x3B3C JUMP JUMPDEST PUSH2 0x9A0 JUMP JUMPDEST PUSH1 0x40 MLOAD PUSH2 0x2AA SWAP5 SWAP4 SWAP3 SWAP2 SWAP1 PUSH2 0x3BC8 JUMP JUMPDEST PUSH1 0x40 MLOAD DUP1 SWAP2 SUB SWAP1 RETURN JUMPDEST PUSH2 0x2BB PUSH2 0xA00 JUMP JUMPDEST PUSH1 0x40 MLOAD PUSH2 0x2C8 SWAP2 SWAP1 PUSH2 0x3AF5 JUMP JUMPDEST PUSH1 0x40 MLOAD DUP1 SWAP2 SUB SWAP1 RETURN JUMPDEST PUSH2 0x2EB PUSH1 0x4 DUP1 CALLDATASIZE SUB DUP2 ADD SWAP1 PUSH2 0x2E6 SWAP2 SWAP1 PUSH2 0x3C45 JUMP JUMPDEST PUSH2 0xA06 JUMP JUMPDEST STOP JUMPDEST PUSH2 0x307 PUSH1 0x4 DUP1 CALLDATASIZE SUB DUP2 ADD SWAP1 PUSH2 0x302 SWAP2 SWAP1 PUSH2 0x3A9C JUMP JUMPDEST PUSH2 0xE60 JUMP JUMPDEST PUSH1 0x40 MLOAD PUSH2 0x316 SWAP4 SWAP3 SWAP2 SWAP1 PUSH2 0x3C98 JUMP JUMPDEST PUSH1 0x40 MLOAD DUP1 SWAP2 SUB SWAP1 RETURN JUMPDEST PUSH2 0x339 PUSH1 0x4 DUP1 CALLDATASIZE SUB DUP2 ADD SWAP1 PUSH2 0x334 SWAP2 SWAP1 PUSH2 0x3B3C JUMP JUMPDEST PUSH2 0xFC5 JUMP JUMPDEST STOP JUMPDEST PUSH2 0x343 PUSH2 0x10BE JUMP JUMPDEST PUSH1 0x40 MLOAD PUSH2 0x350 SWAP2 SWAP1 PUSH2 0x3AF5 JUMP JUMPDEST PUSH1 0x40 MLOAD DUP1 SWAP2 SUB SWAP1 RETURN JUMPDEST PUSH2 0x373 PUSH1 0x4 DUP1 CALLDATASIZE SUB DUP2 ADD SWAP1 PUSH2 0x36E SWAP2 SWAP1 PUSH2 0x3B3C JUMP JUMPDEST PUSH2 0x10C4 JUMP JUMPDEST STOP JUMPDEST PUSH2 0x38F PUSH1 0x4 DUP1 CALLDATASIZE SUB DUP2 ADD SWAP1 PUSH2 0x38A SWAP2 SWAP1 PUSH2 0x3CCF JUMP JUMPDEST PUSH2 0x11BD JUMP JUMPDEST STOP JUMPDEST PUSH2 0x399 PUSH2 0x1208 JUMP JUMPDEST PUSH1 0x40 MLOAD PUSH2 0x3A6 SWAP2 SWAP1 PUSH2 0x3AF5 JUMP JUMPDEST PUSH1 0x40 MLOAD DUP1 SWAP2 SUB SWAP1 RETURN JUMPDEST PUSH2 0x3C9 PUSH1 0x4 DUP1 CALLDATASIZE SUB DUP2 ADD SWAP1 PUSH2 0x3C4 SWAP2 SWAP1 PUSH2 0x3B3C JUMP JUMPDEST PUSH2 0x122C JUMP JUMPDEST STOP JUMPDEST PUSH2 0x3E5 PUSH1 0x4 DUP1 CALLDATASIZE SUB DUP2 ADD SWAP1 PUSH2 0x3E0 SWAP2 SWAP1 PUSH2 0x3A9C JUMP JUMPDEST PUSH2 0x12AC JUMP JUMPDEST PUSH1 0x40 MLOAD PUSH2 0x3F2 SWAP2 SWAP1 PUSH2 0x3AF5 JUMP JUMPDEST PUSH1 0x40 MLOAD DUP1 SWAP2 SUB SWAP1 RETURN JUMPDEST PUSH2 0x415 PUSH1 0x4 DUP1 CALLDATASIZE SUB DUP2 ADD SWAP1 PUSH2 0x410 SWAP2 SWAP1 PUSH2 0x3B3C JUMP JUMPDEST PUSH2 0x16A6 JUMP JUMPDEST STOP JUMPDEST PUSH2 0x41F PUSH2 0x179F JUMP JUMPDEST STOP JUMPDEST PUSH2 0x43B PUSH1 0x4 DUP1 CALLDATASIZE SUB DUP2 ADD SWAP1 PUSH2 0x436 SWAP2 SWAP1 PUSH2 0x3D0F JUMP JUMPDEST PUSH2 0x181D JUMP JUMPDEST STOP JUMPDEST PUSH2 0x457 PUSH1 0x4 DUP1 CALLDATASIZE SUB DUP2 ADD SWAP1 PUSH2 0x452 SWAP2 SWAP1 PUSH2 0x3A6F JUMP JUMPDEST PUSH2 0x1A81 JUMP JUMPDEST STOP JUMPDEST PUSH2 0x461 PUSH2 0x1D21 JUMP JUMPDEST STOP JUMPDEST PUSH2 0x46B PUSH2 0x1D35 JUMP JUMPDEST PUSH1 0x40 MLOAD PUSH2 0x478 SWAP2 SWAP1 PUSH2 0x3AF5 JUMP JUMPDEST PUSH1 0x40 MLOAD DUP1 SWAP2 SUB SWAP1 RETURN JUMPDEST PUSH2 0x49B PUSH1 0x4 DUP1 CALLDATASIZE SUB DUP2 ADD SWAP1 PUSH2 0x496 SWAP2 SWAP1 PUSH2 0x3D62 JUMP JUMPDEST PUSH2 0x1D3B JUMP JUMPDEST STOP JUMPDEST PUSH2 0x4A5 PUSH2 0x1EC1 JUMP JUMPDEST PUSH1 0x40 MLOAD PUSH2 0x4B6 SWAP6 SWAP5 SWAP4 SWAP3 SWAP2 SWAP1 PUSH2 0x3DA2 JUMP JUMPDEST PUSH1 0x40 MLOAD DUP1 SWAP2 SUB SWAP1 RETURN JUMPDEST PUSH2 0x4C7 PUSH2 0x1F25 JUMP JUMPDEST PUSH1 0x40 MLOAD PUSH2 0x4D4 SWAP2 SWAP1 PUSH2 0x3AF5 JUMP JUMPDEST PUSH1 0x40 MLOAD DUP1 SWAP2 SUB SWAP1 RETURN JUMPDEST PUSH2 0x4E5 PUSH2 0x1F2B JUMP JUMPDEST PUSH1 0x40 MLOAD PUSH2 0x4F2 SWAP2 SWAP1 PUSH2 0x3E04 JUMP JUMPDEST PUSH1 0x40 MLOAD DUP1 SWAP2 SUB SWAP1 RETURN JUMPDEST PUSH2 0x515 PUSH1 0x4 DUP1 CALLDATASIZE SUB DUP2 ADD SWAP1 PUSH2 0x510 SWAP2 SWAP1 PUSH2 0x3E1F JUMP JUMPDEST PUSH2 0x1F54 JUMP JUMPDEST PUSH1 0x40 MLOAD PUSH2 0x526 SWAP6 SWAP5 SWAP4 SWAP3 SWAP2 SWAP1 PUSH2 0x3DA2 JUMP JUMPDEST PUSH1 0x40 MLOAD DUP1 SWAP2 SUB SWAP1 RETURN JUMPDEST PUSH2 0x537 PUSH2 0x1F97 JUMP JUMPDEST PUSH1 0x40 MLOAD PUSH2 0x544 SWAP2 SWAP1 PUSH2 0x3AF5 JUMP JUMPDEST PUSH1 0x40 MLOAD DUP1 SWAP2 SUB SWAP1 RETURN JUMPDEST PUSH2 0x567 PUSH1 0x4 DUP1 CALLDATASIZE SUB DUP2 ADD SWAP1 PUSH2 0x562 SWAP2 SWAP1 PUSH2 0x3B3C JUMP JUMPDEST PUSH2 0x1FE0 JUMP JUMPDEST STOP JUMPDEST PUSH2 0x571 PUSH2 0x20D9 JUMP JUMPDEST PUSH1 0x40 MLOAD PUSH2 0x57E SWAP2 SWAP1 PUSH2 0x3AF5 JUMP JUMPDEST PUSH1 0x40 MLOAD DUP1 SWAP2 SUB SWAP1 RETURN JUMPDEST PUSH2 0x58F PUSH2 0x20DF JUMP JUMPDEST PUSH1 0x40 MLOAD PUSH2 0x59C SWAP2 SWAP1 PUSH2 0x3AF5 JUMP JUMPDEST PUSH1 0x40 MLOAD DUP1 SWAP2 SUB SWAP1 RETURN JUMPDEST PUSH2 0x5BF PUSH1 0x4 DUP1 CALLDATASIZE SUB DUP2 ADD SWAP1 PUSH2 0x5BA SWAP2 SWAP1 PUSH2 0x3A6F JUMP JUMPDEST PUSH2 0x21BC JUMP JUMPDEST STOP JUMPDEST PUSH2 0x5DB PUSH1 0x4 DUP1 CALLDATASIZE SUB DUP2 ADD SWAP1 PUSH2 0x5D6 SWAP2 SWAP1 PUSH2 0x3CCF JUMP JUMPDEST PUSH2 0x223F JUMP JUMPDEST STOP JUMPDEST PUSH2 0x5F7 PUSH1 0x4 DUP1 CALLDATASIZE SUB DUP2 ADD SWAP1 PUSH2 0x5F2 SWAP2 SWAP1 PUSH2 0x3E5F JUMP JUMPDEST PUSH2 0x2683 JUMP JUMPDEST STOP JUMPDEST PUSH2 0x601 PUSH2 0x2CB7 JUMP JUMPDEST PUSH1 0x40 MLOAD PUSH2 0x60E SWAP2 SWAP1 PUSH2 0x3EB2 JUMP JUMPDEST PUSH1 0x40 MLOAD DUP1 SWAP2 SUB SWAP1 RETURN JUMPDEST PUSH2 0x631 PUSH1 0x4 DUP1 CALLDATASIZE SUB DUP2 ADD SWAP1 PUSH2 0x62C SWAP2 SWAP1 PUSH2 0x3B3C JUMP JUMPDEST PUSH2 0x2CDB JUMP JUMPDEST STOP JUMPDEST PUSH2 0x64D PUSH1 0x4 DUP1 CALLDATASIZE SUB DUP2 ADD SWAP1 PUSH2 0x648 SWAP2 SWAP1 PUSH2 0x3A6F JUMP JUMPDEST PUSH2 0x2E47 JUMP JUMPDEST PUSH1 0x40 MLOAD PUSH2 0x65A SWAP2 SWAP1 PUSH2 0x3AF5 JUMP JUMPDEST PUSH1 0x40 MLOAD DUP1 SWAP2 SUB SWAP1 RETURN JUMPDEST PUSH2 0x677 PUSH8 0xA847D8E59A3EBEE4 PUSH1 0xC0 SHL PUSH2 0x2E5F JUMP JUMPDEST PUSH2 0x68B PUSH8 0xDEBB670BBF16993B PUSH1 0xC0 SHL PUSH2 0x2E5F JUMP JUMPDEST PUSH2 0x69F PUSH8 0xB1D01E2D0529EB00 PUSH1 0xC0 SHL PUSH2 0x2E5F JUMP JUMPDEST PUSH1 0x0 PUSH1 0x9 PUSH1 0x0 DUP4 PUSH20 0xFFFFFFFFFFFFFFFFFFFFFFFFFFFFFFFFFFFFFFFF AND PUSH20 0xFFFFFFFFFFFFFFFFFFFFFFFFFFFFFFFFFFFFFFFF AND DUP2 MSTORE PUSH1 0x20 ADD SWAP1 DUP2 MSTORE PUSH1 0x20 ADD PUSH1 0x0 KECCAK256 SLOAD SWAP1 POP PUSH2 0x6F7 PUSH8 0xC4BE7F78E71ECED4 PUSH1 0xC0 SHL PUSH2 0x2E5F JUMP JUMPDEST PUSH2 0x70B PUSH8 0x8C78BA1A685AA605 PUSH1 0xC0 SHL PUSH2 0x2E5F JUMP JUMPDEST PUSH1 0x0 PUSH1 0x7 DUP3 DUP2 SLOAD DUP2 LT PUSH2 0x721 JUMPI PUSH2 0x720 PUSH2 0x3ECD JUMP JUMPDEST JUMPDEST SWAP1 PUSH1 0x0 MSTORE PUSH1 0x20 PUSH1 0x0 KECCAK256 SWAP1 PUSH1 0x4 MUL ADD SWAP1 POP PUSH2 0x745 PUSH8 0xE67310AB38F9320C PUSH1 0xC0 SHL PUSH2 0x2E5F JUMP JUMPDEST PUSH2 0x759 PUSH8 0x920EDFB2BDE247BD PUSH1 0xC0 SHL PUSH2 0x2E5F JUMP JUMPDEST PUSH1 0x0 PUSH1 0x8 PUSH1 0x0 DUP5 DUP2 MSTORE PUSH1 0x20 ADD SWAP1 DUP2 MSTORE PUSH1 0x20 ADD PUSH1 0x0 KECCAK256 PUSH1 0x0 CALLER PUSH20 0xFFFFFFFFFFFFFFFFFFFFFFFFFFFFFFFFFFFFFFFF AND PUSH20 0xFFFFFFFFFFFFFFFFFFFFFFFFFFFFFFFFFFFFFFFF AND DUP2 MSTORE PUSH1 0x20 ADD SWAP1 DUP2 MSTORE PUSH1 0x20 ADD PUSH1 0x0 KECCAK256 SWAP1 POP PUSH2 0x7C1 PUSH8 0xD616FCABD63A78A7 PUSH1 0xC0 SHL PUSH2 0x2E5F JUMP JUMPDEST PUSH2 0x7D5 PUSH8 0x3FA1823154E0DF4F PUSH1 0xC0 SHL PUSH2 0x2E5F JUMP JUMPDEST PUSH2 0x7DE DUP4 PUSH2 0x2E62 JUMP JUMPDEST PUSH2 0x7F2 PUSH8 0xCD9867B0DE946259 PUSH1 0xC0 SHL PUSH2 0x2E5F JUMP JUMPDEST PUSH2 0x806 PUSH8 0xF42AFF7EA8CF6A65 PUSH1 0xC0 SHL PUSH2 0x2E5F JUMP JUMPDEST PUSH1 0x0 DUP2 PUSH1 0x4 ADD SLOAD DUP3 PUSH1 0x1 ADD SLOAD PUSH5 0xE8D4A51000 DUP6 PUSH1 0x3 ADD SLOAD DUP6 PUSH1 0x0 ADD SLOAD PUSH2 0x82C SWAP2 SWAP1 PUSH2 0x3F2B JUMP JUMPDEST PUSH2 0x836 SWAP2 SWAP1 PUSH2 0x3F9C JUMP JUMPDEST PUSH2 0x840 SWAP2 SWAP1 PUSH2 0x3FCD JUMP JUMPDEST PUSH2 0x84A SWAP2 SWAP1 PUSH2 0x4001 JUMP JUMPDEST SWAP1 POP PUSH2 0x860 PUSH8 0x49F4C78BDA1F0306 PUSH1 0xC0 SHL PUSH2 0x2E5F JUMP JUMPDEST PUSH5 0xE8D4A51000 DUP4 PUSH1 0x3 ADD SLOAD DUP4 PUSH1 0x0 ADD SLOAD PUSH2 0x87A SWAP2 SWAP1 PUSH2 0x3F2B JUMP JUMPDEST PUSH2 0x884 SWAP2 SWAP1 PUSH2 0x3F9C JUMP JUMPDEST DUP3 PUSH1 0x1 ADD DUP2 SWAP1 SSTORE POP POP POP POP POP POP JUMP JUMPDEST PUSH1 0x0 PUSH2 0x8A9 PUSH8 0x95D84F3380B03C12 PUSH1 0xC0 SHL PUSH2 0x2E5F JUMP JUMPDEST PUSH2 0x8BD PUSH8 0x4BEE0FB37080F08F PUSH1 0xC0 SHL PUSH2 0x2E5F JUMP JUMPDEST PUSH2 0x8D1 PUSH8 0x978CA801046E9F50 PUSH1 0xC0 SHL PUSH2 0x2E5F JUMP JUMPDEST PUSH1 0x0 PUSH1 0x9 PUSH1 0x0 DUP6 PUSH20 0xFFFFFFFFFFFFFFFFFFFFFFFFFFFFFFFFFFFFFFFF AND PUSH20 0xFFFFFFFFFFFFFFFFFFFFFFFFFFFFFFFFFFFFFFFF AND DUP2 MSTORE PUSH1 0x20 ADD SWAP1 DUP2 MSTORE PUSH1 0x20 ADD PUSH1 0x0 KECCAK256 SLOAD SWAP1 POP PUSH2 0x929 PUSH8 0x89F9833FBE4AC84A PUSH1 0xC0 SHL PUSH2 0x2E5F JUMP JUMPDEST PUSH2 0x93D PUSH8 0x52B089CF1EE25598 PUSH1 0xC0 SHL PUSH2 0x2E5F JUMP JUMPDEST PUSH1 0x8 PUSH1 0x0 DUP3 DUP2 MSTORE PUSH1 0x20 ADD SWAP1 DUP2 MSTORE PUSH1 0x20 ADD PUSH1 0x0 KECCAK256 PUSH1 0x0 DUP5 PUSH20 0xFFFFFFFFFFFFFFFFFFFFFFFFFFFFFFFFFFFFFFFF AND PUSH20 0xFFFFFFFFFFFFFFFFFFFFFFFFFFFFFFFFFFFFFFFF AND DUP2 MSTORE PUSH1 0x20 ADD SWAP1 DUP2 MSTORE PUSH1 0x20 ADD PUSH1 0x0 KECCAK256 PUSH1 0x0 ADD SLOAD SWAP2 POP POP SWAP3 SWAP2 POP POP JUMP JUMPDEST PUSH1 0x3 SLOAD DUP2 JUMP JUMPDEST PUSH1 0x7 DUP2 DUP2 SLOAD DUP2 LT PUSH2 0x9B0 JUMPI PUSH1 0x0 DUP1 REVERT JUMPDEST SWAP1 PUSH1 0x0 MSTORE PUSH1 0x20 PUSH1 0x0 KECCAK256 SWAP1 PUSH1 0x4 MUL ADD PUSH1 0x0 SWAP2 POP SWAP1 POP DUP1 PUSH1 0x0 ADD PUSH1 0x0 SWAP1 SLOAD SWAP1 PUSH2 0x100 EXP SWAP1 DIV PUSH20 0xFFFFFFFFFFFFFFFFFFFFFFFFFFFFFFFFFFFFFFFF AND SWAP1 DUP1 PUSH1 0x1 ADD SLOAD SWAP1 DUP1 PUSH1 0x2 ADD SLOAD SWAP1 DUP1 PUSH1 0x3 ADD SLOAD SWAP1 POP DUP5 JUMP JUMPDEST PUSH1 0xB SLOAD DUP2 JUMP JUMPDEST PUSH2 0xA1A PUSH8 0x2DC974E2D60F89F2 PUSH1 0xC0 SHL PUSH2 0x2E5F JUMP JUMPDEST PUSH2 0xA22 PUSH2 0x31BC JUMP JUMPDEST PUSH2 0xA36 PUSH8 0x43C3BCE3BB7496B5 PUSH1 0xC0 SHL PUSH2 0x2E5F JUMP JUMPDEST PUSH2 0xA4A PUSH8 0xBB8F8497318D0E3D PUSH1 0xC0 SHL PUSH2 0x2E5F JUMP JUMPDEST PUSH2 0xA52 PUSH2 0x323A JUMP JUMPDEST PUSH2 0xA66 PUSH8 0xAE567D679230A429 PUSH1 0xC0 SHL PUSH2 0x2E5F JUMP JUMPDEST PUSH2 0xA7A PUSH8 0x231903AA41B6F886 PUSH1 0xC0 SHL PUSH2 0x2E5F JUMP JUMPDEST PUSH2 0xA8E PUSH8 0x99626A9D715DE5D6 PUSH1 0xC0 SHL PUSH2 0x2E5F JUMP JUMPDEST PUSH2 0xAA2 PUSH8 0x5447C95FFF3FA21 PUSH1 0xC0 SHL PUSH2 0x2E5F JUMP JUMPDEST DUP1 ISZERO PUSH2 0xAF1 JUMPI PUSH2 0xABC PUSH8 0x8F5184BD1C8EE33 PUSH1 0xC0 SHL PUSH2 0x2E5F JUMP JUMPDEST PUSH2 0xAD0 PUSH8 0x8241F3001C298C36 PUSH1 0xC0 SHL PUSH2 0x2E5F JUMP JUMPDEST PUSH2 0xAE4 PUSH8 0xFABE2B6D0862D288 PUSH1 0xC0 SHL PUSH2 0x2E5F JUMP JUMPDEST PUSH2 0xAEC PUSH2 0x3289 JUMP JUMPDEST PUSH2 0xB06 JUMP JUMPDEST PUSH2 0xB05 PUSH8 0x9508EF280B504B32 PUSH1 0xC0 SHL PUSH2 0x2E5F JUMP JUMPDEST JUMPDEST PUSH2 0xB1A PUSH8 0xF75372A36517E22A PUSH1 0xC0 SHL PUSH2 0x2E5F JUMP JUMPDEST PUSH2 0xB2E PUSH8 0x811056BC087889EE PUSH1 0xC0 SHL PUSH2 0x2E5F JUMP JUMPDEST PUSH1 0x0 PUSH32 0x0 NUMBER GT DUP1 ISZERO PUSH2 0xB6F JUMPI POP PUSH2 0xB6E PUSH8 0xE72BA7A58A2CD1A4 PUSH1 0xC0 SHL PUSH2 0x3356 JUMP JUMPDEST JUMPDEST DUP1 PUSH2 0xB8A JUMPI POP PUSH2 0xB89 PUSH8 0x8B340239B1281E01 PUSH1 0xC0 SHL PUSH2 0x3361 JUMP JUMPDEST JUMPDEST PUSH2 0xBB4 JUMPI PUSH32 0x0 PUSH2 0xBB6 JUMP JUMPDEST NUMBER JUMPDEST SWAP1 POP PUSH2 0xBCC PUSH8 0x7C077E0A5BDB957A PUSH1 0xC0 SHL PUSH2 0x2E5F JUMP JUMPDEST DUP4 PUSH1 0xB SLOAD PUSH2 0xBDA SWAP2 SWAP1 PUSH2 0x4001 JUMP JUMPDEST PUSH1 0xB DUP2 SWAP1 SSTORE POP PUSH2 0xBF4 PUSH8 0x9DC48E1F765B79A2 PUSH1 0xC0 SHL PUSH2 0x2E5F JUMP JUMPDEST PUSH2 0xC08 PUSH8 0x6F0AA18DA6BA1987 PUSH1 0xC0 SHL PUSH2 0x2E5F JUMP JUMPDEST PUSH32 0xF6B83C7584863D40EA9CE49856D7B6AC07E575A8B81B422C1212E7CBC0F3A811 PUSH1 0xB SLOAD PUSH1 0x40 MLOAD PUSH2 0xC39 SWAP2 SWAP1 PUSH2 0x3AF5 JUMP JUMPDEST PUSH1 0x40 MLOAD DUP1 SWAP2 SUB SWAP1 LOG1 PUSH2 0xC55 PUSH8 0x9E9E3B4AC358F289 PUSH1 0xC0 SHL PUSH2 0x2E5F JUMP JUMPDEST PUSH2 0xC69 PUSH8 0x87F5914762CE7E81 PUSH1 0xC0 SHL PUSH2 0x2E5F JUMP JUMPDEST PUSH1 0x7 PUSH1 0x40 MLOAD DUP1 PUSH1 0x80 ADD PUSH1 0x40 MSTORE DUP1 DUP6 PUSH20 0xFFFFFFFFFFFFFFFFFFFFFFFFFFFFFFFFFFFFFFFF AND DUP2 MSTORE PUSH1 0x20 ADD DUP7 DUP2 MSTORE PUSH1 0x20 ADD DUP4 DUP2 MSTORE PUSH1 0x20 ADD PUSH1 0x0 DUP2 MSTORE POP SWAP1 DUP1 PUSH1 0x1 DUP2 SLOAD ADD DUP1 DUP3 SSTORE DUP1 SWAP2 POP POP PUSH1 0x1 SWAP1 SUB SWAP1 PUSH1 0x0 MSTORE PUSH1 0x20 PUSH1 0x0 KECCAK256 SWAP1 PUSH1 0x4 MUL ADD PUSH1 0x0 SWAP1 SWAP2 SWAP1 SWAP2 SWAP1 SWAP2 POP PUSH1 0x0 DUP3 ADD MLOAD DUP2 PUSH1 0x0 ADD PUSH1 0x0 PUSH2 0x100 EXP DUP2 SLOAD DUP2 PUSH20 0xFFFFFFFFFFFFFFFFFFFFFFFFFFFFFFFFFFFFFFFF MUL NOT AND SWAP1 DUP4 PUSH20 0xFFFFFFFFFFFFFFFFFFFFFFFFFFFFFFFFFFFFFFFF AND MUL OR SWAP1 SSTORE POP PUSH1 0x20 DUP3 ADD MLOAD DUP2 PUSH1 0x1 ADD SSTORE PUSH1 0x40 DUP3 ADD MLOAD DUP2 PUSH1 0x2 ADD SSTORE PUSH1 0x60 DUP3 ADD MLOAD DUP2 PUSH1 0x3 ADD SSTORE POP POP PUSH2 0xD47 PUSH8 0x7050A26D52745813 PUSH1 0xC0 SHL PUSH2 0x2E5F JUMP JUMPDEST PUSH1 0x1 PUSH1 0x7 DUP1 SLOAD SWAP1 POP PUSH2 0xD59 SWAP2 SWAP1 PUSH2 0x3FCD JUMP JUMPDEST PUSH1 0x9 PUSH1 0x0 DUP6 PUSH20 0xFFFFFFFFFFFFFFFFFFFFFFFFFFFFFFFFFFFFFFFF AND PUSH20 0xFFFFFFFFFFFFFFFFFFFFFFFFFFFFFFFFFFFFFFFF AND DUP2 MSTORE PUSH1 0x20 ADD SWAP1 DUP2 MSTORE PUSH1 0x20 ADD PUSH1 0x0 KECCAK256 DUP2 SWAP1 SSTORE POP PUSH2 0xDB0 PUSH8 0x57A2AFF0EB92E0E7 PUSH1 0xC0 SHL PUSH2 0x2E5F JUMP JUMPDEST PUSH2 0xDC4 PUSH8 0xCEA974032651DC77 PUSH1 0xC0 SHL PUSH2 0x2E5F JUMP JUMPDEST DUP3 PUSH20 0xFFFFFFFFFFFFFFFFFFFFFFFFFFFFFFFFFFFFFFFF AND PUSH1 0x9 PUSH1 0x0 DUP6 PUSH20 0xFFFFFFFFFFFFFFFFFFFFFFFFFFFFFFFFFFFFFFFF AND PUSH20 0xFFFFFFFFFFFFFFFFFFFFFFFFFFFFFFFFFFFFFFFF AND DUP2 MSTORE PUSH1 0x20 ADD SWAP1 DUP2 MSTORE PUSH1 0x20 ADD PUSH1 0x0 KECCAK256 SLOAD PUSH32 0x6C5D0EF1D0199B6DE41ECBCE95F59643BE4D723CA363FAF92D756E61E82FB13E DUP7 PUSH1 0x40 MLOAD PUSH2 0xE4A SWAP2 SWAP1 PUSH2 0x3AF5 JUMP JUMPDEST PUSH1 0x40 MLOAD DUP1 SWAP2 SUB SWAP1 LOG3 POP PUSH2 0xE5B PUSH2 0x3368 JUMP JUMPDEST POP POP POP JUMP JUMPDEST PUSH1 0x0 DUP1 PUSH1 0x0 PUSH2 0xE79 PUSH8 0x42D4E28D36E3CCD7 PUSH1 0xC0 SHL PUSH2 0x2E5F JUMP JUMPDEST PUSH2 0xE8D PUSH8 0x7BB71160451C0683 PUSH1 0xC0 SHL PUSH2 0x2E5F JUMP JUMPDEST PUSH2 0xEA1 PUSH8 0x920B55EA75EA9A3A PUSH1 0xC0 SHL PUSH2 0x2E5F JUMP JUMPDEST DUP5 PUSH20 0xFFFFFFFFFFFFFFFFFFFFFFFFFFFFFFFFFFFFFFFF AND PUSH4 0x70A08231 DUP6 PUSH1 0x40 MLOAD DUP3 PUSH4 0xFFFFFFFF AND PUSH1 0xE0 SHL DUP2 MSTORE PUSH1 0x4 ADD PUSH2 0xEDA SWAP2 SWAP1 PUSH2 0x3E04 JUMP JUMPDEST PUSH1 0x20 PUSH1 0x40 MLOAD DUP1 DUP4 SUB DUP2 DUP7 GAS STATICCALL ISZERO DUP1 ISZERO PUSH2 0xEF7 JUMPI RETURNDATASIZE PUSH1 0x0 DUP1 RETURNDATACOPY RETURNDATASIZE PUSH1 0x0 REVERT JUMPDEST POP POP POP POP PUSH1 0x40 MLOAD RETURNDATASIZE PUSH1 0x1F NOT PUSH1 0x1F DUP3 ADD AND DUP3 ADD DUP1 PUSH1 0x40 MSTORE POP DUP2 ADD SWAP1 PUSH2 0xF1B SWAP2 SWAP1 PUSH2 0x404A JUMP JUMPDEST PUSH1 0x8 PUSH1 0x0 PUSH1 0x9 PUSH1 0x0 DUP10 PUSH20 0xFFFFFFFFFFFFFFFFFFFFFFFFFFFFFFFFFFFFFFFF AND PUSH20 0xFFFFFFFFFFFFFFFFFFFFFFFFFFFFFFFFFFFFFFFF AND DUP2 MSTORE PUSH1 0x20 ADD SWAP1 DUP2 MSTORE PUSH1 0x20 ADD PUSH1 0x0 KECCAK256 SLOAD DUP2 MSTORE PUSH1 0x20 ADD SWAP1 DUP2 MSTORE PUSH1 0x20 ADD PUSH1 0x0 KECCAK256 PUSH1 0x0 DUP7 PUSH20 0xFFFFFFFFFFFFFFFFFFFFFFFFFFFFFFFFFFFFFFFF AND PUSH20 0xFFFFFFFFFFFFFFFFFFFFFFFFFFFFFFFFFFFFFFFF AND DUP2 MSTORE PUSH1 0x20 ADD SWAP1 DUP2 MSTORE PUSH1 0x20 ADD PUSH1 0x0 KECCAK256 PUSH1 0x0 ADD SLOAD PUSH2 0xFB8 DUP8 DUP8 PUSH2 0x12AC JUMP JUMPDEST SWAP3 POP SWAP3 POP SWAP3 POP SWAP3 POP SWAP3 POP SWAP3 JUMP JUMPDEST PUSH2 0xFD9 PUSH8 0x5C9F05AC6CBB7B29 PUSH1 0xC0 SHL PUSH2 0x2E5F JUMP JUMPDEST PUSH2 0xFE1 PUSH2 0x31BC JUMP JUMPDEST PUSH2 0xFF5 PUSH8 0x6490691E618FDE2E PUSH1 0xC0 SHL PUSH2 0x2E5F JUMP JUMPDEST PUSH2 0x1009 PUSH8 0xE91B503BD9B5F1DF PUSH1 0xC0 SHL PUSH2 0x2E5F JUMP JUMPDEST PUSH2 0x1011 PUSH2 0x323A JUMP JUMPDEST PUSH2 0x1025 PUSH8 0x3A5D638EDFB08506 PUSH1 0xC0 SHL PUSH2 0x2E5F JUMP JUMPDEST PUSH2 0x1039 PUSH8 0x1F84CE3F612BF6F8 PUSH1 0xC0 SHL PUSH2 0x2E5F JUMP JUMPDEST PUSH2 0x104D PUSH8 0xBF87743E74842453 PUSH1 0xC0 SHL PUSH2 0x2E5F JUMP JUMPDEST DUP1 PUSH1 0x4 DUP2 SWAP1 SSTORE POP PUSH2 0x1068 PUSH8 0x89831FA94D076EED PUSH1 0xC0 SHL PUSH2 0x2E5F JUMP JUMPDEST PUSH2 0x107C PUSH8 0x18D00A736527E4B0 PUSH1 0xC0 SHL PUSH2 0x2E5F JUMP JUMPDEST PUSH32 0xEEDD3CF2D0C360FA60F6BE27C8F4AE71800A35E2676B4419D1B114647122AA2A DUP2 PUSH1 0x40 MLOAD PUSH2 0x10AB SWAP2 SWAP1 PUSH2 0x3AF5 JUMP JUMPDEST PUSH1 0x40 MLOAD DUP1 SWAP2 SUB SWAP1 LOG1 PUSH2 0x10BB PUSH2 0x3368 JUMP JUMPDEST POP JUMP JUMPDEST PUSH1 0x5 SLOAD DUP2 JUMP JUMPDEST PUSH2 0x10D8 PUSH8 0xE4A843B3750EC047 PUSH1 0xC0 SHL PUSH2 0x2E5F JUMP JUMPDEST PUSH2 0x10E0 PUSH2 0x31BC JUMP JUMPDEST PUSH2 0x10F4 PUSH8 0x1E451046A4158010 PUSH1 0xC0 SHL PUSH2 0x2E5F JUMP JUMPDEST PUSH2 0x1108 PUSH8 0x5396AC31D720781C PUSH1 0xC0 SHL PUSH2 0x2E5F JUMP JUMPDEST PUSH2 0x1110 PUSH2 0x323A JUMP JUMPDEST PUSH2 0x1124 PUSH8 0x841445DAB962A54 PUSH1 0xC0 SHL PUSH2 0x2E5F JUMP JUMPDEST PUSH2 0x1138 PUSH8 0x596B1C0F8CF8229 PUSH1 0xC0 SHL PUSH2 0x2E5F JUMP JUMPDEST PUSH2 0x114C PUSH8 0x75637FBDA651CCD0 PUSH1 0xC0 SHL PUSH2 0x2E5F JUMP JUMPDEST DUP1 PUSH1 0x3 DUP2 SWAP1 SSTORE POP PUSH2 0x1167 PUSH8 0xDD76B4A4FA231EE8 PUSH1 0xC0 SHL PUSH2 0x2E5F JUMP JUMPDEST PUSH2 0x117B PUSH8 0x97A2E01E6FD62E18 PUSH1 0xC0 SHL PUSH2 0x2E5F JUMP JUMPDEST PUSH32 0x722D2D49511EF6CD9F1F09ED54AF16CF76E60F362C91FF351FB510D9BDF85EFC DUP2 PUSH1 0x40 MLOAD PUSH2 0x11AA SWAP2 SWAP1 PUSH2 0x3AF5 JUMP JUMPDEST PUSH1 0x40 MLOAD DUP1 SWAP2 SUB SWAP1 LOG1 PUSH2 0x11BA PUSH2 0x3368 JUMP JUMPDEST POP JUMP JUMPDEST PUSH2 0x11D1 PUSH8 0xED99614E642A1D90 PUSH1 0xC0 SHL PUSH2 0x2E5F JUMP JUMPDEST PUSH2 0x11E5 PUSH8 0xDC70FDC5E984FCAC PUSH1 0xC0 SHL PUSH2 0x2E5F JUMP JUMPDEST PUSH2 0x11F8 PUSH7 0x2861EA3B13F123 PUSH1 0xC0 SHL PUSH2 0x2E5F JUMP JUMPDEST PUSH2 0x1204 DUP3 DUP3 PUSH1 0x0 PUSH2 0x2683 JUMP JUMPDEST POP POP JUMP JUMPDEST PUSH32 0x0 DUP2 JUMP JUMPDEST PUSH2 0x1240 PUSH8 0xCD99C6B68229DEC1 PUSH1 0xC0 SHL PUSH2 0x2E5F JUMP JUMPDEST PUSH2 0x1248 PUSH2 0x323A JUMP JUMPDEST PUSH2 0x125C PUSH8 0x6A1C05C450E9DD2E PUSH1 0xC0 SHL PUSH2 0x2E5F JUMP JUMPDEST PUSH2 0x1270 PUSH8 0x6CEE1182BBAC0409 PUSH1 0xC0 SHL PUSH2 0x2E5F JUMP JUMPDEST PUSH2 0x1284 PUSH8 0x8879DF65A574E089 PUSH1 0xC0 SHL PUSH2 0x2E5F JUMP JUMPDEST PUSH2 0x1298 PUSH8 0x1411CA53E807C271 PUSH1 0xC0 SHL PUSH2 0x2E5F JUMP JUMPDEST PUSH2 0x12A1 DUP2 PUSH2 0x2E62 JUMP JUMPDEST PUSH2 0x12A9 PUSH2 0x3368 JUMP JUMPDEST POP JUMP JUMPDEST PUSH1 0x0 PUSH2 0x12C2 PUSH8 0x9DAFE529AF3E5864 PUSH1 0xC0 SHL PUSH2 0x2E5F JUMP JUMPDEST PUSH2 0x12D6 PUSH8 0x7A4D6F235453CA2E PUSH1 0xC0 SHL PUSH2 0x2E5F JUMP JUMPDEST PUSH2 0x12EA PUSH8 0x325372DEF83D6B78 PUSH1 0xC0 SHL PUSH2 0x2E5F JUMP JUMPDEST PUSH1 0x0 PUSH1 0x9 PUSH1 0x0 DUP6 PUSH20 0xFFFFFFFFFFFFFFFFFFFFFFFFFFFFFFFFFFFFFFFF AND PUSH20 0xFFFFFFFFFFFFFFFFFFFFFFFFFFFFFFFFFFFFFFFF AND DUP2 MSTORE PUSH1 0x20 ADD SWAP1 DUP2 MSTORE PUSH1 0x20 ADD PUSH1 0x0 KECCAK256 SLOAD SWAP1 POP PUSH2 0x1342 PUSH8 0x92EE52A2797320AA PUSH1 0xC0 SHL PUSH2 0x2E5F JUMP JUMPDEST PUSH2 0x1356 PUSH8 0x4DA1483A63426CD0 PUSH1 0xC0 SHL PUSH2 0x2E5F JUMP JUMPDEST PUSH1 0x0 PUSH1 0x7 DUP3 DUP2 SLOAD DUP2 LT PUSH2 0x136C JUMPI PUSH2 0x136B PUSH2 0x3ECD JUMP JUMPDEST JUMPDEST SWAP1 PUSH1 0x0 MSTORE PUSH1 0x20 PUSH1 0x0 KECCAK256 SWAP1 PUSH1 0x4 MUL ADD SWAP1 POP PUSH2 0x1390 PUSH8 0x4DA648B79E11645B PUSH1 0xC0 SHL PUSH2 0x2E5F JUMP JUMPDEST PUSH2 0x13A4 PUSH8 0x8D94706B419E1247 PUSH1 0xC0 SHL PUSH2 0x2E5F JUMP JUMPDEST PUSH1 0x0 PUSH1 0x8 PUSH1 0x0 DUP5 DUP2 MSTORE PUSH1 0x20 ADD SWAP1 DUP2 MSTORE PUSH1 0x20 ADD PUSH1 0x0 KECCAK256 PUSH1 0x0 DUP7 PUSH20 0xFFFFFFFFFFFFFFFFFFFFFFFFFFFFFFFFFFFFFFFF AND PUSH20 0xFFFFFFFFFFFFFFFFFFFFFFFFFFFFFFFFFFFFFFFF AND DUP2 MSTORE PUSH1 0x20 ADD SWAP1 DUP2 MSTORE PUSH1 0x20 ADD PUSH1 0x0 KECCAK256 SWAP1 POP PUSH2 0x140C PUSH8 0xA1DE4331187DD2E PUSH1 0xC0 SHL PUSH2 0x2E5F JUMP JUMPDEST PUSH2 0x1420 PUSH8 0x3FB8F82C340F79DB PUSH1 0xC0 SHL PUSH2 0x2E5F JUMP JUMPDEST PUSH1 0x0 DUP3 PUSH1 0x3 ADD SLOAD SWAP1 POP PUSH2 0x143D PUSH8 0xFC50AFB4FBF0E342 PUSH1 0xC0 SHL PUSH2 0x2E5F JUMP JUMPDEST PUSH2 0x1451 PUSH8 0xAEADB655431D7389 PUSH1 0xC0 SHL PUSH2 0x2E5F JUMP JUMPDEST PUSH1 0x0 DUP4 PUSH1 0x0 ADD PUSH1 0x0 SWAP1 SLOAD SWAP1 PUSH2 0x100 EXP SWAP1 DIV PUSH20 0xFFFFFFFFFFFFFFFFFFFFFFFFFFFFFFFFFFFFFFFF AND PUSH20 0xFFFFFFFFFFFFFFFFFFFFFFFFFFFFFFFFFFFFFFFF AND PUSH4 0x70A08231 ADDRESS PUSH1 0x40 MLOAD DUP3 PUSH4 0xFFFFFFFF AND PUSH1 0xE0 SHL DUP2 MSTORE PUSH1 0x4 ADD PUSH2 0x14B0 SWAP2 SWAP1 PUSH2 0x3E04 JUMP JUMPDEST PUSH1 0x20 PUSH1 0x40 MLOAD DUP1 DUP4 SUB DUP2 DUP7 GAS STATICCALL ISZERO DUP1 ISZERO PUSH2 0x14CD JUMPI RETURNDATASIZE PUSH1 0x0 DUP1 RETURNDATACOPY RETURNDATASIZE PUSH1 0x0 REVERT JUMPDEST POP POP POP POP PUSH1 0x40 MLOAD RETURNDATASIZE PUSH1 0x1F NOT PUSH1 0x1F DUP3 ADD AND DUP3 ADD DUP1 PUSH1 0x40 MSTORE POP DUP2 ADD SWAP1 PUSH2 0x14F1 SWAP2 SWAP1 PUSH2 0x404A JUMP JUMPDEST SWAP1 POP PUSH2 0x1507 PUSH8 0xE34E176361D00437 PUSH1 0xC0 SHL PUSH2 0x2E5F JUMP JUMPDEST PUSH2 0x151B PUSH8 0x62B205FDC9B00C0A PUSH1 0xC0 SHL PUSH2 0x2E5F JUMP JUMPDEST DUP4 PUSH1 0x2 ADD SLOAD NUMBER GT DUP1 ISZERO PUSH2 0x152F JUMPI POP PUSH1 0x0 DUP2 EQ ISZERO JUMPDEST ISZERO PUSH2 0x161E JUMPI PUSH2 0x1548 PUSH8 0xBC63951BEEB73F47 PUSH1 0xC0 SHL PUSH2 0x2E5F JUMP JUMPDEST PUSH2 0x155C PUSH8 0xAAE529702071EF1A PUSH1 0xC0 SHL PUSH2 0x2E5F JUMP JUMPDEST PUSH2 0x1570 PUSH8 0x853C29274F832E79 PUSH1 0xC0 SHL PUSH2 0x2E5F JUMP JUMPDEST PUSH1 0x0 DUP5 PUSH1 0x2 ADD SLOAD NUMBER PUSH2 0x1582 SWAP2 SWAP1 PUSH2 0x3FCD JUMP JUMPDEST SWAP1 POP PUSH2 0x1598 PUSH8 0x3EE77E2A9AA3E77B PUSH1 0xC0 SHL PUSH2 0x2E5F JUMP JUMPDEST PUSH2 0x15AC PUSH8 0x773342EDCF59B93B PUSH1 0xC0 SHL PUSH2 0x2E5F JUMP JUMPDEST PUSH1 0x0 PUSH1 0xB SLOAD DUP7 PUSH1 0x1 ADD SLOAD PUSH1 0x6 SLOAD DUP5 PUSH2 0x15C4 SWAP2 SWAP1 PUSH2 0x3F2B JUMP JUMPDEST PUSH2 0x15CE SWAP2 SWAP1 PUSH2 0x3F2B JUMP JUMPDEST PUSH2 0x15D8 SWAP2 SWAP1 PUSH2 0x3F9C JUMP JUMPDEST SWAP1 POP PUSH2 0x15EE PUSH8 0x3E7E73963D5C1783 PUSH1 0xC0 SHL PUSH2 0x2E5F JUMP JUMPDEST DUP3 PUSH5 0xE8D4A51000 DUP3 PUSH2 0x1600 SWAP2 SWAP1 PUSH2 0x3F2B JUMP JUMPDEST PUSH2 0x160A SWAP2 SWAP1 PUSH2 0x3F9C JUMP JUMPDEST DUP5 PUSH2 0x1615 SWAP2 SWAP1 PUSH2 0x4001 JUMP JUMPDEST SWAP4 POP POP POP PUSH2 0x1633 JUMP JUMPDEST PUSH2 0x1632 PUSH8 0x2BEA92B4DB51F9F6 PUSH1 0xC0 SHL PUSH2 0x2E5F JUMP JUMPDEST JUMPDEST PUSH2 0x1647 PUSH8 0x93DCA64F82CA7B5D PUSH1 0xC0 SHL PUSH2 0x2E5F JUMP JUMPDEST PUSH2 0x165B PUSH8 0x95678A300A33460B PUSH1 0xC0 SHL PUSH2 0x2E5F JUMP JUMPDEST DUP3 PUSH1 0x4 ADD SLOAD DUP4 PUSH1 0x1 ADD SLOAD PUSH5 0xE8D4A51000 DUP5 DUP7 PUSH1 0x0 ADD SLOAD PUSH2 0x167B SWAP2 SWAP1 PUSH2 0x3F2B JUMP JUMPDEST PUSH2 0x1685 SWAP2 SWAP1 PUSH2 0x3F9C JUMP JUMPDEST PUSH2 0x168F SWAP2 SWAP1 PUSH2 0x3FCD JUMP JUMPDEST PUSH2 0x1699 SWAP2 SWAP1 PUSH2 0x4001 JUMP JUMPDEST SWAP6 POP POP POP POP POP POP SWAP3 SWAP2 POP POP JUMP JUMPDEST PUSH2 0x16BA PUSH8 0x9E98902A798616E2 PUSH1 0xC0 SHL PUSH2 0x2E5F JUMP JUMPDEST PUSH2 0x16C2 PUSH2 0x31BC JUMP JUMPDEST PUSH2 0x16D6 PUSH8 0x3E0FBB65D675E933 PUSH1 0xC0 SHL PUSH2 0x2E5F JUMP JUMPDEST PUSH2 0x16EA PUSH8 0x2122765AFB0007DC PUSH1 0xC0 SHL PUSH2 0x2E5F JUMP JUMPDEST PUSH2 0x16F2 PUSH2 0x323A JUMP JUMPDEST PUSH2 0x1706 PUSH8 0x2C53B410C682EBC4 PUSH1 0xC0 SHL PUSH2 0x2E5F JUMP JUMPDEST PUSH2 0x171A PUSH8 0x14DDA57857268BA8 PUSH1 0xC0 SHL PUSH2 0x2E5F JUMP JUMPDEST PUSH2 0x172E PUSH8 0x3B41E17AC01F29C1 PUSH1 0xC0 SHL PUSH2 0x2E5F JUMP JUMPDEST DUP1 PUSH1 0x5 DUP2 SWAP1 SSTORE POP PUSH2 0x1749 PUSH8 0xAAD0CF5EC9ADB9C3 PUSH1 0xC0 SHL PUSH2 0x2E5F JUMP JUMPDEST PUSH2 0x175D PUSH8 0x8135973C48C0E5B8 PUSH1 0xC0 SHL PUSH2 0x2E5F JUMP JUMPDEST PUSH32 0x22764535B528E8EC691FD4F74E734BD74710F85776BD0B90E1EAF9ACF6DD06C8 DUP2 PUSH1 0x40 MLOAD PUSH2 0x178C SWAP2 SWAP1 PUSH2 0x3AF5 JUMP JUMPDEST PUSH1 0x40 MLOAD DUP1 SWAP2 SUB SWAP1 LOG1 PUSH2 0x179C PUSH2 0x3368 JUMP JUMPDEST POP JUMP JUMPDEST PUSH2 0x17B3 PUSH8 0xB2271EB4E51BC221 PUSH1 0xC0 SHL PUSH2 0x2E5F JUMP JUMPDEST PUSH2 0x17BB PUSH2 0x323A JUMP JUMPDEST PUSH2 0x17CF PUSH8 0x3C44097303C9286 PUSH1 0xC0 SHL PUSH2 0x2E5F JUMP JUMPDEST PUSH2 0x17E3 PUSH8 0x7542D3243C75407 PUSH1 0xC0 SHL PUSH2 0x2E5F JUMP JUMPDEST PUSH2 0x17F7 PUSH8 0xCD93A234D1B89FB PUSH1 0xC0 SHL PUSH2 0x2E5F JUMP JUMPDEST PUSH2 0x180B PUSH8 0xAE9C85DC3F5A3F59 PUSH1 0xC0 SHL PUSH2 0x2E5F JUMP JUMPDEST PUSH2 0x1813 PUSH2 0x3289 JUMP JUMPDEST PUSH2 0x181B PUSH2 0x3368 JUMP JUMPDEST JUMP JUMPDEST PUSH2 0x1831 PUSH8 0xC1F3CEF14E9816FA PUSH1 0xC0 SHL PUSH2 0x2E5F JUMP JUMPDEST PUSH2 0x1839 PUSH2 0x31BC JUMP JUMPDEST PUSH2 0x184D PUSH8 0x6B29DD0EE2B92978 PUSH1 0xC0 SHL PUSH2 0x2E5F JUMP JUMPDEST PUSH2 0x1861 PUSH8 0x1D0E676C1574FC7F PUSH1 0xC0 SHL PUSH2 0x2E5F JUMP JUMPDEST PUSH2 0x1869 PUSH2 0x323A JUMP JUMPDEST PUSH2 0x187D PUSH8 0x790642E6431331DE PUSH1 0xC0 SHL PUSH2 0x2E5F JUMP JUMPDEST PUSH2 0x1891 PUSH8 0xEE3BA04EAB7ED6FB PUSH1 0xC0 SHL PUSH2 0x2E5F JUMP JUMPDEST PUSH2 0x18A5 PUSH8 0x70FABE4A7997A1FC PUSH1 0xC0 SHL PUSH2 0x2E5F JUMP JUMPDEST PUSH2 0x18B9 PUSH8 0x33301068DA0C36D6 PUSH1 0xC0 SHL PUSH2 0x2E5F JUMP JUMPDEST DUP1 ISZERO PUSH2 0x1908 JUMPI PUSH2 0x18D3 PUSH8 0x5EE5A0F5F712728B PUSH1 0xC0 SHL PUSH2 0x2E5F JUMP JUMPDEST PUSH2 0x18E7 PUSH8 0x666ED4E70549C1C1 PUSH1 0xC0 SHL PUSH2 0x2E5F JUMP JUMPDEST PUSH2 0x18FB PUSH8 0xEE1456121AE594B9 PUSH1 0xC0 SHL PUSH2 0x2E5F JUMP JUMPDEST PUSH2 0x1903 PUSH2 0x3289 JUMP JUMPDEST PUSH2 0x191D JUMP JUMPDEST PUSH2 0x191C PUSH8 0x3275ADF013088B16 PUSH1 0xC0 SHL PUSH2 0x2E5F JUMP JUMPDEST JUMPDEST PUSH2 0x1931 PUSH8 0x5BF28DD896552641 PUSH1 0xC0 SHL PUSH2 0x2E5F JUMP JUMPDEST PUSH1 0x7 DUP4 DUP2 SLOAD DUP2 LT PUSH2 0x1945 JUMPI PUSH2 0x1944 PUSH2 0x3ECD JUMP JUMPDEST JUMPDEST SWAP1 PUSH1 0x0 MSTORE PUSH1 0x20 PUSH1 0x0 KECCAK256 SWAP1 PUSH1 0x4 MUL ADD PUSH1 0x1 ADD SLOAD DUP3 PUSH1 0xB SLOAD PUSH2 0x1965 SWAP2 SWAP1 PUSH2 0x4001 JUMP JUMPDEST PUSH2 0x196F SWAP2 SWAP1 PUSH2 0x3FCD JUMP JUMPDEST PUSH1 0xB DUP2 SWAP1 SSTORE POP PUSH2 0x1989 PUSH8 0x7AD2F727CC7C0A9E PUSH1 0xC0 SHL PUSH2 0x2E5F JUMP JUMPDEST PUSH2 0x199D PUSH8 0x734AC90DECA69878 PUSH1 0xC0 SHL PUSH2 0x2E5F JUMP JUMPDEST PUSH32 0xF6B83C7584863D40EA9CE49856D7B6AC07E575A8B81B422C1212E7CBC0F3A811 PUSH1 0xB SLOAD PUSH1 0x40 MLOAD PUSH2 0x19CE SWAP2 SWAP1 PUSH2 0x3AF5 JUMP JUMPDEST PUSH1 0x40 MLOAD DUP1 SWAP2 SUB SWAP1 LOG1 PUSH2 0x19EA PUSH8 0x15E7E1E86B11801E PUSH1 0xC0 SHL PUSH2 0x2E5F JUMP JUMPDEST DUP2 PUSH1 0x7 DUP5 DUP2 SLOAD DUP2 LT PUSH2 0x19FF JUMPI PUSH2 0x19FE PUSH2 0x3ECD JUMP JUMPDEST JUMPDEST SWAP1 PUSH1 0x0 MSTORE PUSH1 0x20 PUSH1 0x0 KECCAK256 SWAP1 PUSH1 0x4 MUL ADD PUSH1 0x1 ADD DUP2 SWAP1 SSTORE POP PUSH2 0x1A28 PUSH8 0x683B46548702951C PUSH1 0xC0 SHL PUSH2 0x2E5F JUMP JUMPDEST PUSH2 0x1A3C PUSH8 0x5FF1985A74050A01 PUSH1 0xC0 SHL PUSH2 0x2E5F JUMP JUMPDEST DUP3 PUSH32 0x144685F4A2C1908FDCB1C5450BFADD3B08AA5071D5DF19D1A9B54C0DE1D061B0 DUP4 PUSH1 0x40 MLOAD PUSH2 0x1A6C SWAP2 SWAP1 PUSH2 0x3AF5 JUMP JUMPDEST PUSH1 0x40 MLOAD DUP1 SWAP2 SUB SWAP1 LOG2 PUSH2 0x1A7C PUSH2 0x3368 JUMP JUMPDEST POP POP POP JUMP JUMPDEST PUSH2 0x1A95 PUSH8 0xB5274E2833C1ADB6 PUSH1 0xC0 SHL PUSH2 0x2E5F JUMP JUMPDEST PUSH2 0x1AA9 PUSH8 0x48B8675637770E0D PUSH1 0xC0 SHL PUSH2 0x2E5F JUMP JUMPDEST PUSH2 0x1ABD PUSH8 0x7448FF5BD108C4A7 PUSH1 0xC0 SHL PUSH2 0x2E5F JUMP JUMPDEST PUSH1 0x0 PUSH1 0x9 PUSH1 0x0 DUP4 PUSH20 0xFFFFFFFFFFFFFFFFFFFFFFFFFFFFFFFFFFFFFFFF AND PUSH20 0xFFFFFFFFFFFFFFFFFFFFFFFFFFFFFFFFFFFFFFFF AND DUP2 MSTORE PUSH1 0x20 ADD SWAP1 DUP2 MSTORE PUSH1 0x20 ADD PUSH1 0x0 KECCAK256 SLOAD SWAP1 POP PUSH2 0x1B15 PUSH8 0xB1BD12800F960AF7 PUSH1 0xC0 SHL PUSH2 0x2E5F JUMP JUMPDEST PUSH2 0x1B29 PUSH8 0x5B8CE6194D61C4B7 PUSH1 0xC0 SHL PUSH2 0x2E5F JUMP JUMPDEST PUSH1 0x0 PUSH1 0x7 DUP3 DUP2 SLOAD DUP2 LT PUSH2 0x1B3F JUMPI PUSH2 0x1B3E PUSH2 0x3ECD JUMP JUMPDEST JUMPDEST SWAP1 PUSH1 0x0 MSTORE PUSH1 0x20 PUSH1 0x0 KECCAK256 SWAP1 PUSH1 0x4 MUL ADD SWAP1 POP PUSH2 0x1B63 PUSH8 0x399CC2D468FA4FED PUSH1 0xC0 SHL PUSH2 0x2E5F JUMP JUMPDEST PUSH2 0x1B77 PUSH8 0x2634AE0E6BB74E2A PUSH1 0xC0 SHL PUSH2 0x2E5F JUMP JUMPDEST PUSH1 0x0 PUSH1 0x8 PUSH1 0x0 DUP5 DUP2 MSTORE PUSH1 0x20 ADD SWAP1 DUP2 MSTORE PUSH1 0x20 ADD PUSH1 0x0 KECCAK256 PUSH1 0x0 CALLER PUSH20 0xFFFFFFFFFFFFFFFFFFFFFFFFFFFFFFFFFFFFFFFF AND PUSH20 0xFFFFFFFFFFFFFFFFFFFFFFFFFFFFFFFFFFFFFFFF AND DUP2 MSTORE PUSH1 0x20 ADD SWAP1 DUP2 MSTORE PUSH1 0x20 ADD PUSH1 0x0 KECCAK256 SWAP1 POP PUSH2 0x1BDF PUSH8 0x868AFBBF88470B8C PUSH1 0xC0 SHL PUSH2 0x2E5F JUMP JUMPDEST PUSH2 0x1BF3 PUSH8 0xCCE81778F004958A PUSH1 0xC0 SHL PUSH2 0x2E5F JUMP JUMPDEST PUSH2 0x1C46 CALLER DUP3 PUSH1 0x0 ADD SLOAD DUP5 PUSH1 0x0 ADD PUSH1 0x0 SWAP1 SLOAD SWAP1 PUSH2 0x100 EXP SWAP1 DIV PUSH20 0xFFFFFFFFFFFFFFFFFFFFFFFFFFFFFFFFFFFFFFFF AND PUSH20 0xFFFFFFFFFFFFFFFFFFFFFFFFFFFFFFFFFFFFFFFF AND PUSH2 0x3371 SWAP1 SWAP3 SWAP2 SWAP1 PUSH4 0xFFFFFFFF AND JUMP JUMPDEST PUSH2 0x1C5A PUSH8 0x46B2B052F2D0CB38 PUSH1 0xC0 SHL PUSH2 0x2E5F JUMP JUMPDEST PUSH2 0x1C6E PUSH8 0x1B8D34B9EF1F41D7 PUSH1 0xC0 SHL PUSH2 0x2E5F JUMP JUMPDEST DUP3 CALLER PUSH20 0xFFFFFFFFFFFFFFFFFFFFFFFFFFFFFFFFFFFFFFFF AND PUSH32 0xBB757047C2B5F3974FE26B7C10F732E7BCE710B0952A71082702781E62AE0595 DUP4 PUSH1 0x0 ADD SLOAD PUSH1 0x40 MLOAD PUSH2 0x1CB9 SWAP2 SWAP1 PUSH2 0x3AF5 JUMP JUMPDEST PUSH1 0x40 MLOAD DUP1 SWAP2 SUB SWAP1 LOG3 PUSH2 0x1CD5 PUSH8 0x8758CCA99E2404C5 PUSH1 0xC0 SHL PUSH2 0x2E5F JUMP JUMPDEST PUSH1 0x0 DUP2 PUSH1 0x0 ADD DUP2 SWAP1 SSTORE POP PUSH2 0x1CF3 PUSH8 0x24B60BF849E9287F PUSH1 0xC0 SHL PUSH2 0x2E5F JUMP JUMPDEST PUSH1 0x0 DUP2 PUSH1 0x1 ADD DUP2 SWAP1 SSTORE POP PUSH2 0x1D11 PUSH8 0x68461D8205D657B6 PUSH1 0xC0 SHL PUSH2 0x2E5F JUMP JUMPDEST PUSH1 0x0 DUP2 PUSH1 0x4 ADD DUP2 SWAP1 SSTORE POP POP POP POP POP JUMP JUMPDEST PUSH2 0x1D29 PUSH2 0x31BC JUMP JUMPDEST PUSH2 0x1D33 PUSH1 0x0 PUSH2 0x33F7 JUMP JUMPDEST JUMP JUMPDEST PUSH1 0x4 SLOAD DUP2 JUMP JUMPDEST PUSH2 0x1D4F PUSH8 0x45279EE75A6851D5 PUSH1 0xC0 SHL PUSH2 0x2E5F JUMP JUMPDEST PUSH2 0x1D57 PUSH2 0x31BC JUMP JUMPDEST PUSH2 0x1D6B PUSH8 0xB5A82A795E431972 PUSH1 0xC0 SHL PUSH2 0x2E5F JUMP JUMPDEST PUSH2 0x1D7F PUSH8 0xE63B1C29AEB466B2 PUSH1 0xC0 SHL PUSH2 0x2E5F JUMP JUMPDEST PUSH2 0x1D87 PUSH2 0x323A JUMP JUMPDEST PUSH2 0x1D9B PUSH8 0x1197069457665E7F PUSH1 0xC0 SHL PUSH2 0x2E5F JUMP JUMPDEST PUSH2 0x1DAF PUSH8 0x5787C0A6EB88A1F3 PUSH1 0xC0 SHL PUSH2 0x2E5F JUMP JUMPDEST PUSH2 0x1DC3 PUSH8 0x754459856D6ACF4C PUSH1 0xC0 SHL PUSH2 0x2E5F JUMP JUMPDEST PUSH2 0x1DD7 PUSH8 0xD3C9578E39175B26 PUSH1 0xC0 SHL PUSH2 0x2E5F JUMP JUMPDEST DUP1 ISZERO PUSH2 0x1E26 JUMPI PUSH2 0x1DF1 PUSH8 0xF198FC52B06A6893 PUSH1 0xC0 SHL PUSH2 0x2E5F JUMP JUMPDEST PUSH2 0x1E05 PUSH8 0x70FC406343AD8018 PUSH1 0xC0 SHL PUSH2 0x2E5F JUMP JUMPDEST PUSH2 0x1E19 PUSH8 0x6C60EDC0901D2211 PUSH1 0xC0 SHL PUSH2 0x2E5F JUMP JUMPDEST PUSH2 0x1E21 PUSH2 0x3289 JUMP JUMPDEST PUSH2 0x1E3B JUMP JUMPDEST PUSH2 0x1E3A PUSH8 0xF5BD5AD74B8E18FE PUSH1 0xC0 SHL PUSH2 0x2E5F JUMP JUMPDEST JUMPDEST PUSH2 0x1E4F PUSH8 0xEB16A6291CF084F9 PUSH1 0xC0 SHL PUSH2 0x2E5F JUMP JUMPDEST DUP2 PUSH1 0x6 DUP2 SWAP1 SSTORE POP PUSH2 0x1E6A PUSH8 0xFCC1314E02F493EF PUSH1 0xC0 SHL PUSH2 0x2E5F JUMP JUMPDEST PUSH2 0x1E7E PUSH8 0x3AC31942FFC32487 PUSH1 0xC0 SHL PUSH2 0x2E5F JUMP JUMPDEST PUSH32 0x5D7C78D0EE3CE6196F90E74ED58C0ADA9AC7CCC47D3ACA0547AC893776F03826 DUP3 PUSH1 0x40 MLOAD PUSH2 0x1EAD SWAP2 SWAP1 PUSH2 0x3AF5 JUMP JUMPDEST PUSH1 0x40 MLOAD DUP1 SWAP2 SUB SWAP1 LOG1 PUSH2 0x1EBD PUSH2 0x3368 JUMP JUMPDEST POP POP JUMP JUMPDEST PUSH1 0x0 DUP1 PUSH1 0x0 DUP1 PUSH1 0x0 PUSH2 0x1EDD PUSH8 0xB860A842AE7DA215 PUSH1 0xC0 SHL PUSH2 0x2E5F JUMP JUMPDEST PUSH2 0x1EF1 PUSH8 0x12081D1DE2BD4170 PUSH1 0xC0 SHL PUSH2 0x2E5F JUMP JUMPDEST PUSH2 0x1F05 PUSH8 0x7C07D63030A0E2DE PUSH1 0xC0 SHL PUSH2 0x2E5F JUMP JUMPDEST PUSH1 0x6 SLOAD PUSH1 0x2 SLOAD PUSH1 0x3 SLOAD PUSH1 0x4 SLOAD PUSH1 0x5 SLOAD SWAP5 POP SWAP5 POP SWAP5 POP SWAP5 POP SWAP5 POP SWAP1 SWAP2 SWAP3 SWAP4 SWAP5 JUMP JUMPDEST PUSH1 0x6 SLOAD DUP2 JUMP JUMPDEST PUSH1 0x0 DUP1 PUSH1 0x0 SWAP1 SLOAD SWAP1 PUSH2 0x100 EXP SWAP1 DIV PUSH20 0xFFFFFFFFFFFFFFFFFFFFFFFFFFFFFFFFFFFFFFFF AND SWAP1 POP SWAP1 JUMP JUMPDEST PUSH1 0x8 PUSH1 0x20 MSTORE DUP2 PUSH1 0x0 MSTORE PUSH1 0x40 PUSH1 0x0 KECCAK256 PUSH1 0x20 MSTORE DUP1 PUSH1 0x0 MSTORE PUSH1 0x40 PUSH1 0x0 KECCAK256 PUSH1 0x0 SWAP2 POP SWAP2 POP POP DUP1 PUSH1 0x0 ADD SLOAD SWAP1 DUP1 PUSH1 0x1 ADD SLOAD SWAP1 DUP1 PUSH1 0x2 ADD SLOAD SWAP1 DUP1 PUSH1 0x3 ADD SLOAD SWAP1 DUP1 PUSH1 0x4 ADD SLOAD SWAP1 POP DUP6 JUMP JUMPDEST PUSH1 0x0 PUSH2 0x1FAD PUSH8 0x3308AD3563129392 PUSH1 0xC0 SHL PUSH2 0x2E5F JUMP JUMPDEST PUSH2 0x1FC1 PUSH8 0x1E1B1BFD075EE473 PUSH1 0xC0 SHL PUSH2 0x2E5F JUMP JUMPDEST PUSH2 0x1FD5 PUSH8 0x901DD20F9D83B4BA PUSH1 0xC0 SHL PUSH2 0x2E5F JUMP JUMPDEST PUSH1 0x7 DUP1 SLOAD SWAP1 POP SWAP1 POP SWAP1 JUMP JUMPDEST PUSH2 0x1FF4 PUSH8 0xC06B273B39655449 PUSH1 0xC0 SHL PUSH2 0x2E5F JUMP JUMPDEST PUSH2 0x1FFC PUSH2 0x31BC JUMP JUMPDEST PUSH2 0x2010 PUSH8 0x2D25C2ACCBCE1C52 PUSH1 0xC0 SHL PUSH2 0x2E5F JUMP JUMPDEST PUSH2 0x2024 PUSH8 0xD693AB380F2020A7 PUSH1 0xC0 SHL PUSH2 0x2E5F JUMP JUMPDEST PUSH2 0x202C PUSH2 0x323A JUMP JUMPDEST PUSH2 0x2040 PUSH8 0xF2084707F8085885 PUSH1 0xC0 SHL PUSH2 0x2E5F JUMP JUMPDEST PUSH2 0x2054 PUSH8 0x801CC212B0AFDD2B PUSH1 0xC0 SHL PUSH2 0x2E5F JUMP JUMPDEST PUSH2 0x2068 PUSH8 0xE208042DD98A8C64 PUSH1 0xC0 SHL PUSH2 0x2E5F JUMP JUMPDEST DUP1 PUSH1 0x2 DUP2 SWAP1 SSTORE POP PUSH2 0x2083 PUSH8 0xFFD4E2F1232D02F3 PUSH1 0xC0 SHL PUSH2 0x2E5F JUMP JUMPDEST PUSH2 0x2097 PUSH8 0xDB89A357421BB5F1 PUSH1 0xC0 SHL PUSH2 0x2E5F JUMP JUMPDEST PUSH32 0xE97641F0B8F36BFD5D070B698BFEE6382FF613820CF9E56A7E4DD4723CC04DC5 DUP2 PUSH1 0x40 MLOAD PUSH2 0x20C6 SWAP2 SWAP1 PUSH2 0x3AF5 JUMP JUMPDEST PUSH1 0x40 MLOAD DUP1 SWAP2 SUB SWAP1 LOG1 PUSH2 0x20D6 PUSH2 0x3368 JUMP JUMPDEST POP JUMP JUMPDEST PUSH1 0x2 SLOAD DUP2 JUMP JUMPDEST PUSH1 0x0 PUSH2 0x20F5 PUSH8 0x78400D97E2C94760 PUSH1 0xC0 SHL PUSH2 0x2E5F JUMP JUMPDEST PUSH2 0x2109 PUSH8 0x2F07D7A364ACA490 PUSH1 0xC0 SHL PUSH2 0x2E5F JUMP JUMPDEST PUSH2 0x211D PUSH8 0x88C09E26E6EF7E9 PUSH1 0xC0 SHL PUSH2 0x2E5F JUMP JUMPDEST PUSH32 0x0 PUSH20 0xFFFFFFFFFFFFFFFFFFFFFFFFFFFFFFFFFFFFFFFF AND PUSH4 0x70A08231 ADDRESS PUSH1 0x40 MLOAD DUP3 PUSH4 0xFFFFFFFF AND PUSH1 0xE0 SHL DUP2 MSTORE PUSH1 0x4 ADD PUSH2 0x2176 SWAP2 SWAP1 PUSH2 0x3E04 JUMP JUMPDEST PUSH1 0x20 PUSH1 0x40 MLOAD DUP1 DUP4 SUB DUP2 DUP7 GAS STATICCALL ISZERO DUP1 ISZERO PUSH2 0x2193 JUMPI RETURNDATASIZE PUSH1 0x0 DUP1 RETURNDATACOPY RETURNDATASIZE PUSH1 0x0 REVERT JUMPDEST POP POP POP POP PUSH1 0x40 MLOAD RETURNDATASIZE PUSH1 0x1F NOT PUSH1 0x1F DUP3 ADD AND DUP3 ADD DUP1 PUSH1 0x40 MSTORE POP DUP2 ADD SWAP1 PUSH2 0x21B7 SWAP2 SWAP1 PUSH2 0x404A JUMP JUMPDEST SWAP1 POP SWAP1 JUMP JUMPDEST PUSH2 0x21C4 PUSH2 0x31BC JUMP JUMPDEST PUSH1 0x0 PUSH20 0xFFFFFFFFFFFFFFFFFFFFFFFFFFFFFFFFFFFFFFFF AND DUP2 PUSH20 0xFFFFFFFFFFFFFFFFFFFFFFFFFFFFFFFFFFFFFFFF AND SUB PUSH2 0x2233 JUMPI PUSH1 0x40 MLOAD PUSH32 0x8C379A000000000000000000000000000000000000000000000000000000000 DUP2 MSTORE PUSH1 0x4 ADD PUSH2 0x222A SWAP1 PUSH2 0x40FA JUMP JUMPDEST PUSH1 0x40 MLOAD DUP1 SWAP2 SUB SWAP1 REVERT JUMPDEST PUSH2 0x223C DUP2 PUSH2 0x33F7 JUMP JUMPDEST POP JUMP JUMPDEST PUSH2 0x2253 PUSH8 0x2724E240282B1D9C PUSH1 0xC0 SHL PUSH2 0x2E5F JUMP JUMPDEST PUSH2 0x2267 PUSH8 0xCD8D5B454B5DAF9A PUSH1 0xC0 SHL PUSH2 0x2E5F JUMP JUMPDEST PUSH2 0x227B PUSH8 0x24FE28D08D0CE0E2 PUSH1 0xC0 SHL PUSH2 0x2E5F JUMP JUMPDEST PUSH1 0x0 PUSH1 0x9 PUSH1 0x0 DUP5 PUSH20 0xFFFFFFFFFFFFFFFFFFFFFFFFFFFFFFFFFFFFFFFF AND PUSH20 0xFFFFFFFFFFFFFFFFFFFFFFFFFFFFFFFFFFFFFFFF AND DUP2 MSTORE PUSH1 0x20 ADD SWAP1 DUP2 MSTORE PUSH1 0x20 ADD PUSH1 0x0 KECCAK256 SLOAD SWAP1 POP PUSH2 0x22D3 PUSH8 0xCB1E7D0388E70DBF PUSH1 0xC0 SHL PUSH2 0x2E5F JUMP JUMPDEST PUSH2 0x22E7 PUSH8 0x9FA5B938D5B46972 PUSH1 0xC0 SHL PUSH2 0x2E5F JUMP JUMPDEST PUSH1 0x0 PUSH1 0x7 DUP3 DUP2 SLOAD DUP2 LT PUSH2 0x22FD JUMPI PUSH2 0x22FC PUSH2 0x3ECD JUMP JUMPDEST JUMPDEST SWAP1 PUSH1 0x0 MSTORE PUSH1 0x20 PUSH1 0x0 KECCAK256 SWAP1 PUSH1 0x4 MUL ADD SWAP1 POP PUSH2 0x2321 PUSH8 0x67E918E316B6A385 PUSH1 0xC0 SHL PUSH2 0x2E5F JUMP JUMPDEST PUSH2 0x2335 PUSH8 0x9573636635ABA126 PUSH1 0xC0 SHL PUSH2 0x2E5F JUMP JUMPDEST PUSH1 0x0 PUSH1 0x8 PUSH1 0x0 DUP5 DUP2 MSTORE PUSH1 0x20 ADD SWAP1 DUP2 MSTORE PUSH1 0x20 ADD PUSH1 0x0 KECCAK256 PUSH1 0x0 CALLER PUSH20 0xFFFFFFFFFFFFFFFFFFFFFFFFFFFFFFFFFFFFFFFF AND PUSH20 0xFFFFFFFFFFFFFFFFFFFFFFFFFFFFFFFFFFFFFFFF AND DUP2 MSTORE PUSH1 0x20 ADD SWAP1 DUP2 MSTORE PUSH1 0x20 ADD PUSH1 0x0 KECCAK256 SWAP1 POP PUSH2 0x239D PUSH8 0x84E5881519B2ECC2 PUSH1 0xC0 SHL PUSH2 0x2E5F JUMP JUMPDEST PUSH2 0x23B1 PUSH8 0xA343C83D559E7793 PUSH1 0xC0 SHL PUSH2 0x2E5F JUMP JUMPDEST PUSH2 0x23C5 PUSH8 0x7D5F8D0C4220B34 PUSH1 0xC0 SHL PUSH2 0x2E5F JUMP JUMPDEST DUP4 DUP2 PUSH1 0x0 ADD SLOAD LT ISZERO PUSH2 0x240C JUMPI PUSH1 0x40 MLOAD PUSH32 0x8C379A000000000000000000000000000000000000000000000000000000000 DUP2 MSTORE PUSH1 0x4 ADD PUSH2 0x2403 SWAP1 PUSH2 0x4166 JUMP JUMPDEST PUSH1 0x40 MLOAD DUP1 SWAP2 SUB SWAP1 REVERT JUMPDEST PUSH2 0x2420 PUSH8 0x933D54D77387210D PUSH1 0xC0 SHL PUSH2 0x2E5F JUMP JUMPDEST PUSH2 0x2434 PUSH8 0xB055FE7AAEFDEBB5 PUSH1 0xC0 SHL PUSH2 0x2E5F JUMP JUMPDEST PUSH2 0x2448 PUSH8 0x97F723FE78809B44 PUSH1 0xC0 SHL PUSH2 0x2E5F JUMP JUMPDEST PUSH2 0x2451 DUP4 PUSH2 0x2E62 JUMP JUMPDEST PUSH2 0x2465 PUSH8 0xB0A12ED163DF7554 PUSH1 0xC0 SHL PUSH2 0x2E5F JUMP JUMPDEST PUSH2 0x2479 PUSH8 0x921E6A343AD468AF PUSH1 0xC0 SHL PUSH2 0x2E5F JUMP JUMPDEST PUSH1 0x0 DUP2 PUSH1 0x4 ADD SLOAD DUP3 PUSH1 0x1 ADD SLOAD PUSH5 0xE8D4A51000 DUP6 PUSH1 0x3 ADD SLOAD DUP6 PUSH1 0x0 ADD SLOAD PUSH2 0x249F SWAP2 SWAP1 PUSH2 0x3F2B JUMP JUMPDEST PUSH2 0x24A9 SWAP2 SWAP1 PUSH2 0x3F9C JUMP JUMPDEST PUSH2 0x24B3 SWAP2 SWAP1 PUSH2 0x3FCD JUMP JUMPDEST PUSH2 0x24BD SWAP2 SWAP1 PUSH2 0x4001 JUMP JUMPDEST SWAP1 POP PUSH2 0x24D3 PUSH8 0xE669031B37148394 PUSH1 0xC0 SHL PUSH2 0x2E5F JUMP JUMPDEST PUSH2 0x24E7 PUSH8 0x830CBF621560D5F5 PUSH1 0xC0 SHL PUSH2 0x2E5F JUMP JUMPDEST PUSH1 0x0 DUP6 GT ISZERO PUSH2 0x25AF JUMPI PUSH2 0x2504 PUSH8 0x9351C3F57740E5FB PUSH1 0xC0 SHL PUSH2 0x2E5F JUMP JUMPDEST PUSH2 0x2518 PUSH8 0x32C1DED7C0286654 PUSH1 0xC0 SHL PUSH2 0x2E5F JUMP JUMPDEST DUP5 DUP3 PUSH1 0x0 ADD PUSH1 0x0 DUP3 DUP3 SLOAD PUSH2 0x252C SWAP2 SWAP1 PUSH2 0x3FCD JUMP JUMPDEST SWAP3 POP POP DUP2 SWAP1 SSTORE POP PUSH2 0x2547 PUSH8 0x9CB5BE0D33DF9FBC PUSH1 0xC0 SHL PUSH2 0x2E5F JUMP JUMPDEST PUSH2 0x255B PUSH8 0xB9241D5FB36D221 PUSH1 0xC0 SHL PUSH2 0x2E5F JUMP JUMPDEST PUSH2 0x25AA CALLER DUP7 DUP6 PUSH1 0x0 ADD PUSH1 0x0 SWAP1 SLOAD SWAP1 PUSH2 0x100 EXP SWAP1 DIV PUSH20 0xFFFFFFFFFFFFFFFFFFFFFFFFFFFFFFFFFFFFFFFF AND PUSH20 0xFFFFFFFFFFFFFFFFFFFFFFFFFFFFFFFFFFFFFFFF AND PUSH2 0x3371 SWAP1 SWAP3 SWAP2 SWAP1 PUSH4 0xFFFFFFFF AND JUMP JUMPDEST PUSH2 0x25C4 JUMP JUMPDEST PUSH2 0x25C3 PUSH8 0xB1B3AF5823E0BC1C PUSH1 0xC0 SHL PUSH2 0x2E5F JUMP JUMPDEST JUMPDEST PUSH2 0x25D8 PUSH8 0xBEFE7CAC7DFD92C6 PUSH1 0xC0 SHL PUSH2 0x2E5F JUMP JUMPDEST PUSH5 0xE8D4A51000 DUP4 PUSH1 0x3 ADD SLOAD DUP4 PUSH1 0x0 ADD SLOAD PUSH2 0x25F2 SWAP2 SWAP1 PUSH2 0x3F2B JUMP JUMPDEST PUSH2 0x25FC SWAP2 SWAP1 PUSH2 0x3F9C JUMP JUMPDEST DUP3 PUSH1 0x1 ADD DUP2 SWAP1 SSTORE POP PUSH2 0x2618 PUSH8 0xC91F458E89C340A4 PUSH1 0xC0 SHL PUSH2 0x2E5F JUMP JUMPDEST PUSH2 0x262C PUSH8 0x8875FA9CA73EADAB PUSH1 0xC0 SHL PUSH2 0x2E5F JUMP JUMPDEST DUP4 CALLER PUSH20 0xFFFFFFFFFFFFFFFFFFFFFFFFFFFFFFFFFFFFFFFF AND PUSH32 0xF279E6A1F5E320CCA91135676D9CB6E44CA8A08C0B88342BCDB1144F6511B568 DUP8 PUSH1 0x40 MLOAD PUSH2 0x2673 SWAP2 SWAP1 PUSH2 0x3AF5 JUMP JUMPDEST PUSH1 0x40 MLOAD DUP1 SWAP2 SUB SWAP1 LOG3 POP POP POP POP POP POP JUMP JUMPDEST PUSH2 0x2697 PUSH8 0x32E7492BDB82909B PUSH1 0xC0 SHL PUSH2 0x2E5F JUMP JUMPDEST PUSH2 0x269F PUSH2 0x323A JUMP JUMPDEST PUSH2 0x26B3 PUSH8 0x17EA65860B4C0734 PUSH1 0xC0 SHL PUSH2 0x2E5F JUMP JUMPDEST PUSH2 0x26C7 PUSH8 0xD7FE2A59E2150C11 PUSH1 0xC0 SHL PUSH2 0x2E5F JUMP JUMPDEST PUSH2 0x26DB PUSH8 0x5E8A9ACFC5A79AFA PUSH1 0xC0 SHL PUSH2 0x2E5F JUMP JUMPDEST PUSH2 0x26EF PUSH8 0x6C582E5CD097EF71 PUSH1 0xC0 SHL PUSH2 0x2E5F JUMP JUMPDEST PUSH1 0x0 PUSH1 0x9 PUSH1 0x0 DUP6 PUSH20 0xFFFFFFFFFFFFFFFFFFFFFFFFFFFFFFFFFFFFFFFF AND PUSH20 0xFFFFFFFFFFFFFFFFFFFFFFFFFFFFFFFFFFFFFFFF AND DUP2 MSTORE PUSH1 0x20 ADD SWAP1 DUP2 MSTORE PUSH1 0x20 ADD PUSH1 0x0 KECCAK256 SLOAD SWAP1 POP PUSH2 0x2747 PUSH8 0xD275A920B64CC288 PUSH1 0xC0 SHL PUSH2 0x2E5F JUMP JUMPDEST PUSH2 0x275B PUSH8 0x9FE4B517A9D98A2A PUSH1 0xC0 SHL PUSH2 0x2E5F JUMP JUMPDEST PUSH1 0x0 PUSH1 0x7 DUP3 DUP2 SLOAD DUP2 LT PUSH2 0x2771 JUMPI PUSH2 0x2770 PUSH2 0x3ECD JUMP JUMPDEST JUMPDEST SWAP1 PUSH1 0x0 MSTORE PUSH1 0x20 PUSH1 0x0 KECCAK256 SWAP1 PUSH1 0x4 MUL ADD SWAP1 POP PUSH2 0x2795 PUSH8 0xF015796C36C5171B PUSH1 0xC0 SHL PUSH2 0x2E5F JUMP JUMPDEST PUSH2 0x27A9 PUSH8 0xE82B76561887540F PUSH1 0xC0 SHL PUSH2 0x2E5F JUMP JUMPDEST PUSH1 0x0 PUSH1 0x8 PUSH1 0x0 DUP5 DUP2 MSTORE PUSH1 0x20 ADD SWAP1 DUP2 MSTORE PUSH1 0x20 ADD PUSH1 0x0 KECCAK256 PUSH1 0x0 CALLER PUSH20 0xFFFFFFFFFFFFFFFFFFFFFFFFFFFFFFFFFFFFFFFF AND PUSH20 0xFFFFFFFFFFFFFFFFFFFFFFFFFFFFFFFFFFFFFFFF AND DUP2 MSTORE PUSH1 0x20 ADD SWAP1 DUP2 MSTORE PUSH1 0x20 ADD PUSH1 0x0 KECCAK256 SWAP1 POP PUSH2 0x2811 PUSH8 0xBBB489C99739A184 PUSH1 0xC0 SHL PUSH2 0x2E5F JUMP JUMPDEST PUSH2 0x2825 PUSH8 0xF6794854BD1E2EA7 PUSH1 0xC0 SHL PUSH2 0x2E5F JUMP JUMPDEST PUSH2 0x282E DUP4 PUSH2 0x2E62 JUMP JUMPDEST PUSH2 0x2842 PUSH8 0x47BED4DD5AABA32E PUSH1 0xC0 SHL PUSH2 0x2E5F JUMP JUMPDEST PUSH2 0x2856 PUSH8 0x73968042E6643A8D PUSH1 0xC0 SHL PUSH2 0x2E5F JUMP JUMPDEST PUSH1 0x0 DUP2 PUSH1 0x0 ADD SLOAD GT ISZERO PUSH2 0x28EB JUMPI PUSH2 0x2877 PUSH8 0x110FF58B553987A0 PUSH1 0xC0 SHL PUSH2 0x2E5F JUMP JUMPDEST PUSH2 0x288B PUSH8 0x48615368A4299C96 PUSH1 0xC0 SHL PUSH2 0x2E5F JUMP JUMPDEST PUSH2 0x289F PUSH8 0xCE7C1D2314DC63AD PUSH1 0xC0 SHL PUSH2 0x2E5F JUMP JUMPDEST PUSH1 0x0 DUP2 PUSH1 0x4 ADD SLOAD DUP3 PUSH1 0x1 ADD SLOAD PUSH5 0xE8D4A51000 DUP6 PUSH1 0x3 ADD SLOAD DUP6 PUSH1 0x0 ADD SLOAD PUSH2 0x28C5 SWAP2 SWAP1 PUSH2 0x3F2B JUMP JUMPDEST PUSH2 0x28CF SWAP2 SWAP1 PUSH2 0x3F9C JUMP JUMPDEST PUSH2 0x28D9 SWAP2 SWAP1 PUSH2 0x3FCD JUMP JUMPDEST PUSH2 0x28E3 SWAP2 SWAP1 PUSH2 0x4001 JUMP JUMPDEST SWAP1 POP POP PUSH2 0x2900 JUMP JUMPDEST PUSH2 0x28FF PUSH8 0xABB1BA176F1BE819 PUSH1 0xC0 SHL PUSH2 0x2E5F JUMP JUMPDEST JUMPDEST PUSH2 0x2914 PUSH8 0xA6862BC969D08E90 PUSH1 0xC0 SHL PUSH2 0x2E5F JUMP JUMPDEST PUSH2 0x2928 PUSH8 0x8745E937E2E3EB89 PUSH1 0xC0 SHL PUSH2 0x2E5F JUMP JUMPDEST PUSH1 0x0 DUP6 GT ISZERO PUSH2 0x29D1 JUMPI PUSH2 0x2945 PUSH8 0x9A82D1E30C674F15 PUSH1 0xC0 SHL PUSH2 0x2E5F JUMP JUMPDEST PUSH2 0x2959 PUSH8 0xC8EFD76474A5DCC8 PUSH1 0xC0 SHL PUSH2 0x2E5F JUMP JUMPDEST PUSH2 0x296D PUSH8 0xE7A512E0F6E1A0CA PUSH1 0xC0 SHL PUSH2 0x2E5F JUMP JUMPDEST PUSH2 0x299D DUP3 PUSH1 0x0 ADD PUSH1 0x0 SWAP1 SLOAD SWAP1 PUSH2 0x100 EXP SWAP1 DIV PUSH20 0xFFFFFFFFFFFFFFFFFFFFFFFFFFFFFFFFFFFFFFFF AND CALLER ADDRESS DUP9 PUSH2 0x34BB JUMP JUMPDEST PUSH2 0x29B1 PUSH8 0xF0AC128EAED35B7B PUSH1 0xC0 SHL PUSH2 0x2E5F JUMP JUMPDEST DUP5 DUP2 PUSH1 0x0 ADD PUSH1 0x0 DUP3 DUP3 SLOAD PUSH2 0x29C5 SWAP2 SWAP1 PUSH2 0x4001 JUMP JUMPDEST SWAP3 POP POP DUP2 SWAP1 SSTORE POP PUSH2 0x29E6 JUMP JUMPDEST PUSH2 0x29E5 PUSH8 0x7299731D1C90F3AD PUSH1 0xC0 SHL PUSH2 0x2E5F JUMP JUMPDEST JUMPDEST PUSH2 0x29FA PUSH8 0x73B397E683F7F0B7 PUSH1 0xC0 SHL PUSH2 0x2E5F JUMP JUMPDEST PUSH5 0xE8D4A51000 DUP3 PUSH1 0x3 ADD SLOAD DUP3 PUSH1 0x0 ADD SLOAD PUSH2 0x2A14 SWAP2 SWAP1 PUSH2 0x3F2B JUMP JUMPDEST PUSH2 0x2A1E SWAP2 SWAP1 PUSH2 0x3F9C JUMP JUMPDEST DUP2 PUSH1 0x1 ADD DUP2 SWAP1 SSTORE POP PUSH2 0x2A3A PUSH8 0xE308EADCF0201039 PUSH1 0xC0 SHL PUSH2 0x2E5F JUMP JUMPDEST TIMESTAMP DUP2 PUSH1 0x2 ADD DUP2 SWAP1 SSTORE POP PUSH2 0x2A57 PUSH8 0x9457F0AEBA368DF7 PUSH1 0xC0 SHL PUSH2 0x2E5F JUMP JUMPDEST PUSH2 0x2A6B PUSH8 0x1EC84FBC0DBC2BB3 PUSH1 0xC0 SHL PUSH2 0x2E5F JUMP JUMPDEST DUP3 CALLER PUSH20 0xFFFFFFFFFFFFFFFFFFFFFFFFFFFFFFFFFFFFFFFF AND PUSH32 0x90890809C654F11D6E72A28FA60149770A0D11EC6C92319D6CEB2BB0A4EA1A15 DUP8 PUSH1 0x40 MLOAD PUSH2 0x2AB2 SWAP2 SWAP1 PUSH2 0x3AF5 JUMP JUMPDEST PUSH1 0x40 MLOAD DUP1 SWAP2 SUB SWAP1 LOG3 PUSH2 0x2ACE PUSH8 0xCEE018287D0FA304 PUSH1 0xC0 SHL PUSH2 0x2E5F JUMP JUMPDEST PUSH2 0x2AE2 PUSH8 0x58168682EED4850B PUSH1 0xC0 SHL PUSH2 0x2E5F JUMP JUMPDEST PUSH1 0x0 PUSH20 0xFFFFFFFFFFFFFFFFFFFFFFFFFFFFFFFFFFFFFFFF AND DUP5 PUSH20 0xFFFFFFFFFFFFFFFFFFFFFFFFFFFFFFFFFFFFFFFF AND EQ ISZERO DUP1 ISZERO PUSH2 0x2B4B JUMPI POP CALLER PUSH20 0xFFFFFFFFFFFFFFFFFFFFFFFFFFFFFFFFFFFFFFFF AND DUP5 PUSH20 0xFFFFFFFFFFFFFFFFFFFFFFFFFFFFFFFFFFFFFFFF AND EQ ISZERO JUMPDEST DUP1 ISZERO PUSH2 0x2BE2 JUMPI POP DUP4 PUSH20 0xFFFFFFFFFFFFFFFFFFFFFFFFFFFFFFFFFFFFFFFF AND PUSH1 0xA PUSH1 0x0 CALLER PUSH20 0xFFFFFFFFFFFFFFFFFFFFFFFFFFFFFFFFFFFFFFFF AND PUSH20 0xFFFFFFFFFFFFFFFFFFFFFFFFFFFFFFFFFFFFFFFF AND DUP2 MSTORE PUSH1 0x20 ADD SWAP1 DUP2 MSTORE PUSH1 0x20 ADD PUSH1 0x0 KECCAK256 PUSH1 0x0 SWAP1 SLOAD SWAP1 PUSH2 0x100 EXP SWAP1 DIV PUSH20 0xFFFFFFFFFFFFFFFFFFFFFFFFFFFFFFFFFFFFFFFF AND PUSH20 0xFFFFFFFFFFFFFFFFFFFFFFFFFFFFFFFFFFFFFFFF AND EQ ISZERO JUMPDEST ISZERO PUSH2 0x2C92 JUMPI PUSH2 0x2BFB PUSH8 0x3AC9DCA527B24677 PUSH1 0xC0 SHL PUSH2 0x2E5F JUMP JUMPDEST PUSH2 0x2C0F PUSH8 0x5B3C9FE9D187D144 PUSH1 0xC0 SHL PUSH2 0x2E5F JUMP JUMPDEST DUP4 PUSH1 0xA PUSH1 0x0 CALLER PUSH20 0xFFFFFFFFFFFFFFFFFFFFFFFFFFFFFFFFFFFFFFFF AND PUSH20 0xFFFFFFFFFFFFFFFFFFFFFFFFFFFFFFFFFFFFFFFF AND DUP2 MSTORE PUSH1 0x20 ADD SWAP1 DUP2 MSTORE PUSH1 0x20 ADD PUSH1 0x0 KECCAK256 PUSH1 0x0 PUSH2 0x100 EXP DUP2 SLOAD DUP2 PUSH20 0xFFFFFFFFFFFFFFFFFFFFFFFFFFFFFFFFFFFFFFFF MUL NOT AND SWAP1 DUP4 PUSH20 0xFFFFFFFFFFFFFFFFFFFFFFFFFFFFFFFFFFFFFFFF AND MUL OR SWAP1 SSTORE POP PUSH2 0x2CA7 JUMP JUMPDEST PUSH2 0x2CA6 PUSH8 0xCACEABD26D898D0 PUSH1 0xC0 SHL PUSH2 0x2E5F JUMP JUMPDEST JUMPDEST POP POP POP PUSH2 0x2CB2 PUSH2 0x3368 JUMP JUMPDEST POP POP POP JUMP JUMPDEST PUSH32 0x0 DUP2 JUMP JUMPDEST PUSH2 0x2CEF PUSH8 0x1E01D79DE3BE887 PUSH1 0xC0 SHL PUSH2 0x2E5F JUMP JUMPDEST PUSH2 0x2CF7 PUSH2 0x31BC JUMP JUMPDEST PUSH2 0x2D0B PUSH8 0x437F9D057FE732B PUSH1 0xC0 SHL PUSH2 0x2E5F JUMP JUMPDEST PUSH2 0x2D1F PUSH8 0xB5AC6CDFF6569C0 PUSH1 0xC0 SHL PUSH2 0x2E5F JUMP JUMPDEST PUSH2 0x2D27 PUSH2 0x323A JUMP JUMPDEST PUSH2 0x2D3B PUSH8 0x9646B27AD7007743 PUSH1 0xC0 SHL PUSH2 0x2E5F JUMP JUMPDEST PUSH2 0x2D4F PUSH8 0xF3EB4A09C0703C4D PUSH1 0xC0 SHL PUSH2 0x2E5F JUMP JUMPDEST PUSH2 0x2D63 PUSH8 0x2B0ED5049787162A PUSH1 0xC0 SHL PUSH2 0x2E5F JUMP JUMPDEST PUSH2 0x2D77 PUSH8 0xE041F9CAF06CDA80 PUSH1 0xC0 SHL PUSH2 0x2E5F JUMP JUMPDEST PUSH1 0x0 DUP1 DUP3 GT DUP1 ISZERO PUSH2 0x2D98 JUMPI POP PUSH2 0x2D97 PUSH8 0xB07FDEDDC50CB169 PUSH1 0xC0 SHL PUSH2 0x3356 JUMP JUMPDEST JUMPDEST DUP1 PUSH2 0x2DB3 JUMPI POP PUSH2 0x2DB2 PUSH8 0xB462DA493601E8E1 PUSH1 0xC0 SHL PUSH2 0x3361 JUMP JUMPDEST JUMPDEST PUSH2 0x2DC4 JUMPI PUSH2 0x2DBF PUSH2 0x20DF JUMP JUMPDEST PUSH2 0x2DC6 JUMP JUMPDEST DUP2 JUMPDEST SWAP1 POP PUSH2 0x2DDC PUSH8 0x89C3F50128DBFFE1 PUSH1 0xC0 SHL PUSH2 0x2E5F JUMP JUMPDEST PUSH2 0x2DF0 PUSH8 0x68AB1F6A13D84080 PUSH1 0xC0 SHL PUSH2 0x2E5F JUMP JUMPDEST PUSH2 0x2E3B CALLER DUP3 PUSH32 0x0 PUSH20 0xFFFFFFFFFFFFFFFFFFFFFFFFFFFFFFFFFFFFFFFF AND PUSH2 0x3371 SWAP1 SWAP3 SWAP2 SWAP1 PUSH4 0xFFFFFFFF AND JUMP JUMPDEST POP PUSH2 0x2E44 PUSH2 0x3368 JUMP JUMPDEST POP JUMP JUMPDEST PUSH1 0x9 PUSH1 0x20 MSTORE DUP1 PUSH1 0x0 MSTORE PUSH1 0x40 PUSH1 0x0 KECCAK256 PUSH1 0x0 SWAP2 POP SWAP1 POP SLOAD DUP2 JUMP JUMPDEST POP JUMP JUMPDEST PUSH2 0x2E76 PUSH8 0x95BB15D7F142543C PUSH1 0xC0 SHL PUSH2 0x2E5F JUMP JUMPDEST PUSH2 0x2E8A PUSH8 0x93A6241ABE635717 PUSH1 0xC0 SHL PUSH2 0x2E5F JUMP JUMPDEST PUSH2 0x2E9E PUSH8 0xCA09DC056DAEB1AA PUSH1 0xC0 SHL PUSH2 0x2E5F JUMP JUMPDEST PUSH1 0x0 PUSH1 0x7 DUP3 DUP2 SLOAD DUP2 LT PUSH2 0x2EB4 JUMPI PUSH2 0x2EB3 PUSH2 0x3ECD JUMP JUMPDEST JUMPDEST SWAP1 PUSH1 0x0 MSTORE PUSH1 0x20 PUSH1 0x0 KECCAK256 SWAP1 PUSH1 0x4 MUL ADD SWAP1 POP PUSH2 0x2ED8 PUSH8 0x6BB59C9975102BD9 PUSH1 0xC0 SHL PUSH2 0x2E5F JUMP JUMPDEST PUSH2 0x2EEC PUSH8 0x1491AF09EF3A8E02 PUSH1 0xC0 SHL PUSH2 0x2E5F JUMP JUMPDEST DUP1 PUSH1 0x2 ADD SLOAD NUMBER GT PUSH2 0x2F39 JUMPI PUSH2 0x2F0B PUSH8 0xE98AFD1CAC2C2FBD PUSH1 0xC0 SHL PUSH2 0x2E5F JUMP JUMPDEST PUSH2 0x2F1F PUSH8 0x83EE2ADB15566176 PUSH1 0xC0 SHL PUSH2 0x2E5F JUMP JUMPDEST PUSH2 0x2F33 PUSH8 0xBC102FDC22917C50 PUSH1 0xC0 SHL PUSH2 0x2E5F JUMP JUMPDEST POP PUSH2 0x31B9 JUMP JUMPDEST PUSH2 0x2F4D PUSH8 0x473570FA5BE0A58 PUSH1 0xC0 SHL PUSH2 0x2E5F JUMP JUMPDEST PUSH2 0x2F61 PUSH8 0xFD6890AB89E68CF PUSH1 0xC0 SHL PUSH2 0x2E5F JUMP JUMPDEST PUSH2 0x2F75 PUSH8 0x29881F52427E07BB PUSH1 0xC0 SHL PUSH2 0x2E5F JUMP JUMPDEST PUSH1 0x0 DUP2 PUSH1 0x0 ADD PUSH1 0x0 SWAP1 SLOAD SWAP1 PUSH2 0x100 EXP SWAP1 DIV PUSH20 0xFFFFFFFFFFFFFFFFFFFFFFFFFFFFFFFFFFFFFFFF AND PUSH20 0xFFFFFFFFFFFFFFFFFFFFFFFFFFFFFFFFFFFFFFFF AND PUSH4 0x70A08231 ADDRESS PUSH1 0x40 MLOAD DUP3 PUSH4 0xFFFFFFFF AND PUSH1 0xE0 SHL DUP2 MSTORE PUSH1 0x4 ADD PUSH2 0x2FD4 SWAP2 SWAP1 PUSH2 0x3E04 JUMP JUMPDEST PUSH1 0x20 PUSH1 0x40 MLOAD DUP1 DUP4 SUB DUP2 DUP7 GAS STATICCALL ISZERO DUP1 ISZERO PUSH2 0x2FF1 JUMPI RETURNDATASIZE PUSH1 0x0 DUP1 RETURNDATACOPY RETURNDATASIZE PUSH1 0x0 REVERT JUMPDEST POP POP POP POP PUSH1 0x40 MLOAD RETURNDATASIZE PUSH1 0x1F NOT PUSH1 0x1F DUP3 ADD AND DUP3 ADD DUP1 PUSH1 0x40 MSTORE POP DUP2 ADD SWAP1 PUSH2 0x3015 SWAP2 SWAP1 PUSH2 0x404A JUMP JUMPDEST SWAP1 POP PUSH2 0x302B PUSH8 0x1DF6322C1C367E18 PUSH1 0xC0 SHL PUSH2 0x2E5F JUMP JUMPDEST PUSH2 0x303F PUSH8 0xE5889DA78F1E80CA PUSH1 0xC0 SHL PUSH2 0x2E5F JUMP JUMPDEST PUSH1 0x0 DUP2 SUB PUSH2 0x30A7 JUMPI PUSH2 0x305B PUSH8 0xD86203CCFB1A96ED PUSH1 0xC0 SHL PUSH2 0x2E5F JUMP JUMPDEST PUSH2 0x306F PUSH8 0x7168863DE5841C39 PUSH1 0xC0 SHL PUSH2 0x2E5F JUMP JUMPDEST NUMBER DUP3 PUSH1 0x2 ADD DUP2 SWAP1 SSTORE POP PUSH2 0x308C PUSH8 0xEA002A072406108D PUSH1 0xC0 SHL PUSH2 0x2E5F JUMP JUMPDEST PUSH2 0x30A0 PUSH8 0xA456140AB8070063 PUSH1 0xC0 SHL PUSH2 0x2E5F JUMP JUMPDEST POP POP PUSH2 0x31B9 JUMP JUMPDEST PUSH2 0x30BB PUSH8 0xC2E94C5C8AD3FEBE PUSH1 0xC0 SHL PUSH2 0x2E5F JUMP JUMPDEST PUSH2 0x30CF PUSH8 0xBEFD7A5F4F4CE264 PUSH1 0xC0 SHL PUSH2 0x2E5F JUMP JUMPDEST PUSH2 0x30E3 PUSH8 0xFB3ECCBCFAE46FB3 PUSH1 0xC0 SHL PUSH2 0x2E5F JUMP JUMPDEST PUSH1 0x0 DUP3 PUSH1 0x2 ADD SLOAD NUMBER PUSH2 0x30F5 SWAP2 SWAP1 PUSH2 0x3FCD JUMP JUMPDEST SWAP1 POP PUSH2 0x310B PUSH8 0xDF1120B29C110E6E PUSH1 0xC0 SHL PUSH2 0x2E5F JUMP JUMPDEST PUSH2 0x311F PUSH8 0xBFB724DBA51CFFEC PUSH1 0xC0 SHL PUSH2 0x2E5F JUMP JUMPDEST PUSH1 0x0 PUSH1 0xB SLOAD DUP5 PUSH1 0x1 ADD SLOAD PUSH1 0x6 SLOAD DUP5 PUSH2 0x3137 SWAP2 SWAP1 PUSH2 0x3F2B JUMP JUMPDEST PUSH2 0x3141 SWAP2 SWAP1 PUSH2 0x3F2B JUMP JUMPDEST PUSH2 0x314B SWAP2 SWAP1 PUSH2 0x3F9C JUMP JUMPDEST SWAP1 POP PUSH2 0x3161 PUSH8 0x83E2C264B09A810C PUSH1 0xC0 SHL PUSH2 0x2E5F JUMP JUMPDEST DUP3 PUSH5 0xE8D4A51000 DUP3 PUSH2 0x3173 SWAP2 SWAP1 PUSH2 0x3F2B JUMP JUMPDEST PUSH2 0x317D SWAP2 SWAP1 PUSH2 0x3F9C JUMP JUMPDEST DUP5 PUSH1 0x3 ADD PUSH1 0x0 DUP3 DUP3 SLOAD PUSH2 0x3190 SWAP2 SWAP1 PUSH2 0x4001 JUMP JUMPDEST SWAP3 POP POP DUP2 SWAP1 SSTORE POP PUSH2 0x31AB PUSH8 0xA492D47FA90B91E4 PUSH1 0xC0 SHL PUSH2 0x2E5F JUMP JUMPDEST NUMBER DUP5 PUSH1 0x2 ADD DUP2 SWAP1 SSTORE POP POP POP POP POP JUMPDEST POP JUMP JUMPDEST PUSH2 0x31C4 PUSH2 0x36E7 JUMP JUMPDEST PUSH20 0xFFFFFFFFFFFFFFFFFFFFFFFFFFFFFFFFFFFFFFFF AND PUSH2 0x31E2 PUSH2 0x1F2B JUMP JUMPDEST PUSH20 0xFFFFFFFFFFFFFFFFFFFFFFFFFFFFFFFFFFFFFFFF AND EQ PUSH2 0x3238 JUMPI PUSH1 0x40 MLOAD PUSH32 0x8C379A000000000000000000000000000000000000000000000000000000000 DUP2 MSTORE PUSH1 0x4 ADD PUSH2 0x322F SWAP1 PUSH2 0x41D2 JUMP JUMPDEST PUSH1 0x40 MLOAD DUP1 SWAP2 SUB SWAP1 REVERT JUMPDEST JUMP JUMPDEST PUSH1 0x2 PUSH1 0x1 SLOAD SUB PUSH2 0x327F JUMPI PUSH1 0x40 MLOAD PUSH32 0x8C379A000000000000000000000000000000000000000000000000000000000 DUP2 MSTORE PUSH1 0x4 ADD PUSH2 0x3276 SWAP1 PUSH2 0x423E JUMP JUMPDEST PUSH1 0x40 MLOAD DUP1 SWAP2 SUB SWAP1 REVERT JUMPDEST PUSH1 0x2 PUSH1 0x1 DUP2 SWAP1 SSTORE POP JUMP JUMPDEST PUSH2 0x329D PUSH8 0xD33C5861399B42F1 PUSH1 0xC0 SHL PUSH2 0x2E5F JUMP JUMPDEST PUSH2 0x32B1 PUSH8 0xE2013DAA351469CC PUSH1 0xC0 SHL PUSH2 0x2E5F JUMP JUMPDEST PUSH2 0x32C5 PUSH8 0x3D6B8205B24B914A PUSH1 0xC0 SHL PUSH2 0x2E5F JUMP JUMPDEST PUSH1 0x0 PUSH1 0x7 DUP1 SLOAD SWAP1 POP SWAP1 POP PUSH2 0x32E3 PUSH8 0x360AB2B2137CB0AC PUSH1 0xC0 SHL PUSH2 0x2E5F JUMP JUMPDEST PUSH2 0x32F7 PUSH8 0xE244CFE2BA5D9CF2 PUSH1 0xC0 SHL PUSH2 0x2E5F JUMP JUMPDEST PUSH2 0x330B PUSH8 0x8D118D2CB6FE05FD PUSH1 0xC0 SHL PUSH2 0x2E5F JUMP JUMPDEST PUSH1 0x0 JUMPDEST DUP2 DUP2 LT ISZERO PUSH2 0x3352 JUMPI PUSH2 0x332A PUSH8 0xADD4F1050FE42DE3 PUSH1 0xC0 SHL PUSH2 0x2E5F JUMP JUMPDEST PUSH2 0x333E PUSH8 0xD6AD5D0569E2FFD1 PUSH1 0xC0 SHL PUSH2 0x2E5F JUMP JUMPDEST PUSH2 0x3347 DUP2 PUSH2 0x2E62 JUMP JUMPDEST DUP1 PUSH1 0x1 ADD SWAP1 POP PUSH2 0x330E JUMP JUMPDEST POP POP JUMP JUMPDEST PUSH1 0x0 PUSH1 0x1 SWAP1 POP SWAP2 SWAP1 POP JUMP JUMPDEST PUSH1 0x0 SWAP2 SWAP1 POP JUMP JUMPDEST PUSH1 0x1 DUP1 DUP2 SWAP1 SSTORE POP JUMP JUMPDEST PUSH2 0x33F2 DUP4 PUSH4 0xA9059CBB PUSH1 0xE0 SHL DUP5 DUP5 PUSH1 0x40 MLOAD PUSH1 0x24 ADD PUSH2 0x3390 SWAP3 SWAP2 SWAP1 PUSH2 0x425E JUMP JUMPDEST PUSH1 0x40 MLOAD PUSH1 0x20 DUP2 DUP4 SUB SUB DUP2 MSTORE SWAP1 PUSH1 0x40 MSTORE SWAP1 PUSH28 0xFFFFFFFFFFFFFFFFFFFFFFFFFFFFFFFFFFFFFFFFFFFFFFFFFFFFFFFF NOT AND PUSH1 0x20 DUP3 ADD DUP1 MLOAD PUSH28 0xFFFFFFFFFFFFFFFFFFFFFFFFFFFFFFFFFFFFFFFFFFFFFFFFFFFFFFFF DUP4 DUP2 DUP4 AND OR DUP4 MSTORE POP POP POP POP PUSH2 0x36EF JUMP JUMPDEST POP POP POP JUMP JUMPDEST PUSH1 0x0 DUP1 PUSH1 0x0 SWAP1 SLOAD SWAP1 PUSH2 0x100 EXP SWAP1 DIV PUSH20 0xFFFFFFFFFFFFFFFFFFFFFFFFFFFFFFFFFFFFFFFF AND SWAP1 POP DUP2 PUSH1 0x0 DUP1 PUSH2 0x100 EXP DUP2 SLOAD DUP2 PUSH20 0xFFFFFFFFFFFFFFFFFFFFFFFFFFFFFFFFFFFFFFFF MUL NOT AND SWAP1 DUP4 PUSH20 0xFFFFFFFFFFFFFFFFFFFFFFFFFFFFFFFFFFFFFFFF AND MUL OR SWAP1 SSTORE POP DUP2 PUSH20 0xFFFFFFFFFFFFFFFFFFFFFFFFFFFFFFFFFFFFFFFF AND DUP2 PUSH20 0xFFFFFFFFFFFFFFFFFFFFFFFFFFFFFFFFFFFFFFFF AND PUSH32 0x8BE0079C531659141344CD1FD0A4F28419497F9722A3DAAFE3B4186F6B6457E0 PUSH1 0x40 MLOAD PUSH1 0x40 MLOAD DUP1 SWAP2 SUB SWAP1 LOG3 POP POP JUMP JUMPDEST PUSH2 0x34CF PUSH8 0x1204EDD0C07FCE9A PUSH1 0xC0 SHL PUSH2 0x2E5F JUMP JUMPDEST PUSH2 0x34E3 PUSH8 0xE653B6AAB39B2DB7 PUSH1 0xC0 SHL PUSH2 0x2E5F JUMP JUMPDEST PUSH2 0x34F7 PUSH8 0x156A868FDCD7F6F4 PUSH1 0xC0 SHL PUSH2 0x2E5F JUMP JUMPDEST PUSH1 0x0 DUP5 PUSH20 0xFFFFFFFFFFFFFFFFFFFFFFFFFFFFFFFFFFFFFFFF AND PUSH4 0x70A08231 DUP5 PUSH1 0x40 MLOAD DUP3 PUSH4 0xFFFFFFFF AND PUSH1 0xE0 SHL DUP2 MSTORE PUSH1 0x4 ADD PUSH2 0x3532 SWAP2 SWAP1 PUSH2 0x3E04 JUMP JUMPDEST PUSH1 0x20 PUSH1 0x40 MLOAD DUP1 DUP4 SUB DUP2 DUP7 GAS STATICCALL ISZERO DUP1 ISZERO PUSH2 0x354F JUMPI RETURNDATASIZE PUSH1 0x0 DUP1 RETURNDATACOPY RETURNDATASIZE PUSH1 0x0 REVERT JUMPDEST POP POP POP POP PUSH1 0x40 MLOAD RETURNDATASIZE PUSH1 0x1F NOT PUSH1 0x1F DUP3 ADD AND DUP3 ADD DUP1 PUSH1 0x40 MSTORE POP DUP2 ADD SWAP1 PUSH2 0x3573 SWAP2 SWAP1 PUSH2 0x404A JUMP JUMPDEST SWAP1 POP PUSH2 0x3589 PUSH8 0xFD987AD29C0936E5 PUSH1 0xC0 SHL PUSH2 0x2E5F JUMP JUMPDEST PUSH2 0x359D PUSH8 0x364F033D160B7543 PUSH1 0xC0 SHL PUSH2 0x2E5F JUMP JUMPDEST PUSH2 0x35CA DUP5 DUP5 DUP5 DUP9 PUSH20 0xFFFFFFFFFFFFFFFFFFFFFFFFFFFFFFFFFFFFFFFF AND PUSH2 0x37B6 SWAP1 SWAP4 SWAP3 SWAP2 SWAP1 PUSH4 0xFFFFFFFF AND JUMP JUMPDEST PUSH2 0x35DE PUSH8 0xFF43F39794136FD9 PUSH1 0xC0 SHL PUSH2 0x2E5F JUMP JUMPDEST PUSH2 0x35F2 PUSH8 0x7059FF40694F0842 PUSH1 0xC0 SHL PUSH2 0x2E5F JUMP JUMPDEST PUSH2 0x3606 PUSH8 0xDCE2D6783F52754C PUSH1 0xC0 SHL PUSH2 0x2E5F JUMP JUMPDEST DUP2 DUP2 DUP7 PUSH20 0xFFFFFFFFFFFFFFFFFFFFFFFFFFFFFFFFFFFFFFFF AND PUSH4 0x70A08231 DUP7 PUSH1 0x40 MLOAD DUP3 PUSH4 0xFFFFFFFF AND PUSH1 0xE0 SHL DUP2 MSTORE PUSH1 0x4 ADD PUSH2 0x3641 SWAP2 SWAP1 PUSH2 0x3E04 JUMP JUMPDEST PUSH1 0x20 PUSH1 0x40 MLOAD DUP1 DUP4 SUB DUP2 DUP7 GAS STATICCALL ISZERO DUP1 ISZERO PUSH2 0x365E JUMPI RETURNDATASIZE PUSH1 0x0 DUP1 RETURNDATACOPY RETURNDATASIZE PUSH1 0x0 REVERT JUMPDEST POP POP POP POP PUSH1 0x40 MLOAD RETURNDATASIZE PUSH1 0x1F NOT PUSH1 0x1F DUP3 ADD AND DUP3 ADD DUP1 PUSH1 0x40 MSTORE POP DUP2 ADD SWAP1 PUSH2 0x3682 SWAP2 SWAP1 PUSH2 0x404A JUMP JUMPDEST PUSH2 0x368C SWAP2 SWAP1 PUSH2 0x3FCD JUMP JUMPDEST EQ PUSH2 0x36CC JUMPI PUSH1 0x40 MLOAD PUSH32 0x8C379A000000000000000000000000000000000000000000000000000000000 DUP2 MSTORE PUSH1 0x4 ADD PUSH2 0x36C3 SWAP1 PUSH2 0x42D3 JUMP JUMPDEST PUSH1 0x40 MLOAD DUP1 SWAP2 SUB SWAP1 REVERT JUMPDEST PUSH2 0x36E0 PUSH8 0xF6B46AE2B78B4F77 PUSH1 0xC0 SHL PUSH2 0x2E5F JUMP JUMPDEST POP POP POP POP POP JUMP JUMPDEST PUSH1 0x0 CALLER SWAP1 POP SWAP1 JUMP JUMPDEST PUSH1 0x0 PUSH2 0x3751 DUP3 PUSH1 0x40 MLOAD DUP1 PUSH1 0x40 ADD PUSH1 0x40 MSTORE DUP1 PUSH1 0x20 DUP2 MSTORE PUSH1 0x20 ADD PUSH32 0x5361666545524332303A206C6F772D6C6576656C2063616C6C206661696C6564 DUP2 MSTORE POP DUP6 PUSH20 0xFFFFFFFFFFFFFFFFFFFFFFFFFFFFFFFFFFFFFFFF AND PUSH2 0x383F SWAP1 SWAP3 SWAP2 SWAP1 PUSH4 0xFFFFFFFF AND JUMP JUMPDEST SWAP1 POP PUSH1 0x0 DUP2 MLOAD GT ISZERO PUSH2 0x37B1 JUMPI DUP1 DUP1 PUSH1 0x20 ADD SWAP1 MLOAD DUP2 ADD SWAP1 PUSH2 0x3771 SWAP2 SWAP1 PUSH2 0x4308 JUMP JUMPDEST PUSH2 0x37B0 JUMPI PUSH1 0x40 MLOAD PUSH32 0x8C379A000000000000000000000000000000000000000000000000000000000 DUP2 MSTORE PUSH1 0x4 ADD PUSH2 0x37A7 SWAP1 PUSH2 0x43A7 JUMP JUMPDEST PUSH1 0x40 MLOAD DUP1 SWAP2 SUB SWAP1 REVERT JUMPDEST JUMPDEST POP POP POP JUMP JUMPDEST PUSH2 0x3839 DUP5 PUSH4 0x23B872DD PUSH1 0xE0 SHL DUP6 DUP6 DUP6 PUSH1 0x40 MLOAD PUSH1 0x24 ADD PUSH2 0x37D7 SWAP4 SWAP3 SWAP2 SWAP1 PUSH2 0x43C7 JUMP JUMPDEST PUSH1 0x40 MLOAD PUSH1 0x20 DUP2 DUP4 SUB SUB DUP2 MSTORE SWAP1 PUSH1 0x40 MSTORE SWAP1 PUSH28 0xFFFFFFFFFFFFFFFFFFFFFFFFFFFFFFFFFFFFFFFFFFFFFFFFFFFFFFFF NOT AND PUSH1 0x20 DUP3 ADD DUP1 MLOAD PUSH28 0xFFFFFFFFFFFFFFFFFFFFFFFFFFFFFFFFFFFFFFFFFFFFFFFFFFFFFFFF DUP4 DUP2 DUP4 AND OR DUP4 MSTORE POP POP POP POP PUSH2 0x36EF JUMP JUMPDEST POP POP POP POP JUMP JUMPDEST PUSH1 0x60 PUSH2 0x384E DUP5 DUP5 PUSH1 0x0 DUP6 PUSH2 0x3857 JUMP JUMPDEST SWAP1 POP SWAP4 SWAP3 POP POP POP JUMP JUMPDEST PUSH1 0x60 DUP3 SELFBALANCE LT ISZERO PUSH2 0x389C JUMPI PUSH1 0x40 MLOAD PUSH32 0x8C379A000000000000000000000000000000000000000000000000000000000 DUP2 MSTORE PUSH1 0x4 ADD PUSH2 0x3893 SWAP1 PUSH2 0x4470 JUMP JUMPDEST PUSH1 0x40 MLOAD DUP1 SWAP2 SUB SWAP1 REVERT JUMPDEST PUSH1 0x0 DUP1 DUP7 PUSH20 0xFFFFFFFFFFFFFFFFFFFFFFFFFFFFFFFFFFFFFFFF AND DUP6 DUP8 PUSH1 0x40 MLOAD PUSH2 0x38C5 SWAP2 SWAP1 PUSH2 0x4501 JUMP JUMPDEST PUSH1 0x0 PUSH1 0x40 MLOAD DUP1 DUP4 SUB DUP2 DUP6 DUP8 GAS CALL SWAP3 POP POP POP RETURNDATASIZE DUP1 PUSH1 0x0 DUP2 EQ PUSH2 0x3902 JUMPI PUSH1 0x40 MLOAD SWAP2 POP PUSH1 0x1F NOT PUSH1 0x3F RETURNDATASIZE ADD AND DUP3 ADD PUSH1 0x40 MSTORE RETURNDATASIZE DUP3 MSTORE RETURNDATASIZE PUSH1 0x0 PUSH1 0x20 DUP5 ADD RETURNDATACOPY PUSH2 0x3907 JUMP JUMPDEST PUSH1 0x60 SWAP2 POP JUMPDEST POP SWAP2 POP SWAP2 POP PUSH2 0x3918 DUP8 DUP4 DUP4 DUP8 PUSH2 0x3924 JUMP JUMPDEST SWAP3 POP POP POP SWAP5 SWAP4 POP POP POP POP JUMP JUMPDEST PUSH1 0x60 DUP4 ISZERO PUSH2 0x3986 JUMPI PUSH1 0x0 DUP4 MLOAD SUB PUSH2 0x397E JUMPI PUSH2 0x393E DUP6 PUSH2 0x3999 JUMP JUMPDEST PUSH2 0x397D JUMPI PUSH1 0x40 MLOAD PUSH32 0x8C379A000000000000000000000000000000000000000000000000000000000 DUP2 MSTORE PUSH1 0x4 ADD PUSH2 0x3974 SWAP1 PUSH2 0x4564 JUMP JUMPDEST PUSH1 0x40 MLOAD DUP1 SWAP2 SUB SWAP1 REVERT JUMPDEST JUMPDEST DUP3 SWAP1 POP PUSH2 0x3991 JUMP JUMPDEST PUSH2 0x3990 DUP4 DUP4 PUSH2 0x39BC JUMP JUMPDEST JUMPDEST SWAP5 SWAP4 POP POP POP POP JUMP JUMPDEST PUSH1 0x0 DUP1 DUP3 PUSH20 0xFFFFFFFFFFFFFFFFFFFFFFFFFFFFFFFFFFFFFFFF AND EXTCODESIZE GT SWAP1 POP SWAP2 SWAP1 POP JUMP JUMPDEST PUSH1 0x0 DUP3 MLOAD GT ISZERO PUSH2 0x39CF JUMPI DUP2 MLOAD DUP1 DUP4 PUSH1 0x20 ADD REVERT JUMPDEST DUP1 PUSH1 0x40 MLOAD PUSH32 0x8C379A000000000000000000000000000000000000000000000000000000000 DUP2 MSTORE PUSH1 0x4 ADD PUSH2 0x3A03 SWAP2 SWAP1 PUSH2 0x45D9 JUMP JUMPDEST PUSH1 0x40 MLOAD DUP1 SWAP2 SUB SWAP1 REVERT JUMPDEST PUSH1 0x0 DUP1 REVERT JUMPDEST PUSH1 0x0 PUSH20 0xFFFFFFFFFFFFFFFFFFFFFFFFFFFFFFFFFFFFFFFF DUP3 AND SWAP1 POP SWAP2 SWAP1 POP JUMP JUMPDEST PUSH1 0x0 PUSH2 0x3A3C DUP3 PUSH2 0x3A11 JUMP JUMPDEST SWAP1 POP SWAP2 SWAP1 POP JUMP JUMPDEST PUSH2 0x3A4C DUP2 PUSH2 0x3A31 JUMP JUMPDEST DUP2 EQ PUSH2 0x3A57 JUMPI PUSH1 0x0 DUP1 REVERT JUMPDEST POP JUMP JUMPDEST PUSH1 0x0 DUP2 CALLDATALOAD SWAP1 POP PUSH2 0x3A69 DUP2 PUSH2 0x3A43 JUMP JUMPDEST SWAP3 SWAP2 POP POP JUMP JUMPDEST PUSH1 0x0 PUSH1 0x20 DUP3 DUP5 SUB SLT ISZERO PUSH2 0x3A85 JUMPI PUSH2 0x3A84 PUSH2 0x3A0C JUMP JUMPDEST JUMPDEST PUSH1 0x0 PUSH2 0x3A93 DUP5 DUP3 DUP6 ADD PUSH2 0x3A5A JUMP JUMPDEST SWAP2 POP POP SWAP3 SWAP2 POP POP JUMP JUMPDEST PUSH1 0x0 DUP1 PUSH1 0x40 DUP4 DUP6 SUB SLT ISZERO PUSH2 0x3AB3 JUMPI PUSH2 0x3AB2 PUSH2 0x3A0C JUMP JUMPDEST JUMPDEST PUSH1 0x0 PUSH2 0x3AC1 DUP6 DUP3 DUP7 ADD PUSH2 0x3A5A JUMP JUMPDEST SWAP3 POP POP PUSH1 0x20 PUSH2 0x3AD2 DUP6 DUP3 DUP7 ADD PUSH2 0x3A5A JUMP JUMPDEST SWAP2 POP POP SWAP3 POP SWAP3 SWAP1 POP JUMP JUMPDEST PUSH1 0x0 DUP2 SWAP1 POP SWAP2 SWAP1 POP JUMP JUMPDEST PUSH2 0x3AEF DUP2 PUSH2 0x3ADC JUMP JUMPDEST DUP3 MSTORE POP POP JUMP JUMPDEST PUSH1 0x0 PUSH1 0x20 DUP3 ADD SWAP1 POP PUSH2 0x3B0A PUSH1 0x0 DUP4 ADD DUP5 PUSH2 0x3AE6 JUMP JUMPDEST SWAP3 SWAP2 POP POP JUMP JUMPDEST PUSH2 0x3B19 DUP2 PUSH2 0x3ADC JUMP JUMPDEST DUP2 EQ PUSH2 0x3B24 JUMPI PUSH1 0x0 DUP1 REVERT JUMPDEST POP JUMP JUMPDEST PUSH1 0x0 DUP2 CALLDATALOAD SWAP1 POP PUSH2 0x3B36 DUP2 PUSH2 0x3B10 JUMP JUMPDEST SWAP3 SWAP2 POP POP JUMP JUMPDEST PUSH1 0x0 PUSH1 0x20 DUP3 DUP5 SUB SLT ISZERO PUSH2 0x3B52 JUMPI PUSH2 0x3B51 PUSH2 0x3A0C JUMP JUMPDEST JUMPDEST PUSH1 0x0 PUSH2 0x3B60 DUP5 DUP3 DUP6 ADD PUSH2 0x3B27 JUMP JUMPDEST SWAP2 POP POP SWAP3 SWAP2 POP POP JUMP JUMPDEST PUSH1 0x0 DUP2 SWAP1 POP SWAP2 SWAP1 POP JUMP JUMPDEST PUSH1 0x0 PUSH2 0x3B8E PUSH2 0x3B89 PUSH2 0x3B84 DUP5 PUSH2 0x3A11 JUMP JUMPDEST PUSH2 0x3B69 JUMP JUMPDEST PUSH2 0x3A11 JUMP JUMPDEST SWAP1 POP SWAP2 SWAP1 POP JUMP JUMPDEST PUSH1 0x0 PUSH2 0x3BA0 DUP3 PUSH2 0x3B73 JUMP JUMPDEST SWAP1 POP SWAP2 SWAP1 POP JUMP JUMPDEST PUSH1 0x0 PUSH2 0x3BB2 DUP3 PUSH2 0x3B95 JUMP JUMPDEST SWAP1 POP SWAP2 SWAP1 POP JUMP JUMPDEST PUSH2 0x3BC2 DUP2 PUSH2 0x3BA7 JUMP JUMPDEST DUP3 MSTORE POP POP JUMP JUMPDEST PUSH1 0x0 PUSH1 0x80 DUP3 ADD SWAP1 POP PUSH2 0x3BDD PUSH1 0x0 DUP4 ADD DUP8 PUSH2 0x3BB9 JUMP JUMPDEST PUSH2 0x3BEA PUSH1 0x20 DUP4 ADD DUP7 PUSH2 0x3AE6 JUMP JUMPDEST PUSH2 0x3BF7 PUSH1 0x40 DUP4 ADD DUP6 PUSH2 0x3AE6 JUMP JUMPDEST PUSH2 0x3C04 PUSH1 0x60 DUP4 ADD DUP5 PUSH2 0x3AE6 JUMP JUMPDEST SWAP6 SWAP5 POP POP POP POP POP JUMP JUMPDEST PUSH1 0x0 DUP2 ISZERO ISZERO SWAP1 POP SWAP2 SWAP1 POP JUMP JUMPDEST PUSH2 0x3C22 DUP2 PUSH2 0x3C0D JUMP JUMPDEST DUP2 EQ PUSH2 0x3C2D JUMPI PUSH1 0x0 DUP1 REVERT JUMPDEST POP JUMP JUMPDEST PUSH1 0x0 DUP2 CALLDATALOAD SWAP1 POP PUSH2 0x3C3F DUP2 PUSH2 0x3C19 JUMP JUMPDEST SWAP3 SWAP2 POP POP JUMP JUMPDEST PUSH1 0x0 DUP1 PUSH1 0x0 PUSH1 0x60 DUP5 DUP7 SUB SLT ISZERO PUSH2 0x3C5E JUMPI PUSH2 0x3C5D PUSH2 0x3A0C JUMP JUMPDEST JUMPDEST PUSH1 0x0 PUSH2 0x3C6C DUP7 DUP3 DUP8 ADD PUSH2 0x3B27 JUMP JUMPDEST SWAP4 POP POP PUSH1 0x20 PUSH2 0x3C7D DUP7 DUP3 DUP8 ADD PUSH2 0x3A5A JUMP JUMPDEST SWAP3 POP POP PUSH1 0x40 PUSH2 0x3C8E DUP7 DUP3 DUP8 ADD PUSH2 0x3C30 JUMP JUMPDEST SWAP2 POP POP SWAP3 POP SWAP3 POP SWAP3 JUMP JUMPDEST PUSH1 0x0 PUSH1 0x60 DUP3 ADD SWAP1 POP PUSH2 0x3CAD PUSH1 0x0 DUP4 ADD DUP7 PUSH2 0x3AE6 JUMP JUMPDEST PUSH2 0x3CBA PUSH1 0x20 DUP4 ADD DUP6 PUSH2 0x3AE6 JUMP JUMPDEST PUSH2 0x3CC7 PUSH1 0x40 DUP4 ADD DUP5 PUSH2 0x3AE6 JUMP JUMPDEST SWAP5 SWAP4 POP POP POP POP JUMP JUMPDEST PUSH1 0x0 DUP1 PUSH1 0x40 DUP4 DUP6 SUB SLT ISZERO PUSH2 0x3CE6 JUMPI PUSH2 0x3CE5 PUSH2 0x3A0C JUMP JUMPDEST JUMPDEST PUSH1 0x0 PUSH2 0x3CF4 DUP6 DUP3 DUP7 ADD PUSH2 0x3A5A JUMP JUMPDEST SWAP3 POP POP PUSH1 0x20 PUSH2 0x3D05 DUP6 DUP3 DUP7 ADD PUSH2 0x3B27 JUMP JUMPDEST SWAP2 POP POP SWAP3 POP SWAP3 SWAP1 POP JUMP JUMPDEST PUSH1 0x0 DUP1 PUSH1 0x0 PUSH1 0x60 DUP5 DUP7 SUB SLT ISZERO PUSH2 0x3D28 JUMPI PUSH2 0x3D27 PUSH2 0x3A0C JUMP JUMPDEST JUMPDEST PUSH1 0x0 PUSH2 0x3D36 DUP7 DUP3 DUP8 ADD PUSH2 0x3B27 JUMP JUMPDEST SWAP4 POP POP PUSH1 0x20 PUSH2 0x3D47 DUP7 DUP3 DUP8 ADD PUSH2 0x3B27 JUMP JUMPDEST SWAP3 POP POP PUSH1 0x40 PUSH2 0x3D58 DUP7 DUP3 DUP8 ADD PUSH2 0x3C30 JUMP JUMPDEST SWAP2 POP POP SWAP3 POP SWAP3 POP SWAP3 JUMP JUMPDEST PUSH1 0x0 DUP1 PUSH1 0x40 DUP4 DUP6 SUB SLT ISZERO PUSH2 0x3D79 JUMPI PUSH2 0x3D78 PUSH2 0x3A0C JUMP JUMPDEST JUMPDEST PUSH1 0x0 PUSH2 0x3D87 DUP6 DUP3 DUP7 ADD PUSH2 0x3B27 JUMP JUMPDEST SWAP3 POP POP PUSH1 0x20 PUSH2 0x3D98 DUP6 DUP3 DUP7 ADD PUSH2 0x3C30 JUMP JUMPDEST SWAP2 POP POP SWAP3 POP SWAP3 SWAP1 POP JUMP JUMPDEST PUSH1 0x0 PUSH1 0xA0 DUP3 ADD SWAP1 POP PUSH2 0x3DB7 PUSH1 0x0 DUP4 ADD DUP9 PUSH2 0x3AE6 JUMP JUMPDEST PUSH2 0x3DC4 PUSH1 0x20 DUP4 ADD DUP8 PUSH2 0x3AE6 JUMP JUMPDEST PUSH2 0x3DD1 PUSH1 0x40 DUP4 ADD DUP7 PUSH2 0x3AE6 JUMP JUMPDEST PUSH2 0x3DDE PUSH1 0x60 DUP4 ADD DUP6 PUSH2 0x3AE6 JUMP JUMPDEST PUSH2 0x3DEB PUSH1 0x80 DUP4 ADD DUP5 PUSH2 0x3AE6 JUMP JUMPDEST SWAP7 SWAP6 POP POP POP POP POP POP JUMP JUMPDEST PUSH2 0x3DFE DUP2 PUSH2 0x3A31 JUMP JUMPDEST DUP3 MSTORE POP POP JUMP JUMPDEST PUSH1 0x0 PUSH1 0x20 DUP3 ADD SWAP1 POP PUSH2 0x3E19 PUSH1 0x0 DUP4 ADD DUP5 PUSH2 0x3DF5 JUMP JUMPDEST SWAP3 SWAP2 POP POP JUMP JUMPDEST PUSH1 0x0 DUP1 PUSH1 0x40 DUP4 DUP6 SUB SLT ISZERO PUSH2 0x3E36 JUMPI PUSH2 0x3E35 PUSH2 0x3A0C JUMP JUMPDEST JUMPDEST PUSH1 0x0 PUSH2 0x3E44 DUP6 DUP3 DUP7 ADD PUSH2 0x3B27 JUMP JUMPDEST SWAP3 POP POP PUSH1 0x20 PUSH2 0x3E55 DUP6 DUP3 DUP7 ADD PUSH2 0x3A5A JUMP JUMPDEST SWAP2 POP POP SWAP3 POP SWAP3 SWAP1 POP JUMP JUMPDEST PUSH1 0x0 DUP1 PUSH1 0x0 PUSH1 0x60 DUP5 DUP7 SUB SLT ISZERO PUSH2 0x3E78 JUMPI PUSH2 0x3E77 PUSH2 0x3A0C JUMP JUMPDEST JUMPDEST PUSH1 0x0 PUSH2 0x3E86 DUP7 DUP3 DUP8 ADD PUSH2 0x3A5A JUMP JUMPDEST SWAP4 POP POP PUSH1 0x20 PUSH2 0x3E97 DUP7 DUP3 DUP8 ADD PUSH2 0x3B27 JUMP JUMPDEST SWAP3 POP POP PUSH1 0x40 PUSH2 0x3EA8 DUP7 DUP3 DUP8 ADD PUSH2 0x3A5A JUMP JUMPDEST SWAP2 POP POP SWAP3 POP SWAP3 POP SWAP3 JUMP JUMPDEST PUSH1 0x0 PUSH1 0x20 DUP3 ADD SWAP1 POP PUSH2 0x3EC7 PUSH1 0x0 DUP4 ADD DUP5 PUSH2 0x3BB9 JUMP JUMPDEST SWAP3 SWAP2 POP POP JUMP JUMPDEST PUSH32 0x4E487B7100000000000000000000000000000000000000000000000000000000 PUSH1 0x0 MSTORE PUSH1 0x32 PUSH1 0x4 MSTORE PUSH1 0x24 PUSH1 0x0 REVERT JUMPDEST PUSH32 0x4E487B7100000000000000000000000000000000000000000000000000000000 PUSH1 0x0 MSTORE PUSH1 0x11 PUSH1 0x4 MSTORE PUSH1 0x24 PUSH1 0x0 REVERT JUMPDEST PUSH1 0x0 PUSH2 0x3F36 DUP3 PUSH2 0x3ADC JUMP JUMPDEST SWAP2 POP PUSH2 0x3F41 DUP4 PUSH2 0x3ADC JUMP JUMPDEST SWAP3 POP DUP3 DUP3 MUL PUSH2 0x3F4F DUP2 PUSH2 0x3ADC JUMP JUMPDEST SWAP2 POP DUP3 DUP3 DIV DUP5 EQ DUP4 ISZERO OR PUSH2 0x3F66 JUMPI PUSH2 0x3F65 PUSH2 0x3EFC JUMP JUMPDEST JUMPDEST POP SWAP3 SWAP2 POP POP JUMP JUMPDEST PUSH32 0x4E487B7100000000000000000000000000000000000000000000000000000000 PUSH1 0x0 MSTORE PUSH1 0x12 PUSH1 0x4 MSTORE PUSH1 0x24 PUSH1 0x0 REVERT JUMPDEST PUSH1 0x0 PUSH2 0x3FA7 DUP3 PUSH2 0x3ADC JUMP JUMPDEST SWAP2 POP PUSH2 0x3FB2 DUP4 PUSH2 0x3ADC JUMP JUMPDEST SWAP3 POP DUP3 PUSH2 0x3FC2 JUMPI PUSH2 0x3FC1 PUSH2 0x3F6D JUMP JUMPDEST JUMPDEST DUP3 DUP3 DIV SWAP1 POP SWAP3 SWAP2 POP POP JUMP JUMPDEST PUSH1 0x0 PUSH2 0x3FD8 DUP3 PUSH2 0x3ADC JUMP JUMPDEST SWAP2 POP PUSH2 0x3FE3 DUP4 PUSH2 0x3ADC JUMP JUMPDEST SWAP3 POP DUP3 DUP3 SUB SWAP1 POP DUP2 DUP2 GT ISZERO PUSH2 0x3FFB JUMPI PUSH2 0x3FFA PUSH2 0x3EFC JUMP JUMPDEST JUMPDEST SWAP3 SWAP2 POP POP JUMP JUMPDEST PUSH1 0x0 PUSH2 0x400C DUP3 PUSH2 0x3ADC JUMP JUMPDEST SWAP2 POP PUSH2 0x4017 DUP4 PUSH2 0x3ADC JUMP JUMPDEST SWAP3 POP DUP3 DUP3 ADD SWAP1 POP DUP1 DUP3 GT ISZERO PUSH2 0x402F JUMPI PUSH2 0x402E PUSH2 0x3EFC JUMP JUMPDEST JUMPDEST SWAP3 SWAP2 POP POP JUMP JUMPDEST PUSH1 0x0 DUP2 MLOAD SWAP1 POP PUSH2 0x4044 DUP2 PUSH2 0x3B10 JUMP JUMPDEST SWAP3 SWAP2 POP POP JUMP JUMPDEST PUSH1 0x0 PUSH1 0x20 DUP3 DUP5 SUB SLT ISZERO PUSH2 0x4060 JUMPI PUSH2 0x405F PUSH2 0x3A0C JUMP JUMPDEST JUMPDEST PUSH1 0x0 PUSH2 0x406E DUP5 DUP3 DUP6 ADD PUSH2 0x4035 JUMP JUMPDEST SWAP2 POP POP SWAP3 SWAP2 POP POP JUMP JUMPDEST PUSH1 0x0 DUP3 DUP3 MSTORE PUSH1 0x20 DUP3 ADD SWAP1 POP SWAP3 SWAP2 POP POP JUMP JUMPDEST PUSH32 0x4F776E61626C653A206E6577206F776E657220697320746865207A65726F2061 PUSH1 0x0 DUP3 ADD MSTORE PUSH32 0x6464726573730000000000000000000000000000000000000000000000000000 PUSH1 0x20 DUP3 ADD MSTORE POP JUMP JUMPDEST PUSH1 0x0 PUSH2 0x40E4 PUSH1 0x26 DUP4 PUSH2 0x4077 JUMP JUMPDEST SWAP2 POP PUSH2 0x40EF DUP3 PUSH2 0x4088 JUMP JUMPDEST PUSH1 0x40 DUP3 ADD SWAP1 POP SWAP2 SWAP1 POP JUMP JUMPDEST PUSH1 0x0 PUSH1 0x20 DUP3 ADD SWAP1 POP DUP2 DUP2 SUB PUSH1 0x0 DUP4 ADD MSTORE PUSH2 0x4113 DUP2 PUSH2 0x40D7 JUMP JUMPDEST SWAP1 POP SWAP2 SWAP1 POP JUMP JUMPDEST PUSH32 0x546F6F2062696720616D6F756E74000000000000000000000000000000000000 PUSH1 0x0 DUP3 ADD MSTORE POP JUMP JUMPDEST PUSH1 0x0 PUSH2 0x4150 PUSH1 0xE DUP4 PUSH2 0x4077 JUMP JUMPDEST SWAP2 POP PUSH2 0x415B DUP3 PUSH2 0x411A JUMP JUMPDEST PUSH1 0x20 DUP3 ADD SWAP1 POP SWAP2 SWAP1 POP JUMP JUMPDEST PUSH1 0x0 PUSH1 0x20 DUP3 ADD SWAP1 POP DUP2 DUP2 SUB PUSH1 0x0 DUP4 ADD MSTORE PUSH2 0x417F DUP2 PUSH2 0x4143 JUMP JUMPDEST SWAP1 POP SWAP2 SWAP1 POP JUMP JUMPDEST PUSH32 0x4F776E61626C653A2063616C6C6572206973206E6F7420746865206F776E6572 PUSH1 0x0 DUP3 ADD MSTORE POP JUMP JUMPDEST PUSH1 0x0 PUSH2 0x41BC PUSH1 0x20 DUP4 PUSH2 0x4077 JUMP JUMPDEST SWAP2 POP PUSH2 0x41C7 DUP3 PUSH2 0x4186 JUMP JUMPDEST PUSH1 0x20 DUP3 ADD SWAP1 POP SWAP2 SWAP1 POP JUMP JUMPDEST PUSH1 0x0 PUSH1 0x20 DUP3 ADD SWAP1 POP DUP2 DUP2 SUB PUSH1 0x0 DUP4 ADD MSTORE PUSH2 0x41EB DUP2 PUSH2 0x41AF JUMP JUMPDEST SWAP1 POP SWAP2 SWAP1 POP JUMP JUMPDEST PUSH32 0x5265656E7472616E637947756172643A207265656E7472616E742063616C6C00 PUSH1 0x0 DUP3 ADD MSTORE POP JUMP JUMPDEST PUSH1 0x0 PUSH2 0x4228 PUSH1 0x1F DUP4 PUSH2 0x4077 JUMP JUMPDEST SWAP2 POP PUSH2 0x4233 DUP3 PUSH2 0x41F2 JUMP JUMPDEST PUSH1 0x20 DUP3 ADD SWAP1 POP SWAP2 SWAP1 POP JUMP JUMPDEST PUSH1 0x0 PUSH1 0x20 DUP3 ADD SWAP1 POP DUP2 DUP2 SUB PUSH1 0x0 DUP4 ADD MSTORE PUSH2 0x4257 DUP2 PUSH2 0x421B JUMP JUMPDEST SWAP1 POP SWAP2 SWAP1 POP JUMP JUMPDEST PUSH1 0x0 PUSH1 0x40 DUP3 ADD SWAP1 POP PUSH2 0x4273 PUSH1 0x0 DUP4 ADD DUP6 PUSH2 0x3DF5 JUMP JUMPDEST PUSH2 0x4280 PUSH1 0x20 DUP4 ADD DUP5 PUSH2 0x3AE6 JUMP JUMPDEST SWAP4 SWAP3 POP POP POP JUMP JUMPDEST PUSH32 0x7472616E7366657220616D6F756E74206D69736D617463680000000000000000 PUSH1 0x0 DUP3 ADD MSTORE POP JUMP JUMPDEST PUSH1 0x0 PUSH2 0x42BD PUSH1 0x18 DUP4 PUSH2 0x4077 JUMP JUMPDEST SWAP2 POP PUSH2 0x42C8 DUP3 PUSH2 0x4287 JUMP JUMPDEST PUSH1 0x20 DUP3 ADD SWAP1 POP SWAP2 SWAP1 POP JUMP JUMPDEST PUSH1 0x0 PUSH1 0x20 DUP3 ADD SWAP1 POP DUP2 DUP2 SUB PUSH1 0x0 DUP4 ADD MSTORE PUSH2 0x42EC DUP2 PUSH2 0x42B0 JUMP JUMPDEST SWAP1 POP SWAP2 SWAP1 POP JUMP JUMPDEST PUSH1 0x0 DUP2 MLOAD SWAP1 POP PUSH2 0x4302 DUP2 PUSH2 0x3C19 JUMP JUMPDEST SWAP3 SWAP2 POP POP JUMP JUMPDEST PUSH1 0x0 PUSH1 0x20 DUP3 DUP5 SUB SLT ISZERO PUSH2 0x431E JUMPI PUSH2 0x431D PUSH2 0x3A0C JUMP JUMPDEST JUMPDEST PUSH1 0x0 PUSH2 0x432C DUP5 DUP3 DUP6 ADD PUSH2 0x42F3 JUMP JUMPDEST SWAP2 POP POP SWAP3 SWAP2 POP POP JUMP JUMPDEST PUSH32 0x5361666545524332303A204552433230206F7065726174696F6E20646964206E PUSH1 0x0 DUP3 ADD MSTORE PUSH32 0x6F74207375636365656400000000000000000000000000000000000000000000 PUSH1 0x20 DUP3 ADD MSTORE POP JUMP JUMPDEST PUSH1 0x0 PUSH2 0x4391 PUSH1 0x2A DUP4 PUSH2 0x4077 JUMP JUMPDEST SWAP2 POP PUSH2 0x439C DUP3 PUSH2 0x4335 JUMP JUMPDEST PUSH1 0x40 DUP3 ADD SWAP1 POP SWAP2 SWAP1 POP JUMP JUMPDEST PUSH1 0x0 PUSH1 0x20 DUP3 ADD SWAP1 POP DUP2 DUP2 SUB PUSH1 0x0 DUP4 ADD MSTORE PUSH2 0x43C0 DUP2 PUSH2 0x4384 JUMP JUMPDEST SWAP1 POP SWAP2 SWAP1 POP JUMP JUMPDEST PUSH1 0x0 PUSH1 0x60 DUP3 ADD SWAP1 POP PUSH2 0x43DC PUSH1 0x0 DUP4 ADD DUP7 PUSH2 0x3DF5 JUMP JUMPDEST PUSH2 0x43E9 PUSH1 0x20 DUP4 ADD DUP6 PUSH2 0x3DF5 JUMP JUMPDEST PUSH2 0x43F6 PUSH1 0x40 DUP4 ADD DUP5 PUSH2 0x3AE6 JUMP JUMPDEST SWAP5 SWAP4 POP POP POP POP JUMP JUMPDEST PUSH32 0x416464726573733A20696E73756666696369656E742062616C616E636520666F PUSH1 0x0 DUP3 ADD MSTORE PUSH32 0x722063616C6C0000000000000000000000000000000000000000000000000000 PUSH1 0x20 DUP3 ADD MSTORE POP JUMP JUMPDEST PUSH1 0x0 PUSH2 0x445A PUSH1 0x26 DUP4 PUSH2 0x4077 JUMP JUMPDEST SWAP2 POP PUSH2 0x4465 DUP3 PUSH2 0x43FE JUMP JUMPDEST PUSH1 0x40 DUP3 ADD SWAP1 POP SWAP2 SWAP1 POP JUMP JUMPDEST PUSH1 0x0 PUSH1 0x20 DUP3 ADD SWAP1 POP DUP2 DUP2 SUB PUSH1 0x0 DUP4 ADD MSTORE PUSH2 0x4489 DUP2 PUSH2 0x444D JUMP JUMPDEST SWAP1 POP SWAP2 SWAP1 POP JUMP JUMPDEST PUSH1 0x0 DUP2 MLOAD SWAP1 POP SWAP2 SWAP1 POP JUMP JUMPDEST PUSH1 0x0 DUP2 SWAP1 POP SWAP3 SWAP2 POP POP JUMP JUMPDEST PUSH1 0x0 JUMPDEST DUP4 DUP2 LT ISZERO PUSH2 0x44C4 JUMPI DUP1 DUP3 ADD MLOAD DUP2 DUP5 ADD MSTORE PUSH1 0x20 DUP2 ADD SWAP1 POP PUSH2 0x44A9 JUMP JUMPDEST PUSH1 0x0 DUP5 DUP5 ADD MSTORE POP POP POP POP JUMP JUMPDEST PUSH1 0x0 PUSH2 0x44DB DUP3 PUSH2 0x4490 JUMP JUMPDEST PUSH2 0x44E5 DUP2 DUP6 PUSH2 0x449B JUMP JUMPDEST SWAP4 POP PUSH2 0x44F5 DUP2 DUP6 PUSH1 0x20 DUP7 ADD PUSH2 0x44A6 JUMP JUMPDEST DUP1 DUP5 ADD SWAP2 POP POP SWAP3 SWAP2 POP POP JUMP JUMPDEST PUSH1 0x0 PUSH2 0x450D DUP3 DUP5 PUSH2 0x44D0 JUMP JUMPDEST SWAP2 POP DUP2 SWAP1 POP SWAP3 SWAP2 POP POP JUMP JUMPDEST PUSH32 0x416464726573733A2063616C6C20746F206E6F6E2D636F6E7472616374000000 PUSH1 0x0 DUP3 ADD MSTORE POP JUMP JUMPDEST PUSH1 0x0 PUSH2 0x454E PUSH1 0x1D DUP4 PUSH2 0x4077 JUMP JUMPDEST SWAP2 POP PUSH2 0x4559 DUP3 PUSH2 0x4518 JUMP JUMPDEST PUSH1 0x20 DUP3 ADD SWAP1 POP SWAP2 SWAP1 POP JUMP JUMPDEST PUSH1 0x0 PUSH1 0x20 DUP3 ADD SWAP1 POP DUP2 DUP2 SUB PUSH1 0x0 DUP4 ADD MSTORE PUSH2 0x457D DUP2 PUSH2 0x4541 JUMP JUMPDEST SWAP1 POP SWAP2 SWAP1 POP JUMP JUMPDEST PUSH1 0x0 DUP2 MLOAD SWAP1 POP SWAP2 SWAP1 POP JUMP JUMPDEST PUSH1 0x0 PUSH1 0x1F NOT PUSH1 0x1F DUP4 ADD AND SWAP1 POP SWAP2 SWAP1 POP JUMP JUMPDEST PUSH1 0x0 PUSH2 0x45AB DUP3 PUSH2 0x4584 JUMP JUMPDEST PUSH2 0x45B5 DUP2 DUP6 PUSH2 0x4077 JUMP JUMPDEST SWAP4 POP PUSH2 0x45C5 DUP2 DUP6 PUSH1 0x20 DUP7 ADD PUSH2 0x44A6 JUMP JUMPDEST PUSH2 0x45CE DUP2 PUSH2 0x458F JUMP JUMPDEST DUP5 ADD SWAP2 POP POP SWAP3 SWAP2 POP POP JUMP JUMPDEST PUSH1 0x0 PUSH1 0x20 DUP3 ADD SWAP1 POP DUP2 DUP2 SUB PUSH1 0x0 DUP4 ADD MSTORE PUSH2 0x45F3 DUP2 DUP5 PUSH2 0x45A0 JUMP JUMPDEST SWAP1 POP SWAP3 SWAP2 POP POP JUMP INVALID LOG2 PUSH5 0x6970667358 0x22 SLT KECCAK256 PUSH29 0xAC1176EC748481CF2E3F69A7CCDFD7BE16D7CC32092DB477FF16AE7829 SWAP6 SLT PUSH5 0x736F6C6343 STOP ADDMOD GT STOP CALLER "},"methodIdentifiers":{"add(uint256,address,bool)":"1eaaa045","deposit(address,uint256,address)":"f45346dc","depositWithoutRefer(address,uint256)":"4146cae9","earlyHarvestCommission()":"73b93421","earlyHarvestCommissionInterval()":"d6be9b67","emergencyWithdraw(address)":"6ff1c9bc","getNarfexLeft()":"da0bb03a","getPoolUserData(address,address)":"20fc0fc6","getPoolsCount()":"b4ac6860","getSettings()":"85b4bb53","getUserPoolSize(address,address)":"0e95ec24","getUserReward(address,address)":"5ab764ed","harvest(address)":"0e5c011e","harvestInterval()":"14dc0ce0","massUpdatePools()":"630b5ba1","owner()":"8da5cb5b","poolId(address)":"ff51a272","poolInfo(uint256)":"1526fe27","referralPercent()":"343dfb7e","renounceOwnership()":"715018a6","rewardPerBlock()":"8ae39cac","rewardToken()":"f7c618c1","set(uint256,uint256,bool)":"64482f79","setEarlyHarvestCommission(uint256)":"242952b6","setEarlyHarvestCommissionInterval(uint256)":"c3e2c56b","setHarvestInterval(uint256)":"38d7aae1","setReferralPercent(uint256)":"6129f25f","setRewardPerBlock(uint256,bool)":"81505c05","startBlock()":"48cd4cb1","totalAllocPoint()":"17caf6f1","transferOwnership(address)":"f2fde38b","updatePool(uint256)":"51eb05a6","userInfo(uint256,address)":"93f1a40b","withdraw(address,uint256)":"f3fef3a3","withdrawNarfex(uint256)":"f84b94e1"}}}}}