{"contracts/MasterChef.sol":{"MasterChef":{"abi":[{"inputs":[{"internalType":"address","name":"_rewardToken","type":"address"},{"internalType":"uint256","name":"_rewardPerBlock","type":"uint256"}],"stateMutability":"nonpayable","type":"constructor"},{"anonymous":false,"inputs":[{"indexed":true,"internalType":"address","name":"user","type":"address"},{"indexed":true,"internalType":"uint256","name":"pid","type":"uint256"},{"indexed":false,"internalType":"uint256","name":"amount","type":"uint256"}],"name":"Deposit","type":"event"},{"anonymous":false,"inputs":[{"indexed":false,"internalType":"uint256","name":"interval","type":"uint256"}],"name":"EarlyHarvestCommissionIntervalSet","type":"event"},{"anonymous":false,"inputs":[{"indexed":false,"internalType":"uint256","name":"percents","type":"uint256"}],"name":"EarlyHarvestCommissionSet","type":"event"},{"anonymous":false,"inputs":[{"indexed":true,"internalType":"address","name":"user","type":"address"},{"indexed":true,"internalType":"uint256","name":"pid","type":"uint256"},{"indexed":false,"internalType":"uint256","name":"amount","type":"uint256"}],"name":"EmergencyWithdraw","type":"event"},{"anonymous":false,"inputs":[{"indexed":true,"internalType":"address","name":"user","type":"address"},{"indexed":true,"internalType":"uint256","name":"pid","type":"uint256"},{"indexed":false,"internalType":"uint256","name":"amount","type":"uint256"}],"name":"Harvest","type":"event"},{"anonymous":false,"inputs":[{"indexed":false,"internalType":"uint256","name":"interval","type":"uint256"}],"name":"HarvestIntervalSet","type":"event"},{"anonymous":false,"inputs":[{"indexed":true,"internalType":"address","name":"previousOwner","type":"address"},{"indexed":true,"internalType":"address","name":"newOwner","type":"address"}],"name":"OwnershipTransferred","type":"event"},{"anonymous":false,"inputs":[{"indexed":true,"internalType":"uint256","name":"pid","type":"uint256"},{"indexed":true,"internalType":"address","name":"pairToken","type":"address"},{"indexed":false,"internalType":"uint256","name":"allocPoint","type":"uint256"}],"name":"PoolAdded","type":"event"},{"anonymous":false,"inputs":[{"indexed":true,"internalType":"uint256","name":"pid","type":"uint256"},{"indexed":false,"internalType":"uint256","name":"allocPoint","type":"uint256"}],"name":"PoolAllocPointSet","type":"event"},{"anonymous":false,"inputs":[{"indexed":false,"internalType":"uint256","name":"percents","type":"uint256"}],"name":"ReferralPercentSet","type":"event"},{"anonymous":false,"inputs":[{"indexed":true,"internalType":"address","name":"referral","type":"address"},{"indexed":false,"internalType":"uint256","name":"amount","type":"uint256"}],"name":"ReferralRewardPaid","type":"event"},{"anonymous":false,"inputs":[{"indexed":false,"internalType":"uint256","name":"rewardPerBlock","type":"uint256"}],"name":"RewardPerBlockSet","type":"event"},{"anonymous":false,"inputs":[{"indexed":false,"internalType":"uint256","name":"totalAllocPoint","type":"uint256"}],"name":"TotalAllocPointUpdated","type":"event"},{"anonymous":false,"inputs":[{"indexed":true,"internalType":"address","name":"user","type":"address"},{"indexed":true,"internalType":"uint256","name":"pid","type":"uint256"},{"indexed":false,"internalType":"uint256","name":"amount","type":"uint256"}],"name":"Withdraw","type":"event"},{"inputs":[{"internalType":"uint256","name":"_allocPoint","type":"uint256"},{"internalType":"address","name":"_pairToken","type":"address"},{"internalType":"bool","name":"_withUpdate","type":"bool"}],"name":"add","outputs":[],"stateMutability":"nonpayable","type":"function"},{"inputs":[{"internalType":"address","name":"_pairAddress","type":"address"},{"internalType":"uint256","name":"_amount","type":"uint256"},{"internalType":"address","name":"_referral","type":"address"}],"name":"deposit","outputs":[],"stateMutability":"nonpayable","type":"function"},{"inputs":[{"internalType":"address","name":"_pairAddress","type":"address"},{"internalType":"uint256","name":"_amount","type":"uint256"}],"name":"depositWithoutRefer","outputs":[],"stateMutability":"nonpayable","type":"function"},{"inputs":[],"name":"earlyHarvestCommission","outputs":[{"internalType":"uint256","name":"","type":"uint256"}],"stateMutability":"view","type":"function"},{"inputs":[],"name":"earlyHarvestCommissionInterval","outputs":[{"internalType":"uint256","name":"","type":"uint256"}],"stateMutability":"view","type":"function"},{"inputs":[{"internalType":"address","name":"_pairAddress","type":"address"}],"name":"emergencyWithdraw","outputs":[],"stateMutability":"nonpayable","type":"function"},{"inputs":[],"name":"getNarfexLeft","outputs":[{"internalType":"uint256","name":"","type":"uint256"}],"stateMutability":"view","type":"function"},{"inputs":[{"internalType":"address","name":"_pairAddress","type":"address"},{"internalType":"address","name":"_user","type":"address"}],"name":"getPoolUserData","outputs":[{"internalType":"uint256","name":"balance","type":"uint256"},{"internalType":"uint256","name":"userPool","type":"uint256"},{"internalType":"uint256","name":"reward","type":"uint256"}],"stateMutability":"view","type":"function"},{"inputs":[],"name":"getPoolsCount","outputs":[{"internalType":"uint256","name":"","type":"uint256"}],"stateMutability":"view","type":"function"},{"inputs":[],"name":"getSettings","outputs":[{"internalType":"uint256","name":"uintRewardPerBlock","type":"uint256"},{"internalType":"uint256","name":"uintEarlyHarvestCommissionInterval","type":"uint256"},{"internalType":"uint256","name":"uintHarvestInterval","type":"uint256"},{"internalType":"uint256","name":"uintEarlyHarvestCommission","type":"uint256"},{"internalType":"uint256","name":"uintReferralPercent","type":"uint256"}],"stateMutability":"view","type":"function"},{"inputs":[{"internalType":"address","name":"_pairAddress","type":"address"},{"internalType":"address","name":"_user","type":"address"}],"name":"getUserPoolSize","outputs":[{"internalType":"uint256","name":"","type":"uint256"}],"stateMutability":"view","type":"function"},{"inputs":[{"internalType":"address","name":"_pairAddress","type":"address"},{"internalType":"address","name":"_user","type":"address"}],"name":"getUserReward","outputs":[{"internalType":"uint256","name":"","type":"uint256"}],"stateMutability":"view","type":"function"},{"inputs":[{"internalType":"address","name":"_pairAddress","type":"address"}],"name":"harvest","outputs":[],"stateMutability":"nonpayable","type":"function"},{"inputs":[],"name":"harvestInterval","outputs":[{"internalType":"uint256","name":"","type":"uint256"}],"stateMutability":"view","type":"function"},{"inputs":[],"name":"massUpdatePools","outputs":[],"stateMutability":"nonpayable","type":"function"},{"inputs":[],"name":"owner","outputs":[{"internalType":"address","name":"","type":"address"}],"stateMutability":"view","type":"function"},{"inputs":[{"internalType":"address","name":"","type":"address"}],"name":"poolId","outputs":[{"internalType":"uint256","name":"","type":"uint256"}],"stateMutability":"view","type":"function"},{"inputs":[{"internalType":"uint256","name":"","type":"uint256"}],"name":"poolInfo","outputs":[{"internalType":"contract IERC20","name":"pairToken","type":"address"},{"internalType":"uint256","name":"allocPoint","type":"uint256"},{"internalType":"uint256","name":"lastRewardBlock","type":"uint256"},{"internalType":"uint256","name":"accRewardPerShare","type":"uint256"}],"stateMutability":"view","type":"function"},{"inputs":[],"name":"referralPercent","outputs":[{"internalType":"uint256","name":"","type":"uint256"}],"stateMutability":"view","type":"function"},{"inputs":[],"name":"renounceOwnership","outputs":[],"stateMutability":"nonpayable","type":"function"},{"inputs":[],"name":"rewardPerBlock","outputs":[{"internalType":"uint256","name":"","type":"uint256"}],"stateMutability":"view","type":"function"},{"inputs":[],"name":"rewardToken","outputs":[{"internalType":"contract IERC20","name":"","type":"address"}],"stateMutability":"view","type":"function"},{"inputs":[{"internalType":"uint256","name":"_pid","type":"uint256"},{"internalType":"uint256","name":"_allocPoint","type":"uint256"},{"internalType":"bool","name":"_withUpdate","type":"bool"}],"name":"set","outputs":[],"stateMutability":"nonpayable","type":"function"},{"inputs":[{"internalType":"uint256","name":"percents","type":"uint256"}],"name":"setEarlyHarvestCommission","outputs":[],"stateMutability":"nonpayable","type":"function"},{"inputs":[{"internalType":"uint256","name":"interval","type":"uint256"}],"name":"setEarlyHarvestCommissionInterval","outputs":[],"stateMutability":"nonpayable","type":"function"},{"inputs":[{"internalType":"uint256","name":"interval","type":"uint256"}],"name":"setHarvestInterval","outputs":[],"stateMutability":"nonpayable","type":"function"},{"inputs":[{"internalType":"uint256","name":"percents","type":"uint256"}],"name":"setReferralPercent","outputs":[],"stateMutability":"nonpayable","type":"function"},{"inputs":[{"internalType":"uint256","name":"_amount","type":"uint256"},{"internalType":"bool","name":"_withUpdate","type":"bool"}],"name":"setRewardPerBlock","outputs":[],"stateMutability":"nonpayable","type":"function"},{"inputs":[],"name":"startBlock","outputs":[{"internalType":"uint256","name":"","type":"uint256"}],"stateMutability":"view","type":"function"},{"inputs":[],"name":"totalAllocPoint","outputs":[{"internalType":"uint256","name":"","type":"uint256"}],"stateMutability":"view","type":"function"},{"inputs":[{"internalType":"address","name":"newOwner","type":"address"}],"name":"transferOwnership","outputs":[],"stateMutability":"nonpayable","type":"function"},{"inputs":[{"internalType":"uint256","name":"_pid","type":"uint256"}],"name":"updatePool","outputs":[],"stateMutability":"nonpayable","type":"function"},{"inputs":[{"internalType":"uint256","name":"","type":"uint256"},{"internalType":"address","name":"","type":"address"}],"name":"userInfo","outputs":[{"internalType":"uint256","name":"amount","type":"uint256"},{"internalType":"uint256","name":"withdrawnReward","type":"uint256"},{"internalType":"uint256","name":"depositTimestamp","type":"uint256"},{"internalType":"uint256","name":"harvestTimestamp","type":"uint256"},{"internalType":"uint256","name":"storedReward","type":"uint256"}],"stateMutability":"view","type":"function"},{"inputs":[{"internalType":"address","name":"_pairAddress","type":"address"},{"internalType":"uint256","name":"_amount","type":"uint256"}],"name":"withdraw","outputs":[],"stateMutability":"nonpayable","type":"function"},{"inputs":[{"internalType":"uint256","name":"_amount","type":"uint256"}],"name":"withdrawNarfex","outputs":[],"stateMutability":"nonpayable","type":"function"}],"evm":{"bytecode":{"linkReferences":{},"object":"60c0604052621275006002556170806003556103e8600455603c6005556000600b553480156200002e57600080fd5b50604051620052d6380380620052d683398181016040528101906200005491906200031d565b6200007462000068620001a960201b60201c565b620001b160201b60201c565b60018081905550620000976778b61a59e4e229e560c01b6200027560201b60201c565b620000b367246f707836f0b4c860c01b6200027560201b60201c565b8173ffffffffffffffffffffffffffffffffffffffff1660808173ffffffffffffffffffffffffffffffffffffffff1681525050620001036711ab0e58daa83a6560c01b6200027560201b60201c565b8060068190555062000126678b95f88e62c5c7aa60c01b6200027560201b60201c565b62000142671e69775c872e160b60c01b6200027560201b60201c565b7f5d7c78d0ee3ce6196f90e74ed58c0ada9ac7ccc47d3aca0547ac893776f0382660065460405162000175919062000375565b60405180910390a16200019967e8a0a8bce6855fcd60c01b6200027560201b60201c565b4360a08181525050505062000392565b600033905090565b60008060009054906101000a900473ffffffffffffffffffffffffffffffffffffffff169050816000806101000a81548173ffffffffffffffffffffffffffffffffffffffff021916908373ffffffffffffffffffffffffffffffffffffffff1602179055508173ffffffffffffffffffffffffffffffffffffffff168173ffffffffffffffffffffffffffffffffffffffff167f8be0079c531659141344cd1fd0a4f28419497f9722a3daafe3b4186f6b6457e060405160405180910390a35050565b50565b600080fd5b600073ffffffffffffffffffffffffffffffffffffffff82169050919050565b6000620002aa826200027d565b9050919050565b620002bc816200029d565b8114620002c857600080fd5b50565b600081519050620002dc81620002b1565b92915050565b6000819050919050565b620002f781620002e2565b81146200030357600080fd5b50565b6000815190506200031781620002ec565b92915050565b6000806040838503121562000337576200033662000278565b5b60006200034785828601620002cb565b92505060206200035a8582860162000306565b9150509250929050565b6200036f81620002e2565b82525050565b60006020820190506200038c600083018462000364565b92915050565b60805160a051614ef4620003e260003960008181610bc601528181610c24015261129f0152600081816121b401528181612e7601528181612fb40152818161364101526139300152614ef46000f3fe608060405234801561001057600080fd5b50600436106102115760003560e01c80636ff1c9bc11610125578063c3e2c56b116100ad578063f3fef3a31161007c578063f3fef3a3146105c1578063f45346dc146105dd578063f7c618c1146105f9578063f84b94e114610617578063ff51a2721461063357610211565b8063c3e2c56b1461054d578063d6be9b6714610569578063da0bb03a14610587578063f2fde38b146105a557610211565b806385b4bb53116100f457806385b4bb531461049d5780638ae39cac146104bf5780638da5cb5b146104dd57806393f1a40b146104fb578063b4ac68601461052f57610211565b80636ff1c9bc1461043d578063715018a61461045957806373b934211461046357806381505c051461048157610211565b8063343dfb7e116101a857806351eb05a61161017757806351eb05a6146103af5780635ab764ed146103cb5780636129f25f146103fb578063630b5ba11461041757806364482f791461042157610211565b8063343dfb7e1461033b57806338d7aae1146103595780634146cae91461037557806348cd4cb11461039157610211565b806317caf6f1116101e457806317caf6f1146102b35780631eaaa045146102d157806320fc0fc6146102ed578063242952b61461031f57610211565b80630e5c011e146102165780630e95ec241461023257806314dc0ce0146102625780631526fe2714610280575b600080fd5b610230600480360381019061022b9190614332565b610663565b005b61024c6004803603810190610247919061435f565b610927565b60405161025991906143b8565b60405180910390f35b61026a610a2e565b60405161027791906143b8565b60405180910390f35b61029a600480360381019061029591906143ff565b610a34565b6040516102aa949392919061448b565b60405180910390f35b6102bb610a94565b6040516102c891906143b8565b60405180910390f35b6102eb60048036038101906102e69190614508565b610a9a565b005b6103076004803603810190610302919061435f565b610ef4565b6040516103169392919061455b565b60405180910390f35b610339600480360381019061033491906143ff565b611059565b005b610343611152565b60405161035091906143b8565b60405180910390f35b610373600480360381019061036e91906143ff565b611158565b005b61038f600480360381019061038a9190614592565b611251565b005b61039961129d565b6040516103a691906143b8565b60405180910390f35b6103c960048036038101906103c491906143ff565b6112c1565b005b6103e560048036038101906103e0919061435f565b611341565b6040516103f291906143b8565b60405180910390f35b610415600480360381019061041091906143ff565b61173b565b005b61041f611834565b005b61043b600480360381019061043691906145d2565b6118b2565b005b61045760048036038101906104529190614332565b611b16565b005b610461611db6565b005b61046b611dca565b60405161047891906143b8565b60405180910390f35b61049b60048036038101906104969190614625565b611dd0565b005b6104a5611f56565b6040516104b6959493929190614665565b60405180910390f35b6104c7611fba565b6040516104d491906143b8565b60405180910390f35b6104e5611fc0565b6040516104f291906146c7565b60405180910390f35b610515600480360381019061051091906146e2565b611fe9565b604051610526959493929190614665565b60405180910390f35b61053761202c565b60405161054491906143b8565b60405180910390f35b610567600480360381019061056291906143ff565b612075565b005b61057161216e565b60405161057e91906143b8565b60405180910390f35b61058f612174565b60405161059c91906143b8565b60405180910390f35b6105bf60048036038101906105ba9190614332565b612251565b005b6105db60048036038101906105d69190614592565b6122d4565b005b6105f760048036038101906105f29190614722565b6127ac565b005b610601612e74565b60405161060e9190614775565b60405180910390f35b610631600480360381019061062c91906143ff565b612e98565b005b61064d60048036038101906106489190614332565b613004565b60405161065a91906143b8565b60405180910390f35b61067767a6862bc969d08e9060c01b61301c565b61068b678745e937e2e3eb8960c01b61301c565b61069f679a82d1e30c674f1560c01b61301c565b6000600960008373ffffffffffffffffffffffffffffffffffffffff1673ffffffffffffffffffffffffffffffffffffffff1681526020019081526020016000205490506106f767c8efd76474a5dcc860c01b61301c565b61070b67e7a512e0f6e1a0ca60c01b61301c565b60006007828154811061072157610720614790565b5b9060005260206000209060040201905061074567f0ac128eaed35b7b60c01b61301c565b610759677299731d1c90f3ad60c01b61301c565b60006008600084815260200190815260200160002060003373ffffffffffffffffffffffffffffffffffffffff1673ffffffffffffffffffffffffffffffffffffffff16815260200190815260200160002090506107c16773b397e683f7f0b760c01b61301c565b6107d567e308eadcf020103960c01b61301c565b6107de8361301f565b6107f2679457f0aeba368df760c01b61301c565b610806671ec84fbc0dbc2bb360c01b61301c565b60008160040154826001015464e8d4a510008560030154856000015461082c91906147ee565b610836919061485f565b6108409190614890565b61084a91906148c4565b905061086067cee018287d0fa30460c01b61301c565b6108746758168682eed4850b60c01b61301c565b60008111156108cb57610891673ac9dca527b2467760c01b61301c565b6108a5675b3c9fe9d187d14460c01b61301c565b6108b9670caceabd26d898d060c01b61301c565b6108c68282600187613379565b6108e0565b6108df67ed99614e642a1d9060c01b61301c565b5b6108f467dc70fdc5e984fcac60c01b61301c565b64e8d4a510008360030154836000015461090e91906147ee565b610918919061485f565b82600101819055505050505050565b600061093d6705447c95fff3fa2160c01b61301c565b6109516708f5184bd1c8ee3360c01b61301c565b610965678241f3001c298c3660c01b61301c565b6000600960008573ffffffffffffffffffffffffffffffffffffffff1673ffffffffffffffffffffffffffffffffffffffff1681526020019081526020016000205490506109bd67fabe2b6d0862d28860c01b61301c565b6109d1679508ef280b504b3260c01b61301c565b6008600082815260200190815260200160002060008473ffffffffffffffffffffffffffffffffffffffff1673ffffffffffffffffffffffffffffffffffffffff1681526020019081526020016000206000015491505092915050565b60035481565b60078181548110610a4457600080fd5b90600052602060002090600402016000915090508060000160009054906101000a900473ffffffffffffffffffffffffffffffffffffffff16908060010154908060020154908060030154905084565b600b5481565b610aae67e98040c2e0ac12f960c01b61301c565b610ab6613a7f565b610aca6755b7483c3928f43f60c01b61301c565b610ade679b103bac17d4e31960c01b61301c565b610ae6613afd565b610afa67c5bdf750214a74ae60c01b61301c565b610b0e67e007054bf087656a60c01b61301c565b610b2267909a4459ba7a564860c01b61301c565b610b3667ae64e2557182e63f60c01b61301c565b8015610b8557610b50679b6d92ed61d3bf0860c01b61301c565b610b6467c68827e0b8cc158260c01b61301c565b610b78674bf9a63ff186e93a60c01b61301c565b610b80613b4c565b610b9a565b610b99679e9f8269c84620bb60c01b61301c565b5b610bae6706d7e3dc8983680760c01b61301c565b610bc2678599287a87d1139f60c01b61301c565b60007f000000000000000000000000000000000000000000000000000000000000000043118015610c035750610c02674047392f46d4cd7e60c01b613c19565b5b80610c1e5750610c1d67b788469d4d79f6f260c01b613c24565b5b610c48577f0000000000000000000000000000000000000000000000000000000000000000610c4a565b435b9050610c60671d996b134a32d9d460c01b61301c565b83600b54610c6e91906148c4565b600b81905550610c8867469a1c490fb8c46060c01b61301c565b610c9c673222537301039e7d60c01b61301c565b7ff6b83c7584863d40ea9ce49856d7b6ac07e575a8b81b422c1212e7cbc0f3a811600b54604051610ccd91906143b8565b60405180910390a1610ce967ae0194841456289460c01b61301c565b610cfd6791f48d157ba2a44960c01b61301c565b600760405180608001604052808573ffffffffffffffffffffffffffffffffffffffff1681526020018681526020018381526020016000815250908060018154018082558091505060019003906000526020600020906004020160009091909190915060008201518160000160006101000a81548173ffffffffffffffffffffffffffffffffffffffff021916908373ffffffffffffffffffffffffffffffffffffffff1602179055506020820151816001015560408201518160020155606082015181600301555050610ddb67132c73142ca671e160c01b61301c565b6001600780549050610ded9190614890565b600960008573ffffffffffffffffffffffffffffffffffffffff1673ffffffffffffffffffffffffffffffffffffffff16815260200190815260200160002081905550610e4467a13e26d8e90d8b2a60c01b61301c565b610e5867522cc0fdfe86b37760c01b61301c565b8273ffffffffffffffffffffffffffffffffffffffff16600960008573ffffffffffffffffffffffffffffffffffffffff1673ffffffffffffffffffffffffffffffffffffffff168152602001908152602001600020547f6c5d0ef1d0199b6de41ecbce95f59643be4d723ca363faf92d756e61e82fb13e86604051610ede91906143b8565b60405180910390a350610eef613c2b565b505050565b6000806000610f0d678b340239b1281e0160c01b61301c565b610f21677c077e0a5bdb957a60c01b61301c565b610f35679dc48e1f765b79a260c01b61301c565b8473ffffffffffffffffffffffffffffffffffffffff166370a08231856040518263ffffffff1660e01b8152600401610f6e91906146c7565b602060405180830381865afa158015610f8b573d6000803e3d6000fd5b505050506040513d601f19601f82011682018060405250810190610faf919061490d565b60086000600960008973ffffffffffffffffffffffffffffffffffffffff1673ffffffffffffffffffffffffffffffffffffffff16815260200190815260200160002054815260200190815260200160002060008673ffffffffffffffffffffffffffffffffffffffff1673ffffffffffffffffffffffffffffffffffffffff1681526020019081526020016000206000015461104c8787611341565b9250925092509250925092565b61106d6776f6fc8b86f0ca4660c01b61301c565b611075613a7f565b61108967876e146e4a83de9760c01b61301c565b61109d6731836429de74f97460c01b61301c565b6110a5613afd565b6110b9679cd4fcdec3d41a9960c01b61301c565b6110cd6715e7e1e86b11801e60c01b61301c565b6110e167683b46548702951c60c01b61301c565b806004819055506110fc675ff1985a74050a0160c01b61301c565b6111106725cb211841e4fb4960c01b61301c565b7feedd3cf2d0c360fa60f6be27c8f4ae71800a35e2676b4419d1b114647122aa2a8160405161113f91906143b8565b60405180910390a161114f613c2b565b50565b60055481565b61116c672022f3b4307b599260c01b61301c565b611174613a7f565b61118867ce5b90993b44a94c60c01b61301c565b61119c67094191cdbd44a61760c01b61301c565b6111a4613afd565b6111b8675032f1be36cd9b0f60c01b61301c565b6111cc6733301068da0c36d660c01b61301c565b6111e0675ee5a0f5f712728b60c01b61301c565b806003819055506111fb67666ed4e70549c1c160c01b61301c565b61120f67ee1456121ae594b960c01b61301c565b7f722d2d49511ef6cd9f1f09ed54af16cf76e60f362c91ff351fb510d9bdf85efc8160405161123e91906143b8565b60405180910390a161124e613c2b565b50565b61126567ca09dc056daeb1aa60c01b61301c565b611279676bb59c9975102bd960c01b61301c565b61128d671491af09ef3a8e0260c01b61301c565b611299828260006127ac565b5050565b7f000000000000000000000000000000000000000000000000000000000000000081565b6112d5677c98dafb770835ff60c01b61301c565b6112dd613afd565b6112f16704d58b7c23ca201f60c01b61301c565b61130567aeadb655431d738960c01b61301c565b61131967e34e176361d0043760c01b61301c565b61132d6762b205fdc9b00c0a60c01b61301c565b6113368161301f565b61133e613c2b565b50565b6000611357671e1b1bfd075ee47360c01b61301c565b61136b67901dd20f9d83b4ba60c01b61301c565b61137f6778400d97e2c9476060c01b61301c565b6000600960008573ffffffffffffffffffffffffffffffffffffffff1673ffffffffffffffffffffffffffffffffffffffff1681526020019081526020016000205490506113d7672f07d7a364aca49060c01b61301c565b6113eb67088c09e26e6ef7e960c01b61301c565b60006007828154811061140157611400614790565b5b90600052602060002090600402019050611425670df2d84fc606f7df60c01b61301c565b61143967cb225dd70846687e60c01b61301c565b60006008600084815260200190815260200160002060008673ffffffffffffffffffffffffffffffffffffffff1673ffffffffffffffffffffffffffffffffffffffff16815260200190815260200160002090506114a167f5c88c5c1369d0b360c01b61301c565b6114b567618f64947eb11c2160c01b61301c565b6000826003015490506114d267f3eb4a09c0703c4d60c01b61301c565b6114e6672b0ed5049787162a60c01b61301c565b60008360000160009054906101000a900473ffffffffffffffffffffffffffffffffffffffff1673ffffffffffffffffffffffffffffffffffffffff166370a08231306040518263ffffffff1660e01b815260040161154591906146c7565b602060405180830381865afa158015611562573d6000803e3d6000fd5b505050506040513d601f19601f82011682018060405250810190611586919061490d565b905061159c67e041f9caf06cda8060c01b61301c565b6115b067b07fdeddc50cb16960c01b61301c565b8360020154431180156115c4575060008114155b156116b3576115dd67b462da493601e8e160c01b61301c565b6115f16789c3f50128dbffe160c01b61301c565b6116056768ab1f6a13d8408060c01b61301c565b60008460020154436116179190614890565b905061162d67077dabeef59d095560c01b61301c565b61164167859e932dd5fcb40060c01b61301c565b6000600b5486600101546006548461165991906147ee565b61166391906147ee565b61166d919061485f565b905061168367bf910f8e7c2a71ef60c01b61301c565b8264e8d4a510008261169591906147ee565b61169f919061485f565b846116aa91906148c4565b935050506116c8565b6116c767bcd1d9501fafc10c60c01b61301c565b5b6116dc67231903aa41b6f88660c01b61301c565b6116f06799626a9d715de5d660c01b61301c565b8260040154836001015464e8d4a5100084866000015461171091906147ee565b61171a919061485f565b6117249190614890565b61172e91906148c4565b9550505050505092915050565b61174f67926382ccfed6c5b360c01b61301c565b611757613a7f565b61176b6708ebb6c8f5e29f9d60c01b61301c565b61177f67f7fbc052af9a4f6d60c01b61301c565b611787613afd565b61179b673e53cf2bfb5cd4ae60c01b61301c565b6117af67754459856d6acf4c60c01b61301c565b6117c367d3c9578e39175b2660c01b61301c565b806005819055506117de67f198fc52b06a689360c01b61301c565b6117f26770fc406343ad801860c01b61301c565b7f22764535b528e8ec691fd4f74e734bd74710f85776bd0b90e1eaf9acf6dd06c88160405161182191906143b8565b60405180910390a1611831613c2b565b50565b6118486771252f8a0ef8bd3560c01b61301c565b611850613afd565b611864676d96ad12aa34201260c01b61301c565b61187867eb16a6291cf084f960c01b61301c565b61188c67fcc1314e02f493ef60c01b61301c565b6118a0673ac31942ffc3248760c01b61301c565b6118a8613b4c565b6118b0613c2b565b565b6118c667cc572b8d4431585b60c01b61301c565b6118ce613a7f565b6118e26734395037cdeb45ce60c01b61301c565b6118f667638f6e57a040061160c01b61301c565b6118fe613afd565b61191267ad0ba76fecd60a9860c01b61301c565b61192667b18a68ab4598dee460c01b61301c565b61193a67b3b5aebd781400e960c01b61301c565b61194e67351f8efb7938089b60c01b61301c565b801561199d576119686771afd567892d775160c01b61301c565b61197c6722dba0cb0ae787a760c01b61301c565b611990674e8f01bc26403d5160c01b61301c565b611998613b4c565b6119b2565b6119b167e9360eb0156a988b60c01b61301c565b5b6119c667dff07cca7f52b67c60c01b61301c565b600783815481106119da576119d9614790565b5b90600052602060002090600402016001015482600b546119fa91906148c4565b611a049190614890565b600b81905550611a1e67c166609301589c1060c01b61301c565b611a3267702fd41803df444660c01b61301c565b7ff6b83c7584863d40ea9ce49856d7b6ac07e575a8b81b422c1212e7cbc0f3a811600b54604051611a6391906143b8565b60405180910390a1611a7f6734c31d890f8898c660c01b61301c565b8160078481548110611a9457611a93614790565b5b906000526020600020906004020160010181905550611abd674b64f918bdbe05bf60c01b61301c565b611ad1671ed66b9e3bee51a360c01b61301c565b827f144685f4a2c1908fdcb1c5450bfadd3b08aa5071d5df19d1a9b54c0de1d061b083604051611b0191906143b8565b60405180910390a2611b11613c2b565b505050565b611b2a675e8a9acfc5a79afa60c01b61301c565b611b3e676c582e5cd097ef7160c01b61301c565b611b5267d275a920b64cc28860c01b61301c565b6000600960008373ffffffffffffffffffffffffffffffffffffffff1673ffffffffffffffffffffffffffffffffffffffff168152602001908152602001600020549050611baa679fe4b517a9d98a2a60c01b61301c565b611bbe67f015796c36c5171b60c01b61301c565b600060078281548110611bd457611bd3614790565b5b90600052602060002090600402019050611bf867e82b76561887540f60c01b61301c565b611c0c67bbb489c99739a18460c01b61301c565b60006008600084815260200190815260200160002060003373ffffffffffffffffffffffffffffffffffffffff1673ffffffffffffffffffffffffffffffffffffffff1681526020019081526020016000209050611c7467f6794854bd1e2ea760c01b61301c565b611c886747bed4dd5aaba32e60c01b61301c565b611cdb3382600001548460000160009054906101000a900473ffffffffffffffffffffffffffffffffffffffff1673ffffffffffffffffffffffffffffffffffffffff16613c349092919063ffffffff16565b611cef6773968042e6643a8d60c01b61301c565b611d0367110ff58b553987a060c01b61301c565b823373ffffffffffffffffffffffffffffffffffffffff167fbb757047c2b5f3974fe26b7c10f732e7bce710b0952a71082702781e62ae05958360000154604051611d4e91906143b8565b60405180910390a3611d6a6748615368a4299c9660c01b61301c565b60008160000181905550611d8867ce7c1d2314dc63ad60c01b61301c565b60008160010181905550611da667abb1ba176f1be81960c01b61301c565b6000816004018190555050505050565b611dbe613a7f565b611dc86000613cba565b565b60045481565b611de467d64b39fe02249f6660c01b61301c565b611dec613a7f565b611e0067c7089dc4941dabcd60c01b61301c565b611e1467df554fbb6ea48eca60c01b61301c565b611e1c613afd565b611e3067aa75b62d794725fe60c01b61301c565b611e446775f53d1f02f4529560c01b61301c565b611e58675bf9f3055fea2d2660c01b61301c565b611e6c6774efbe0f623d8eb360c01b61301c565b8015611ebb57611e8667c1b491b49cf1cce960c01b61301c565b611e9a6708bd640bfeb5676e60c01b61301c565b611eae674be19219a7df32cd60c01b61301c565b611eb6613b4c565b611ed0565b611ecf673dd2c3624bd19a6760c01b61301c565b5b611ee467281f392166fb951b60c01b61301c565b81600681905550611eff671db745186bedf09f60c01b61301c565b611f13673308ad356312939260c01b61301c565b7f5d7c78d0ee3ce6196f90e74ed58c0ada9ac7ccc47d3aca0547ac893776f0382682604051611f4291906143b8565b60405180910390a1611f52613c2b565b5050565b6000806000806000611f7267f75372a36517e22a60c01b61301c565b611f8667811056bc087889ee60c01b61301c565b611f9a67e72ba7a58a2cd1a460c01b61301c565b600654600254600354600454600554945094509450945094509091929394565b60065481565b60008060009054906101000a900473ffffffffffffffffffffffffffffffffffffffff16905090565b6008602052816000526040600020602052806000526040600020600091509150508060000154908060010154908060020154908060030154908060040154905085565b600061204267daff31ba1567039760c01b61301c565b6120566755caa6b95c278eab60c01b61301c565b61206a67614dd1b673a2629d60c01b61301c565b600780549050905090565b61208967354d84e5d1db41da60c01b61301c565b612091613a7f565b6120a567aa9834c7b6d3f08d60c01b61301c565b6120b967e78d5b5b4b1b878160c01b61301c565b6120c1613afd565b6120d567b7e99360a9c2854660c01b61301c565b6120e96757a2aff0eb92e0e760c01b61301c565b6120fd67cea974032651dc7760c01b61301c565b80600281905550612118671f1ae03e1c0e4ffe60c01b61301c565b61212c67f458771240aa10db60c01b61301c565b7fe97641f0b8f36bfd5d070b698bfee6382ff613820cf9e56a7e4dd4723cc04dc58160405161215b91906143b8565b60405180910390a161216b613c2b565b50565b60025481565b600061218a675a4f2730f1e637b660c01b61301c565b61219e674454fc43d6c1cc5e60c01b61301c565b6121b267c90f07e514896c7b60c01b61301c565b7f000000000000000000000000000000000000000000000000000000000000000073ffffffffffffffffffffffffffffffffffffffff166370a08231306040518263ffffffff1660e01b815260040161220b91906146c7565b602060405180830381865afa158015612228573d6000803e3d6000fd5b505050506040513d601f19601f8201168201806040525081019061224c919061490d565b905090565b612259613a7f565b600073ffffffffffffffffffffffffffffffffffffffff168173ffffffffffffffffffffffffffffffffffffffff16036122c8576040517f08c379a00000000000000000000000000000000000000000000000000000000081526004016122bf906149bd565b60405180910390fd5b6122d181613cba565b50565b6122e867e98afd1cac2c2fbd60c01b61301c565b6122fc6783ee2adb1556617660c01b61301c565b61231067bc102fdc22917c5060c01b61301c565b6000600960008473ffffffffffffffffffffffffffffffffffffffff1673ffffffffffffffffffffffffffffffffffffffff168152602001908152602001600020549050612368670473570fa5be0a5860c01b61301c565b61237c670fd6890ab89e68cf60c01b61301c565b60006007828154811061239257612391614790565b5b906000526020600020906004020190506123b66729881f52427e07bb60c01b61301c565b6123ca671df6322c1c367e1860c01b61301c565b60006008600084815260200190815260200160002060003373ffffffffffffffffffffffffffffffffffffffff1673ffffffffffffffffffffffffffffffffffffffff168152602001908152602001600020905061243267e5889da78f1e80ca60c01b61301c565b61244667d86203ccfb1a96ed60c01b61301c565b61245a677168863de5841c3960c01b61301c565b83816000015410156124a1576040517f08c379a000000000000000000000000000000000000000000000000000000000815260040161249890614a29565b60405180910390fd5b6124b567ea002a072406108d60c01b61301c565b6124c967a456140ab807006360c01b61301c565b6124dd67c2e94c5c8ad3febe60c01b61301c565b6124e68361301f565b6124fa67befd7a5f4f4ce26460c01b61301c565b61250e67fb3eccbcfae46fb360c01b61301c565b60008160040154826001015464e8d4a510008560030154856000015461253491906147ee565b61253e919061485f565b6125489190614890565b61255291906148c4565b905061256867df1120b29c110e6e60c01b61301c565b61257c67bfb724dba51cffec60c01b61301c565b60008111156125d3576125996783e2c264b09a810c60c01b61301c565b6125ad67a492d47fa90b91e460c01b61301c565b6125c1671204edd0c07fce9a60c01b61301c565b6125ce8282600187613379565b6125e8565b6125e767e653b6aab39b2db760c01b61301c565b5b6125fc67156a868fdcd7f6f460c01b61301c565b61261067fd987ad29c0936e560c01b61301c565b60008511156126d85761262d67364f033d160b754360c01b61301c565b61264167ff43f39794136fd960c01b61301c565b848260000160008282546126559190614890565b92505081905550612670677059ff40694f084260c01b61301c565b61268467dce2d6783f52754c60c01b61301c565b6126d333868560000160009054906101000a900473ffffffffffffffffffffffffffffffffffffffff1673ffffffffffffffffffffffffffffffffffffffff16613c349092919063ffffffff16565b6126ed565b6126ec67f6b46ae2b78b4f7760c01b61301c565b5b61270167a17f8fff0b64e8c860c01b61301c565b64e8d4a510008360030154836000015461271b91906147ee565b612725919061485f565b826001018190555061274167e99a4aed57b25cb960c01b61301c565b61275567d7fe2a59e2150c1160c01b61301c565b833373ffffffffffffffffffffffffffffffffffffffff167ff279e6a1f5e320cca91135676d9cb6e44ca8a08c0b88342bcdb1144f6511b5688760405161279c91906143b8565b60405180910390a3505050505050565b6127c0678c5c82d90e6306d060c01b61301c565b6127c8613afd565b6127dc67c529134be6ca464160c01b61301c565b6127f06797a2e01e6fd62e1860c01b61301c565b61280467f9cc6c846af8dde060c01b61301c565b61281867687cd5f5bfad4cea60c01b61301c565b6000600960008573ffffffffffffffffffffffffffffffffffffffff1673ffffffffffffffffffffffffffffffffffffffff168152602001908152602001600020549050612870677f3f6c1c6cf57d6c60c01b61301c565b6128846766ddf3fe892a1fdd60c01b61301c565b60006007828154811061289a57612899614790565b5b906000526020600020906004020190506128be671f84ce3f612bf6f860c01b61301c565b6128d267bf87743e7484245360c01b61301c565b60006008600084815260200190815260200160002060003373ffffffffffffffffffffffffffffffffffffffff1673ffffffffffffffffffffffffffffffffffffffff168152602001908152602001600020905061293a6789831fa94d076eed60c01b61301c565b61294e6718d00a736527e4b060c01b61301c565b6129578361301f565b61296b67dfc66bd494b3a6cd60c01b61301c565b61297f67925879cd51de213060c01b61301c565b600081600001541115612aa8576129a06709bf5ca8145046b960c01b61301c565b6129b467fe134dfb095e771660c01b61301c565b6129c86714dda57857268ba860c01b61301c565b60008160040154826001015464e8d4a51000856003015485600001546129ee91906147ee565b6129f8919061485f565b612a029190614890565b612a0c91906148c4565b9050612a22673b41e17ac01f29c160c01b61301c565b612a3667aad0cf5ec9adb9c360c01b61301c565b6000811115612a8d57612a53678135973c48c0e5b860c01b61301c565b612a67679d9b8466009e5c5a60c01b61301c565b612a7b67159b3d152c5aaa4960c01b61301c565b612a888282600087613379565b612aa2565b612aa16707542d3243c7540760c01b61301c565b5b50612abd565b612abc670cd93a234d1b89fb60c01b61301c565b5b612ad167ae9c85dc3f5a3f5960c01b61301c565b612ae567d33c5861399b42f160c01b61301c565b6000851115612b8e57612b0267e2013daa351469cc60c01b61301c565b612b16673d6b8205b24b914a60c01b61301c565b612b2a67360ab2b2137cb0ac60c01b61301c565b612b5a8260000160009054906101000a900473ffffffffffffffffffffffffffffffffffffffff16333088613d7e565b612b6e67e244cfe2ba5d9cf260c01b61301c565b84816000016000828254612b8291906148c4565b92505081905550612ba3565b612ba2678d118d2cb6fe05fd60c01b61301c565b5b612bb767add4f1050fe42de360c01b61301c565b64e8d4a5100082600301548260000154612bd191906147ee565b612bdb919061485f565b8160010181905550612bf767d6ad5d0569e2ffd160c01b61301c565b428160020181905550612c1467474f6e505502368260c01b61301c565b612c286739674c14a8770e2760c01b61301c565b823373ffffffffffffffffffffffffffffffffffffffff167f90890809c654f11d6e72a28fa60149770a0d11ec6c92319d6ceb2bb0a4ea1a1587604051612c6f91906143b8565b60405180910390a3612c8b676cee1182bbac040960c01b61301c565b612c9f678879df65a574e08960c01b61301c565b600073ffffffffffffffffffffffffffffffffffffffff168473ffffffffffffffffffffffffffffffffffffffff1614158015612d0857503373ffffffffffffffffffffffffffffffffffffffff168473ffffffffffffffffffffffffffffffffffffffff1614155b8015612d9f57508373ffffffffffffffffffffffffffffffffffffffff16600a60003373ffffffffffffffffffffffffffffffffffffffff1673ffffffffffffffffffffffffffffffffffffffff16815260200190815260200160002060009054906101000a900473ffffffffffffffffffffffffffffffffffffffff1673ffffffffffffffffffffffffffffffffffffffff1614155b15612e4f57612db8671411ca53e807c27160c01b61301c565b612dcc6795bb15d7f142543c60c01b61301c565b83600a60003373ffffffffffffffffffffffffffffffffffffffff1673ffffffffffffffffffffffffffffffffffffffff16815260200190815260200160002060006101000a81548173ffffffffffffffffffffffffffffffffffffffff021916908373ffffffffffffffffffffffffffffffffffffffff160217905550612e64565b612e636793a6241abe63571760c01b61301c565b5b505050612e6f613c2b565b505050565b7f000000000000000000000000000000000000000000000000000000000000000081565b612eac6702afc4d8ee90cb8560c01b61301c565b612eb4613a7f565b612ec8679afabec8814f7d4c60c01b61301c565b612edc6762f2cb2a61f741bb60c01b61301c565b612ee4613afd565b612ef867782fd0d8207ab88860c01b61301c565b612f0c67fb200047acee388460c01b61301c565b612f20676fc3e07ecd981cb260c01b61301c565b612f346703334b799e099f1760c01b61301c565b60008082118015612f555750612f54678df57990ccc8cd2160c01b613c19565b5b80612f705750612f6f6740fff0a2682455bf60c01b613c24565b5b612f8157612f7c612174565b612f83565b815b9050612f9967e00af63e6e5fa0d860c01b61301c565b612fad67d05b266218f4780f60c01b61301c565b612ff833827f000000000000000000000000000000000000000000000000000000000000000073ffffffffffffffffffffffffffffffffffffffff16613c349092919063ffffffff16565b50613001613c2b565b50565b60096020528060005260406000206000915090505481565b50565b61303367bc63951beeb73f4760c01b61301c565b61304767aae529702071ef1a60c01b61301c565b61305b67853c29274f832e7960c01b61301c565b60006007828154811061307157613070614790565b5b90600052602060002090600402019050613095673ee77e2a9aa3e77b60c01b61301c565b6130a967773342edcf59b93b60c01b61301c565b806002015443116130f6576130c8673e7e73963d5c178360c01b61301c565b6130dc672bea92b4db51f9f660c01b61301c565b6130f06793dca64f82ca7b5d60c01b61301c565b50613376565b61310a6795678a300a33460b60c01b61301c565b61311e6795d84f3380b03c1260c01b61301c565b613132674bee0fb37080f08f60c01b61301c565b60008160000160009054906101000a900473ffffffffffffffffffffffffffffffffffffffff1673ffffffffffffffffffffffffffffffffffffffff166370a08231306040518263ffffffff1660e01b815260040161319191906146c7565b602060405180830381865afa1580156131ae573d6000803e3d6000fd5b505050506040513d601f19601f820116820180604052508101906131d2919061490d565b90506131e867978ca801046e9f5060c01b61301c565b6131fc6789f9833fbe4ac84a60c01b61301c565b60008103613264576132186752b089cf1ee2559860c01b61301c565b61322c67b860a842ae7da21560c01b61301c565b4382600201819055506132496712081d1de2bd417060c01b61301c565b61325d677c07d63030a0e2de60c01b61301c565b5050613376565b6132786742d4e28d36e3ccd760c01b61301c565b61328c677bb71160451c068360c01b61301c565b6132a067920b55ea75ea9a3a60c01b61301c565b60008260020154436132b29190614890565b90506132c86750c8cfd31fc9c38e60c01b61301c565b6132dc67f80a4940f871795460c01b61301c565b6000600b548460010154600654846132f491906147ee565b6132fe91906147ee565b613308919061485f565b905061331e67849511fb52817e2e60c01b61301c565b8264e8d4a510008261333091906147ee565b61333a919061485f565b84600301600082825461334d91906148c4565b9250508190555061336867fcbdc6d9915d986660c01b61301c565b438460020181905550505050505b50565b61338c662861ea3b13f12360c01b61301c565b6133a0672724e240282b1d9c60c01b61301c565b6133b467cd8d5b454b5daf9a60c01b61301c565b60006002548560020154426133c99190614890565b1090506133e06724fe28d08d0ce0e260c01b61301c565b6133f467cb1e7d0388e70dbf60c01b61301c565b60006003548660030154426134099190614890565b109050613420679fa5b938d5b4697260c01b61301c565b6134346767e918e316b6a38560c01b61301c565b80156134705761344e679573636635aba12660c01b61301c565b6134626784e5881519b2ecc260c01b61301c565b848660040181905550613a77565b61348467a343c83d559e779360c01b61301c565b6134986707d5f8d0c4220b3460c01b61301c565b6134ac67933d54d77387210d60c01b61301c565b60008480156134b85750825b80156134d457506134d367b055fe7aaefdebb560c01b613c19565b5b806134ef57506134ee6797f723fe78809b4460c01b613c24565b5b6134f95785613522565b61271060045461271061350c9190614890565b8761351791906147ee565b613521919061485f565b5b905061353867b0a12ed163df755460c01b61301c565b61354c67921e6a343ad468af60c01b61301c565b6000613556612174565b905061356c67e669031b3714839460c01b61301c565b61358067830cbf621560d5f560c01b61301c565b818110156135b85761359c679351c3f57740e5fb60c01b61301c565b6135b06732c1ded7c028665460c01b61301c565b8091506135cd565b6135cc679cb5be0d33df9fbc60c01b61301c565b5b6135e1670b9241d5fb36d22160c01b61301c565b6135f567b1b3af5823e0bc1c60c01b61301c565b6000821115613a245761361267befe7cac7dfd92c660c01b61301c565b61362667c91f458e89c340a460c01b61301c565b61363a678875fa9ca73eadab60c01b61301c565b61368533837f000000000000000000000000000000000000000000000000000000000000000073ffffffffffffffffffffffffffffffffffffffff16613c349092919063ffffffff16565b61369967b5274e2833c1adb660c01b61301c565b6136ad6748b8675637770e0d60c01b61301c565b843373ffffffffffffffffffffffffffffffffffffffff167f71bab65ced2e5750775a0613be067df48ef06cf92a496ebf7663ae0660924954846040516136f491906143b8565b60405180910390a3613710677448ff5bd108c4a760c01b61301c565b61372467b1bd12800f960af760c01b61301c565b6000600a60003373ffffffffffffffffffffffffffffffffffffffff1673ffffffffffffffffffffffffffffffffffffffff16815260200190815260200160002060009054906101000a900473ffffffffffffffffffffffffffffffffffffffff16905061379c675b8ce6194d61c4b760c01b61301c565b6137b067399cc2d468fa4fed60c01b61301c565b600073ffffffffffffffffffffffffffffffffffffffff168173ffffffffffffffffffffffffffffffffffffffff1614613a09576137f8672634ae0e6bb74e2a60c01b61301c565b61380c67868afbbf88470b8c60c01b61301c565b6127106005548461381d91906147ee565b613827919061485f565b925061383d67cce81778f004958a60c01b61301c565b613845612174565b915061385b6746b2b052f2d0cb3860c01b61301c565b61386f671b8d34b9ef1f41d760c01b61301c565b828210156138a75761388b678758cca99e2404c560c01b61301c565b61389f6724b60bf849e9287f60c01b61301c565b8192506138bc565b6138bb6768461d8205d657b660c01b61301c565b5b6138d067a847d8e59a3ebee460c01b61301c565b6138e467debb670bbf16993b60c01b61301c565b60008311156139ef5761390167b1d01e2d0529eb0060c01b61301c565b61391567c4be7f78e71eced460c01b61301c565b613929678c78ba1a685aa60560c01b61301c565b61397481847f000000000000000000000000000000000000000000000000000000000000000073ffffffffffffffffffffffffffffffffffffffff16613c349092919063ffffffff16565b61398867e67310ab38f9320c60c01b61301c565b61399c67920edfb2bde247bd60c01b61301c565b8073ffffffffffffffffffffffffffffffffffffffff167f04b20935b234f45fda390d2df59d92b7bb8bed322d3bc8764e826cfff50007d5846040516139e291906143b8565b60405180910390a2613a04565b613a0367d616fcabd63a78a760c01b61301c565b5b613a1e565b613a1d673fa1823154e0df4f60c01b61301c565b5b50613a39565b613a3867cd9867b0de94625960c01b61301c565b5b613a4d67f42aff7ea8cf6a6560c01b61301c565b60008860040181905550613a6b6749f4c78bda1f030660c01b61301c565b42886003018190555050505b505050505050565b613a87613faa565b73ffffffffffffffffffffffffffffffffffffffff16613aa5611fc0565b73ffffffffffffffffffffffffffffffffffffffff1614613afb576040517f08c379a0000000000000000000000000000000000000000000000000000000008152600401613af290614a95565b60405180910390fd5b565b600260015403613b42576040517f08c379a0000000000000000000000000000000000000000000000000000000008152600401613b3990614b01565b60405180910390fd5b6002600181905550565b613b60679dafe529af3e586460c01b61301c565b613b74677a4d6f235453ca2e60c01b61301c565b613b8867325372def83d6b7860c01b61301c565b60006007805490509050613ba66792ee52a2797320aa60c01b61301c565b613bba674da1483a63426cd060c01b61301c565b613bce674da648b79e11645b60c01b61301c565b60005b81811015613c1557613bed678d94706b419e124760c01b61301c565b613c01670a1de4331187dd2e60c01b61301c565b613c0a8161301f565b806001019050613bd1565b5050565b600060019050919050565b6000919050565b60018081905550565b613cb58363a9059cbb60e01b8484604051602401613c53929190614b21565b604051602081830303815290604052907bffffffffffffffffffffffffffffffffffffffffffffffffffffffff19166020820180517bffffffffffffffffffffffffffffffffffffffffffffffffffffffff8381831617835250505050613fb2565b505050565b60008060009054906101000a900473ffffffffffffffffffffffffffffffffffffffff169050816000806101000a81548173ffffffffffffffffffffffffffffffffffffffff021916908373ffffffffffffffffffffffffffffffffffffffff1602179055508173ffffffffffffffffffffffffffffffffffffffff168173ffffffffffffffffffffffffffffffffffffffff167f8be0079c531659141344cd1fd0a4f28419497f9722a3daafe3b4186f6b6457e060405160405180910390a35050565b613d9267801cc212b0afdd2b60c01b61301c565b613da667e208042dd98a8c6460c01b61301c565b613dba67ffd4e2f1232d02f360c01b61301c565b60008473ffffffffffffffffffffffffffffffffffffffff166370a08231846040518263ffffffff1660e01b8152600401613df591906146c7565b602060405180830381865afa158015613e12573d6000803e3d6000fd5b505050506040513d601f19601f82011682018060405250810190613e36919061490d565b9050613e4c67db89a357421bb5f160c01b61301c565b613e606714336fed8a5eabd360c01b61301c565b613e8d8484848873ffffffffffffffffffffffffffffffffffffffff16614079909392919063ffffffff16565b613ea1674a3614c6234c717f60c01b61301c565b613eb567961b47db115783b860c01b61301c565b613ec96785e1c06ceb3991d660c01b61301c565b81818673ffffffffffffffffffffffffffffffffffffffff166370a08231866040518263ffffffff1660e01b8152600401613f0491906146c7565b602060405180830381865afa158015613f21573d6000803e3d6000fd5b505050506040513d601f19601f82011682018060405250810190613f45919061490d565b613f4f9190614890565b14613f8f576040517f08c379a0000000000000000000000000000000000000000000000000000000008152600401613f8690614b96565b60405180910390fd5b613fa3670596b1c0f8cf822960c01b61301c565b5050505050565b600033905090565b6000614014826040518060400160405280602081526020017f5361666545524332303a206c6f772d6c6576656c2063616c6c206661696c65648152508573ffffffffffffffffffffffffffffffffffffffff166141029092919063ffffffff16565b905060008151111561407457808060200190518101906140349190614bcb565b614073576040517f08c379a000000000000000000000000000000000000000000000000000000000815260040161406a90614c6a565b60405180910390fd5b5b505050565b6140fc846323b872dd60e01b85858560405160240161409a93929190614c8a565b604051602081830303815290604052907bffffffffffffffffffffffffffffffffffffffffffffffffffffffff19166020820180517bffffffffffffffffffffffffffffffffffffffffffffffffffffffff8381831617835250505050613fb2565b50505050565b6060614111848460008561411a565b90509392505050565b60608247101561415f576040517f08c379a000000000000000000000000000000000000000000000000000000000815260040161415690614d33565b60405180910390fd5b6000808673ffffffffffffffffffffffffffffffffffffffff1685876040516141889190614dc4565b60006040518083038185875af1925050503d80600081146141c5576040519150601f19603f3d011682016040523d82523d6000602084013e6141ca565b606091505b50915091506141db878383876141e7565b92505050949350505050565b60608315614249576000835103614241576142018561425c565b614240576040517f08c379a000000000000000000000000000000000000000000000000000000000815260040161423790614e27565b60405180910390fd5b5b829050614254565b614253838361427f565b5b949350505050565b6000808273ffffffffffffffffffffffffffffffffffffffff163b119050919050565b6000825111156142925781518083602001fd5b806040517f08c379a00000000000000000000000000000000000000000000000000000000081526004016142c69190614e9c565b60405180910390fd5b600080fd5b600073ffffffffffffffffffffffffffffffffffffffff82169050919050565b60006142ff826142d4565b9050919050565b61430f816142f4565b811461431a57600080fd5b50565b60008135905061432c81614306565b92915050565b600060208284031215614348576143476142cf565b5b60006143568482850161431d565b91505092915050565b60008060408385031215614376576143756142cf565b5b60006143848582860161431d565b92505060206143958582860161431d565b9150509250929050565b6000819050919050565b6143b28161439f565b82525050565b60006020820190506143cd60008301846143a9565b92915050565b6143dc8161439f565b81146143e757600080fd5b50565b6000813590506143f9816143d3565b92915050565b600060208284031215614415576144146142cf565b5b6000614423848285016143ea565b91505092915050565b6000819050919050565b600061445161444c614447846142d4565b61442c565b6142d4565b9050919050565b600061446382614436565b9050919050565b600061447582614458565b9050919050565b6144858161446a565b82525050565b60006080820190506144a0600083018761447c565b6144ad60208301866143a9565b6144ba60408301856143a9565b6144c760608301846143a9565b95945050505050565b60008115159050919050565b6144e5816144d0565b81146144f057600080fd5b50565b600081359050614502816144dc565b92915050565b600080600060608486031215614521576145206142cf565b5b600061452f868287016143ea565b93505060206145408682870161431d565b9250506040614551868287016144f3565b9150509250925092565b600060608201905061457060008301866143a9565b61457d60208301856143a9565b61458a60408301846143a9565b949350505050565b600080604083850312156145a9576145a86142cf565b5b60006145b78582860161431d565b92505060206145c8858286016143ea565b9150509250929050565b6000806000606084860312156145eb576145ea6142cf565b5b60006145f9868287016143ea565b935050602061460a868287016143ea565b925050604061461b868287016144f3565b9150509250925092565b6000806040838503121561463c5761463b6142cf565b5b600061464a858286016143ea565b925050602061465b858286016144f3565b9150509250929050565b600060a08201905061467a60008301886143a9565b61468760208301876143a9565b61469460408301866143a9565b6146a160608301856143a9565b6146ae60808301846143a9565b9695505050505050565b6146c1816142f4565b82525050565b60006020820190506146dc60008301846146b8565b92915050565b600080604083850312156146f9576146f86142cf565b5b6000614707858286016143ea565b92505060206147188582860161431d565b9150509250929050565b60008060006060848603121561473b5761473a6142cf565b5b60006147498682870161431d565b935050602061475a868287016143ea565b925050604061476b8682870161431d565b9150509250925092565b600060208201905061478a600083018461447c565b92915050565b7f4e487b7100000000000000000000000000000000000000000000000000000000600052603260045260246000fd5b7f4e487b7100000000000000000000000000000000000000000000000000000000600052601160045260246000fd5b60006147f98261439f565b91506148048361439f565b92508282026148128161439f565b91508282048414831517614829576148286147bf565b5b5092915050565b7f4e487b7100000000000000000000000000000000000000000000000000000000600052601260045260246000fd5b600061486a8261439f565b91506148758361439f565b92508261488557614884614830565b5b828204905092915050565b600061489b8261439f565b91506148a68361439f565b92508282039050818111156148be576148bd6147bf565b5b92915050565b60006148cf8261439f565b91506148da8361439f565b92508282019050808211156148f2576148f16147bf565b5b92915050565b600081519050614907816143d3565b92915050565b600060208284031215614923576149226142cf565b5b6000614931848285016148f8565b91505092915050565b600082825260208201905092915050565b7f4f776e61626c653a206e6577206f776e657220697320746865207a65726f206160008201527f6464726573730000000000000000000000000000000000000000000000000000602082015250565b60006149a760268361493a565b91506149b28261494b565b604082019050919050565b600060208201905081810360008301526149d68161499a565b9050919050565b7f546f6f2062696720616d6f756e74000000000000000000000000000000000000600082015250565b6000614a13600e8361493a565b9150614a1e826149dd565b602082019050919050565b60006020820190508181036000830152614a4281614a06565b9050919050565b7f4f776e61626c653a2063616c6c6572206973206e6f7420746865206f776e6572600082015250565b6000614a7f60208361493a565b9150614a8a82614a49565b602082019050919050565b60006020820190508181036000830152614aae81614a72565b9050919050565b7f5265656e7472616e637947756172643a207265656e7472616e742063616c6c00600082015250565b6000614aeb601f8361493a565b9150614af682614ab5565b602082019050919050565b60006020820190508181036000830152614b1a81614ade565b9050919050565b6000604082019050614b3660008301856146b8565b614b4360208301846143a9565b9392505050565b7f7472616e7366657220616d6f756e74206d69736d617463680000000000000000600082015250565b6000614b8060188361493a565b9150614b8b82614b4a565b602082019050919050565b60006020820190508181036000830152614baf81614b73565b9050919050565b600081519050614bc5816144dc565b92915050565b600060208284031215614be157614be06142cf565b5b6000614bef84828501614bb6565b91505092915050565b7f5361666545524332303a204552433230206f7065726174696f6e20646964206e60008201527f6f74207375636365656400000000000000000000000000000000000000000000602082015250565b6000614c54602a8361493a565b9150614c5f82614bf8565b604082019050919050565b60006020820190508181036000830152614c8381614c47565b9050919050565b6000606082019050614c9f60008301866146b8565b614cac60208301856146b8565b614cb960408301846143a9565b949350505050565b7f416464726573733a20696e73756666696369656e742062616c616e636520666f60008201527f722063616c6c0000000000000000000000000000000000000000000000000000602082015250565b6000614d1d60268361493a565b9150614d2882614cc1565b604082019050919050565b60006020820190508181036000830152614d4c81614d10565b9050919050565b600081519050919050565b600081905092915050565b60005b83811015614d87578082015181840152602081019050614d6c565b60008484015250505050565b6000614d9e82614d53565b614da88185614d5e565b9350614db8818560208601614d69565b80840191505092915050565b6000614dd08284614d93565b915081905092915050565b7f416464726573733a2063616c6c20746f206e6f6e2d636f6e7472616374000000600082015250565b6000614e11601d8361493a565b9150614e1c82614ddb565b602082019050919050565b60006020820190508181036000830152614e4081614e04565b9050919050565b600081519050919050565b6000601f19601f8301169050919050565b6000614e6e82614e47565b614e78818561493a565b9350614e88818560208601614d69565b614e9181614e52565b840191505092915050565b60006020820190508181036000830152614eb68184614e63565b90509291505056fea26469706673582212200b0414b92da7761b5f69b81915bf42ad470fab8a9a9d351d2cc174701bcbb7fa64736f6c63430008110033","opcodes":"PUSH1 0xC0 PUSH1 0x40 MSTORE PUSH3 0x127500 PUSH1 0x2 SSTORE PUSH2 0x7080 PUSH1 0x3 SSTORE PUSH2 0x3E8 PUSH1 0x4 SSTORE PUSH1 0x3C PUSH1 0x5 SSTORE PUSH1 0x0 PUSH1 0xB SSTORE CALLVALUE DUP1 ISZERO PUSH3 0x2E JUMPI PUSH1 0x0 DUP1 REVERT JUMPDEST POP PUSH1 0x40 MLOAD PUSH3 0x52D6 CODESIZE SUB DUP1 PUSH3 0x52D6 DUP4 CODECOPY DUP2 DUP2 ADD PUSH1 0x40 MSTORE DUP2 ADD SWAP1 PUSH3 0x54 SWAP2 SWAP1 PUSH3 0x31D JUMP JUMPDEST PUSH3 0x74 PUSH3 0x68 PUSH3 0x1A9 PUSH1 0x20 SHL PUSH1 0x20 SHR JUMP JUMPDEST PUSH3 0x1B1 PUSH1 0x20 SHL PUSH1 0x20 SHR JUMP JUMPDEST PUSH1 0x1 DUP1 DUP2 SWAP1 SSTORE POP PUSH3 0x97 PUSH8 0x78B61A59E4E229E5 PUSH1 0xC0 SHL PUSH3 0x275 PUSH1 0x20 SHL PUSH1 0x20 SHR JUMP JUMPDEST PUSH3 0xB3 PUSH8 0x246F707836F0B4C8 PUSH1 0xC0 SHL PUSH3 0x275 PUSH1 0x20 SHL PUSH1 0x20 SHR JUMP JUMPDEST DUP2 PUSH20 0xFFFFFFFFFFFFFFFFFFFFFFFFFFFFFFFFFFFFFFFF AND PUSH1 0x80 DUP2 PUSH20 0xFFFFFFFFFFFFFFFFFFFFFFFFFFFFFFFFFFFFFFFF AND DUP2 MSTORE POP POP PUSH3 0x103 PUSH8 0x11AB0E58DAA83A65 PUSH1 0xC0 SHL PUSH3 0x275 PUSH1 0x20 SHL PUSH1 0x20 SHR JUMP JUMPDEST DUP1 PUSH1 0x6 DUP2 SWAP1 SSTORE POP PUSH3 0x126 PUSH8 0x8B95F88E62C5C7AA PUSH1 0xC0 SHL PUSH3 0x275 PUSH1 0x20 SHL PUSH1 0x20 SHR JUMP JUMPDEST PUSH3 0x142 PUSH8 0x1E69775C872E160B PUSH1 0xC0 SHL PUSH3 0x275 PUSH1 0x20 SHL PUSH1 0x20 SHR JUMP JUMPDEST PUSH32 0x5D7C78D0EE3CE6196F90E74ED58C0ADA9AC7CCC47D3ACA0547AC893776F03826 PUSH1 0x6 SLOAD PUSH1 0x40 MLOAD PUSH3 0x175 SWAP2 SWAP1 PUSH3 0x375 JUMP JUMPDEST PUSH1 0x40 MLOAD DUP1 SWAP2 SUB SWAP1 LOG1 PUSH3 0x199 PUSH8 0xE8A0A8BCE6855FCD PUSH1 0xC0 SHL PUSH3 0x275 PUSH1 0x20 SHL PUSH1 0x20 SHR JUMP JUMPDEST NUMBER PUSH1 0xA0 DUP2 DUP2 MSTORE POP POP POP POP PUSH3 0x392 JUMP JUMPDEST PUSH1 0x0 CALLER SWAP1 POP SWAP1 JUMP JUMPDEST PUSH1 0x0 DUP1 PUSH1 0x0 SWAP1 SLOAD SWAP1 PUSH2 0x100 EXP SWAP1 DIV PUSH20 0xFFFFFFFFFFFFFFFFFFFFFFFFFFFFFFFFFFFFFFFF AND SWAP1 POP DUP2 PUSH1 0x0 DUP1 PUSH2 0x100 EXP DUP2 SLOAD DUP2 PUSH20 0xFFFFFFFFFFFFFFFFFFFFFFFFFFFFFFFFFFFFFFFF MUL NOT AND SWAP1 DUP4 PUSH20 0xFFFFFFFFFFFFFFFFFFFFFFFFFFFFFFFFFFFFFFFF AND MUL OR SWAP1 SSTORE POP DUP2 PUSH20 0xFFFFFFFFFFFFFFFFFFFFFFFFFFFFFFFFFFFFFFFF AND DUP2 PUSH20 0xFFFFFFFFFFFFFFFFFFFFFFFFFFFFFFFFFFFFFFFF AND PUSH32 0x8BE0079C531659141344CD1FD0A4F28419497F9722A3DAAFE3B4186F6B6457E0 PUSH1 0x40 MLOAD PUSH1 0x40 MLOAD DUP1 SWAP2 SUB SWAP1 LOG3 POP POP JUMP JUMPDEST POP JUMP JUMPDEST PUSH1 0x0 DUP1 REVERT JUMPDEST PUSH1 0x0 PUSH20 0xFFFFFFFFFFFFFFFFFFFFFFFFFFFFFFFFFFFFFFFF DUP3 AND SWAP1 POP SWAP2 SWAP1 POP JUMP JUMPDEST PUSH1 0x0 PUSH3 0x2AA DUP3 PUSH3 0x27D JUMP JUMPDEST SWAP1 POP SWAP2 SWAP1 POP JUMP JUMPDEST PUSH3 0x2BC DUP2 PUSH3 0x29D JUMP JUMPDEST DUP2 EQ PUSH3 0x2C8 JUMPI PUSH1 0x0 DUP1 REVERT JUMPDEST POP JUMP JUMPDEST PUSH1 0x0 DUP2 MLOAD SWAP1 POP PUSH3 0x2DC DUP2 PUSH3 0x2B1 JUMP JUMPDEST SWAP3 SWAP2 POP POP JUMP JUMPDEST PUSH1 0x0 DUP2 SWAP1 POP SWAP2 SWAP1 POP JUMP JUMPDEST PUSH3 0x2F7 DUP2 PUSH3 0x2E2 JUMP JUMPDEST DUP2 EQ PUSH3 0x303 JUMPI PUSH1 0x0 DUP1 REVERT JUMPDEST POP JUMP JUMPDEST PUSH1 0x0 DUP2 MLOAD SWAP1 POP PUSH3 0x317 DUP2 PUSH3 0x2EC JUMP JUMPDEST SWAP3 SWAP2 POP POP JUMP JUMPDEST PUSH1 0x0 DUP1 PUSH1 0x40 DUP4 DUP6 SUB SLT ISZERO PUSH3 0x337 JUMPI PUSH3 0x336 PUSH3 0x278 JUMP JUMPDEST JUMPDEST PUSH1 0x0 PUSH3 0x347 DUP6 DUP3 DUP7 ADD PUSH3 0x2CB JUMP JUMPDEST SWAP3 POP POP PUSH1 0x20 PUSH3 0x35A DUP6 DUP3 DUP7 ADD PUSH3 0x306 JUMP JUMPDEST SWAP2 POP POP SWAP3 POP SWAP3 SWAP1 POP JUMP JUMPDEST PUSH3 0x36F DUP2 PUSH3 0x2E2 JUMP JUMPDEST DUP3 MSTORE POP POP JUMP JUMPDEST PUSH1 0x0 PUSH1 0x20 DUP3 ADD SWAP1 POP PUSH3 0x38C PUSH1 0x0 DUP4 ADD DUP5 PUSH3 0x364 JUMP JUMPDEST SWAP3 SWAP2 POP POP JUMP JUMPDEST PUSH1 0x80 MLOAD PUSH1 0xA0 MLOAD PUSH2 0x4EF4 PUSH3 0x3E2 PUSH1 0x0 CODECOPY PUSH1 0x0 DUP2 DUP2 PUSH2 0xBC6 ADD MSTORE DUP2 DUP2 PUSH2 0xC24 ADD MSTORE PUSH2 0x129F ADD MSTORE PUSH1 0x0 DUP2 DUP2 PUSH2 0x21B4 ADD MSTORE DUP2 DUP2 PUSH2 0x2E76 ADD MSTORE DUP2 DUP2 PUSH2 0x2FB4 ADD MSTORE DUP2 DUP2 PUSH2 0x3641 ADD MSTORE PUSH2 0x3930 ADD MSTORE PUSH2 0x4EF4 PUSH1 0x0 RETURN INVALID PUSH1 0x80 PUSH1 0x40 MSTORE CALLVALUE DUP1 ISZERO PUSH2 0x10 JUMPI PUSH1 0x0 DUP1 REVERT JUMPDEST POP PUSH1 0x4 CALLDATASIZE LT PUSH2 0x211 JUMPI PUSH1 0x0 CALLDATALOAD PUSH1 0xE0 SHR DUP1 PUSH4 0x6FF1C9BC GT PUSH2 0x125 JUMPI DUP1 PUSH4 0xC3E2C56B GT PUSH2 0xAD JUMPI DUP1 PUSH4 0xF3FEF3A3 GT PUSH2 0x7C JUMPI DUP1 PUSH4 0xF3FEF3A3 EQ PUSH2 0x5C1 JUMPI DUP1 PUSH4 0xF45346DC EQ PUSH2 0x5DD JUMPI DUP1 PUSH4 0xF7C618C1 EQ PUSH2 0x5F9 JUMPI DUP1 PUSH4 0xF84B94E1 EQ PUSH2 0x617 JUMPI DUP1 PUSH4 0xFF51A272 EQ PUSH2 0x633 JUMPI PUSH2 0x211 JUMP JUMPDEST DUP1 PUSH4 0xC3E2C56B EQ PUSH2 0x54D JUMPI DUP1 PUSH4 0xD6BE9B67 EQ PUSH2 0x569 JUMPI DUP1 PUSH4 0xDA0BB03A EQ PUSH2 0x587 JUMPI DUP1 PUSH4 0xF2FDE38B EQ PUSH2 0x5A5 JUMPI PUSH2 0x211 JUMP JUMPDEST DUP1 PUSH4 0x85B4BB53 GT PUSH2 0xF4 JUMPI DUP1 PUSH4 0x85B4BB53 EQ PUSH2 0x49D JUMPI DUP1 PUSH4 0x8AE39CAC EQ PUSH2 0x4BF JUMPI DUP1 PUSH4 0x8DA5CB5B EQ PUSH2 0x4DD JUMPI DUP1 PUSH4 0x93F1A40B EQ PUSH2 0x4FB JUMPI DUP1 PUSH4 0xB4AC6860 EQ PUSH2 0x52F JUMPI PUSH2 0x211 JUMP JUMPDEST DUP1 PUSH4 0x6FF1C9BC EQ PUSH2 0x43D JUMPI DUP1 PUSH4 0x715018A6 EQ PUSH2 0x459 JUMPI DUP1 PUSH4 0x73B93421 EQ PUSH2 0x463 JUMPI DUP1 PUSH4 0x81505C05 EQ PUSH2 0x481 JUMPI PUSH2 0x211 JUMP JUMPDEST DUP1 PUSH4 0x343DFB7E GT PUSH2 0x1A8 JUMPI DUP1 PUSH4 0x51EB05A6 GT PUSH2 0x177 JUMPI DUP1 PUSH4 0x51EB05A6 EQ PUSH2 0x3AF JUMPI DUP1 PUSH4 0x5AB764ED EQ PUSH2 0x3CB JUMPI DUP1 PUSH4 0x6129F25F EQ PUSH2 0x3FB JUMPI DUP1 PUSH4 0x630B5BA1 EQ PUSH2 0x417 JUMPI DUP1 PUSH4 0x64482F79 EQ PUSH2 0x421 JUMPI PUSH2 0x211 JUMP JUMPDEST DUP1 PUSH4 0x343DFB7E EQ PUSH2 0x33B JUMPI DUP1 PUSH4 0x38D7AAE1 EQ PUSH2 0x359 JUMPI DUP1 PUSH4 0x4146CAE9 EQ PUSH2 0x375 JUMPI DUP1 PUSH4 0x48CD4CB1 EQ PUSH2 0x391 JUMPI PUSH2 0x211 JUMP JUMPDEST DUP1 PUSH4 0x17CAF6F1 GT PUSH2 0x1E4 JUMPI DUP1 PUSH4 0x17CAF6F1 EQ PUSH2 0x2B3 JUMPI DUP1 PUSH4 0x1EAAA045 EQ PUSH2 0x2D1 JUMPI DUP1 PUSH4 0x20FC0FC6 EQ PUSH2 0x2ED JUMPI DUP1 PUSH4 0x242952B6 EQ PUSH2 0x31F JUMPI PUSH2 0x211 JUMP JUMPDEST DUP1 PUSH4 0xE5C011E EQ PUSH2 0x216 JUMPI DUP1 PUSH4 0xE95EC24 EQ PUSH2 0x232 JUMPI DUP1 PUSH4 0x14DC0CE0 EQ PUSH2 0x262 JUMPI DUP1 PUSH4 0x1526FE27 EQ PUSH2 0x280 JUMPI JUMPDEST PUSH1 0x0 DUP1 REVERT JUMPDEST PUSH2 0x230 PUSH1 0x4 DUP1 CALLDATASIZE SUB DUP2 ADD SWAP1 PUSH2 0x22B SWAP2 SWAP1 PUSH2 0x4332 JUMP JUMPDEST PUSH2 0x663 JUMP JUMPDEST STOP JUMPDEST PUSH2 0x24C PUSH1 0x4 DUP1 CALLDATASIZE SUB DUP2 ADD SWAP1 PUSH2 0x247 SWAP2 SWAP1 PUSH2 0x435F JUMP JUMPDEST PUSH2 0x927 JUMP JUMPDEST PUSH1 0x40 MLOAD PUSH2 0x259 SWAP2 SWAP1 PUSH2 0x43B8 JUMP JUMPDEST PUSH1 0x40 MLOAD DUP1 SWAP2 SUB SWAP1 RETURN JUMPDEST PUSH2 0x26A PUSH2 0xA2E JUMP JUMPDEST PUSH1 0x40 MLOAD PUSH2 0x277 SWAP2 SWAP1 PUSH2 0x43B8 JUMP JUMPDEST PUSH1 0x40 MLOAD DUP1 SWAP2 SUB SWAP1 RETURN JUMPDEST PUSH2 0x29A PUSH1 0x4 DUP1 CALLDATASIZE SUB DUP2 ADD SWAP1 PUSH2 0x295 SWAP2 SWAP1 PUSH2 0x43FF JUMP JUMPDEST PUSH2 0xA34 JUMP JUMPDEST PUSH1 0x40 MLOAD PUSH2 0x2AA SWAP5 SWAP4 SWAP3 SWAP2 SWAP1 PUSH2 0x448B JUMP JUMPDEST PUSH1 0x40 MLOAD DUP1 SWAP2 SUB SWAP1 RETURN JUMPDEST PUSH2 0x2BB PUSH2 0xA94 JUMP JUMPDEST PUSH1 0x40 MLOAD PUSH2 0x2C8 SWAP2 SWAP1 PUSH2 0x43B8 JUMP JUMPDEST PUSH1 0x40 MLOAD DUP1 SWAP2 SUB SWAP1 RETURN JUMPDEST PUSH2 0x2EB PUSH1 0x4 DUP1 CALLDATASIZE SUB DUP2 ADD SWAP1 PUSH2 0x2E6 SWAP2 SWAP1 PUSH2 0x4508 JUMP JUMPDEST PUSH2 0xA9A JUMP JUMPDEST STOP JUMPDEST PUSH2 0x307 PUSH1 0x4 DUP1 CALLDATASIZE SUB DUP2 ADD SWAP1 PUSH2 0x302 SWAP2 SWAP1 PUSH2 0x435F JUMP JUMPDEST PUSH2 0xEF4 JUMP JUMPDEST PUSH1 0x40 MLOAD PUSH2 0x316 SWAP4 SWAP3 SWAP2 SWAP1 PUSH2 0x455B JUMP JUMPDEST PUSH1 0x40 MLOAD DUP1 SWAP2 SUB SWAP1 RETURN JUMPDEST PUSH2 0x339 PUSH1 0x4 DUP1 CALLDATASIZE SUB DUP2 ADD SWAP1 PUSH2 0x334 SWAP2 SWAP1 PUSH2 0x43FF JUMP JUMPDEST PUSH2 0x1059 JUMP JUMPDEST STOP JUMPDEST PUSH2 0x343 PUSH2 0x1152 JUMP JUMPDEST PUSH1 0x40 MLOAD PUSH2 0x350 SWAP2 SWAP1 PUSH2 0x43B8 JUMP JUMPDEST PUSH1 0x40 MLOAD DUP1 SWAP2 SUB SWAP1 RETURN JUMPDEST PUSH2 0x373 PUSH1 0x4 DUP1 CALLDATASIZE SUB DUP2 ADD SWAP1 PUSH2 0x36E SWAP2 SWAP1 PUSH2 0x43FF JUMP JUMPDEST PUSH2 0x1158 JUMP JUMPDEST STOP JUMPDEST PUSH2 0x38F PUSH1 0x4 DUP1 CALLDATASIZE SUB DUP2 ADD SWAP1 PUSH2 0x38A SWAP2 SWAP1 PUSH2 0x4592 JUMP JUMPDEST PUSH2 0x1251 JUMP JUMPDEST STOP JUMPDEST PUSH2 0x399 PUSH2 0x129D JUMP JUMPDEST PUSH1 0x40 MLOAD PUSH2 0x3A6 SWAP2 SWAP1 PUSH2 0x43B8 JUMP JUMPDEST PUSH1 0x40 MLOAD DUP1 SWAP2 SUB SWAP1 RETURN JUMPDEST PUSH2 0x3C9 PUSH1 0x4 DUP1 CALLDATASIZE SUB DUP2 ADD SWAP1 PUSH2 0x3C4 SWAP2 SWAP1 PUSH2 0x43FF JUMP JUMPDEST PUSH2 0x12C1 JUMP JUMPDEST STOP JUMPDEST PUSH2 0x3E5 PUSH1 0x4 DUP1 CALLDATASIZE SUB DUP2 ADD SWAP1 PUSH2 0x3E0 SWAP2 SWAP1 PUSH2 0x435F JUMP JUMPDEST PUSH2 0x1341 JUMP JUMPDEST PUSH1 0x40 MLOAD PUSH2 0x3F2 SWAP2 SWAP1 PUSH2 0x43B8 JUMP JUMPDEST PUSH1 0x40 MLOAD DUP1 SWAP2 SUB SWAP1 RETURN JUMPDEST PUSH2 0x415 PUSH1 0x4 DUP1 CALLDATASIZE SUB DUP2 ADD SWAP1 PUSH2 0x410 SWAP2 SWAP1 PUSH2 0x43FF JUMP JUMPDEST PUSH2 0x173B JUMP JUMPDEST STOP JUMPDEST PUSH2 0x41F PUSH2 0x1834 JUMP JUMPDEST STOP JUMPDEST PUSH2 0x43B PUSH1 0x4 DUP1 CALLDATASIZE SUB DUP2 ADD SWAP1 PUSH2 0x436 SWAP2 SWAP1 PUSH2 0x45D2 JUMP JUMPDEST PUSH2 0x18B2 JUMP JUMPDEST STOP JUMPDEST PUSH2 0x457 PUSH1 0x4 DUP1 CALLDATASIZE SUB DUP2 ADD SWAP1 PUSH2 0x452 SWAP2 SWAP1 PUSH2 0x4332 JUMP JUMPDEST PUSH2 0x1B16 JUMP JUMPDEST STOP JUMPDEST PUSH2 0x461 PUSH2 0x1DB6 JUMP JUMPDEST STOP JUMPDEST PUSH2 0x46B PUSH2 0x1DCA JUMP JUMPDEST PUSH1 0x40 MLOAD PUSH2 0x478 SWAP2 SWAP1 PUSH2 0x43B8 JUMP JUMPDEST PUSH1 0x40 MLOAD DUP1 SWAP2 SUB SWAP1 RETURN JUMPDEST PUSH2 0x49B PUSH1 0x4 DUP1 CALLDATASIZE SUB DUP2 ADD SWAP1 PUSH2 0x496 SWAP2 SWAP1 PUSH2 0x4625 JUMP JUMPDEST PUSH2 0x1DD0 JUMP JUMPDEST STOP JUMPDEST PUSH2 0x4A5 PUSH2 0x1F56 JUMP JUMPDEST PUSH1 0x40 MLOAD PUSH2 0x4B6 SWAP6 SWAP5 SWAP4 SWAP3 SWAP2 SWAP1 PUSH2 0x4665 JUMP JUMPDEST PUSH1 0x40 MLOAD DUP1 SWAP2 SUB SWAP1 RETURN JUMPDEST PUSH2 0x4C7 PUSH2 0x1FBA JUMP JUMPDEST PUSH1 0x40 MLOAD PUSH2 0x4D4 SWAP2 SWAP1 PUSH2 0x43B8 JUMP JUMPDEST PUSH1 0x40 MLOAD DUP1 SWAP2 SUB SWAP1 RETURN JUMPDEST PUSH2 0x4E5 PUSH2 0x1FC0 JUMP JUMPDEST PUSH1 0x40 MLOAD PUSH2 0x4F2 SWAP2 SWAP1 PUSH2 0x46C7 JUMP JUMPDEST PUSH1 0x40 MLOAD DUP1 SWAP2 SUB SWAP1 RETURN JUMPDEST PUSH2 0x515 PUSH1 0x4 DUP1 CALLDATASIZE SUB DUP2 ADD SWAP1 PUSH2 0x510 SWAP2 SWAP1 PUSH2 0x46E2 JUMP JUMPDEST PUSH2 0x1FE9 JUMP JUMPDEST PUSH1 0x40 MLOAD PUSH2 0x526 SWAP6 SWAP5 SWAP4 SWAP3 SWAP2 SWAP1 PUSH2 0x4665 JUMP JUMPDEST PUSH1 0x40 MLOAD DUP1 SWAP2 SUB SWAP1 RETURN JUMPDEST PUSH2 0x537 PUSH2 0x202C JUMP JUMPDEST PUSH1 0x40 MLOAD PUSH2 0x544 SWAP2 SWAP1 PUSH2 0x43B8 JUMP JUMPDEST PUSH1 0x40 MLOAD DUP1 SWAP2 SUB SWAP1 RETURN JUMPDEST PUSH2 0x567 PUSH1 0x4 DUP1 CALLDATASIZE SUB DUP2 ADD SWAP1 PUSH2 0x562 SWAP2 SWAP1 PUSH2 0x43FF JUMP JUMPDEST PUSH2 0x2075 JUMP JUMPDEST STOP JUMPDEST PUSH2 0x571 PUSH2 0x216E JUMP JUMPDEST PUSH1 0x40 MLOAD PUSH2 0x57E SWAP2 SWAP1 PUSH2 0x43B8 JUMP JUMPDEST PUSH1 0x40 MLOAD DUP1 SWAP2 SUB SWAP1 RETURN JUMPDEST PUSH2 0x58F PUSH2 0x2174 JUMP JUMPDEST PUSH1 0x40 MLOAD PUSH2 0x59C SWAP2 SWAP1 PUSH2 0x43B8 JUMP JUMPDEST PUSH1 0x40 MLOAD DUP1 SWAP2 SUB SWAP1 RETURN JUMPDEST PUSH2 0x5BF PUSH1 0x4 DUP1 CALLDATASIZE SUB DUP2 ADD SWAP1 PUSH2 0x5BA SWAP2 SWAP1 PUSH2 0x4332 JUMP JUMPDEST PUSH2 0x2251 JUMP JUMPDEST STOP JUMPDEST PUSH2 0x5DB PUSH1 0x4 DUP1 CALLDATASIZE SUB DUP2 ADD SWAP1 PUSH2 0x5D6 SWAP2 SWAP1 PUSH2 0x4592 JUMP JUMPDEST PUSH2 0x22D4 JUMP JUMPDEST STOP JUMPDEST PUSH2 0x5F7 PUSH1 0x4 DUP1 CALLDATASIZE SUB DUP2 ADD SWAP1 PUSH2 0x5F2 SWAP2 SWAP1 PUSH2 0x4722 JUMP JUMPDEST PUSH2 0x27AC JUMP JUMPDEST STOP JUMPDEST PUSH2 0x601 PUSH2 0x2E74 JUMP JUMPDEST PUSH1 0x40 MLOAD PUSH2 0x60E SWAP2 SWAP1 PUSH2 0x4775 JUMP JUMPDEST PUSH1 0x40 MLOAD DUP1 SWAP2 SUB SWAP1 RETURN JUMPDEST PUSH2 0x631 PUSH1 0x4 DUP1 CALLDATASIZE SUB DUP2 ADD SWAP1 PUSH2 0x62C SWAP2 SWAP1 PUSH2 0x43FF JUMP JUMPDEST PUSH2 0x2E98 JUMP JUMPDEST STOP JUMPDEST PUSH2 0x64D PUSH1 0x4 DUP1 CALLDATASIZE SUB DUP2 ADD SWAP1 PUSH2 0x648 SWAP2 SWAP1 PUSH2 0x4332 JUMP JUMPDEST PUSH2 0x3004 JUMP JUMPDEST PUSH1 0x40 MLOAD PUSH2 0x65A SWAP2 SWAP1 PUSH2 0x43B8 JUMP JUMPDEST PUSH1 0x40 MLOAD DUP1 SWAP2 SUB SWAP1 RETURN JUMPDEST PUSH2 0x677 PUSH8 0xA6862BC969D08E90 PUSH1 0xC0 SHL PUSH2 0x301C JUMP JUMPDEST PUSH2 0x68B PUSH8 0x8745E937E2E3EB89 PUSH1 0xC0 SHL PUSH2 0x301C JUMP JUMPDEST PUSH2 0x69F PUSH8 0x9A82D1E30C674F15 PUSH1 0xC0 SHL PUSH2 0x301C JUMP JUMPDEST PUSH1 0x0 PUSH1 0x9 PUSH1 0x0 DUP4 PUSH20 0xFFFFFFFFFFFFFFFFFFFFFFFFFFFFFFFFFFFFFFFF AND PUSH20 0xFFFFFFFFFFFFFFFFFFFFFFFFFFFFFFFFFFFFFFFF AND DUP2 MSTORE PUSH1 0x20 ADD SWAP1 DUP2 MSTORE PUSH1 0x20 ADD PUSH1 0x0 KECCAK256 SLOAD SWAP1 POP PUSH2 0x6F7 PUSH8 0xC8EFD76474A5DCC8 PUSH1 0xC0 SHL PUSH2 0x301C JUMP JUMPDEST PUSH2 0x70B PUSH8 0xE7A512E0F6E1A0CA PUSH1 0xC0 SHL PUSH2 0x301C JUMP JUMPDEST PUSH1 0x0 PUSH1 0x7 DUP3 DUP2 SLOAD DUP2 LT PUSH2 0x721 JUMPI PUSH2 0x720 PUSH2 0x4790 JUMP JUMPDEST JUMPDEST SWAP1 PUSH1 0x0 MSTORE PUSH1 0x20 PUSH1 0x0 KECCAK256 SWAP1 PUSH1 0x4 MUL ADD SWAP1 POP PUSH2 0x745 PUSH8 0xF0AC128EAED35B7B PUSH1 0xC0 SHL PUSH2 0x301C JUMP JUMPDEST PUSH2 0x759 PUSH8 0x7299731D1C90F3AD PUSH1 0xC0 SHL PUSH2 0x301C JUMP JUMPDEST PUSH1 0x0 PUSH1 0x8 PUSH1 0x0 DUP5 DUP2 MSTORE PUSH1 0x20 ADD SWAP1 DUP2 MSTORE PUSH1 0x20 ADD PUSH1 0x0 KECCAK256 PUSH1 0x0 CALLER PUSH20 0xFFFFFFFFFFFFFFFFFFFFFFFFFFFFFFFFFFFFFFFF AND PUSH20 0xFFFFFFFFFFFFFFFFFFFFFFFFFFFFFFFFFFFFFFFF AND DUP2 MSTORE PUSH1 0x20 ADD SWAP1 DUP2 MSTORE PUSH1 0x20 ADD PUSH1 0x0 KECCAK256 SWAP1 POP PUSH2 0x7C1 PUSH8 0x73B397E683F7F0B7 PUSH1 0xC0 SHL PUSH2 0x301C JUMP JUMPDEST PUSH2 0x7D5 PUSH8 0xE308EADCF0201039 PUSH1 0xC0 SHL PUSH2 0x301C JUMP JUMPDEST PUSH2 0x7DE DUP4 PUSH2 0x301F JUMP JUMPDEST PUSH2 0x7F2 PUSH8 0x9457F0AEBA368DF7 PUSH1 0xC0 SHL PUSH2 0x301C JUMP JUMPDEST PUSH2 0x806 PUSH8 0x1EC84FBC0DBC2BB3 PUSH1 0xC0 SHL PUSH2 0x301C JUMP JUMPDEST PUSH1 0x0 DUP2 PUSH1 0x4 ADD SLOAD DUP3 PUSH1 0x1 ADD SLOAD PUSH5 0xE8D4A51000 DUP6 PUSH1 0x3 ADD SLOAD DUP6 PUSH1 0x0 ADD SLOAD PUSH2 0x82C SWAP2 SWAP1 PUSH2 0x47EE JUMP JUMPDEST PUSH2 0x836 SWAP2 SWAP1 PUSH2 0x485F JUMP JUMPDEST PUSH2 0x840 SWAP2 SWAP1 PUSH2 0x4890 JUMP JUMPDEST PUSH2 0x84A SWAP2 SWAP1 PUSH2 0x48C4 JUMP JUMPDEST SWAP1 POP PUSH2 0x860 PUSH8 0xCEE018287D0FA304 PUSH1 0xC0 SHL PUSH2 0x301C JUMP JUMPDEST PUSH2 0x874 PUSH8 0x58168682EED4850B PUSH1 0xC0 SHL PUSH2 0x301C JUMP JUMPDEST PUSH1 0x0 DUP2 GT ISZERO PUSH2 0x8CB JUMPI PUSH2 0x891 PUSH8 0x3AC9DCA527B24677 PUSH1 0xC0 SHL PUSH2 0x301C JUMP JUMPDEST PUSH2 0x8A5 PUSH8 0x5B3C9FE9D187D144 PUSH1 0xC0 SHL PUSH2 0x301C JUMP JUMPDEST PUSH2 0x8B9 PUSH8 0xCACEABD26D898D0 PUSH1 0xC0 SHL PUSH2 0x301C JUMP JUMPDEST PUSH2 0x8C6 DUP3 DUP3 PUSH1 0x1 DUP8 PUSH2 0x3379 JUMP JUMPDEST PUSH2 0x8E0 JUMP JUMPDEST PUSH2 0x8DF PUSH8 0xED99614E642A1D90 PUSH1 0xC0 SHL PUSH2 0x301C JUMP JUMPDEST JUMPDEST PUSH2 0x8F4 PUSH8 0xDC70FDC5E984FCAC PUSH1 0xC0 SHL PUSH2 0x301C JUMP JUMPDEST PUSH5 0xE8D4A51000 DUP4 PUSH1 0x3 ADD SLOAD DUP4 PUSH1 0x0 ADD SLOAD PUSH2 0x90E SWAP2 SWAP1 PUSH2 0x47EE JUMP JUMPDEST PUSH2 0x918 SWAP2 SWAP1 PUSH2 0x485F JUMP JUMPDEST DUP3 PUSH1 0x1 ADD DUP2 SWAP1 SSTORE POP POP POP POP POP POP JUMP JUMPDEST PUSH1 0x0 PUSH2 0x93D PUSH8 0x5447C95FFF3FA21 PUSH1 0xC0 SHL PUSH2 0x301C JUMP JUMPDEST PUSH2 0x951 PUSH8 0x8F5184BD1C8EE33 PUSH1 0xC0 SHL PUSH2 0x301C JUMP JUMPDEST PUSH2 0x965 PUSH8 0x8241F3001C298C36 PUSH1 0xC0 SHL PUSH2 0x301C JUMP JUMPDEST PUSH1 0x0 PUSH1 0x9 PUSH1 0x0 DUP6 PUSH20 0xFFFFFFFFFFFFFFFFFFFFFFFFFFFFFFFFFFFFFFFF AND PUSH20 0xFFFFFFFFFFFFFFFFFFFFFFFFFFFFFFFFFFFFFFFF AND DUP2 MSTORE PUSH1 0x20 ADD SWAP1 DUP2 MSTORE PUSH1 0x20 ADD PUSH1 0x0 KECCAK256 SLOAD SWAP1 POP PUSH2 0x9BD PUSH8 0xFABE2B6D0862D288 PUSH1 0xC0 SHL PUSH2 0x301C JUMP JUMPDEST PUSH2 0x9D1 PUSH8 0x9508EF280B504B32 PUSH1 0xC0 SHL PUSH2 0x301C JUMP JUMPDEST PUSH1 0x8 PUSH1 0x0 DUP3 DUP2 MSTORE PUSH1 0x20 ADD SWAP1 DUP2 MSTORE PUSH1 0x20 ADD PUSH1 0x0 KECCAK256 PUSH1 0x0 DUP5 PUSH20 0xFFFFFFFFFFFFFFFFFFFFFFFFFFFFFFFFFFFFFFFF AND PUSH20 0xFFFFFFFFFFFFFFFFFFFFFFFFFFFFFFFFFFFFFFFF AND DUP2 MSTORE PUSH1 0x20 ADD SWAP1 DUP2 MSTORE PUSH1 0x20 ADD PUSH1 0x0 KECCAK256 PUSH1 0x0 ADD SLOAD SWAP2 POP POP SWAP3 SWAP2 POP POP JUMP JUMPDEST PUSH1 0x3 SLOAD DUP2 JUMP JUMPDEST PUSH1 0x7 DUP2 DUP2 SLOAD DUP2 LT PUSH2 0xA44 JUMPI PUSH1 0x0 DUP1 REVERT JUMPDEST SWAP1 PUSH1 0x0 MSTORE PUSH1 0x20 PUSH1 0x0 KECCAK256 SWAP1 PUSH1 0x4 MUL ADD PUSH1 0x0 SWAP2 POP SWAP1 POP DUP1 PUSH1 0x0 ADD PUSH1 0x0 SWAP1 SLOAD SWAP1 PUSH2 0x100 EXP SWAP1 DIV PUSH20 0xFFFFFFFFFFFFFFFFFFFFFFFFFFFFFFFFFFFFFFFF AND SWAP1 DUP1 PUSH1 0x1 ADD SLOAD SWAP1 DUP1 PUSH1 0x2 ADD SLOAD SWAP1 DUP1 PUSH1 0x3 ADD SLOAD SWAP1 POP DUP5 JUMP JUMPDEST PUSH1 0xB SLOAD DUP2 JUMP JUMPDEST PUSH2 0xAAE PUSH8 0xE98040C2E0AC12F9 PUSH1 0xC0 SHL PUSH2 0x301C JUMP JUMPDEST PUSH2 0xAB6 PUSH2 0x3A7F JUMP JUMPDEST PUSH2 0xACA PUSH8 0x55B7483C3928F43F PUSH1 0xC0 SHL PUSH2 0x301C JUMP JUMPDEST PUSH2 0xADE PUSH8 0x9B103BAC17D4E319 PUSH1 0xC0 SHL PUSH2 0x301C JUMP JUMPDEST PUSH2 0xAE6 PUSH2 0x3AFD JUMP JUMPDEST PUSH2 0xAFA PUSH8 0xC5BDF750214A74AE PUSH1 0xC0 SHL PUSH2 0x301C JUMP JUMPDEST PUSH2 0xB0E PUSH8 0xE007054BF087656A PUSH1 0xC0 SHL PUSH2 0x301C JUMP JUMPDEST PUSH2 0xB22 PUSH8 0x909A4459BA7A5648 PUSH1 0xC0 SHL PUSH2 0x301C JUMP JUMPDEST PUSH2 0xB36 PUSH8 0xAE64E2557182E63F PUSH1 0xC0 SHL PUSH2 0x301C JUMP JUMPDEST DUP1 ISZERO PUSH2 0xB85 JUMPI PUSH2 0xB50 PUSH8 0x9B6D92ED61D3BF08 PUSH1 0xC0 SHL PUSH2 0x301C JUMP JUMPDEST PUSH2 0xB64 PUSH8 0xC68827E0B8CC1582 PUSH1 0xC0 SHL PUSH2 0x301C JUMP JUMPDEST PUSH2 0xB78 PUSH8 0x4BF9A63FF186E93A PUSH1 0xC0 SHL PUSH2 0x301C JUMP JUMPDEST PUSH2 0xB80 PUSH2 0x3B4C JUMP JUMPDEST PUSH2 0xB9A JUMP JUMPDEST PUSH2 0xB99 PUSH8 0x9E9F8269C84620BB PUSH1 0xC0 SHL PUSH2 0x301C JUMP JUMPDEST JUMPDEST PUSH2 0xBAE PUSH8 0x6D7E3DC89836807 PUSH1 0xC0 SHL PUSH2 0x301C JUMP JUMPDEST PUSH2 0xBC2 PUSH8 0x8599287A87D1139F PUSH1 0xC0 SHL PUSH2 0x301C JUMP JUMPDEST PUSH1 0x0 PUSH32 0x0 NUMBER GT DUP1 ISZERO PUSH2 0xC03 JUMPI POP PUSH2 0xC02 PUSH8 0x4047392F46D4CD7E PUSH1 0xC0 SHL PUSH2 0x3C19 JUMP JUMPDEST JUMPDEST DUP1 PUSH2 0xC1E JUMPI POP PUSH2 0xC1D PUSH8 0xB788469D4D79F6F2 PUSH1 0xC0 SHL PUSH2 0x3C24 JUMP JUMPDEST JUMPDEST PUSH2 0xC48 JUMPI PUSH32 0x0 PUSH2 0xC4A JUMP JUMPDEST NUMBER JUMPDEST SWAP1 POP PUSH2 0xC60 PUSH8 0x1D996B134A32D9D4 PUSH1 0xC0 SHL PUSH2 0x301C JUMP JUMPDEST DUP4 PUSH1 0xB SLOAD PUSH2 0xC6E SWAP2 SWAP1 PUSH2 0x48C4 JUMP JUMPDEST PUSH1 0xB DUP2 SWAP1 SSTORE POP PUSH2 0xC88 PUSH8 0x469A1C490FB8C460 PUSH1 0xC0 SHL PUSH2 0x301C JUMP JUMPDEST PUSH2 0xC9C PUSH8 0x3222537301039E7D PUSH1 0xC0 SHL PUSH2 0x301C JUMP JUMPDEST PUSH32 0xF6B83C7584863D40EA9CE49856D7B6AC07E575A8B81B422C1212E7CBC0F3A811 PUSH1 0xB SLOAD PUSH1 0x40 MLOAD PUSH2 0xCCD SWAP2 SWAP1 PUSH2 0x43B8 JUMP JUMPDEST PUSH1 0x40 MLOAD DUP1 SWAP2 SUB SWAP1 LOG1 PUSH2 0xCE9 PUSH8 0xAE01948414562894 PUSH1 0xC0 SHL PUSH2 0x301C JUMP JUMPDEST PUSH2 0xCFD PUSH8 0x91F48D157BA2A449 PUSH1 0xC0 SHL PUSH2 0x301C JUMP JUMPDEST PUSH1 0x7 PUSH1 0x40 MLOAD DUP1 PUSH1 0x80 ADD PUSH1 0x40 MSTORE DUP1 DUP6 PUSH20 0xFFFFFFFFFFFFFFFFFFFFFFFFFFFFFFFFFFFFFFFF AND DUP2 MSTORE PUSH1 0x20 ADD DUP7 DUP2 MSTORE PUSH1 0x20 ADD DUP4 DUP2 MSTORE PUSH1 0x20 ADD PUSH1 0x0 DUP2 MSTORE POP SWAP1 DUP1 PUSH1 0x1 DUP2 SLOAD ADD DUP1 DUP3 SSTORE DUP1 SWAP2 POP POP PUSH1 0x1 SWAP1 SUB SWAP1 PUSH1 0x0 MSTORE PUSH1 0x20 PUSH1 0x0 KECCAK256 SWAP1 PUSH1 0x4 MUL ADD PUSH1 0x0 SWAP1 SWAP2 SWAP1 SWAP2 SWAP1 SWAP2 POP PUSH1 0x0 DUP3 ADD MLOAD DUP2 PUSH1 0x0 ADD PUSH1 0x0 PUSH2 0x100 EXP DUP2 SLOAD DUP2 PUSH20 0xFFFFFFFFFFFFFFFFFFFFFFFFFFFFFFFFFFFFFFFF MUL NOT AND SWAP1 DUP4 PUSH20 0xFFFFFFFFFFFFFFFFFFFFFFFFFFFFFFFFFFFFFFFF AND MUL OR SWAP1 SSTORE POP PUSH1 0x20 DUP3 ADD MLOAD DUP2 PUSH1 0x1 ADD SSTORE PUSH1 0x40 DUP3 ADD MLOAD DUP2 PUSH1 0x2 ADD SSTORE PUSH1 0x60 DUP3 ADD MLOAD DUP2 PUSH1 0x3 ADD SSTORE POP POP PUSH2 0xDDB PUSH8 0x132C73142CA671E1 PUSH1 0xC0 SHL PUSH2 0x301C JUMP JUMPDEST PUSH1 0x1 PUSH1 0x7 DUP1 SLOAD SWAP1 POP PUSH2 0xDED SWAP2 SWAP1 PUSH2 0x4890 JUMP JUMPDEST PUSH1 0x9 PUSH1 0x0 DUP6 PUSH20 0xFFFFFFFFFFFFFFFFFFFFFFFFFFFFFFFFFFFFFFFF AND PUSH20 0xFFFFFFFFFFFFFFFFFFFFFFFFFFFFFFFFFFFFFFFF AND DUP2 MSTORE PUSH1 0x20 ADD SWAP1 DUP2 MSTORE PUSH1 0x20 ADD PUSH1 0x0 KECCAK256 DUP2 SWAP1 SSTORE POP PUSH2 0xE44 PUSH8 0xA13E26D8E90D8B2A PUSH1 0xC0 SHL PUSH2 0x301C JUMP JUMPDEST PUSH2 0xE58 PUSH8 0x522CC0FDFE86B377 PUSH1 0xC0 SHL PUSH2 0x301C JUMP JUMPDEST DUP3 PUSH20 0xFFFFFFFFFFFFFFFFFFFFFFFFFFFFFFFFFFFFFFFF AND PUSH1 0x9 PUSH1 0x0 DUP6 PUSH20 0xFFFFFFFFFFFFFFFFFFFFFFFFFFFFFFFFFFFFFFFF AND PUSH20 0xFFFFFFFFFFFFFFFFFFFFFFFFFFFFFFFFFFFFFFFF AND DUP2 MSTORE PUSH1 0x20 ADD SWAP1 DUP2 MSTORE PUSH1 0x20 ADD PUSH1 0x0 KECCAK256 SLOAD PUSH32 0x6C5D0EF1D0199B6DE41ECBCE95F59643BE4D723CA363FAF92D756E61E82FB13E DUP7 PUSH1 0x40 MLOAD PUSH2 0xEDE SWAP2 SWAP1 PUSH2 0x43B8 JUMP JUMPDEST PUSH1 0x40 MLOAD DUP1 SWAP2 SUB SWAP1 LOG3 POP PUSH2 0xEEF PUSH2 0x3C2B JUMP JUMPDEST POP POP POP JUMP JUMPDEST PUSH1 0x0 DUP1 PUSH1 0x0 PUSH2 0xF0D PUSH8 0x8B340239B1281E01 PUSH1 0xC0 SHL PUSH2 0x301C JUMP JUMPDEST PUSH2 0xF21 PUSH8 0x7C077E0A5BDB957A PUSH1 0xC0 SHL PUSH2 0x301C JUMP JUMPDEST PUSH2 0xF35 PUSH8 0x9DC48E1F765B79A2 PUSH1 0xC0 SHL PUSH2 0x301C JUMP JUMPDEST DUP5 PUSH20 0xFFFFFFFFFFFFFFFFFFFFFFFFFFFFFFFFFFFFFFFF AND PUSH4 0x70A08231 DUP6 PUSH1 0x40 MLOAD DUP3 PUSH4 0xFFFFFFFF AND PUSH1 0xE0 SHL DUP2 MSTORE PUSH1 0x4 ADD PUSH2 0xF6E SWAP2 SWAP1 PUSH2 0x46C7 JUMP JUMPDEST PUSH1 0x20 PUSH1 0x40 MLOAD DUP1 DUP4 SUB DUP2 DUP7 GAS STATICCALL ISZERO DUP1 ISZERO PUSH2 0xF8B JUMPI RETURNDATASIZE PUSH1 0x0 DUP1 RETURNDATACOPY RETURNDATASIZE PUSH1 0x0 REVERT JUMPDEST POP POP POP POP PUSH1 0x40 MLOAD RETURNDATASIZE PUSH1 0x1F NOT PUSH1 0x1F DUP3 ADD AND DUP3 ADD DUP1 PUSH1 0x40 MSTORE POP DUP2 ADD SWAP1 PUSH2 0xFAF SWAP2 SWAP1 PUSH2 0x490D JUMP JUMPDEST PUSH1 0x8 PUSH1 0x0 PUSH1 0x9 PUSH1 0x0 DUP10 PUSH20 0xFFFFFFFFFFFFFFFFFFFFFFFFFFFFFFFFFFFFFFFF AND PUSH20 0xFFFFFFFFFFFFFFFFFFFFFFFFFFFFFFFFFFFFFFFF AND DUP2 MSTORE PUSH1 0x20 ADD SWAP1 DUP2 MSTORE PUSH1 0x20 ADD PUSH1 0x0 KECCAK256 SLOAD DUP2 MSTORE PUSH1 0x20 ADD SWAP1 DUP2 MSTORE PUSH1 0x20 ADD PUSH1 0x0 KECCAK256 PUSH1 0x0 DUP7 PUSH20 0xFFFFFFFFFFFFFFFFFFFFFFFFFFFFFFFFFFFFFFFF AND PUSH20 0xFFFFFFFFFFFFFFFFFFFFFFFFFFFFFFFFFFFFFFFF AND DUP2 MSTORE PUSH1 0x20 ADD SWAP1 DUP2 MSTORE PUSH1 0x20 ADD PUSH1 0x0 KECCAK256 PUSH1 0x0 ADD SLOAD PUSH2 0x104C DUP8 DUP8 PUSH2 0x1341 JUMP JUMPDEST SWAP3 POP SWAP3 POP SWAP3 POP SWAP3 POP SWAP3 POP SWAP3 JUMP JUMPDEST PUSH2 0x106D PUSH8 0x76F6FC8B86F0CA46 PUSH1 0xC0 SHL PUSH2 0x301C JUMP JUMPDEST PUSH2 0x1075 PUSH2 0x3A7F JUMP JUMPDEST PUSH2 0x1089 PUSH8 0x876E146E4A83DE97 PUSH1 0xC0 SHL PUSH2 0x301C JUMP JUMPDEST PUSH2 0x109D PUSH8 0x31836429DE74F974 PUSH1 0xC0 SHL PUSH2 0x301C JUMP JUMPDEST PUSH2 0x10A5 PUSH2 0x3AFD JUMP JUMPDEST PUSH2 0x10B9 PUSH8 0x9CD4FCDEC3D41A99 PUSH1 0xC0 SHL PUSH2 0x301C JUMP JUMPDEST PUSH2 0x10CD PUSH8 0x15E7E1E86B11801E PUSH1 0xC0 SHL PUSH2 0x301C JUMP JUMPDEST PUSH2 0x10E1 PUSH8 0x683B46548702951C PUSH1 0xC0 SHL PUSH2 0x301C JUMP JUMPDEST DUP1 PUSH1 0x4 DUP2 SWAP1 SSTORE POP PUSH2 0x10FC PUSH8 0x5FF1985A74050A01 PUSH1 0xC0 SHL PUSH2 0x301C JUMP JUMPDEST PUSH2 0x1110 PUSH8 0x25CB211841E4FB49 PUSH1 0xC0 SHL PUSH2 0x301C JUMP JUMPDEST PUSH32 0xEEDD3CF2D0C360FA60F6BE27C8F4AE71800A35E2676B4419D1B114647122AA2A DUP2 PUSH1 0x40 MLOAD PUSH2 0x113F SWAP2 SWAP1 PUSH2 0x43B8 JUMP JUMPDEST PUSH1 0x40 MLOAD DUP1 SWAP2 SUB SWAP1 LOG1 PUSH2 0x114F PUSH2 0x3C2B JUMP JUMPDEST POP JUMP JUMPDEST PUSH1 0x5 SLOAD DUP2 JUMP JUMPDEST PUSH2 0x116C PUSH8 0x2022F3B4307B5992 PUSH1 0xC0 SHL PUSH2 0x301C JUMP JUMPDEST PUSH2 0x1174 PUSH2 0x3A7F JUMP JUMPDEST PUSH2 0x1188 PUSH8 0xCE5B90993B44A94C PUSH1 0xC0 SHL PUSH2 0x301C JUMP JUMPDEST PUSH2 0x119C PUSH8 0x94191CDBD44A617 PUSH1 0xC0 SHL PUSH2 0x301C JUMP JUMPDEST PUSH2 0x11A4 PUSH2 0x3AFD JUMP JUMPDEST PUSH2 0x11B8 PUSH8 0x5032F1BE36CD9B0F PUSH1 0xC0 SHL PUSH2 0x301C JUMP JUMPDEST PUSH2 0x11CC PUSH8 0x33301068DA0C36D6 PUSH1 0xC0 SHL PUSH2 0x301C JUMP JUMPDEST PUSH2 0x11E0 PUSH8 0x5EE5A0F5F712728B PUSH1 0xC0 SHL PUSH2 0x301C JUMP JUMPDEST DUP1 PUSH1 0x3 DUP2 SWAP1 SSTORE POP PUSH2 0x11FB PUSH8 0x666ED4E70549C1C1 PUSH1 0xC0 SHL PUSH2 0x301C JUMP JUMPDEST PUSH2 0x120F PUSH8 0xEE1456121AE594B9 PUSH1 0xC0 SHL PUSH2 0x301C JUMP JUMPDEST PUSH32 0x722D2D49511EF6CD9F1F09ED54AF16CF76E60F362C91FF351FB510D9BDF85EFC DUP2 PUSH1 0x40 MLOAD PUSH2 0x123E SWAP2 SWAP1 PUSH2 0x43B8 JUMP JUMPDEST PUSH1 0x40 MLOAD DUP1 SWAP2 SUB SWAP1 LOG1 PUSH2 0x124E PUSH2 0x3C2B JUMP JUMPDEST POP JUMP JUMPDEST PUSH2 0x1265 PUSH8 0xCA09DC056DAEB1AA PUSH1 0xC0 SHL PUSH2 0x301C JUMP JUMPDEST PUSH2 0x1279 PUSH8 0x6BB59C9975102BD9 PUSH1 0xC0 SHL PUSH2 0x301C JUMP JUMPDEST PUSH2 0x128D PUSH8 0x1491AF09EF3A8E02 PUSH1 0xC0 SHL PUSH2 0x301C JUMP JUMPDEST PUSH2 0x1299 DUP3 DUP3 PUSH1 0x0 PUSH2 0x27AC JUMP JUMPDEST POP POP JUMP JUMPDEST PUSH32 0x0 DUP2 JUMP JUMPDEST PUSH2 0x12D5 PUSH8 0x7C98DAFB770835FF PUSH1 0xC0 SHL PUSH2 0x301C JUMP JUMPDEST PUSH2 0x12DD PUSH2 0x3AFD JUMP JUMPDEST PUSH2 0x12F1 PUSH8 0x4D58B7C23CA201F PUSH1 0xC0 SHL PUSH2 0x301C JUMP JUMPDEST PUSH2 0x1305 PUSH8 0xAEADB655431D7389 PUSH1 0xC0 SHL PUSH2 0x301C JUMP JUMPDEST PUSH2 0x1319 PUSH8 0xE34E176361D00437 PUSH1 0xC0 SHL PUSH2 0x301C JUMP JUMPDEST PUSH2 0x132D PUSH8 0x62B205FDC9B00C0A PUSH1 0xC0 SHL PUSH2 0x301C JUMP JUMPDEST PUSH2 0x1336 DUP2 PUSH2 0x301F JUMP JUMPDEST PUSH2 0x133E PUSH2 0x3C2B JUMP JUMPDEST POP JUMP JUMPDEST PUSH1 0x0 PUSH2 0x1357 PUSH8 0x1E1B1BFD075EE473 PUSH1 0xC0 SHL PUSH2 0x301C JUMP JUMPDEST PUSH2 0x136B PUSH8 0x901DD20F9D83B4BA PUSH1 0xC0 SHL PUSH2 0x301C JUMP JUMPDEST PUSH2 0x137F PUSH8 0x78400D97E2C94760 PUSH1 0xC0 SHL PUSH2 0x301C JUMP JUMPDEST PUSH1 0x0 PUSH1 0x9 PUSH1 0x0 DUP6 PUSH20 0xFFFFFFFFFFFFFFFFFFFFFFFFFFFFFFFFFFFFFFFF AND PUSH20 0xFFFFFFFFFFFFFFFFFFFFFFFFFFFFFFFFFFFFFFFF AND DUP2 MSTORE PUSH1 0x20 ADD SWAP1 DUP2 MSTORE PUSH1 0x20 ADD PUSH1 0x0 KECCAK256 SLOAD SWAP1 POP PUSH2 0x13D7 PUSH8 0x2F07D7A364ACA490 PUSH1 0xC0 SHL PUSH2 0x301C JUMP JUMPDEST PUSH2 0x13EB PUSH8 0x88C09E26E6EF7E9 PUSH1 0xC0 SHL PUSH2 0x301C JUMP JUMPDEST PUSH1 0x0 PUSH1 0x7 DUP3 DUP2 SLOAD DUP2 LT PUSH2 0x1401 JUMPI PUSH2 0x1400 PUSH2 0x4790 JUMP JUMPDEST JUMPDEST SWAP1 PUSH1 0x0 MSTORE PUSH1 0x20 PUSH1 0x0 KECCAK256 SWAP1 PUSH1 0x4 MUL ADD SWAP1 POP PUSH2 0x1425 PUSH8 0xDF2D84FC606F7DF PUSH1 0xC0 SHL PUSH2 0x301C JUMP JUMPDEST PUSH2 0x1439 PUSH8 0xCB225DD70846687E PUSH1 0xC0 SHL PUSH2 0x301C JUMP JUMPDEST PUSH1 0x0 PUSH1 0x8 PUSH1 0x0 DUP5 DUP2 MSTORE PUSH1 0x20 ADD SWAP1 DUP2 MSTORE PUSH1 0x20 ADD PUSH1 0x0 KECCAK256 PUSH1 0x0 DUP7 PUSH20 0xFFFFFFFFFFFFFFFFFFFFFFFFFFFFFFFFFFFFFFFF AND PUSH20 0xFFFFFFFFFFFFFFFFFFFFFFFFFFFFFFFFFFFFFFFF AND DUP2 MSTORE PUSH1 0x20 ADD SWAP1 DUP2 MSTORE PUSH1 0x20 ADD PUSH1 0x0 KECCAK256 SWAP1 POP PUSH2 0x14A1 PUSH8 0xF5C88C5C1369D0B3 PUSH1 0xC0 SHL PUSH2 0x301C JUMP JUMPDEST PUSH2 0x14B5 PUSH8 0x618F64947EB11C21 PUSH1 0xC0 SHL PUSH2 0x301C JUMP JUMPDEST PUSH1 0x0 DUP3 PUSH1 0x3 ADD SLOAD SWAP1 POP PUSH2 0x14D2 PUSH8 0xF3EB4A09C0703C4D PUSH1 0xC0 SHL PUSH2 0x301C JUMP JUMPDEST PUSH2 0x14E6 PUSH8 0x2B0ED5049787162A PUSH1 0xC0 SHL PUSH2 0x301C JUMP JUMPDEST PUSH1 0x0 DUP4 PUSH1 0x0 ADD PUSH1 0x0 SWAP1 SLOAD SWAP1 PUSH2 0x100 EXP SWAP1 DIV PUSH20 0xFFFFFFFFFFFFFFFFFFFFFFFFFFFFFFFFFFFFFFFF AND PUSH20 0xFFFFFFFFFFFFFFFFFFFFFFFFFFFFFFFFFFFFFFFF AND PUSH4 0x70A08231 ADDRESS PUSH1 0x40 MLOAD DUP3 PUSH4 0xFFFFFFFF AND PUSH1 0xE0 SHL DUP2 MSTORE PUSH1 0x4 ADD PUSH2 0x1545 SWAP2 SWAP1 PUSH2 0x46C7 JUMP JUMPDEST PUSH1 0x20 PUSH1 0x40 MLOAD DUP1 DUP4 SUB DUP2 DUP7 GAS STATICCALL ISZERO DUP1 ISZERO PUSH2 0x1562 JUMPI RETURNDATASIZE PUSH1 0x0 DUP1 RETURNDATACOPY RETURNDATASIZE PUSH1 0x0 REVERT JUMPDEST POP POP POP POP PUSH1 0x40 MLOAD RETURNDATASIZE PUSH1 0x1F NOT PUSH1 0x1F DUP3 ADD AND DUP3 ADD DUP1 PUSH1 0x40 MSTORE POP DUP2 ADD SWAP1 PUSH2 0x1586 SWAP2 SWAP1 PUSH2 0x490D JUMP JUMPDEST SWAP1 POP PUSH2 0x159C PUSH8 0xE041F9CAF06CDA80 PUSH1 0xC0 SHL PUSH2 0x301C JUMP JUMPDEST PUSH2 0x15B0 PUSH8 0xB07FDEDDC50CB169 PUSH1 0xC0 SHL PUSH2 0x301C JUMP JUMPDEST DUP4 PUSH1 0x2 ADD SLOAD NUMBER GT DUP1 ISZERO PUSH2 0x15C4 JUMPI POP PUSH1 0x0 DUP2 EQ ISZERO JUMPDEST ISZERO PUSH2 0x16B3 JUMPI PUSH2 0x15DD PUSH8 0xB462DA493601E8E1 PUSH1 0xC0 SHL PUSH2 0x301C JUMP JUMPDEST PUSH2 0x15F1 PUSH8 0x89C3F50128DBFFE1 PUSH1 0xC0 SHL PUSH2 0x301C JUMP JUMPDEST PUSH2 0x1605 PUSH8 0x68AB1F6A13D84080 PUSH1 0xC0 SHL PUSH2 0x301C JUMP JUMPDEST PUSH1 0x0 DUP5 PUSH1 0x2 ADD SLOAD NUMBER PUSH2 0x1617 SWAP2 SWAP1 PUSH2 0x4890 JUMP JUMPDEST SWAP1 POP PUSH2 0x162D PUSH8 0x77DABEEF59D0955 PUSH1 0xC0 SHL PUSH2 0x301C JUMP JUMPDEST PUSH2 0x1641 PUSH8 0x859E932DD5FCB400 PUSH1 0xC0 SHL PUSH2 0x301C JUMP JUMPDEST PUSH1 0x0 PUSH1 0xB SLOAD DUP7 PUSH1 0x1 ADD SLOAD PUSH1 0x6 SLOAD DUP5 PUSH2 0x1659 SWAP2 SWAP1 PUSH2 0x47EE JUMP JUMPDEST PUSH2 0x1663 SWAP2 SWAP1 PUSH2 0x47EE JUMP JUMPDEST PUSH2 0x166D SWAP2 SWAP1 PUSH2 0x485F JUMP JUMPDEST SWAP1 POP PUSH2 0x1683 PUSH8 0xBF910F8E7C2A71EF PUSH1 0xC0 SHL PUSH2 0x301C JUMP JUMPDEST DUP3 PUSH5 0xE8D4A51000 DUP3 PUSH2 0x1695 SWAP2 SWAP1 PUSH2 0x47EE JUMP JUMPDEST PUSH2 0x169F SWAP2 SWAP1 PUSH2 0x485F JUMP JUMPDEST DUP5 PUSH2 0x16AA SWAP2 SWAP1 PUSH2 0x48C4 JUMP JUMPDEST SWAP4 POP POP POP PUSH2 0x16C8 JUMP JUMPDEST PUSH2 0x16C7 PUSH8 0xBCD1D9501FAFC10C PUSH1 0xC0 SHL PUSH2 0x301C JUMP JUMPDEST JUMPDEST PUSH2 0x16DC PUSH8 0x231903AA41B6F886 PUSH1 0xC0 SHL PUSH2 0x301C JUMP JUMPDEST PUSH2 0x16F0 PUSH8 0x99626A9D715DE5D6 PUSH1 0xC0 SHL PUSH2 0x301C JUMP JUMPDEST DUP3 PUSH1 0x4 ADD SLOAD DUP4 PUSH1 0x1 ADD SLOAD PUSH5 0xE8D4A51000 DUP5 DUP7 PUSH1 0x0 ADD SLOAD PUSH2 0x1710 SWAP2 SWAP1 PUSH2 0x47EE JUMP JUMPDEST PUSH2 0x171A SWAP2 SWAP1 PUSH2 0x485F JUMP JUMPDEST PUSH2 0x1724 SWAP2 SWAP1 PUSH2 0x4890 JUMP JUMPDEST PUSH2 0x172E SWAP2 SWAP1 PUSH2 0x48C4 JUMP JUMPDEST SWAP6 POP POP POP POP POP POP SWAP3 SWAP2 POP POP JUMP JUMPDEST PUSH2 0x174F PUSH8 0x926382CCFED6C5B3 PUSH1 0xC0 SHL PUSH2 0x301C JUMP JUMPDEST PUSH2 0x1757 PUSH2 0x3A7F JUMP JUMPDEST PUSH2 0x176B PUSH8 0x8EBB6C8F5E29F9D PUSH1 0xC0 SHL PUSH2 0x301C JUMP JUMPDEST PUSH2 0x177F PUSH8 0xF7FBC052AF9A4F6D PUSH1 0xC0 SHL PUSH2 0x301C JUMP JUMPDEST PUSH2 0x1787 PUSH2 0x3AFD JUMP JUMPDEST PUSH2 0x179B PUSH8 0x3E53CF2BFB5CD4AE PUSH1 0xC0 SHL PUSH2 0x301C JUMP JUMPDEST PUSH2 0x17AF PUSH8 0x754459856D6ACF4C PUSH1 0xC0 SHL PUSH2 0x301C JUMP JUMPDEST PUSH2 0x17C3 PUSH8 0xD3C9578E39175B26 PUSH1 0xC0 SHL PUSH2 0x301C JUMP JUMPDEST DUP1 PUSH1 0x5 DUP2 SWAP1 SSTORE POP PUSH2 0x17DE PUSH8 0xF198FC52B06A6893 PUSH1 0xC0 SHL PUSH2 0x301C JUMP JUMPDEST PUSH2 0x17F2 PUSH8 0x70FC406343AD8018 PUSH1 0xC0 SHL PUSH2 0x301C JUMP JUMPDEST PUSH32 0x22764535B528E8EC691FD4F74E734BD74710F85776BD0B90E1EAF9ACF6DD06C8 DUP2 PUSH1 0x40 MLOAD PUSH2 0x1821 SWAP2 SWAP1 PUSH2 0x43B8 JUMP JUMPDEST PUSH1 0x40 MLOAD DUP1 SWAP2 SUB SWAP1 LOG1 PUSH2 0x1831 PUSH2 0x3C2B JUMP JUMPDEST POP JUMP JUMPDEST PUSH2 0x1848 PUSH8 0x71252F8A0EF8BD35 PUSH1 0xC0 SHL PUSH2 0x301C JUMP JUMPDEST PUSH2 0x1850 PUSH2 0x3AFD JUMP JUMPDEST PUSH2 0x1864 PUSH8 0x6D96AD12AA342012 PUSH1 0xC0 SHL PUSH2 0x301C JUMP JUMPDEST PUSH2 0x1878 PUSH8 0xEB16A6291CF084F9 PUSH1 0xC0 SHL PUSH2 0x301C JUMP JUMPDEST PUSH2 0x188C PUSH8 0xFCC1314E02F493EF PUSH1 0xC0 SHL PUSH2 0x301C JUMP JUMPDEST PUSH2 0x18A0 PUSH8 0x3AC31942FFC32487 PUSH1 0xC0 SHL PUSH2 0x301C JUMP JUMPDEST PUSH2 0x18A8 PUSH2 0x3B4C JUMP JUMPDEST PUSH2 0x18B0 PUSH2 0x3C2B JUMP JUMPDEST JUMP JUMPDEST PUSH2 0x18C6 PUSH8 0xCC572B8D4431585B PUSH1 0xC0 SHL PUSH2 0x301C JUMP JUMPDEST PUSH2 0x18CE PUSH2 0x3A7F JUMP JUMPDEST PUSH2 0x18E2 PUSH8 0x34395037CDEB45CE PUSH1 0xC0 SHL PUSH2 0x301C JUMP JUMPDEST PUSH2 0x18F6 PUSH8 0x638F6E57A0400611 PUSH1 0xC0 SHL PUSH2 0x301C JUMP JUMPDEST PUSH2 0x18FE PUSH2 0x3AFD JUMP JUMPDEST PUSH2 0x1912 PUSH8 0xAD0BA76FECD60A98 PUSH1 0xC0 SHL PUSH2 0x301C JUMP JUMPDEST PUSH2 0x1926 PUSH8 0xB18A68AB4598DEE4 PUSH1 0xC0 SHL PUSH2 0x301C JUMP JUMPDEST PUSH2 0x193A PUSH8 0xB3B5AEBD781400E9 PUSH1 0xC0 SHL PUSH2 0x301C JUMP JUMPDEST PUSH2 0x194E PUSH8 0x351F8EFB7938089B PUSH1 0xC0 SHL PUSH2 0x301C JUMP JUMPDEST DUP1 ISZERO PUSH2 0x199D JUMPI PUSH2 0x1968 PUSH8 0x71AFD567892D7751 PUSH1 0xC0 SHL PUSH2 0x301C JUMP JUMPDEST PUSH2 0x197C PUSH8 0x22DBA0CB0AE787A7 PUSH1 0xC0 SHL PUSH2 0x301C JUMP JUMPDEST PUSH2 0x1990 PUSH8 0x4E8F01BC26403D51 PUSH1 0xC0 SHL PUSH2 0x301C JUMP JUMPDEST PUSH2 0x1998 PUSH2 0x3B4C JUMP JUMPDEST PUSH2 0x19B2 JUMP JUMPDEST PUSH2 0x19B1 PUSH8 0xE9360EB0156A988B PUSH1 0xC0 SHL PUSH2 0x301C JUMP JUMPDEST JUMPDEST PUSH2 0x19C6 PUSH8 0xDFF07CCA7F52B67C PUSH1 0xC0 SHL PUSH2 0x301C JUMP JUMPDEST PUSH1 0x7 DUP4 DUP2 SLOAD DUP2 LT PUSH2 0x19DA JUMPI PUSH2 0x19D9 PUSH2 0x4790 JUMP JUMPDEST JUMPDEST SWAP1 PUSH1 0x0 MSTORE PUSH1 0x20 PUSH1 0x0 KECCAK256 SWAP1 PUSH1 0x4 MUL ADD PUSH1 0x1 ADD SLOAD DUP3 PUSH1 0xB SLOAD PUSH2 0x19FA SWAP2 SWAP1 PUSH2 0x48C4 JUMP JUMPDEST PUSH2 0x1A04 SWAP2 SWAP1 PUSH2 0x4890 JUMP JUMPDEST PUSH1 0xB DUP2 SWAP1 SSTORE POP PUSH2 0x1A1E PUSH8 0xC166609301589C10 PUSH1 0xC0 SHL PUSH2 0x301C JUMP JUMPDEST PUSH2 0x1A32 PUSH8 0x702FD41803DF4446 PUSH1 0xC0 SHL PUSH2 0x301C JUMP JUMPDEST PUSH32 0xF6B83C7584863D40EA9CE49856D7B6AC07E575A8B81B422C1212E7CBC0F3A811 PUSH1 0xB SLOAD PUSH1 0x40 MLOAD PUSH2 0x1A63 SWAP2 SWAP1 PUSH2 0x43B8 JUMP JUMPDEST PUSH1 0x40 MLOAD DUP1 SWAP2 SUB SWAP1 LOG1 PUSH2 0x1A7F PUSH8 0x34C31D890F8898C6 PUSH1 0xC0 SHL PUSH2 0x301C JUMP JUMPDEST DUP2 PUSH1 0x7 DUP5 DUP2 SLOAD DUP2 LT PUSH2 0x1A94 JUMPI PUSH2 0x1A93 PUSH2 0x4790 JUMP JUMPDEST JUMPDEST SWAP1 PUSH1 0x0 MSTORE PUSH1 0x20 PUSH1 0x0 KECCAK256 SWAP1 PUSH1 0x4 MUL ADD PUSH1 0x1 ADD DUP2 SWAP1 SSTORE POP PUSH2 0x1ABD PUSH8 0x4B64F918BDBE05BF PUSH1 0xC0 SHL PUSH2 0x301C JUMP JUMPDEST PUSH2 0x1AD1 PUSH8 0x1ED66B9E3BEE51A3 PUSH1 0xC0 SHL PUSH2 0x301C JUMP JUMPDEST DUP3 PUSH32 0x144685F4A2C1908FDCB1C5450BFADD3B08AA5071D5DF19D1A9B54C0DE1D061B0 DUP4 PUSH1 0x40 MLOAD PUSH2 0x1B01 SWAP2 SWAP1 PUSH2 0x43B8 JUMP JUMPDEST PUSH1 0x40 MLOAD DUP1 SWAP2 SUB SWAP1 LOG2 PUSH2 0x1B11 PUSH2 0x3C2B JUMP JUMPDEST POP POP POP JUMP JUMPDEST PUSH2 0x1B2A PUSH8 0x5E8A9ACFC5A79AFA PUSH1 0xC0 SHL PUSH2 0x301C JUMP JUMPDEST PUSH2 0x1B3E PUSH8 0x6C582E5CD097EF71 PUSH1 0xC0 SHL PUSH2 0x301C JUMP JUMPDEST PUSH2 0x1B52 PUSH8 0xD275A920B64CC288 PUSH1 0xC0 SHL PUSH2 0x301C JUMP JUMPDEST PUSH1 0x0 PUSH1 0x9 PUSH1 0x0 DUP4 PUSH20 0xFFFFFFFFFFFFFFFFFFFFFFFFFFFFFFFFFFFFFFFF AND PUSH20 0xFFFFFFFFFFFFFFFFFFFFFFFFFFFFFFFFFFFFFFFF AND DUP2 MSTORE PUSH1 0x20 ADD SWAP1 DUP2 MSTORE PUSH1 0x20 ADD PUSH1 0x0 KECCAK256 SLOAD SWAP1 POP PUSH2 0x1BAA PUSH8 0x9FE4B517A9D98A2A PUSH1 0xC0 SHL PUSH2 0x301C JUMP JUMPDEST PUSH2 0x1BBE PUSH8 0xF015796C36C5171B PUSH1 0xC0 SHL PUSH2 0x301C JUMP JUMPDEST PUSH1 0x0 PUSH1 0x7 DUP3 DUP2 SLOAD DUP2 LT PUSH2 0x1BD4 JUMPI PUSH2 0x1BD3 PUSH2 0x4790 JUMP JUMPDEST JUMPDEST SWAP1 PUSH1 0x0 MSTORE PUSH1 0x20 PUSH1 0x0 KECCAK256 SWAP1 PUSH1 0x4 MUL ADD SWAP1 POP PUSH2 0x1BF8 PUSH8 0xE82B76561887540F PUSH1 0xC0 SHL PUSH2 0x301C JUMP JUMPDEST PUSH2 0x1C0C PUSH8 0xBBB489C99739A184 PUSH1 0xC0 SHL PUSH2 0x301C JUMP JUMPDEST PUSH1 0x0 PUSH1 0x8 PUSH1 0x0 DUP5 DUP2 MSTORE PUSH1 0x20 ADD SWAP1 DUP2 MSTORE PUSH1 0x20 ADD PUSH1 0x0 KECCAK256 PUSH1 0x0 CALLER PUSH20 0xFFFFFFFFFFFFFFFFFFFFFFFFFFFFFFFFFFFFFFFF AND PUSH20 0xFFFFFFFFFFFFFFFFFFFFFFFFFFFFFFFFFFFFFFFF AND DUP2 MSTORE PUSH1 0x20 ADD SWAP1 DUP2 MSTORE PUSH1 0x20 ADD PUSH1 0x0 KECCAK256 SWAP1 POP PUSH2 0x1C74 PUSH8 0xF6794854BD1E2EA7 PUSH1 0xC0 SHL PUSH2 0x301C JUMP JUMPDEST PUSH2 0x1C88 PUSH8 0x47BED4DD5AABA32E PUSH1 0xC0 SHL PUSH2 0x301C JUMP JUMPDEST PUSH2 0x1CDB CALLER DUP3 PUSH1 0x0 ADD SLOAD DUP5 PUSH1 0x0 ADD PUSH1 0x0 SWAP1 SLOAD SWAP1 PUSH2 0x100 EXP SWAP1 DIV PUSH20 0xFFFFFFFFFFFFFFFFFFFFFFFFFFFFFFFFFFFFFFFF AND PUSH20 0xFFFFFFFFFFFFFFFFFFFFFFFFFFFFFFFFFFFFFFFF AND PUSH2 0x3C34 SWAP1 SWAP3 SWAP2 SWAP1 PUSH4 0xFFFFFFFF AND JUMP JUMPDEST PUSH2 0x1CEF PUSH8 0x73968042E6643A8D PUSH1 0xC0 SHL PUSH2 0x301C JUMP JUMPDEST PUSH2 0x1D03 PUSH8 0x110FF58B553987A0 PUSH1 0xC0 SHL PUSH2 0x301C JUMP JUMPDEST DUP3 CALLER PUSH20 0xFFFFFFFFFFFFFFFFFFFFFFFFFFFFFFFFFFFFFFFF AND PUSH32 0xBB757047C2B5F3974FE26B7C10F732E7BCE710B0952A71082702781E62AE0595 DUP4 PUSH1 0x0 ADD SLOAD PUSH1 0x40 MLOAD PUSH2 0x1D4E SWAP2 SWAP1 PUSH2 0x43B8 JUMP JUMPDEST PUSH1 0x40 MLOAD DUP1 SWAP2 SUB SWAP1 LOG3 PUSH2 0x1D6A PUSH8 0x48615368A4299C96 PUSH1 0xC0 SHL PUSH2 0x301C JUMP JUMPDEST PUSH1 0x0 DUP2 PUSH1 0x0 ADD DUP2 SWAP1 SSTORE POP PUSH2 0x1D88 PUSH8 0xCE7C1D2314DC63AD PUSH1 0xC0 SHL PUSH2 0x301C JUMP JUMPDEST PUSH1 0x0 DUP2 PUSH1 0x1 ADD DUP2 SWAP1 SSTORE POP PUSH2 0x1DA6 PUSH8 0xABB1BA176F1BE819 PUSH1 0xC0 SHL PUSH2 0x301C JUMP JUMPDEST PUSH1 0x0 DUP2 PUSH1 0x4 ADD DUP2 SWAP1 SSTORE POP POP POP POP POP JUMP JUMPDEST PUSH2 0x1DBE PUSH2 0x3A7F JUMP JUMPDEST PUSH2 0x1DC8 PUSH1 0x0 PUSH2 0x3CBA JUMP JUMPDEST JUMP JUMPDEST PUSH1 0x4 SLOAD DUP2 JUMP JUMPDEST PUSH2 0x1DE4 PUSH8 0xD64B39FE02249F66 PUSH1 0xC0 SHL PUSH2 0x301C JUMP JUMPDEST PUSH2 0x1DEC PUSH2 0x3A7F JUMP JUMPDEST PUSH2 0x1E00 PUSH8 0xC7089DC4941DABCD PUSH1 0xC0 SHL PUSH2 0x301C JUMP JUMPDEST PUSH2 0x1E14 PUSH8 0xDF554FBB6EA48ECA PUSH1 0xC0 SHL PUSH2 0x301C JUMP JUMPDEST PUSH2 0x1E1C PUSH2 0x3AFD JUMP JUMPDEST PUSH2 0x1E30 PUSH8 0xAA75B62D794725FE PUSH1 0xC0 SHL PUSH2 0x301C JUMP JUMPDEST PUSH2 0x1E44 PUSH8 0x75F53D1F02F45295 PUSH1 0xC0 SHL PUSH2 0x301C JUMP JUMPDEST PUSH2 0x1E58 PUSH8 0x5BF9F3055FEA2D26 PUSH1 0xC0 SHL PUSH2 0x301C JUMP JUMPDEST PUSH2 0x1E6C PUSH8 0x74EFBE0F623D8EB3 PUSH1 0xC0 SHL PUSH2 0x301C JUMP JUMPDEST DUP1 ISZERO PUSH2 0x1EBB JUMPI PUSH2 0x1E86 PUSH8 0xC1B491B49CF1CCE9 PUSH1 0xC0 SHL PUSH2 0x301C JUMP JUMPDEST PUSH2 0x1E9A PUSH8 0x8BD640BFEB5676E PUSH1 0xC0 SHL PUSH2 0x301C JUMP JUMPDEST PUSH2 0x1EAE PUSH8 0x4BE19219A7DF32CD PUSH1 0xC0 SHL PUSH2 0x301C JUMP JUMPDEST PUSH2 0x1EB6 PUSH2 0x3B4C JUMP JUMPDEST PUSH2 0x1ED0 JUMP JUMPDEST PUSH2 0x1ECF PUSH8 0x3DD2C3624BD19A67 PUSH1 0xC0 SHL PUSH2 0x301C JUMP JUMPDEST JUMPDEST PUSH2 0x1EE4 PUSH8 0x281F392166FB951B PUSH1 0xC0 SHL PUSH2 0x301C JUMP JUMPDEST DUP2 PUSH1 0x6 DUP2 SWAP1 SSTORE POP PUSH2 0x1EFF PUSH8 0x1DB745186BEDF09F PUSH1 0xC0 SHL PUSH2 0x301C JUMP JUMPDEST PUSH2 0x1F13 PUSH8 0x3308AD3563129392 PUSH1 0xC0 SHL PUSH2 0x301C JUMP JUMPDEST PUSH32 0x5D7C78D0EE3CE6196F90E74ED58C0ADA9AC7CCC47D3ACA0547AC893776F03826 DUP3 PUSH1 0x40 MLOAD PUSH2 0x1F42 SWAP2 SWAP1 PUSH2 0x43B8 JUMP JUMPDEST PUSH1 0x40 MLOAD DUP1 SWAP2 SUB SWAP1 LOG1 PUSH2 0x1F52 PUSH2 0x3C2B JUMP JUMPDEST POP POP JUMP JUMPDEST PUSH1 0x0 DUP1 PUSH1 0x0 DUP1 PUSH1 0x0 PUSH2 0x1F72 PUSH8 0xF75372A36517E22A PUSH1 0xC0 SHL PUSH2 0x301C JUMP JUMPDEST PUSH2 0x1F86 PUSH8 0x811056BC087889EE PUSH1 0xC0 SHL PUSH2 0x301C JUMP JUMPDEST PUSH2 0x1F9A PUSH8 0xE72BA7A58A2CD1A4 PUSH1 0xC0 SHL PUSH2 0x301C JUMP JUMPDEST PUSH1 0x6 SLOAD PUSH1 0x2 SLOAD PUSH1 0x3 SLOAD PUSH1 0x4 SLOAD PUSH1 0x5 SLOAD SWAP5 POP SWAP5 POP SWAP5 POP SWAP5 POP SWAP5 POP SWAP1 SWAP2 SWAP3 SWAP4 SWAP5 JUMP JUMPDEST PUSH1 0x6 SLOAD DUP2 JUMP JUMPDEST PUSH1 0x0 DUP1 PUSH1 0x0 SWAP1 SLOAD SWAP1 PUSH2 0x100 EXP SWAP1 DIV PUSH20 0xFFFFFFFFFFFFFFFFFFFFFFFFFFFFFFFFFFFFFFFF AND SWAP1 POP SWAP1 JUMP JUMPDEST PUSH1 0x8 PUSH1 0x20 MSTORE DUP2 PUSH1 0x0 MSTORE PUSH1 0x40 PUSH1 0x0 KECCAK256 PUSH1 0x20 MSTORE DUP1 PUSH1 0x0 MSTORE PUSH1 0x40 PUSH1 0x0 KECCAK256 PUSH1 0x0 SWAP2 POP SWAP2 POP POP DUP1 PUSH1 0x0 ADD SLOAD SWAP1 DUP1 PUSH1 0x1 ADD SLOAD SWAP1 DUP1 PUSH1 0x2 ADD SLOAD SWAP1 DUP1 PUSH1 0x3 ADD SLOAD SWAP1 DUP1 PUSH1 0x4 ADD SLOAD SWAP1 POP DUP6 JUMP JUMPDEST PUSH1 0x0 PUSH2 0x2042 PUSH8 0xDAFF31BA15670397 PUSH1 0xC0 SHL PUSH2 0x301C JUMP JUMPDEST PUSH2 0x2056 PUSH8 0x55CAA6B95C278EAB PUSH1 0xC0 SHL PUSH2 0x301C JUMP JUMPDEST PUSH2 0x206A PUSH8 0x614DD1B673A2629D PUSH1 0xC0 SHL PUSH2 0x301C JUMP JUMPDEST PUSH1 0x7 DUP1 SLOAD SWAP1 POP SWAP1 POP SWAP1 JUMP JUMPDEST PUSH2 0x2089 PUSH8 0x354D84E5D1DB41DA PUSH1 0xC0 SHL PUSH2 0x301C JUMP JUMPDEST PUSH2 0x2091 PUSH2 0x3A7F JUMP JUMPDEST PUSH2 0x20A5 PUSH8 0xAA9834C7B6D3F08D PUSH1 0xC0 SHL PUSH2 0x301C JUMP JUMPDEST PUSH2 0x20B9 PUSH8 0xE78D5B5B4B1B8781 PUSH1 0xC0 SHL PUSH2 0x301C JUMP JUMPDEST PUSH2 0x20C1 PUSH2 0x3AFD JUMP JUMPDEST PUSH2 0x20D5 PUSH8 0xB7E99360A9C28546 PUSH1 0xC0 SHL PUSH2 0x301C JUMP JUMPDEST PUSH2 0x20E9 PUSH8 0x57A2AFF0EB92E0E7 PUSH1 0xC0 SHL PUSH2 0x301C JUMP JUMPDEST PUSH2 0x20FD PUSH8 0xCEA974032651DC77 PUSH1 0xC0 SHL PUSH2 0x301C JUMP JUMPDEST DUP1 PUSH1 0x2 DUP2 SWAP1 SSTORE POP PUSH2 0x2118 PUSH8 0x1F1AE03E1C0E4FFE PUSH1 0xC0 SHL PUSH2 0x301C JUMP JUMPDEST PUSH2 0x212C PUSH8 0xF458771240AA10DB PUSH1 0xC0 SHL PUSH2 0x301C JUMP JUMPDEST PUSH32 0xE97641F0B8F36BFD5D070B698BFEE6382FF613820CF9E56A7E4DD4723CC04DC5 DUP2 PUSH1 0x40 MLOAD PUSH2 0x215B SWAP2 SWAP1 PUSH2 0x43B8 JUMP JUMPDEST PUSH1 0x40 MLOAD DUP1 SWAP2 SUB SWAP1 LOG1 PUSH2 0x216B PUSH2 0x3C2B JUMP JUMPDEST POP JUMP JUMPDEST PUSH1 0x2 SLOAD DUP2 JUMP JUMPDEST PUSH1 0x0 PUSH2 0x218A PUSH8 0x5A4F2730F1E637B6 PUSH1 0xC0 SHL PUSH2 0x301C JUMP JUMPDEST PUSH2 0x219E PUSH8 0x4454FC43D6C1CC5E PUSH1 0xC0 SHL PUSH2 0x301C JUMP JUMPDEST PUSH2 0x21B2 PUSH8 0xC90F07E514896C7B PUSH1 0xC0 SHL PUSH2 0x301C JUMP JUMPDEST PUSH32 0x0 PUSH20 0xFFFFFFFFFFFFFFFFFFFFFFFFFFFFFFFFFFFFFFFF AND PUSH4 0x70A08231 ADDRESS PUSH1 0x40 MLOAD DUP3 PUSH4 0xFFFFFFFF AND PUSH1 0xE0 SHL DUP2 MSTORE PUSH1 0x4 ADD PUSH2 0x220B SWAP2 SWAP1 PUSH2 0x46C7 JUMP JUMPDEST PUSH1 0x20 PUSH1 0x40 MLOAD DUP1 DUP4 SUB DUP2 DUP7 GAS STATICCALL ISZERO DUP1 ISZERO PUSH2 0x2228 JUMPI RETURNDATASIZE PUSH1 0x0 DUP1 RETURNDATACOPY RETURNDATASIZE PUSH1 0x0 REVERT JUMPDEST POP POP POP POP PUSH1 0x40 MLOAD RETURNDATASIZE PUSH1 0x1F NOT PUSH1 0x1F DUP3 ADD AND DUP3 ADD DUP1 PUSH1 0x40 MSTORE POP DUP2 ADD SWAP1 PUSH2 0x224C SWAP2 SWAP1 PUSH2 0x490D JUMP JUMPDEST SWAP1 POP SWAP1 JUMP JUMPDEST PUSH2 0x2259 PUSH2 0x3A7F JUMP JUMPDEST PUSH1 0x0 PUSH20 0xFFFFFFFFFFFFFFFFFFFFFFFFFFFFFFFFFFFFFFFF AND DUP2 PUSH20 0xFFFFFFFFFFFFFFFFFFFFFFFFFFFFFFFFFFFFFFFF AND SUB PUSH2 0x22C8 JUMPI PUSH1 0x40 MLOAD PUSH32 0x8C379A000000000000000000000000000000000000000000000000000000000 DUP2 MSTORE PUSH1 0x4 ADD PUSH2 0x22BF SWAP1 PUSH2 0x49BD JUMP JUMPDEST PUSH1 0x40 MLOAD DUP1 SWAP2 SUB SWAP1 REVERT JUMPDEST PUSH2 0x22D1 DUP2 PUSH2 0x3CBA JUMP JUMPDEST POP JUMP JUMPDEST PUSH2 0x22E8 PUSH8 0xE98AFD1CAC2C2FBD PUSH1 0xC0 SHL PUSH2 0x301C JUMP JUMPDEST PUSH2 0x22FC PUSH8 0x83EE2ADB15566176 PUSH1 0xC0 SHL PUSH2 0x301C JUMP JUMPDEST PUSH2 0x2310 PUSH8 0xBC102FDC22917C50 PUSH1 0xC0 SHL PUSH2 0x301C JUMP JUMPDEST PUSH1 0x0 PUSH1 0x9 PUSH1 0x0 DUP5 PUSH20 0xFFFFFFFFFFFFFFFFFFFFFFFFFFFFFFFFFFFFFFFF AND PUSH20 0xFFFFFFFFFFFFFFFFFFFFFFFFFFFFFFFFFFFFFFFF AND DUP2 MSTORE PUSH1 0x20 ADD SWAP1 DUP2 MSTORE PUSH1 0x20 ADD PUSH1 0x0 KECCAK256 SLOAD SWAP1 POP PUSH2 0x2368 PUSH8 0x473570FA5BE0A58 PUSH1 0xC0 SHL PUSH2 0x301C JUMP JUMPDEST PUSH2 0x237C PUSH8 0xFD6890AB89E68CF PUSH1 0xC0 SHL PUSH2 0x301C JUMP JUMPDEST PUSH1 0x0 PUSH1 0x7 DUP3 DUP2 SLOAD DUP2 LT PUSH2 0x2392 JUMPI PUSH2 0x2391 PUSH2 0x4790 JUMP JUMPDEST JUMPDEST SWAP1 PUSH1 0x0 MSTORE PUSH1 0x20 PUSH1 0x0 KECCAK256 SWAP1 PUSH1 0x4 MUL ADD SWAP1 POP PUSH2 0x23B6 PUSH8 0x29881F52427E07BB PUSH1 0xC0 SHL PUSH2 0x301C JUMP JUMPDEST PUSH2 0x23CA PUSH8 0x1DF6322C1C367E18 PUSH1 0xC0 SHL PUSH2 0x301C JUMP JUMPDEST PUSH1 0x0 PUSH1 0x8 PUSH1 0x0 DUP5 DUP2 MSTORE PUSH1 0x20 ADD SWAP1 DUP2 MSTORE PUSH1 0x20 ADD PUSH1 0x0 KECCAK256 PUSH1 0x0 CALLER PUSH20 0xFFFFFFFFFFFFFFFFFFFFFFFFFFFFFFFFFFFFFFFF AND PUSH20 0xFFFFFFFFFFFFFFFFFFFFFFFFFFFFFFFFFFFFFFFF AND DUP2 MSTORE PUSH1 0x20 ADD SWAP1 DUP2 MSTORE PUSH1 0x20 ADD PUSH1 0x0 KECCAK256 SWAP1 POP PUSH2 0x2432 PUSH8 0xE5889DA78F1E80CA PUSH1 0xC0 SHL PUSH2 0x301C JUMP JUMPDEST PUSH2 0x2446 PUSH8 0xD86203CCFB1A96ED PUSH1 0xC0 SHL PUSH2 0x301C JUMP JUMPDEST PUSH2 0x245A PUSH8 0x7168863DE5841C39 PUSH1 0xC0 SHL PUSH2 0x301C JUMP JUMPDEST DUP4 DUP2 PUSH1 0x0 ADD SLOAD LT ISZERO PUSH2 0x24A1 JUMPI PUSH1 0x40 MLOAD PUSH32 0x8C379A000000000000000000000000000000000000000000000000000000000 DUP2 MSTORE PUSH1 0x4 ADD PUSH2 0x2498 SWAP1 PUSH2 0x4A29 JUMP JUMPDEST PUSH1 0x40 MLOAD DUP1 SWAP2 SUB SWAP1 REVERT JUMPDEST PUSH2 0x24B5 PUSH8 0xEA002A072406108D PUSH1 0xC0 SHL PUSH2 0x301C JUMP JUMPDEST PUSH2 0x24C9 PUSH8 0xA456140AB8070063 PUSH1 0xC0 SHL PUSH2 0x301C JUMP JUMPDEST PUSH2 0x24DD PUSH8 0xC2E94C5C8AD3FEBE PUSH1 0xC0 SHL PUSH2 0x301C JUMP JUMPDEST PUSH2 0x24E6 DUP4 PUSH2 0x301F JUMP JUMPDEST PUSH2 0x24FA PUSH8 0xBEFD7A5F4F4CE264 PUSH1 0xC0 SHL PUSH2 0x301C JUMP JUMPDEST PUSH2 0x250E PUSH8 0xFB3ECCBCFAE46FB3 PUSH1 0xC0 SHL PUSH2 0x301C JUMP JUMPDEST PUSH1 0x0 DUP2 PUSH1 0x4 ADD SLOAD DUP3 PUSH1 0x1 ADD SLOAD PUSH5 0xE8D4A51000 DUP6 PUSH1 0x3 ADD SLOAD DUP6 PUSH1 0x0 ADD SLOAD PUSH2 0x2534 SWAP2 SWAP1 PUSH2 0x47EE JUMP JUMPDEST PUSH2 0x253E SWAP2 SWAP1 PUSH2 0x485F JUMP JUMPDEST PUSH2 0x2548 SWAP2 SWAP1 PUSH2 0x4890 JUMP JUMPDEST PUSH2 0x2552 SWAP2 SWAP1 PUSH2 0x48C4 JUMP JUMPDEST SWAP1 POP PUSH2 0x2568 PUSH8 0xDF1120B29C110E6E PUSH1 0xC0 SHL PUSH2 0x301C JUMP JUMPDEST PUSH2 0x257C PUSH8 0xBFB724DBA51CFFEC PUSH1 0xC0 SHL PUSH2 0x301C JUMP JUMPDEST PUSH1 0x0 DUP2 GT ISZERO PUSH2 0x25D3 JUMPI PUSH2 0x2599 PUSH8 0x83E2C264B09A810C PUSH1 0xC0 SHL PUSH2 0x301C JUMP JUMPDEST PUSH2 0x25AD PUSH8 0xA492D47FA90B91E4 PUSH1 0xC0 SHL PUSH2 0x301C JUMP JUMPDEST PUSH2 0x25C1 PUSH8 0x1204EDD0C07FCE9A PUSH1 0xC0 SHL PUSH2 0x301C JUMP JUMPDEST PUSH2 0x25CE DUP3 DUP3 PUSH1 0x1 DUP8 PUSH2 0x3379 JUMP JUMPDEST PUSH2 0x25E8 JUMP JUMPDEST PUSH2 0x25E7 PUSH8 0xE653B6AAB39B2DB7 PUSH1 0xC0 SHL PUSH2 0x301C JUMP JUMPDEST JUMPDEST PUSH2 0x25FC PUSH8 0x156A868FDCD7F6F4 PUSH1 0xC0 SHL PUSH2 0x301C JUMP JUMPDEST PUSH2 0x2610 PUSH8 0xFD987AD29C0936E5 PUSH1 0xC0 SHL PUSH2 0x301C JUMP JUMPDEST PUSH1 0x0 DUP6 GT ISZERO PUSH2 0x26D8 JUMPI PUSH2 0x262D PUSH8 0x364F033D160B7543 PUSH1 0xC0 SHL PUSH2 0x301C JUMP JUMPDEST PUSH2 0x2641 PUSH8 0xFF43F39794136FD9 PUSH1 0xC0 SHL PUSH2 0x301C JUMP JUMPDEST DUP5 DUP3 PUSH1 0x0 ADD PUSH1 0x0 DUP3 DUP3 SLOAD PUSH2 0x2655 SWAP2 SWAP1 PUSH2 0x4890 JUMP JUMPDEST SWAP3 POP POP DUP2 SWAP1 SSTORE POP PUSH2 0x2670 PUSH8 0x7059FF40694F0842 PUSH1 0xC0 SHL PUSH2 0x301C JUMP JUMPDEST PUSH2 0x2684 PUSH8 0xDCE2D6783F52754C PUSH1 0xC0 SHL PUSH2 0x301C JUMP JUMPDEST PUSH2 0x26D3 CALLER DUP7 DUP6 PUSH1 0x0 ADD PUSH1 0x0 SWAP1 SLOAD SWAP1 PUSH2 0x100 EXP SWAP1 DIV PUSH20 0xFFFFFFFFFFFFFFFFFFFFFFFFFFFFFFFFFFFFFFFF AND PUSH20 0xFFFFFFFFFFFFFFFFFFFFFFFFFFFFFFFFFFFFFFFF AND PUSH2 0x3C34 SWAP1 SWAP3 SWAP2 SWAP1 PUSH4 0xFFFFFFFF AND JUMP JUMPDEST PUSH2 0x26ED JUMP JUMPDEST PUSH2 0x26EC PUSH8 0xF6B46AE2B78B4F77 PUSH1 0xC0 SHL PUSH2 0x301C JUMP JUMPDEST JUMPDEST PUSH2 0x2701 PUSH8 0xA17F8FFF0B64E8C8 PUSH1 0xC0 SHL PUSH2 0x301C JUMP JUMPDEST PUSH5 0xE8D4A51000 DUP4 PUSH1 0x3 ADD SLOAD DUP4 PUSH1 0x0 ADD SLOAD PUSH2 0x271B SWAP2 SWAP1 PUSH2 0x47EE JUMP JUMPDEST PUSH2 0x2725 SWAP2 SWAP1 PUSH2 0x485F JUMP JUMPDEST DUP3 PUSH1 0x1 ADD DUP2 SWAP1 SSTORE POP PUSH2 0x2741 PUSH8 0xE99A4AED57B25CB9 PUSH1 0xC0 SHL PUSH2 0x301C JUMP JUMPDEST PUSH2 0x2755 PUSH8 0xD7FE2A59E2150C11 PUSH1 0xC0 SHL PUSH2 0x301C JUMP JUMPDEST DUP4 CALLER PUSH20 0xFFFFFFFFFFFFFFFFFFFFFFFFFFFFFFFFFFFFFFFF AND PUSH32 0xF279E6A1F5E320CCA91135676D9CB6E44CA8A08C0B88342BCDB1144F6511B568 DUP8 PUSH1 0x40 MLOAD PUSH2 0x279C SWAP2 SWAP1 PUSH2 0x43B8 JUMP JUMPDEST PUSH1 0x40 MLOAD DUP1 SWAP2 SUB SWAP1 LOG3 POP POP POP POP POP POP JUMP JUMPDEST PUSH2 0x27C0 PUSH8 0x8C5C82D90E6306D0 PUSH1 0xC0 SHL PUSH2 0x301C JUMP JUMPDEST PUSH2 0x27C8 PUSH2 0x3AFD JUMP JUMPDEST PUSH2 0x27DC PUSH8 0xC529134BE6CA4641 PUSH1 0xC0 SHL PUSH2 0x301C JUMP JUMPDEST PUSH2 0x27F0 PUSH8 0x97A2E01E6FD62E18 PUSH1 0xC0 SHL PUSH2 0x301C JUMP JUMPDEST PUSH2 0x2804 PUSH8 0xF9CC6C846AF8DDE0 PUSH1 0xC0 SHL PUSH2 0x301C JUMP JUMPDEST PUSH2 0x2818 PUSH8 0x687CD5F5BFAD4CEA PUSH1 0xC0 SHL PUSH2 0x301C JUMP JUMPDEST PUSH1 0x0 PUSH1 0x9 PUSH1 0x0 DUP6 PUSH20 0xFFFFFFFFFFFFFFFFFFFFFFFFFFFFFFFFFFFFFFFF AND PUSH20 0xFFFFFFFFFFFFFFFFFFFFFFFFFFFFFFFFFFFFFFFF AND DUP2 MSTORE PUSH1 0x20 ADD SWAP1 DUP2 MSTORE PUSH1 0x20 ADD PUSH1 0x0 KECCAK256 SLOAD SWAP1 POP PUSH2 0x2870 PUSH8 0x7F3F6C1C6CF57D6C PUSH1 0xC0 SHL PUSH2 0x301C JUMP JUMPDEST PUSH2 0x2884 PUSH8 0x66DDF3FE892A1FDD PUSH1 0xC0 SHL PUSH2 0x301C JUMP JUMPDEST PUSH1 0x0 PUSH1 0x7 DUP3 DUP2 SLOAD DUP2 LT PUSH2 0x289A JUMPI PUSH2 0x2899 PUSH2 0x4790 JUMP JUMPDEST JUMPDEST SWAP1 PUSH1 0x0 MSTORE PUSH1 0x20 PUSH1 0x0 KECCAK256 SWAP1 PUSH1 0x4 MUL ADD SWAP1 POP PUSH2 0x28BE PUSH8 0x1F84CE3F612BF6F8 PUSH1 0xC0 SHL PUSH2 0x301C JUMP JUMPDEST PUSH2 0x28D2 PUSH8 0xBF87743E74842453 PUSH1 0xC0 SHL PUSH2 0x301C JUMP JUMPDEST PUSH1 0x0 PUSH1 0x8 PUSH1 0x0 DUP5 DUP2 MSTORE PUSH1 0x20 ADD SWAP1 DUP2 MSTORE PUSH1 0x20 ADD PUSH1 0x0 KECCAK256 PUSH1 0x0 CALLER PUSH20 0xFFFFFFFFFFFFFFFFFFFFFFFFFFFFFFFFFFFFFFFF AND PUSH20 0xFFFFFFFFFFFFFFFFFFFFFFFFFFFFFFFFFFFFFFFF AND DUP2 MSTORE PUSH1 0x20 ADD SWAP1 DUP2 MSTORE PUSH1 0x20 ADD PUSH1 0x0 KECCAK256 SWAP1 POP PUSH2 0x293A PUSH8 0x89831FA94D076EED PUSH1 0xC0 SHL PUSH2 0x301C JUMP JUMPDEST PUSH2 0x294E PUSH8 0x18D00A736527E4B0 PUSH1 0xC0 SHL PUSH2 0x301C JUMP JUMPDEST PUSH2 0x2957 DUP4 PUSH2 0x301F JUMP JUMPDEST PUSH2 0x296B PUSH8 0xDFC66BD494B3A6CD PUSH1 0xC0 SHL PUSH2 0x301C JUMP JUMPDEST PUSH2 0x297F PUSH8 0x925879CD51DE2130 PUSH1 0xC0 SHL PUSH2 0x301C JUMP JUMPDEST PUSH1 0x0 DUP2 PUSH1 0x0 ADD SLOAD GT ISZERO PUSH2 0x2AA8 JUMPI PUSH2 0x29A0 PUSH8 0x9BF5CA8145046B9 PUSH1 0xC0 SHL PUSH2 0x301C JUMP JUMPDEST PUSH2 0x29B4 PUSH8 0xFE134DFB095E7716 PUSH1 0xC0 SHL PUSH2 0x301C JUMP JUMPDEST PUSH2 0x29C8 PUSH8 0x14DDA57857268BA8 PUSH1 0xC0 SHL PUSH2 0x301C JUMP JUMPDEST PUSH1 0x0 DUP2 PUSH1 0x4 ADD SLOAD DUP3 PUSH1 0x1 ADD SLOAD PUSH5 0xE8D4A51000 DUP6 PUSH1 0x3 ADD SLOAD DUP6 PUSH1 0x0 ADD SLOAD PUSH2 0x29EE SWAP2 SWAP1 PUSH2 0x47EE JUMP JUMPDEST PUSH2 0x29F8 SWAP2 SWAP1 PUSH2 0x485F JUMP JUMPDEST PUSH2 0x2A02 SWAP2 SWAP1 PUSH2 0x4890 JUMP JUMPDEST PUSH2 0x2A0C SWAP2 SWAP1 PUSH2 0x48C4 JUMP JUMPDEST SWAP1 POP PUSH2 0x2A22 PUSH8 0x3B41E17AC01F29C1 PUSH1 0xC0 SHL PUSH2 0x301C JUMP JUMPDEST PUSH2 0x2A36 PUSH8 0xAAD0CF5EC9ADB9C3 PUSH1 0xC0 SHL PUSH2 0x301C JUMP JUMPDEST PUSH1 0x0 DUP2 GT ISZERO PUSH2 0x2A8D JUMPI PUSH2 0x2A53 PUSH8 0x8135973C48C0E5B8 PUSH1 0xC0 SHL PUSH2 0x301C JUMP JUMPDEST PUSH2 0x2A67 PUSH8 0x9D9B8466009E5C5A PUSH1 0xC0 SHL PUSH2 0x301C JUMP JUMPDEST PUSH2 0x2A7B PUSH8 0x159B3D152C5AAA49 PUSH1 0xC0 SHL PUSH2 0x301C JUMP JUMPDEST PUSH2 0x2A88 DUP3 DUP3 PUSH1 0x0 DUP8 PUSH2 0x3379 JUMP JUMPDEST PUSH2 0x2AA2 JUMP JUMPDEST PUSH2 0x2AA1 PUSH8 0x7542D3243C75407 PUSH1 0xC0 SHL PUSH2 0x301C JUMP JUMPDEST JUMPDEST POP PUSH2 0x2ABD JUMP JUMPDEST PUSH2 0x2ABC PUSH8 0xCD93A234D1B89FB PUSH1 0xC0 SHL PUSH2 0x301C JUMP JUMPDEST JUMPDEST PUSH2 0x2AD1 PUSH8 0xAE9C85DC3F5A3F59 PUSH1 0xC0 SHL PUSH2 0x301C JUMP JUMPDEST PUSH2 0x2AE5 PUSH8 0xD33C5861399B42F1 PUSH1 0xC0 SHL PUSH2 0x301C JUMP JUMPDEST PUSH1 0x0 DUP6 GT ISZERO PUSH2 0x2B8E JUMPI PUSH2 0x2B02 PUSH8 0xE2013DAA351469CC PUSH1 0xC0 SHL PUSH2 0x301C JUMP JUMPDEST PUSH2 0x2B16 PUSH8 0x3D6B8205B24B914A PUSH1 0xC0 SHL PUSH2 0x301C JUMP JUMPDEST PUSH2 0x2B2A PUSH8 0x360AB2B2137CB0AC PUSH1 0xC0 SHL PUSH2 0x301C JUMP JUMPDEST PUSH2 0x2B5A DUP3 PUSH1 0x0 ADD PUSH1 0x0 SWAP1 SLOAD SWAP1 PUSH2 0x100 EXP SWAP1 DIV PUSH20 0xFFFFFFFFFFFFFFFFFFFFFFFFFFFFFFFFFFFFFFFF AND CALLER ADDRESS DUP9 PUSH2 0x3D7E JUMP JUMPDEST PUSH2 0x2B6E PUSH8 0xE244CFE2BA5D9CF2 PUSH1 0xC0 SHL PUSH2 0x301C JUMP JUMPDEST DUP5 DUP2 PUSH1 0x0 ADD PUSH1 0x0 DUP3 DUP3 SLOAD PUSH2 0x2B82 SWAP2 SWAP1 PUSH2 0x48C4 JUMP JUMPDEST SWAP3 POP POP DUP2 SWAP1 SSTORE POP PUSH2 0x2BA3 JUMP JUMPDEST PUSH2 0x2BA2 PUSH8 0x8D118D2CB6FE05FD PUSH1 0xC0 SHL PUSH2 0x301C JUMP JUMPDEST JUMPDEST PUSH2 0x2BB7 PUSH8 0xADD4F1050FE42DE3 PUSH1 0xC0 SHL PUSH2 0x301C JUMP JUMPDEST PUSH5 0xE8D4A51000 DUP3 PUSH1 0x3 ADD SLOAD DUP3 PUSH1 0x0 ADD SLOAD PUSH2 0x2BD1 SWAP2 SWAP1 PUSH2 0x47EE JUMP JUMPDEST PUSH2 0x2BDB SWAP2 SWAP1 PUSH2 0x485F JUMP JUMPDEST DUP2 PUSH1 0x1 ADD DUP2 SWAP1 SSTORE POP PUSH2 0x2BF7 PUSH8 0xD6AD5D0569E2FFD1 PUSH1 0xC0 SHL PUSH2 0x301C JUMP JUMPDEST TIMESTAMP DUP2 PUSH1 0x2 ADD DUP2 SWAP1 SSTORE POP PUSH2 0x2C14 PUSH8 0x474F6E5055023682 PUSH1 0xC0 SHL PUSH2 0x301C JUMP JUMPDEST PUSH2 0x2C28 PUSH8 0x39674C14A8770E27 PUSH1 0xC0 SHL PUSH2 0x301C JUMP JUMPDEST DUP3 CALLER PUSH20 0xFFFFFFFFFFFFFFFFFFFFFFFFFFFFFFFFFFFFFFFF AND PUSH32 0x90890809C654F11D6E72A28FA60149770A0D11EC6C92319D6CEB2BB0A4EA1A15 DUP8 PUSH1 0x40 MLOAD PUSH2 0x2C6F SWAP2 SWAP1 PUSH2 0x43B8 JUMP JUMPDEST PUSH1 0x40 MLOAD DUP1 SWAP2 SUB SWAP1 LOG3 PUSH2 0x2C8B PUSH8 0x6CEE1182BBAC0409 PUSH1 0xC0 SHL PUSH2 0x301C JUMP JUMPDEST PUSH2 0x2C9F PUSH8 0x8879DF65A574E089 PUSH1 0xC0 SHL PUSH2 0x301C JUMP JUMPDEST PUSH1 0x0 PUSH20 0xFFFFFFFFFFFFFFFFFFFFFFFFFFFFFFFFFFFFFFFF AND DUP5 PUSH20 0xFFFFFFFFFFFFFFFFFFFFFFFFFFFFFFFFFFFFFFFF AND EQ ISZERO DUP1 ISZERO PUSH2 0x2D08 JUMPI POP CALLER PUSH20 0xFFFFFFFFFFFFFFFFFFFFFFFFFFFFFFFFFFFFFFFF AND DUP5 PUSH20 0xFFFFFFFFFFFFFFFFFFFFFFFFFFFFFFFFFFFFFFFF AND EQ ISZERO JUMPDEST DUP1 ISZERO PUSH2 0x2D9F JUMPI POP DUP4 PUSH20 0xFFFFFFFFFFFFFFFFFFFFFFFFFFFFFFFFFFFFFFFF AND PUSH1 0xA PUSH1 0x0 CALLER PUSH20 0xFFFFFFFFFFFFFFFFFFFFFFFFFFFFFFFFFFFFFFFF AND PUSH20 0xFFFFFFFFFFFFFFFFFFFFFFFFFFFFFFFFFFFFFFFF AND DUP2 MSTORE PUSH1 0x20 ADD SWAP1 DUP2 MSTORE PUSH1 0x20 ADD PUSH1 0x0 KECCAK256 PUSH1 0x0 SWAP1 SLOAD SWAP1 PUSH2 0x100 EXP SWAP1 DIV PUSH20 0xFFFFFFFFFFFFFFFFFFFFFFFFFFFFFFFFFFFFFFFF AND PUSH20 0xFFFFFFFFFFFFFFFFFFFFFFFFFFFFFFFFFFFFFFFF AND EQ ISZERO JUMPDEST ISZERO PUSH2 0x2E4F JUMPI PUSH2 0x2DB8 PUSH8 0x1411CA53E807C271 PUSH1 0xC0 SHL PUSH2 0x301C JUMP JUMPDEST PUSH2 0x2DCC PUSH8 0x95BB15D7F142543C PUSH1 0xC0 SHL PUSH2 0x301C JUMP JUMPDEST DUP4 PUSH1 0xA PUSH1 0x0 CALLER PUSH20 0xFFFFFFFFFFFFFFFFFFFFFFFFFFFFFFFFFFFFFFFF AND PUSH20 0xFFFFFFFFFFFFFFFFFFFFFFFFFFFFFFFFFFFFFFFF AND DUP2 MSTORE PUSH1 0x20 ADD SWAP1 DUP2 MSTORE PUSH1 0x20 ADD PUSH1 0x0 KECCAK256 PUSH1 0x0 PUSH2 0x100 EXP DUP2 SLOAD DUP2 PUSH20 0xFFFFFFFFFFFFFFFFFFFFFFFFFFFFFFFFFFFFFFFF MUL NOT AND SWAP1 DUP4 PUSH20 0xFFFFFFFFFFFFFFFFFFFFFFFFFFFFFFFFFFFFFFFF AND MUL OR SWAP1 SSTORE POP PUSH2 0x2E64 JUMP JUMPDEST PUSH2 0x2E63 PUSH8 0x93A6241ABE635717 PUSH1 0xC0 SHL PUSH2 0x301C JUMP JUMPDEST JUMPDEST POP POP POP PUSH2 0x2E6F PUSH2 0x3C2B JUMP JUMPDEST POP POP POP JUMP JUMPDEST PUSH32 0x0 DUP2 JUMP JUMPDEST PUSH2 0x2EAC PUSH8 0x2AFC4D8EE90CB85 PUSH1 0xC0 SHL PUSH2 0x301C JUMP JUMPDEST PUSH2 0x2EB4 PUSH2 0x3A7F JUMP JUMPDEST PUSH2 0x2EC8 PUSH8 0x9AFABEC8814F7D4C PUSH1 0xC0 SHL PUSH2 0x301C JUMP JUMPDEST PUSH2 0x2EDC PUSH8 0x62F2CB2A61F741BB PUSH1 0xC0 SHL PUSH2 0x301C JUMP JUMPDEST PUSH2 0x2EE4 PUSH2 0x3AFD JUMP JUMPDEST PUSH2 0x2EF8 PUSH8 0x782FD0D8207AB888 PUSH1 0xC0 SHL PUSH2 0x301C JUMP JUMPDEST PUSH2 0x2F0C PUSH8 0xFB200047ACEE3884 PUSH1 0xC0 SHL PUSH2 0x301C JUMP JUMPDEST PUSH2 0x2F20 PUSH8 0x6FC3E07ECD981CB2 PUSH1 0xC0 SHL PUSH2 0x301C JUMP JUMPDEST PUSH2 0x2F34 PUSH8 0x3334B799E099F17 PUSH1 0xC0 SHL PUSH2 0x301C JUMP JUMPDEST PUSH1 0x0 DUP1 DUP3 GT DUP1 ISZERO PUSH2 0x2F55 JUMPI POP PUSH2 0x2F54 PUSH8 0x8DF57990CCC8CD21 PUSH1 0xC0 SHL PUSH2 0x3C19 JUMP JUMPDEST JUMPDEST DUP1 PUSH2 0x2F70 JUMPI POP PUSH2 0x2F6F PUSH8 0x40FFF0A2682455BF PUSH1 0xC0 SHL PUSH2 0x3C24 JUMP JUMPDEST JUMPDEST PUSH2 0x2F81 JUMPI PUSH2 0x2F7C PUSH2 0x2174 JUMP JUMPDEST PUSH2 0x2F83 JUMP JUMPDEST DUP2 JUMPDEST SWAP1 POP PUSH2 0x2F99 PUSH8 0xE00AF63E6E5FA0D8 PUSH1 0xC0 SHL PUSH2 0x301C JUMP JUMPDEST PUSH2 0x2FAD PUSH8 0xD05B266218F4780F PUSH1 0xC0 SHL PUSH2 0x301C JUMP JUMPDEST PUSH2 0x2FF8 CALLER DUP3 PUSH32 0x0 PUSH20 0xFFFFFFFFFFFFFFFFFFFFFFFFFFFFFFFFFFFFFFFF AND PUSH2 0x3C34 SWAP1 SWAP3 SWAP2 SWAP1 PUSH4 0xFFFFFFFF AND JUMP JUMPDEST POP PUSH2 0x3001 PUSH2 0x3C2B JUMP JUMPDEST POP JUMP JUMPDEST PUSH1 0x9 PUSH1 0x20 MSTORE DUP1 PUSH1 0x0 MSTORE PUSH1 0x40 PUSH1 0x0 KECCAK256 PUSH1 0x0 SWAP2 POP SWAP1 POP SLOAD DUP2 JUMP JUMPDEST POP JUMP JUMPDEST PUSH2 0x3033 PUSH8 0xBC63951BEEB73F47 PUSH1 0xC0 SHL PUSH2 0x301C JUMP JUMPDEST PUSH2 0x3047 PUSH8 0xAAE529702071EF1A PUSH1 0xC0 SHL PUSH2 0x301C JUMP JUMPDEST PUSH2 0x305B PUSH8 0x853C29274F832E79 PUSH1 0xC0 SHL PUSH2 0x301C JUMP JUMPDEST PUSH1 0x0 PUSH1 0x7 DUP3 DUP2 SLOAD DUP2 LT PUSH2 0x3071 JUMPI PUSH2 0x3070 PUSH2 0x4790 JUMP JUMPDEST JUMPDEST SWAP1 PUSH1 0x0 MSTORE PUSH1 0x20 PUSH1 0x0 KECCAK256 SWAP1 PUSH1 0x4 MUL ADD SWAP1 POP PUSH2 0x3095 PUSH8 0x3EE77E2A9AA3E77B PUSH1 0xC0 SHL PUSH2 0x301C JUMP JUMPDEST PUSH2 0x30A9 PUSH8 0x773342EDCF59B93B PUSH1 0xC0 SHL PUSH2 0x301C JUMP JUMPDEST DUP1 PUSH1 0x2 ADD SLOAD NUMBER GT PUSH2 0x30F6 JUMPI PUSH2 0x30C8 PUSH8 0x3E7E73963D5C1783 PUSH1 0xC0 SHL PUSH2 0x301C JUMP JUMPDEST PUSH2 0x30DC PUSH8 0x2BEA92B4DB51F9F6 PUSH1 0xC0 SHL PUSH2 0x301C JUMP JUMPDEST PUSH2 0x30F0 PUSH8 0x93DCA64F82CA7B5D PUSH1 0xC0 SHL PUSH2 0x301C JUMP JUMPDEST POP PUSH2 0x3376 JUMP JUMPDEST PUSH2 0x310A PUSH8 0x95678A300A33460B PUSH1 0xC0 SHL PUSH2 0x301C JUMP JUMPDEST PUSH2 0x311E PUSH8 0x95D84F3380B03C12 PUSH1 0xC0 SHL PUSH2 0x301C JUMP JUMPDEST PUSH2 0x3132 PUSH8 0x4BEE0FB37080F08F PUSH1 0xC0 SHL PUSH2 0x301C JUMP JUMPDEST PUSH1 0x0 DUP2 PUSH1 0x0 ADD PUSH1 0x0 SWAP1 SLOAD SWAP1 PUSH2 0x100 EXP SWAP1 DIV PUSH20 0xFFFFFFFFFFFFFFFFFFFFFFFFFFFFFFFFFFFFFFFF AND PUSH20 0xFFFFFFFFFFFFFFFFFFFFFFFFFFFFFFFFFFFFFFFF AND PUSH4 0x70A08231 ADDRESS PUSH1 0x40 MLOAD DUP3 PUSH4 0xFFFFFFFF AND PUSH1 0xE0 SHL DUP2 MSTORE PUSH1 0x4 ADD PUSH2 0x3191 SWAP2 SWAP1 PUSH2 0x46C7 JUMP JUMPDEST PUSH1 0x20 PUSH1 0x40 MLOAD DUP1 DUP4 SUB DUP2 DUP7 GAS STATICCALL ISZERO DUP1 ISZERO PUSH2 0x31AE JUMPI RETURNDATASIZE PUSH1 0x0 DUP1 RETURNDATACOPY RETURNDATASIZE PUSH1 0x0 REVERT JUMPDEST POP POP POP POP PUSH1 0x40 MLOAD RETURNDATASIZE PUSH1 0x1F NOT PUSH1 0x1F DUP3 ADD AND DUP3 ADD DUP1 PUSH1 0x40 MSTORE POP DUP2 ADD SWAP1 PUSH2 0x31D2 SWAP2 SWAP1 PUSH2 0x490D JUMP JUMPDEST SWAP1 POP PUSH2 0x31E8 PUSH8 0x978CA801046E9F50 PUSH1 0xC0 SHL PUSH2 0x301C JUMP JUMPDEST PUSH2 0x31FC PUSH8 0x89F9833FBE4AC84A PUSH1 0xC0 SHL PUSH2 0x301C JUMP JUMPDEST PUSH1 0x0 DUP2 SUB PUSH2 0x3264 JUMPI PUSH2 0x3218 PUSH8 0x52B089CF1EE25598 PUSH1 0xC0 SHL PUSH2 0x301C JUMP JUMPDEST PUSH2 0x322C PUSH8 0xB860A842AE7DA215 PUSH1 0xC0 SHL PUSH2 0x301C JUMP JUMPDEST NUMBER DUP3 PUSH1 0x2 ADD DUP2 SWAP1 SSTORE POP PUSH2 0x3249 PUSH8 0x12081D1DE2BD4170 PUSH1 0xC0 SHL PUSH2 0x301C JUMP JUMPDEST PUSH2 0x325D PUSH8 0x7C07D63030A0E2DE PUSH1 0xC0 SHL PUSH2 0x301C JUMP JUMPDEST POP POP PUSH2 0x3376 JUMP JUMPDEST PUSH2 0x3278 PUSH8 0x42D4E28D36E3CCD7 PUSH1 0xC0 SHL PUSH2 0x301C JUMP JUMPDEST PUSH2 0x328C PUSH8 0x7BB71160451C0683 PUSH1 0xC0 SHL PUSH2 0x301C JUMP JUMPDEST PUSH2 0x32A0 PUSH8 0x920B55EA75EA9A3A PUSH1 0xC0 SHL PUSH2 0x301C JUMP JUMPDEST PUSH1 0x0 DUP3 PUSH1 0x2 ADD SLOAD NUMBER PUSH2 0x32B2 SWAP2 SWAP1 PUSH2 0x4890 JUMP JUMPDEST SWAP1 POP PUSH2 0x32C8 PUSH8 0x50C8CFD31FC9C38E PUSH1 0xC0 SHL PUSH2 0x301C JUMP JUMPDEST PUSH2 0x32DC PUSH8 0xF80A4940F8717954 PUSH1 0xC0 SHL PUSH2 0x301C JUMP JUMPDEST PUSH1 0x0 PUSH1 0xB SLOAD DUP5 PUSH1 0x1 ADD SLOAD PUSH1 0x6 SLOAD DUP5 PUSH2 0x32F4 SWAP2 SWAP1 PUSH2 0x47EE JUMP JUMPDEST PUSH2 0x32FE SWAP2 SWAP1 PUSH2 0x47EE JUMP JUMPDEST PUSH2 0x3308 SWAP2 SWAP1 PUSH2 0x485F JUMP JUMPDEST SWAP1 POP PUSH2 0x331E PUSH8 0x849511FB52817E2E PUSH1 0xC0 SHL PUSH2 0x301C JUMP JUMPDEST DUP3 PUSH5 0xE8D4A51000 DUP3 PUSH2 0x3330 SWAP2 SWAP1 PUSH2 0x47EE JUMP JUMPDEST PUSH2 0x333A SWAP2 SWAP1 PUSH2 0x485F JUMP JUMPDEST DUP5 PUSH1 0x3 ADD PUSH1 0x0 DUP3 DUP3 SLOAD PUSH2 0x334D SWAP2 SWAP1 PUSH2 0x48C4 JUMP JUMPDEST SWAP3 POP POP DUP2 SWAP1 SSTORE POP PUSH2 0x3368 PUSH8 0xFCBDC6D9915D9866 PUSH1 0xC0 SHL PUSH2 0x301C JUMP JUMPDEST NUMBER DUP5 PUSH1 0x2 ADD DUP2 SWAP1 SSTORE POP POP POP POP POP JUMPDEST POP JUMP JUMPDEST PUSH2 0x338C PUSH7 0x2861EA3B13F123 PUSH1 0xC0 SHL PUSH2 0x301C JUMP JUMPDEST PUSH2 0x33A0 PUSH8 0x2724E240282B1D9C PUSH1 0xC0 SHL PUSH2 0x301C JUMP JUMPDEST PUSH2 0x33B4 PUSH8 0xCD8D5B454B5DAF9A PUSH1 0xC0 SHL PUSH2 0x301C JUMP JUMPDEST PUSH1 0x0 PUSH1 0x2 SLOAD DUP6 PUSH1 0x2 ADD SLOAD TIMESTAMP PUSH2 0x33C9 SWAP2 SWAP1 PUSH2 0x4890 JUMP JUMPDEST LT SWAP1 POP PUSH2 0x33E0 PUSH8 0x24FE28D08D0CE0E2 PUSH1 0xC0 SHL PUSH2 0x301C JUMP JUMPDEST PUSH2 0x33F4 PUSH8 0xCB1E7D0388E70DBF PUSH1 0xC0 SHL PUSH2 0x301C JUMP JUMPDEST PUSH1 0x0 PUSH1 0x3 SLOAD DUP7 PUSH1 0x3 ADD SLOAD TIMESTAMP PUSH2 0x3409 SWAP2 SWAP1 PUSH2 0x4890 JUMP JUMPDEST LT SWAP1 POP PUSH2 0x3420 PUSH8 0x9FA5B938D5B46972 PUSH1 0xC0 SHL PUSH2 0x301C JUMP JUMPDEST PUSH2 0x3434 PUSH8 0x67E918E316B6A385 PUSH1 0xC0 SHL PUSH2 0x301C JUMP JUMPDEST DUP1 ISZERO PUSH2 0x3470 JUMPI PUSH2 0x344E PUSH8 0x9573636635ABA126 PUSH1 0xC0 SHL PUSH2 0x301C JUMP JUMPDEST PUSH2 0x3462 PUSH8 0x84E5881519B2ECC2 PUSH1 0xC0 SHL PUSH2 0x301C JUMP JUMPDEST DUP5 DUP7 PUSH1 0x4 ADD DUP2 SWAP1 SSTORE POP PUSH2 0x3A77 JUMP JUMPDEST PUSH2 0x3484 PUSH8 0xA343C83D559E7793 PUSH1 0xC0 SHL PUSH2 0x301C JUMP JUMPDEST PUSH2 0x3498 PUSH8 0x7D5F8D0C4220B34 PUSH1 0xC0 SHL PUSH2 0x301C JUMP JUMPDEST PUSH2 0x34AC PUSH8 0x933D54D77387210D PUSH1 0xC0 SHL PUSH2 0x301C JUMP JUMPDEST PUSH1 0x0 DUP5 DUP1 ISZERO PUSH2 0x34B8 JUMPI POP DUP3 JUMPDEST DUP1 ISZERO PUSH2 0x34D4 JUMPI POP PUSH2 0x34D3 PUSH8 0xB055FE7AAEFDEBB5 PUSH1 0xC0 SHL PUSH2 0x3C19 JUMP JUMPDEST JUMPDEST DUP1 PUSH2 0x34EF JUMPI POP PUSH2 0x34EE PUSH8 0x97F723FE78809B44 PUSH1 0xC0 SHL PUSH2 0x3C24 JUMP JUMPDEST JUMPDEST PUSH2 0x34F9 JUMPI DUP6 PUSH2 0x3522 JUMP JUMPDEST PUSH2 0x2710 PUSH1 0x4 SLOAD PUSH2 0x2710 PUSH2 0x350C SWAP2 SWAP1 PUSH2 0x4890 JUMP JUMPDEST DUP8 PUSH2 0x3517 SWAP2 SWAP1 PUSH2 0x47EE JUMP JUMPDEST PUSH2 0x3521 SWAP2 SWAP1 PUSH2 0x485F JUMP JUMPDEST JUMPDEST SWAP1 POP PUSH2 0x3538 PUSH8 0xB0A12ED163DF7554 PUSH1 0xC0 SHL PUSH2 0x301C JUMP JUMPDEST PUSH2 0x354C PUSH8 0x921E6A343AD468AF PUSH1 0xC0 SHL PUSH2 0x301C JUMP JUMPDEST PUSH1 0x0 PUSH2 0x3556 PUSH2 0x2174 JUMP JUMPDEST SWAP1 POP PUSH2 0x356C PUSH8 0xE669031B37148394 PUSH1 0xC0 SHL PUSH2 0x301C JUMP JUMPDEST PUSH2 0x3580 PUSH8 0x830CBF621560D5F5 PUSH1 0xC0 SHL PUSH2 0x301C JUMP JUMPDEST DUP2 DUP2 LT ISZERO PUSH2 0x35B8 JUMPI PUSH2 0x359C PUSH8 0x9351C3F57740E5FB PUSH1 0xC0 SHL PUSH2 0x301C JUMP JUMPDEST PUSH2 0x35B0 PUSH8 0x32C1DED7C0286654 PUSH1 0xC0 SHL PUSH2 0x301C JUMP JUMPDEST DUP1 SWAP2 POP PUSH2 0x35CD JUMP JUMPDEST PUSH2 0x35CC PUSH8 0x9CB5BE0D33DF9FBC PUSH1 0xC0 SHL PUSH2 0x301C JUMP JUMPDEST JUMPDEST PUSH2 0x35E1 PUSH8 0xB9241D5FB36D221 PUSH1 0xC0 SHL PUSH2 0x301C JUMP JUMPDEST PUSH2 0x35F5 PUSH8 0xB1B3AF5823E0BC1C PUSH1 0xC0 SHL PUSH2 0x301C JUMP JUMPDEST PUSH1 0x0 DUP3 GT ISZERO PUSH2 0x3A24 JUMPI PUSH2 0x3612 PUSH8 0xBEFE7CAC7DFD92C6 PUSH1 0xC0 SHL PUSH2 0x301C JUMP JUMPDEST PUSH2 0x3626 PUSH8 0xC91F458E89C340A4 PUSH1 0xC0 SHL PUSH2 0x301C JUMP JUMPDEST PUSH2 0x363A PUSH8 0x8875FA9CA73EADAB PUSH1 0xC0 SHL PUSH2 0x301C JUMP JUMPDEST PUSH2 0x3685 CALLER DUP4 PUSH32 0x0 PUSH20 0xFFFFFFFFFFFFFFFFFFFFFFFFFFFFFFFFFFFFFFFF AND PUSH2 0x3C34 SWAP1 SWAP3 SWAP2 SWAP1 PUSH4 0xFFFFFFFF AND JUMP JUMPDEST PUSH2 0x3699 PUSH8 0xB5274E2833C1ADB6 PUSH1 0xC0 SHL PUSH2 0x301C JUMP JUMPDEST PUSH2 0x36AD PUSH8 0x48B8675637770E0D PUSH1 0xC0 SHL PUSH2 0x301C JUMP JUMPDEST DUP5 CALLER PUSH20 0xFFFFFFFFFFFFFFFFFFFFFFFFFFFFFFFFFFFFFFFF AND PUSH32 0x71BAB65CED2E5750775A0613BE067DF48EF06CF92A496EBF7663AE0660924954 DUP5 PUSH1 0x40 MLOAD PUSH2 0x36F4 SWAP2 SWAP1 PUSH2 0x43B8 JUMP JUMPDEST PUSH1 0x40 MLOAD DUP1 SWAP2 SUB SWAP1 LOG3 PUSH2 0x3710 PUSH8 0x7448FF5BD108C4A7 PUSH1 0xC0 SHL PUSH2 0x301C JUMP JUMPDEST PUSH2 0x3724 PUSH8 0xB1BD12800F960AF7 PUSH1 0xC0 SHL PUSH2 0x301C JUMP JUMPDEST PUSH1 0x0 PUSH1 0xA PUSH1 0x0 CALLER PUSH20 0xFFFFFFFFFFFFFFFFFFFFFFFFFFFFFFFFFFFFFFFF AND PUSH20 0xFFFFFFFFFFFFFFFFFFFFFFFFFFFFFFFFFFFFFFFF AND DUP2 MSTORE PUSH1 0x20 ADD SWAP1 DUP2 MSTORE PUSH1 0x20 ADD PUSH1 0x0 KECCAK256 PUSH1 0x0 SWAP1 SLOAD SWAP1 PUSH2 0x100 EXP SWAP1 DIV PUSH20 0xFFFFFFFFFFFFFFFFFFFFFFFFFFFFFFFFFFFFFFFF AND SWAP1 POP PUSH2 0x379C PUSH8 0x5B8CE6194D61C4B7 PUSH1 0xC0 SHL PUSH2 0x301C JUMP JUMPDEST PUSH2 0x37B0 PUSH8 0x399CC2D468FA4FED PUSH1 0xC0 SHL PUSH2 0x301C JUMP JUMPDEST PUSH1 0x0 PUSH20 0xFFFFFFFFFFFFFFFFFFFFFFFFFFFFFFFFFFFFFFFF AND DUP2 PUSH20 0xFFFFFFFFFFFFFFFFFFFFFFFFFFFFFFFFFFFFFFFF AND EQ PUSH2 0x3A09 JUMPI PUSH2 0x37F8 PUSH8 0x2634AE0E6BB74E2A PUSH1 0xC0 SHL PUSH2 0x301C JUMP JUMPDEST PUSH2 0x380C PUSH8 0x868AFBBF88470B8C PUSH1 0xC0 SHL PUSH2 0x301C JUMP JUMPDEST PUSH2 0x2710 PUSH1 0x5 SLOAD DUP5 PUSH2 0x381D SWAP2 SWAP1 PUSH2 0x47EE JUMP JUMPDEST PUSH2 0x3827 SWAP2 SWAP1 PUSH2 0x485F JUMP JUMPDEST SWAP3 POP PUSH2 0x383D PUSH8 0xCCE81778F004958A PUSH1 0xC0 SHL PUSH2 0x301C JUMP JUMPDEST PUSH2 0x3845 PUSH2 0x2174 JUMP JUMPDEST SWAP2 POP PUSH2 0x385B PUSH8 0x46B2B052F2D0CB38 PUSH1 0xC0 SHL PUSH2 0x301C JUMP JUMPDEST PUSH2 0x386F PUSH8 0x1B8D34B9EF1F41D7 PUSH1 0xC0 SHL PUSH2 0x301C JUMP JUMPDEST DUP3 DUP3 LT ISZERO PUSH2 0x38A7 JUMPI PUSH2 0x388B PUSH8 0x8758CCA99E2404C5 PUSH1 0xC0 SHL PUSH2 0x301C JUMP JUMPDEST PUSH2 0x389F PUSH8 0x24B60BF849E9287F PUSH1 0xC0 SHL PUSH2 0x301C JUMP JUMPDEST DUP2 SWAP3 POP PUSH2 0x38BC JUMP JUMPDEST PUSH2 0x38BB PUSH8 0x68461D8205D657B6 PUSH1 0xC0 SHL PUSH2 0x301C JUMP JUMPDEST JUMPDEST PUSH2 0x38D0 PUSH8 0xA847D8E59A3EBEE4 PUSH1 0xC0 SHL PUSH2 0x301C JUMP JUMPDEST PUSH2 0x38E4 PUSH8 0xDEBB670BBF16993B PUSH1 0xC0 SHL PUSH2 0x301C JUMP JUMPDEST PUSH1 0x0 DUP4 GT ISZERO PUSH2 0x39EF JUMPI PUSH2 0x3901 PUSH8 0xB1D01E2D0529EB00 PUSH1 0xC0 SHL PUSH2 0x301C JUMP JUMPDEST PUSH2 0x3915 PUSH8 0xC4BE7F78E71ECED4 PUSH1 0xC0 SHL PUSH2 0x301C JUMP JUMPDEST PUSH2 0x3929 PUSH8 0x8C78BA1A685AA605 PUSH1 0xC0 SHL PUSH2 0x301C JUMP JUMPDEST PUSH2 0x3974 DUP2 DUP5 PUSH32 0x0 PUSH20 0xFFFFFFFFFFFFFFFFFFFFFFFFFFFFFFFFFFFFFFFF AND PUSH2 0x3C34 SWAP1 SWAP3 SWAP2 SWAP1 PUSH4 0xFFFFFFFF AND JUMP JUMPDEST PUSH2 0x3988 PUSH8 0xE67310AB38F9320C PUSH1 0xC0 SHL PUSH2 0x301C JUMP JUMPDEST PUSH2 0x399C PUSH8 0x920EDFB2BDE247BD PUSH1 0xC0 SHL PUSH2 0x301C JUMP JUMPDEST DUP1 PUSH20 0xFFFFFFFFFFFFFFFFFFFFFFFFFFFFFFFFFFFFFFFF AND PUSH32 0x4B20935B234F45FDA390D2DF59D92B7BB8BED322D3BC8764E826CFFF50007D5 DUP5 PUSH1 0x40 MLOAD PUSH2 0x39E2 SWAP2 SWAP1 PUSH2 0x43B8 JUMP JUMPDEST PUSH1 0x40 MLOAD DUP1 SWAP2 SUB SWAP1 LOG2 PUSH2 0x3A04 JUMP JUMPDEST PUSH2 0x3A03 PUSH8 0xD616FCABD63A78A7 PUSH1 0xC0 SHL PUSH2 0x301C JUMP JUMPDEST JUMPDEST PUSH2 0x3A1E JUMP JUMPDEST PUSH2 0x3A1D PUSH8 0x3FA1823154E0DF4F PUSH1 0xC0 SHL PUSH2 0x301C JUMP JUMPDEST JUMPDEST POP PUSH2 0x3A39 JUMP JUMPDEST PUSH2 0x3A38 PUSH8 0xCD9867B0DE946259 PUSH1 0xC0 SHL PUSH2 0x301C JUMP JUMPDEST JUMPDEST PUSH2 0x3A4D PUSH8 0xF42AFF7EA8CF6A65 PUSH1 0xC0 SHL PUSH2 0x301C JUMP JUMPDEST PUSH1 0x0 DUP9 PUSH1 0x4 ADD DUP2 SWAP1 SSTORE POP PUSH2 0x3A6B PUSH8 0x49F4C78BDA1F0306 PUSH1 0xC0 SHL PUSH2 0x301C JUMP JUMPDEST TIMESTAMP DUP9 PUSH1 0x3 ADD DUP2 SWAP1 SSTORE POP POP POP JUMPDEST POP POP POP POP POP POP JUMP JUMPDEST PUSH2 0x3A87 PUSH2 0x3FAA JUMP JUMPDEST PUSH20 0xFFFFFFFFFFFFFFFFFFFFFFFFFFFFFFFFFFFFFFFF AND PUSH2 0x3AA5 PUSH2 0x1FC0 JUMP JUMPDEST PUSH20 0xFFFFFFFFFFFFFFFFFFFFFFFFFFFFFFFFFFFFFFFF AND EQ PUSH2 0x3AFB JUMPI PUSH1 0x40 MLOAD PUSH32 0x8C379A000000000000000000000000000000000000000000000000000000000 DUP2 MSTORE PUSH1 0x4 ADD PUSH2 0x3AF2 SWAP1 PUSH2 0x4A95 JUMP JUMPDEST PUSH1 0x40 MLOAD DUP1 SWAP2 SUB SWAP1 REVERT JUMPDEST JUMP JUMPDEST PUSH1 0x2 PUSH1 0x1 SLOAD SUB PUSH2 0x3B42 JUMPI PUSH1 0x40 MLOAD PUSH32 0x8C379A000000000000000000000000000000000000000000000000000000000 DUP2 MSTORE PUSH1 0x4 ADD PUSH2 0x3B39 SWAP1 PUSH2 0x4B01 JUMP JUMPDEST PUSH1 0x40 MLOAD DUP1 SWAP2 SUB SWAP1 REVERT JUMPDEST PUSH1 0x2 PUSH1 0x1 DUP2 SWAP1 SSTORE POP JUMP JUMPDEST PUSH2 0x3B60 PUSH8 0x9DAFE529AF3E5864 PUSH1 0xC0 SHL PUSH2 0x301C JUMP JUMPDEST PUSH2 0x3B74 PUSH8 0x7A4D6F235453CA2E PUSH1 0xC0 SHL PUSH2 0x301C JUMP JUMPDEST PUSH2 0x3B88 PUSH8 0x325372DEF83D6B78 PUSH1 0xC0 SHL PUSH2 0x301C JUMP JUMPDEST PUSH1 0x0 PUSH1 0x7 DUP1 SLOAD SWAP1 POP SWAP1 POP PUSH2 0x3BA6 PUSH8 0x92EE52A2797320AA PUSH1 0xC0 SHL PUSH2 0x301C JUMP JUMPDEST PUSH2 0x3BBA PUSH8 0x4DA1483A63426CD0 PUSH1 0xC0 SHL PUSH2 0x301C JUMP JUMPDEST PUSH2 0x3BCE PUSH8 0x4DA648B79E11645B PUSH1 0xC0 SHL PUSH2 0x301C JUMP JUMPDEST PUSH1 0x0 JUMPDEST DUP2 DUP2 LT ISZERO PUSH2 0x3C15 JUMPI PUSH2 0x3BED PUSH8 0x8D94706B419E1247 PUSH1 0xC0 SHL PUSH2 0x301C JUMP JUMPDEST PUSH2 0x3C01 PUSH8 0xA1DE4331187DD2E PUSH1 0xC0 SHL PUSH2 0x301C JUMP JUMPDEST PUSH2 0x3C0A DUP2 PUSH2 0x301F JUMP JUMPDEST DUP1 PUSH1 0x1 ADD SWAP1 POP PUSH2 0x3BD1 JUMP JUMPDEST POP POP JUMP JUMPDEST PUSH1 0x0 PUSH1 0x1 SWAP1 POP SWAP2 SWAP1 POP JUMP JUMPDEST PUSH1 0x0 SWAP2 SWAP1 POP JUMP JUMPDEST PUSH1 0x1 DUP1 DUP2 SWAP1 SSTORE POP JUMP JUMPDEST PUSH2 0x3CB5 DUP4 PUSH4 0xA9059CBB PUSH1 0xE0 SHL DUP5 DUP5 PUSH1 0x40 MLOAD PUSH1 0x24 ADD PUSH2 0x3C53 SWAP3 SWAP2 SWAP1 PUSH2 0x4B21 JUMP JUMPDEST PUSH1 0x40 MLOAD PUSH1 0x20 DUP2 DUP4 SUB SUB DUP2 MSTORE SWAP1 PUSH1 0x40 MSTORE SWAP1 PUSH28 0xFFFFFFFFFFFFFFFFFFFFFFFFFFFFFFFFFFFFFFFFFFFFFFFFFFFFFFFF NOT AND PUSH1 0x20 DUP3 ADD DUP1 MLOAD PUSH28 0xFFFFFFFFFFFFFFFFFFFFFFFFFFFFFFFFFFFFFFFFFFFFFFFFFFFFFFFF DUP4 DUP2 DUP4 AND OR DUP4 MSTORE POP POP POP POP PUSH2 0x3FB2 JUMP JUMPDEST POP POP POP JUMP JUMPDEST PUSH1 0x0 DUP1 PUSH1 0x0 SWAP1 SLOAD SWAP1 PUSH2 0x100 EXP SWAP1 DIV PUSH20 0xFFFFFFFFFFFFFFFFFFFFFFFFFFFFFFFFFFFFFFFF AND SWAP1 POP DUP2 PUSH1 0x0 DUP1 PUSH2 0x100 EXP DUP2 SLOAD DUP2 PUSH20 0xFFFFFFFFFFFFFFFFFFFFFFFFFFFFFFFFFFFFFFFF MUL NOT AND SWAP1 DUP4 PUSH20 0xFFFFFFFFFFFFFFFFFFFFFFFFFFFFFFFFFFFFFFFF AND MUL OR SWAP1 SSTORE POP DUP2 PUSH20 0xFFFFFFFFFFFFFFFFFFFFFFFFFFFFFFFFFFFFFFFF AND DUP2 PUSH20 0xFFFFFFFFFFFFFFFFFFFFFFFFFFFFFFFFFFFFFFFF AND PUSH32 0x8BE0079C531659141344CD1FD0A4F28419497F9722A3DAAFE3B4186F6B6457E0 PUSH1 0x40 MLOAD PUSH1 0x40 MLOAD DUP1 SWAP2 SUB SWAP1 LOG3 POP POP JUMP JUMPDEST PUSH2 0x3D92 PUSH8 0x801CC212B0AFDD2B PUSH1 0xC0 SHL PUSH2 0x301C JUMP JUMPDEST PUSH2 0x3DA6 PUSH8 0xE208042DD98A8C64 PUSH1 0xC0 SHL PUSH2 0x301C JUMP JUMPDEST PUSH2 0x3DBA PUSH8 0xFFD4E2F1232D02F3 PUSH1 0xC0 SHL PUSH2 0x301C JUMP JUMPDEST PUSH1 0x0 DUP5 PUSH20 0xFFFFFFFFFFFFFFFFFFFFFFFFFFFFFFFFFFFFFFFF AND PUSH4 0x70A08231 DUP5 PUSH1 0x40 MLOAD DUP3 PUSH4 0xFFFFFFFF AND PUSH1 0xE0 SHL DUP2 MSTORE PUSH1 0x4 ADD PUSH2 0x3DF5 SWAP2 SWAP1 PUSH2 0x46C7 JUMP JUMPDEST PUSH1 0x20 PUSH1 0x40 MLOAD DUP1 DUP4 SUB DUP2 DUP7 GAS STATICCALL ISZERO DUP1 ISZERO PUSH2 0x3E12 JUMPI RETURNDATASIZE PUSH1 0x0 DUP1 RETURNDATACOPY RETURNDATASIZE PUSH1 0x0 REVERT JUMPDEST POP POP POP POP PUSH1 0x40 MLOAD RETURNDATASIZE PUSH1 0x1F NOT PUSH1 0x1F DUP3 ADD AND DUP3 ADD DUP1 PUSH1 0x40 MSTORE POP DUP2 ADD SWAP1 PUSH2 0x3E36 SWAP2 SWAP1 PUSH2 0x490D JUMP JUMPDEST SWAP1 POP PUSH2 0x3E4C PUSH8 0xDB89A357421BB5F1 PUSH1 0xC0 SHL PUSH2 0x301C JUMP JUMPDEST PUSH2 0x3E60 PUSH8 0x14336FED8A5EABD3 PUSH1 0xC0 SHL PUSH2 0x301C JUMP JUMPDEST PUSH2 0x3E8D DUP5 DUP5 DUP5 DUP9 PUSH20 0xFFFFFFFFFFFFFFFFFFFFFFFFFFFFFFFFFFFFFFFF AND PUSH2 0x4079 SWAP1 SWAP4 SWAP3 SWAP2 SWAP1 PUSH4 0xFFFFFFFF AND JUMP JUMPDEST PUSH2 0x3EA1 PUSH8 0x4A3614C6234C717F PUSH1 0xC0 SHL PUSH2 0x301C JUMP JUMPDEST PUSH2 0x3EB5 PUSH8 0x961B47DB115783B8 PUSH1 0xC0 SHL PUSH2 0x301C JUMP JUMPDEST PUSH2 0x3EC9 PUSH8 0x85E1C06CEB3991D6 PUSH1 0xC0 SHL PUSH2 0x301C JUMP JUMPDEST DUP2 DUP2 DUP7 PUSH20 0xFFFFFFFFFFFFFFFFFFFFFFFFFFFFFFFFFFFFFFFF AND PUSH4 0x70A08231 DUP7 PUSH1 0x40 MLOAD DUP3 PUSH4 0xFFFFFFFF AND PUSH1 0xE0 SHL DUP2 MSTORE PUSH1 0x4 ADD PUSH2 0x3F04 SWAP2 SWAP1 PUSH2 0x46C7 JUMP JUMPDEST PUSH1 0x20 PUSH1 0x40 MLOAD DUP1 DUP4 SUB DUP2 DUP7 GAS STATICCALL ISZERO DUP1 ISZERO PUSH2 0x3F21 JUMPI RETURNDATASIZE PUSH1 0x0 DUP1 RETURNDATACOPY RETURNDATASIZE PUSH1 0x0 REVERT JUMPDEST POP POP POP POP PUSH1 0x40 MLOAD RETURNDATASIZE PUSH1 0x1F NOT PUSH1 0x1F DUP3 ADD AND DUP3 ADD DUP1 PUSH1 0x40 MSTORE POP DUP2 ADD SWAP1 PUSH2 0x3F45 SWAP2 SWAP1 PUSH2 0x490D JUMP JUMPDEST PUSH2 0x3F4F SWAP2 SWAP1 PUSH2 0x4890 JUMP JUMPDEST EQ PUSH2 0x3F8F JUMPI PUSH1 0x40 MLOAD PUSH32 0x8C379A000000000000000000000000000000000000000000000000000000000 DUP2 MSTORE PUSH1 0x4 ADD PUSH2 0x3F86 SWAP1 PUSH2 0x4B96 JUMP JUMPDEST PUSH1 0x40 MLOAD DUP1 SWAP2 SUB SWAP1 REVERT JUMPDEST PUSH2 0x3FA3 PUSH8 0x596B1C0F8CF8229 PUSH1 0xC0 SHL PUSH2 0x301C JUMP JUMPDEST POP POP POP POP POP JUMP JUMPDEST PUSH1 0x0 CALLER SWAP1 POP SWAP1 JUMP JUMPDEST PUSH1 0x0 PUSH2 0x4014 DUP3 PUSH1 0x40 MLOAD DUP1 PUSH1 0x40 ADD PUSH1 0x40 MSTORE DUP1 PUSH1 0x20 DUP2 MSTORE PUSH1 0x20 ADD PUSH32 0x5361666545524332303A206C6F772D6C6576656C2063616C6C206661696C6564 DUP2 MSTORE POP DUP6 PUSH20 0xFFFFFFFFFFFFFFFFFFFFFFFFFFFFFFFFFFFFFFFF AND PUSH2 0x4102 SWAP1 SWAP3 SWAP2 SWAP1 PUSH4 0xFFFFFFFF AND JUMP JUMPDEST SWAP1 POP PUSH1 0x0 DUP2 MLOAD GT ISZERO PUSH2 0x4074 JUMPI DUP1 DUP1 PUSH1 0x20 ADD SWAP1 MLOAD DUP2 ADD SWAP1 PUSH2 0x4034 SWAP2 SWAP1 PUSH2 0x4BCB JUMP JUMPDEST PUSH2 0x4073 JUMPI PUSH1 0x40 MLOAD PUSH32 0x8C379A000000000000000000000000000000000000000000000000000000000 DUP2 MSTORE PUSH1 0x4 ADD PUSH2 0x406A SWAP1 PUSH2 0x4C6A JUMP JUMPDEST PUSH1 0x40 MLOAD DUP1 SWAP2 SUB SWAP1 REVERT JUMPDEST JUMPDEST POP POP POP JUMP JUMPDEST PUSH2 0x40FC DUP5 PUSH4 0x23B872DD PUSH1 0xE0 SHL DUP6 DUP6 DUP6 PUSH1 0x40 MLOAD PUSH1 0x24 ADD PUSH2 0x409A SWAP4 SWAP3 SWAP2 SWAP1 PUSH2 0x4C8A JUMP JUMPDEST PUSH1 0x40 MLOAD PUSH1 0x20 DUP2 DUP4 SUB SUB DUP2 MSTORE SWAP1 PUSH1 0x40 MSTORE SWAP1 PUSH28 0xFFFFFFFFFFFFFFFFFFFFFFFFFFFFFFFFFFFFFFFFFFFFFFFFFFFFFFFF NOT AND PUSH1 0x20 DUP3 ADD DUP1 MLOAD PUSH28 0xFFFFFFFFFFFFFFFFFFFFFFFFFFFFFFFFFFFFFFFFFFFFFFFFFFFFFFFF DUP4 DUP2 DUP4 AND OR DUP4 MSTORE POP POP POP POP PUSH2 0x3FB2 JUMP JUMPDEST POP POP POP POP JUMP JUMPDEST PUSH1 0x60 PUSH2 0x4111 DUP5 DUP5 PUSH1 0x0 DUP6 PUSH2 0x411A JUMP JUMPDEST SWAP1 POP SWAP4 SWAP3 POP POP POP JUMP JUMPDEST PUSH1 0x60 DUP3 SELFBALANCE LT ISZERO PUSH2 0x415F JUMPI PUSH1 0x40 MLOAD PUSH32 0x8C379A000000000000000000000000000000000000000000000000000000000 DUP2 MSTORE PUSH1 0x4 ADD PUSH2 0x4156 SWAP1 PUSH2 0x4D33 JUMP JUMPDEST PUSH1 0x40 MLOAD DUP1 SWAP2 SUB SWAP1 REVERT JUMPDEST PUSH1 0x0 DUP1 DUP7 PUSH20 0xFFFFFFFFFFFFFFFFFFFFFFFFFFFFFFFFFFFFFFFF AND DUP6 DUP8 PUSH1 0x40 MLOAD PUSH2 0x4188 SWAP2 SWAP1 PUSH2 0x4DC4 JUMP JUMPDEST PUSH1 0x0 PUSH1 0x40 MLOAD DUP1 DUP4 SUB DUP2 DUP6 DUP8 GAS CALL SWAP3 POP POP POP RETURNDATASIZE DUP1 PUSH1 0x0 DUP2 EQ PUSH2 0x41C5 JUMPI PUSH1 0x40 MLOAD SWAP2 POP PUSH1 0x1F NOT PUSH1 0x3F RETURNDATASIZE ADD AND DUP3 ADD PUSH1 0x40 MSTORE RETURNDATASIZE DUP3 MSTORE RETURNDATASIZE PUSH1 0x0 PUSH1 0x20 DUP5 ADD RETURNDATACOPY PUSH2 0x41CA JUMP JUMPDEST PUSH1 0x60 SWAP2 POP JUMPDEST POP SWAP2 POP SWAP2 POP PUSH2 0x41DB DUP8 DUP4 DUP4 DUP8 PUSH2 0x41E7 JUMP JUMPDEST SWAP3 POP POP POP SWAP5 SWAP4 POP POP POP POP JUMP JUMPDEST PUSH1 0x60 DUP4 ISZERO PUSH2 0x4249 JUMPI PUSH1 0x0 DUP4 MLOAD SUB PUSH2 0x4241 JUMPI PUSH2 0x4201 DUP6 PUSH2 0x425C JUMP JUMPDEST PUSH2 0x4240 JUMPI PUSH1 0x40 MLOAD PUSH32 0x8C379A000000000000000000000000000000000000000000000000000000000 DUP2 MSTORE PUSH1 0x4 ADD PUSH2 0x4237 SWAP1 PUSH2 0x4E27 JUMP JUMPDEST PUSH1 0x40 MLOAD DUP1 SWAP2 SUB SWAP1 REVERT JUMPDEST JUMPDEST DUP3 SWAP1 POP PUSH2 0x4254 JUMP JUMPDEST PUSH2 0x4253 DUP4 DUP4 PUSH2 0x427F JUMP JUMPDEST JUMPDEST SWAP5 SWAP4 POP POP POP POP JUMP JUMPDEST PUSH1 0x0 DUP1 DUP3 PUSH20 0xFFFFFFFFFFFFFFFFFFFFFFFFFFFFFFFFFFFFFFFF AND EXTCODESIZE GT SWAP1 POP SWAP2 SWAP1 POP JUMP JUMPDEST PUSH1 0x0 DUP3 MLOAD GT ISZERO PUSH2 0x4292 JUMPI DUP2 MLOAD DUP1 DUP4 PUSH1 0x20 ADD REVERT JUMPDEST DUP1 PUSH1 0x40 MLOAD PUSH32 0x8C379A000000000000000000000000000000000000000000000000000000000 DUP2 MSTORE PUSH1 0x4 ADD PUSH2 0x42C6 SWAP2 SWAP1 PUSH2 0x4E9C JUMP JUMPDEST PUSH1 0x40 MLOAD DUP1 SWAP2 SUB SWAP1 REVERT JUMPDEST PUSH1 0x0 DUP1 REVERT JUMPDEST PUSH1 0x0 PUSH20 0xFFFFFFFFFFFFFFFFFFFFFFFFFFFFFFFFFFFFFFFF DUP3 AND SWAP1 POP SWAP2 SWAP1 POP JUMP JUMPDEST PUSH1 0x0 PUSH2 0x42FF DUP3 PUSH2 0x42D4 JUMP JUMPDEST SWAP1 POP SWAP2 SWAP1 POP JUMP JUMPDEST PUSH2 0x430F DUP2 PUSH2 0x42F4 JUMP JUMPDEST DUP2 EQ PUSH2 0x431A JUMPI PUSH1 0x0 DUP1 REVERT JUMPDEST POP JUMP JUMPDEST PUSH1 0x0 DUP2 CALLDATALOAD SWAP1 POP PUSH2 0x432C DUP2 PUSH2 0x4306 JUMP JUMPDEST SWAP3 SWAP2 POP POP JUMP JUMPDEST PUSH1 0x0 PUSH1 0x20 DUP3 DUP5 SUB SLT ISZERO PUSH2 0x4348 JUMPI PUSH2 0x4347 PUSH2 0x42CF JUMP JUMPDEST JUMPDEST PUSH1 0x0 PUSH2 0x4356 DUP5 DUP3 DUP6 ADD PUSH2 0x431D JUMP JUMPDEST SWAP2 POP POP SWAP3 SWAP2 POP POP JUMP JUMPDEST PUSH1 0x0 DUP1 PUSH1 0x40 DUP4 DUP6 SUB SLT ISZERO PUSH2 0x4376 JUMPI PUSH2 0x4375 PUSH2 0x42CF JUMP JUMPDEST JUMPDEST PUSH1 0x0 PUSH2 0x4384 DUP6 DUP3 DUP7 ADD PUSH2 0x431D JUMP JUMPDEST SWAP3 POP POP PUSH1 0x20 PUSH2 0x4395 DUP6 DUP3 DUP7 ADD PUSH2 0x431D JUMP JUMPDEST SWAP2 POP POP SWAP3 POP SWAP3 SWAP1 POP JUMP JUMPDEST PUSH1 0x0 DUP2 SWAP1 POP SWAP2 SWAP1 POP JUMP JUMPDEST PUSH2 0x43B2 DUP2 PUSH2 0x439F JUMP JUMPDEST DUP3 MSTORE POP POP JUMP JUMPDEST PUSH1 0x0 PUSH1 0x20 DUP3 ADD SWAP1 POP PUSH2 0x43CD PUSH1 0x0 DUP4 ADD DUP5 PUSH2 0x43A9 JUMP JUMPDEST SWAP3 SWAP2 POP POP JUMP JUMPDEST PUSH2 0x43DC DUP2 PUSH2 0x439F JUMP JUMPDEST DUP2 EQ PUSH2 0x43E7 JUMPI PUSH1 0x0 DUP1 REVERT JUMPDEST POP JUMP JUMPDEST PUSH1 0x0 DUP2 CALLDATALOAD SWAP1 POP PUSH2 0x43F9 DUP2 PUSH2 0x43D3 JUMP JUMPDEST SWAP3 SWAP2 POP POP JUMP JUMPDEST PUSH1 0x0 PUSH1 0x20 DUP3 DUP5 SUB SLT ISZERO PUSH2 0x4415 JUMPI PUSH2 0x4414 PUSH2 0x42CF JUMP JUMPDEST JUMPDEST PUSH1 0x0 PUSH2 0x4423 DUP5 DUP3 DUP6 ADD PUSH2 0x43EA JUMP JUMPDEST SWAP2 POP POP SWAP3 SWAP2 POP POP JUMP JUMPDEST PUSH1 0x0 DUP2 SWAP1 POP SWAP2 SWAP1 POP JUMP JUMPDEST PUSH1 0x0 PUSH2 0x4451 PUSH2 0x444C PUSH2 0x4447 DUP5 PUSH2 0x42D4 JUMP JUMPDEST PUSH2 0x442C JUMP JUMPDEST PUSH2 0x42D4 JUMP JUMPDEST SWAP1 POP SWAP2 SWAP1 POP JUMP JUMPDEST PUSH1 0x0 PUSH2 0x4463 DUP3 PUSH2 0x4436 JUMP JUMPDEST SWAP1 POP SWAP2 SWAP1 POP JUMP JUMPDEST PUSH1 0x0 PUSH2 0x4475 DUP3 PUSH2 0x4458 JUMP JUMPDEST SWAP1 POP SWAP2 SWAP1 POP JUMP JUMPDEST PUSH2 0x4485 DUP2 PUSH2 0x446A JUMP JUMPDEST DUP3 MSTORE POP POP JUMP JUMPDEST PUSH1 0x0 PUSH1 0x80 DUP3 ADD SWAP1 POP PUSH2 0x44A0 PUSH1 0x0 DUP4 ADD DUP8 PUSH2 0x447C JUMP JUMPDEST PUSH2 0x44AD PUSH1 0x20 DUP4 ADD DUP7 PUSH2 0x43A9 JUMP JUMPDEST PUSH2 0x44BA PUSH1 0x40 DUP4 ADD DUP6 PUSH2 0x43A9 JUMP JUMPDEST PUSH2 0x44C7 PUSH1 0x60 DUP4 ADD DUP5 PUSH2 0x43A9 JUMP JUMPDEST SWAP6 SWAP5 POP POP POP POP POP JUMP JUMPDEST PUSH1 0x0 DUP2 ISZERO ISZERO SWAP1 POP SWAP2 SWAP1 POP JUMP JUMPDEST PUSH2 0x44E5 DUP2 PUSH2 0x44D0 JUMP JUMPDEST DUP2 EQ PUSH2 0x44F0 JUMPI PUSH1 0x0 DUP1 REVERT JUMPDEST POP JUMP JUMPDEST PUSH1 0x0 DUP2 CALLDATALOAD SWAP1 POP PUSH2 0x4502 DUP2 PUSH2 0x44DC JUMP JUMPDEST SWAP3 SWAP2 POP POP JUMP JUMPDEST PUSH1 0x0 DUP1 PUSH1 0x0 PUSH1 0x60 DUP5 DUP7 SUB SLT ISZERO PUSH2 0x4521 JUMPI PUSH2 0x4520 PUSH2 0x42CF JUMP JUMPDEST JUMPDEST PUSH1 0x0 PUSH2 0x452F DUP7 DUP3 DUP8 ADD PUSH2 0x43EA JUMP JUMPDEST SWAP4 POP POP PUSH1 0x20 PUSH2 0x4540 DUP7 DUP3 DUP8 ADD PUSH2 0x431D JUMP JUMPDEST SWAP3 POP POP PUSH1 0x40 PUSH2 0x4551 DUP7 DUP3 DUP8 ADD PUSH2 0x44F3 JUMP JUMPDEST SWAP2 POP POP SWAP3 POP SWAP3 POP SWAP3 JUMP JUMPDEST PUSH1 0x0 PUSH1 0x60 DUP3 ADD SWAP1 POP PUSH2 0x4570 PUSH1 0x0 DUP4 ADD DUP7 PUSH2 0x43A9 JUMP JUMPDEST PUSH2 0x457D PUSH1 0x20 DUP4 ADD DUP6 PUSH2 0x43A9 JUMP JUMPDEST PUSH2 0x458A PUSH1 0x40 DUP4 ADD DUP5 PUSH2 0x43A9 JUMP JUMPDEST SWAP5 SWAP4 POP POP POP POP JUMP JUMPDEST PUSH1 0x0 DUP1 PUSH1 0x40 DUP4 DUP6 SUB SLT ISZERO PUSH2 0x45A9 JUMPI PUSH2 0x45A8 PUSH2 0x42CF JUMP JUMPDEST JUMPDEST PUSH1 0x0 PUSH2 0x45B7 DUP6 DUP3 DUP7 ADD PUSH2 0x431D JUMP JUMPDEST SWAP3 POP POP PUSH1 0x20 PUSH2 0x45C8 DUP6 DUP3 DUP7 ADD PUSH2 0x43EA JUMP JUMPDEST SWAP2 POP POP SWAP3 POP SWAP3 SWAP1 POP JUMP JUMPDEST PUSH1 0x0 DUP1 PUSH1 0x0 PUSH1 0x60 DUP5 DUP7 SUB SLT ISZERO PUSH2 0x45EB JUMPI PUSH2 0x45EA PUSH2 0x42CF JUMP JUMPDEST JUMPDEST PUSH1 0x0 PUSH2 0x45F9 DUP7 DUP3 DUP8 ADD PUSH2 0x43EA JUMP JUMPDEST SWAP4 POP POP PUSH1 0x20 PUSH2 0x460A DUP7 DUP3 DUP8 ADD PUSH2 0x43EA JUMP JUMPDEST SWAP3 POP POP PUSH1 0x40 PUSH2 0x461B DUP7 DUP3 DUP8 ADD PUSH2 0x44F3 JUMP JUMPDEST SWAP2 POP POP SWAP3 POP SWAP3 POP SWAP3 JUMP JUMPDEST PUSH1 0x0 DUP1 PUSH1 0x40 DUP4 DUP6 SUB SLT ISZERO PUSH2 0x463C JUMPI PUSH2 0x463B PUSH2 0x42CF JUMP JUMPDEST JUMPDEST PUSH1 0x0 PUSH2 0x464A DUP6 DUP3 DUP7 ADD PUSH2 0x43EA JUMP JUMPDEST SWAP3 POP POP PUSH1 0x20 PUSH2 0x465B DUP6 DUP3 DUP7 ADD PUSH2 0x44F3 JUMP JUMPDEST SWAP2 POP POP SWAP3 POP SWAP3 SWAP1 POP JUMP JUMPDEST PUSH1 0x0 PUSH1 0xA0 DUP3 ADD SWAP1 POP PUSH2 0x467A PUSH1 0x0 DUP4 ADD DUP9 PUSH2 0x43A9 JUMP JUMPDEST PUSH2 0x4687 PUSH1 0x20 DUP4 ADD DUP8 PUSH2 0x43A9 JUMP JUMPDEST PUSH2 0x4694 PUSH1 0x40 DUP4 ADD DUP7 PUSH2 0x43A9 JUMP JUMPDEST PUSH2 0x46A1 PUSH1 0x60 DUP4 ADD DUP6 PUSH2 0x43A9 JUMP JUMPDEST PUSH2 0x46AE PUSH1 0x80 DUP4 ADD DUP5 PUSH2 0x43A9 JUMP JUMPDEST SWAP7 SWAP6 POP POP POP POP POP POP JUMP JUMPDEST PUSH2 0x46C1 DUP2 PUSH2 0x42F4 JUMP JUMPDEST DUP3 MSTORE POP POP JUMP JUMPDEST PUSH1 0x0 PUSH1 0x20 DUP3 ADD SWAP1 POP PUSH2 0x46DC PUSH1 0x0 DUP4 ADD DUP5 PUSH2 0x46B8 JUMP JUMPDEST SWAP3 SWAP2 POP POP JUMP JUMPDEST PUSH1 0x0 DUP1 PUSH1 0x40 DUP4 DUP6 SUB SLT ISZERO PUSH2 0x46F9 JUMPI PUSH2 0x46F8 PUSH2 0x42CF JUMP JUMPDEST JUMPDEST PUSH1 0x0 PUSH2 0x4707 DUP6 DUP3 DUP7 ADD PUSH2 0x43EA JUMP JUMPDEST SWAP3 POP POP PUSH1 0x20 PUSH2 0x4718 DUP6 DUP3 DUP7 ADD PUSH2 0x431D JUMP JUMPDEST SWAP2 POP POP SWAP3 POP SWAP3 SWAP1 POP JUMP JUMPDEST PUSH1 0x0 DUP1 PUSH1 0x0 PUSH1 0x60 DUP5 DUP7 SUB SLT ISZERO PUSH2 0x473B JUMPI PUSH2 0x473A PUSH2 0x42CF JUMP JUMPDEST JUMPDEST PUSH1 0x0 PUSH2 0x4749 DUP7 DUP3 DUP8 ADD PUSH2 0x431D JUMP JUMPDEST SWAP4 POP POP PUSH1 0x20 PUSH2 0x475A DUP7 DUP3 DUP8 ADD PUSH2 0x43EA JUMP JUMPDEST SWAP3 POP POP PUSH1 0x40 PUSH2 0x476B DUP7 DUP3 DUP8 ADD PUSH2 0x431D JUMP JUMPDEST SWAP2 POP POP SWAP3 POP SWAP3 POP SWAP3 JUMP JUMPDEST PUSH1 0x0 PUSH1 0x20 DUP3 ADD SWAP1 POP PUSH2 0x478A PUSH1 0x0 DUP4 ADD DUP5 PUSH2 0x447C JUMP JUMPDEST SWAP3 SWAP2 POP POP JUMP JUMPDEST PUSH32 0x4E487B7100000000000000000000000000000000000000000000000000000000 PUSH1 0x0 MSTORE PUSH1 0x32 PUSH1 0x4 MSTORE PUSH1 0x24 PUSH1 0x0 REVERT JUMPDEST PUSH32 0x4E487B7100000000000000000000000000000000000000000000000000000000 PUSH1 0x0 MSTORE PUSH1 0x11 PUSH1 0x4 MSTORE PUSH1 0x24 PUSH1 0x0 REVERT JUMPDEST PUSH1 0x0 PUSH2 0x47F9 DUP3 PUSH2 0x439F JUMP JUMPDEST SWAP2 POP PUSH2 0x4804 DUP4 PUSH2 0x439F JUMP JUMPDEST SWAP3 POP DUP3 DUP3 MUL PUSH2 0x4812 DUP2 PUSH2 0x439F JUMP JUMPDEST SWAP2 POP DUP3 DUP3 DIV DUP5 EQ DUP4 ISZERO OR PUSH2 0x4829 JUMPI PUSH2 0x4828 PUSH2 0x47BF JUMP JUMPDEST JUMPDEST POP SWAP3 SWAP2 POP POP JUMP JUMPDEST PUSH32 0x4E487B7100000000000000000000000000000000000000000000000000000000 PUSH1 0x0 MSTORE PUSH1 0x12 PUSH1 0x4 MSTORE PUSH1 0x24 PUSH1 0x0 REVERT JUMPDEST PUSH1 0x0 PUSH2 0x486A DUP3 PUSH2 0x439F JUMP JUMPDEST SWAP2 POP PUSH2 0x4875 DUP4 PUSH2 0x439F JUMP JUMPDEST SWAP3 POP DUP3 PUSH2 0x4885 JUMPI PUSH2 0x4884 PUSH2 0x4830 JUMP JUMPDEST JUMPDEST DUP3 DUP3 DIV SWAP1 POP SWAP3 SWAP2 POP POP JUMP JUMPDEST PUSH1 0x0 PUSH2 0x489B DUP3 PUSH2 0x439F JUMP JUMPDEST SWAP2 POP PUSH2 0x48A6 DUP4 PUSH2 0x439F JUMP JUMPDEST SWAP3 POP DUP3 DUP3 SUB SWAP1 POP DUP2 DUP2 GT ISZERO PUSH2 0x48BE JUMPI PUSH2 0x48BD PUSH2 0x47BF JUMP JUMPDEST JUMPDEST SWAP3 SWAP2 POP POP JUMP JUMPDEST PUSH1 0x0 PUSH2 0x48CF DUP3 PUSH2 0x439F JUMP JUMPDEST SWAP2 POP PUSH2 0x48DA DUP4 PUSH2 0x439F JUMP JUMPDEST SWAP3 POP DUP3 DUP3 ADD SWAP1 POP DUP1 DUP3 GT ISZERO PUSH2 0x48F2 JUMPI PUSH2 0x48F1 PUSH2 0x47BF JUMP JUMPDEST JUMPDEST SWAP3 SWAP2 POP POP JUMP JUMPDEST PUSH1 0x0 DUP2 MLOAD SWAP1 POP PUSH2 0x4907 DUP2 PUSH2 0x43D3 JUMP JUMPDEST SWAP3 SWAP2 POP POP JUMP JUMPDEST PUSH1 0x0 PUSH1 0x20 DUP3 DUP5 SUB SLT ISZERO PUSH2 0x4923 JUMPI PUSH2 0x4922 PUSH2 0x42CF JUMP JUMPDEST JUMPDEST PUSH1 0x0 PUSH2 0x4931 DUP5 DUP3 DUP6 ADD PUSH2 0x48F8 JUMP JUMPDEST SWAP2 POP POP SWAP3 SWAP2 POP POP JUMP JUMPDEST PUSH1 0x0 DUP3 DUP3 MSTORE PUSH1 0x20 DUP3 ADD SWAP1 POP SWAP3 SWAP2 POP POP JUMP JUMPDEST PUSH32 0x4F776E61626C653A206E6577206F776E657220697320746865207A65726F2061 PUSH1 0x0 DUP3 ADD MSTORE PUSH32 0x6464726573730000000000000000000000000000000000000000000000000000 PUSH1 0x20 DUP3 ADD MSTORE POP JUMP JUMPDEST PUSH1 0x0 PUSH2 0x49A7 PUSH1 0x26 DUP4 PUSH2 0x493A JUMP JUMPDEST SWAP2 POP PUSH2 0x49B2 DUP3 PUSH2 0x494B JUMP JUMPDEST PUSH1 0x40 DUP3 ADD SWAP1 POP SWAP2 SWAP1 POP JUMP JUMPDEST PUSH1 0x0 PUSH1 0x20 DUP3 ADD SWAP1 POP DUP2 DUP2 SUB PUSH1 0x0 DUP4 ADD MSTORE PUSH2 0x49D6 DUP2 PUSH2 0x499A JUMP JUMPDEST SWAP1 POP SWAP2 SWAP1 POP JUMP JUMPDEST PUSH32 0x546F6F2062696720616D6F756E74000000000000000000000000000000000000 PUSH1 0x0 DUP3 ADD MSTORE POP JUMP JUMPDEST PUSH1 0x0 PUSH2 0x4A13 PUSH1 0xE DUP4 PUSH2 0x493A JUMP JUMPDEST SWAP2 POP PUSH2 0x4A1E DUP3 PUSH2 0x49DD JUMP JUMPDEST PUSH1 0x20 DUP3 ADD SWAP1 POP SWAP2 SWAP1 POP JUMP JUMPDEST PUSH1 0x0 PUSH1 0x20 DUP3 ADD SWAP1 POP DUP2 DUP2 SUB PUSH1 0x0 DUP4 ADD MSTORE PUSH2 0x4A42 DUP2 PUSH2 0x4A06 JUMP JUMPDEST SWAP1 POP SWAP2 SWAP1 POP JUMP JUMPDEST PUSH32 0x4F776E61626C653A2063616C6C6572206973206E6F7420746865206F776E6572 PUSH1 0x0 DUP3 ADD MSTORE POP JUMP JUMPDEST PUSH1 0x0 PUSH2 0x4A7F PUSH1 0x20 DUP4 PUSH2 0x493A JUMP JUMPDEST SWAP2 POP PUSH2 0x4A8A DUP3 PUSH2 0x4A49 JUMP JUMPDEST PUSH1 0x20 DUP3 ADD SWAP1 POP SWAP2 SWAP1 POP JUMP JUMPDEST PUSH1 0x0 PUSH1 0x20 DUP3 ADD SWAP1 POP DUP2 DUP2 SUB PUSH1 0x0 DUP4 ADD MSTORE PUSH2 0x4AAE DUP2 PUSH2 0x4A72 JUMP JUMPDEST SWAP1 POP SWAP2 SWAP1 POP JUMP JUMPDEST PUSH32 0x5265656E7472616E637947756172643A207265656E7472616E742063616C6C00 PUSH1 0x0 DUP3 ADD MSTORE POP JUMP JUMPDEST PUSH1 0x0 PUSH2 0x4AEB PUSH1 0x1F DUP4 PUSH2 0x493A JUMP JUMPDEST SWAP2 POP PUSH2 0x4AF6 DUP3 PUSH2 0x4AB5 JUMP JUMPDEST PUSH1 0x20 DUP3 ADD SWAP1 POP SWAP2 SWAP1 POP JUMP JUMPDEST PUSH1 0x0 PUSH1 0x20 DUP3 ADD SWAP1 POP DUP2 DUP2 SUB PUSH1 0x0 DUP4 ADD MSTORE PUSH2 0x4B1A DUP2 PUSH2 0x4ADE JUMP JUMPDEST SWAP1 POP SWAP2 SWAP1 POP JUMP JUMPDEST PUSH1 0x0 PUSH1 0x40 DUP3 ADD SWAP1 POP PUSH2 0x4B36 PUSH1 0x0 DUP4 ADD DUP6 PUSH2 0x46B8 JUMP JUMPDEST PUSH2 0x4B43 PUSH1 0x20 DUP4 ADD DUP5 PUSH2 0x43A9 JUMP JUMPDEST SWAP4 SWAP3 POP POP POP JUMP JUMPDEST PUSH32 0x7472616E7366657220616D6F756E74206D69736D617463680000000000000000 PUSH1 0x0 DUP3 ADD MSTORE POP JUMP JUMPDEST PUSH1 0x0 PUSH2 0x4B80 PUSH1 0x18 DUP4 PUSH2 0x493A JUMP JUMPDEST SWAP2 POP PUSH2 0x4B8B DUP3 PUSH2 0x4B4A JUMP JUMPDEST PUSH1 0x20 DUP3 ADD SWAP1 POP SWAP2 SWAP1 POP JUMP JUMPDEST PUSH1 0x0 PUSH1 0x20 DUP3 ADD SWAP1 POP DUP2 DUP2 SUB PUSH1 0x0 DUP4 ADD MSTORE PUSH2 0x4BAF DUP2 PUSH2 0x4B73 JUMP JUMPDEST SWAP1 POP SWAP2 SWAP1 POP JUMP JUMPDEST PUSH1 0x0 DUP2 MLOAD SWAP1 POP PUSH2 0x4BC5 DUP2 PUSH2 0x44DC JUMP JUMPDEST SWAP3 SWAP2 POP POP JUMP JUMPDEST PUSH1 0x0 PUSH1 0x20 DUP3 DUP5 SUB SLT ISZERO PUSH2 0x4BE1 JUMPI PUSH2 0x4BE0 PUSH2 0x42CF JUMP JUMPDEST JUMPDEST PUSH1 0x0 PUSH2 0x4BEF DUP5 DUP3 DUP6 ADD PUSH2 0x4BB6 JUMP JUMPDEST SWAP2 POP POP SWAP3 SWAP2 POP POP JUMP JUMPDEST PUSH32 0x5361666545524332303A204552433230206F7065726174696F6E20646964206E PUSH1 0x0 DUP3 ADD MSTORE PUSH32 0x6F74207375636365656400000000000000000000000000000000000000000000 PUSH1 0x20 DUP3 ADD MSTORE POP JUMP JUMPDEST PUSH1 0x0 PUSH2 0x4C54 PUSH1 0x2A DUP4 PUSH2 0x493A JUMP JUMPDEST SWAP2 POP PUSH2 0x4C5F DUP3 PUSH2 0x4BF8 JUMP JUMPDEST PUSH1 0x40 DUP3 ADD SWAP1 POP SWAP2 SWAP1 POP JUMP JUMPDEST PUSH1 0x0 PUSH1 0x20 DUP3 ADD SWAP1 POP DUP2 DUP2 SUB PUSH1 0x0 DUP4 ADD MSTORE PUSH2 0x4C83 DUP2 PUSH2 0x4C47 JUMP JUMPDEST SWAP1 POP SWAP2 SWAP1 POP JUMP JUMPDEST PUSH1 0x0 PUSH1 0x60 DUP3 ADD SWAP1 POP PUSH2 0x4C9F PUSH1 0x0 DUP4 ADD DUP7 PUSH2 0x46B8 JUMP JUMPDEST PUSH2 0x4CAC PUSH1 0x20 DUP4 ADD DUP6 PUSH2 0x46B8 JUMP JUMPDEST PUSH2 0x4CB9 PUSH1 0x40 DUP4 ADD DUP5 PUSH2 0x43A9 JUMP JUMPDEST SWAP5 SWAP4 POP POP POP POP JUMP JUMPDEST PUSH32 0x416464726573733A20696E73756666696369656E742062616C616E636520666F PUSH1 0x0 DUP3 ADD MSTORE PUSH32 0x722063616C6C0000000000000000000000000000000000000000000000000000 PUSH1 0x20 DUP3 ADD MSTORE POP JUMP JUMPDEST PUSH1 0x0 PUSH2 0x4D1D PUSH1 0x26 DUP4 PUSH2 0x493A JUMP JUMPDEST SWAP2 POP PUSH2 0x4D28 DUP3 PUSH2 0x4CC1 JUMP JUMPDEST PUSH1 0x40 DUP3 ADD SWAP1 POP SWAP2 SWAP1 POP JUMP JUMPDEST PUSH1 0x0 PUSH1 0x20 DUP3 ADD SWAP1 POP DUP2 DUP2 SUB PUSH1 0x0 DUP4 ADD MSTORE PUSH2 0x4D4C DUP2 PUSH2 0x4D10 JUMP JUMPDEST SWAP1 POP SWAP2 SWAP1 POP JUMP JUMPDEST PUSH1 0x0 DUP2 MLOAD SWAP1 POP SWAP2 SWAP1 POP JUMP JUMPDEST PUSH1 0x0 DUP2 SWAP1 POP SWAP3 SWAP2 POP POP JUMP JUMPDEST PUSH1 0x0 JUMPDEST DUP4 DUP2 LT ISZERO PUSH2 0x4D87 JUMPI DUP1 DUP3 ADD MLOAD DUP2 DUP5 ADD MSTORE PUSH1 0x20 DUP2 ADD SWAP1 POP PUSH2 0x4D6C JUMP JUMPDEST PUSH1 0x0 DUP5 DUP5 ADD MSTORE POP POP POP POP JUMP JUMPDEST PUSH1 0x0 PUSH2 0x4D9E DUP3 PUSH2 0x4D53 JUMP JUMPDEST PUSH2 0x4DA8 DUP2 DUP6 PUSH2 0x4D5E JUMP JUMPDEST SWAP4 POP PUSH2 0x4DB8 DUP2 DUP6 PUSH1 0x20 DUP7 ADD PUSH2 0x4D69 JUMP JUMPDEST DUP1 DUP5 ADD SWAP2 POP POP SWAP3 SWAP2 POP POP JUMP JUMPDEST PUSH1 0x0 PUSH2 0x4DD0 DUP3 DUP5 PUSH2 0x4D93 JUMP JUMPDEST SWAP2 POP DUP2 SWAP1 POP SWAP3 SWAP2 POP POP JUMP JUMPDEST PUSH32 0x416464726573733A2063616C6C20746F206E6F6E2D636F6E7472616374000000 PUSH1 0x0 DUP3 ADD MSTORE POP JUMP JUMPDEST PUSH1 0x0 PUSH2 0x4E11 PUSH1 0x1D DUP4 PUSH2 0x493A JUMP JUMPDEST SWAP2 POP PUSH2 0x4E1C DUP3 PUSH2 0x4DDB JUMP JUMPDEST PUSH1 0x20 DUP3 ADD SWAP1 POP SWAP2 SWAP1 POP JUMP JUMPDEST PUSH1 0x0 PUSH1 0x20 DUP3 ADD SWAP1 POP DUP2 DUP2 SUB PUSH1 0x0 DUP4 ADD MSTORE PUSH2 0x4E40 DUP2 PUSH2 0x4E04 JUMP JUMPDEST SWAP1 POP SWAP2 SWAP1 POP JUMP JUMPDEST PUSH1 0x0 DUP2 MLOAD SWAP1 POP SWAP2 SWAP1 POP JUMP JUMPDEST PUSH1 0x0 PUSH1 0x1F NOT PUSH1 0x1F DUP4 ADD AND SWAP1 POP SWAP2 SWAP1 POP JUMP JUMPDEST PUSH1 0x0 PUSH2 0x4E6E DUP3 PUSH2 0x4E47 JUMP JUMPDEST PUSH2 0x4E78 DUP2 DUP6 PUSH2 0x493A JUMP JUMPDEST SWAP4 POP PUSH2 0x4E88 DUP2 DUP6 PUSH1 0x20 DUP7 ADD PUSH2 0x4D69 JUMP JUMPDEST PUSH2 0x4E91 DUP2 PUSH2 0x4E52 JUMP JUMPDEST DUP5 ADD SWAP2 POP POP SWAP3 SWAP2 POP POP JUMP JUMPDEST PUSH1 0x0 PUSH1 0x20 DUP3 ADD SWAP1 POP DUP2 DUP2 SUB PUSH1 0x0 DUP4 ADD MSTORE PUSH2 0x4EB6 DUP2 DUP5 PUSH2 0x4E63 JUMP JUMPDEST SWAP1 POP SWAP3 SWAP2 POP POP JUMP INVALID LOG2 PUSH5 0x6970667358 0x22 SLT KECCAK256 SIGNEXTEND DIV EQ 0xB9 0x2D 0xA7 PUSH23 0x1B5F69B81915BF42AD470FAB8A9A9D351D2CC174701BCB 0xB7 STATICCALL PUSH5 0x736F6C6343 STOP ADDMOD GT STOP CALLER "},"methodIdentifiers":{"add(uint256,address,bool)":"1eaaa045","deposit(address,uint256,address)":"f45346dc","depositWithoutRefer(address,uint256)":"4146cae9","earlyHarvestCommission()":"73b93421","earlyHarvestCommissionInterval()":"d6be9b67","emergencyWithdraw(address)":"6ff1c9bc","getNarfexLeft()":"da0bb03a","getPoolUserData(address,address)":"20fc0fc6","getPoolsCount()":"b4ac6860","getSettings()":"85b4bb53","getUserPoolSize(address,address)":"0e95ec24","getUserReward(address,address)":"5ab764ed","harvest(address)":"0e5c011e","harvestInterval()":"14dc0ce0","massUpdatePools()":"630b5ba1","owner()":"8da5cb5b","poolId(address)":"ff51a272","poolInfo(uint256)":"1526fe27","referralPercent()":"343dfb7e","renounceOwnership()":"715018a6","rewardPerBlock()":"8ae39cac","rewardToken()":"f7c618c1","set(uint256,uint256,bool)":"64482f79","setEarlyHarvestCommission(uint256)":"242952b6","setEarlyHarvestCommissionInterval(uint256)":"c3e2c56b","setHarvestInterval(uint256)":"38d7aae1","setReferralPercent(uint256)":"6129f25f","setRewardPerBlock(uint256,bool)":"81505c05","startBlock()":"48cd4cb1","totalAllocPoint()":"17caf6f1","transferOwnership(address)":"f2fde38b","updatePool(uint256)":"51eb05a6","userInfo(uint256,address)":"93f1a40b","withdraw(address,uint256)":"f3fef3a3","withdrawNarfex(uint256)":"f84b94e1"}}}}}